:100000000C942A000C9447000C9447000C94470071
:100010000C9447000C9447000C9447000C94470044
:100020000C9447000C9447000C945D120C9447000C
:100030000C9447000C9447000C9447000C94470024
:100040000C9447000C9447000C9447000C94470014
:100050000C94470011241FBECFE5D8E0DEBFCDBF12
:1000600015E0A0E6B0E0E0E2F7E302C005900D92F3
:10007000A032B107D9F727E0A0E2B5E001C01D9298
:10008000A93AB207E1F70E94FA0F0C948E1B0C9468
:100090000000EF92FF920F931F93CF93DF939C0189
:1000A000EB01E0E0F0E097FD1EC08B017B01E0E09A
:1000B000F0E0C9016AE070E00E948C18AF0131964F
:1000C000D7018D937D01C9019B010A9794F7DA014D
:1000D000AC0FBD1FCF0195958795AE01480F591FF5
:1000E0000417150741F4CF01DF91CF911F910F91B4
:1000F000FF90EF900895E80189918E019C919E01F7
:1001000021503109E90198838C931197E9CFAF927F
:10011000BF92CF92DF92EF92FF920F931F93CF93F4
:10012000DF9300D000D00F92CDB7DEB78C839D83D4
:100130008B014B83FC0101900020E9F73197E81B0C
:10014000F90B6E177F0748F06C01FC0180E090E02E
:100150008017910724F0009751F480E023C020819C
:10016000211102C0009705C031960196F1CF80178A
:10017000910799F3EC81FD81E00FF11F1082E12CD2
:10018000F12C5801A81AB90A8C819D8101978983A5
:100190009A83EA14FB04B4F080E090E08A159B0592
:1001A000E4F081E00F900F900F900F900F90DF918F
:1001B000CF911F910F91FF90EF90DF90CF90BF9064
:1001C000AF900895A80169817A818C819D810E94F8
:1001D000331B9FEFE91AF90ADCCFF6012B8121933B
:1001E0006F010196DBCF40E30C94870040E20C9452
:1001F000870090BD89B988E08AB988E18AB986E824
:1002000080BD08955D9BFECF8CB908955F9BFECFA6
:100210008CB108951F920F920FB60F9211242F9355
:100220003F934F935F936F937F938F939F93AF937E
:10023000BF93EF93FF930E943304FF91EF91BF911F
:10024000AF919F918F917F916F915F914F913F916E
:100250002F910F900FBE0F901F901895CF93DF93A3
:10026000EC018881811103C0DF91CF91089521961F
:100270000E940201F6CF0E942E018AE00C94020136
:10028000CF93DF93EC01FE018491811521F00E9450
:1002900002012196F8CFDF91CF9108950E9440018D
:1002A0008AE00C9402010895FC018181811103C050
:1002B0009081911591F081508183811531F481E015
:1002C0009081911559F080E008950CF0FCCF8BE3FC
:1002D0008183808181508083F6CF81E00895FC0185
:1002E000218190812B3321F49B3331F481E00895F7
:1002F0009B331CF0D9F72C33CCF72F5F21832B33A2
:1003000029F481E09B3341F080E008950CF4FCCFA8
:1003100011829F5F9083F8CF0895CF93DF9300D031
:1003200000D0CDB7DEB719821A821B821C82809161
:10033000220590912305892B39F544B125B180918F
:100340001F0790912007FC01EE0FFF1FEB5BFA4F98
:100350004083218301968C33910560F480931F07BD
:100360009093200780E00F900F900F900F90DF91F7
:10037000CF91089510921F071092200781E080937B
:10038000220510922305EECF9E012F5F3F4F4CE3D5
:1003900050E065E475E080E395E00E940902811574
:1003A00009F369817A818B819C810E94E0196B330A
:1003B000710548F480912A0590912B050196809350
:1003C0002A0590932B05809126059091270501968B
:1003D0008230910554F4809326059093270510925E
:1003E00022051092230581E0BECF109226051092BF
:1003F000270581E020912A0530912B052230310517
:100400000CF480E08093970610922A0510922B0539
:10041000E6CF8F929F92AF92BF92CF92DF92EF92F0
:10042000FF920F931F93CF93DF93CDB7DEB728973B
:100430000FB6F894DEBF0FBECDBF8F8398878A01B9
:100440002D833E83FC018081813008F047C01382F8
:100450001482158216821182128281E08083EF81DC
:10046000F885E180F280C701880F991F860F971FDA
:10047000FC016081718180E090E00E940F1AEF81A1
:10048000F88523813481458156810E94F6184B01FD
:100490005C01EF81F885638394828583B682FFEFE8
:1004A000EF1AFF0AEF81F885E016F10608F094C014
:1004B000E182F28280E028960FB6F894DEBF0FBE8C
:1004C000CDBFDF91CF911F910F91FF90EF90DF9003
:1004D000CF90BF90AF909F908F90089509F4BFCFB9
:1004E000823041F7EF81F885818092805401AA0C17
:1004F000BB1CA60EB71EF5016081718180E090E003
:100500000E940F1A69837A838B839C83EF81F8851D
:10051000C380D480E580F6809B01AC01B601C701A1
:100520000E94621987FF1FC0EF81F885878190853F
:100530000196878390879601A70169817A818B81D3
:100540009C810E94F5189B01AC01EF81F8856385C1
:100550007485858596850E94F618EF81F8856387F6
:10056000748785879687F5016081718180E090E0CE
:100570000E940F1A9B01AC01B601C7010E94C11A6B
:100580001816FCF4EF81F8858185928501968187A4
:10059000928729813A814B815C81B601C7010E9413
:1005A000F5189B01AC01EF81F88567857089818919
:1005B00092890E94F618EF81F8856787708B818B8E
:1005C000928BFFEF8F1A9F0AEF81F88580169106B4
:1005D00030F5818292826ECF11821282B801110FA2
:1005E000880B982F0E94111A9B01AC01B401C50120
:1005F0000E946719EF81F8856383748385839683EE
:100600001782108611861286138614861586168622
:100610001786108A118A128A82E080834BCF11825A
:1006200012821082B801110F880B982F0E94111AA4
:100630004B015C01EF81F88527853089418952891A
:1006400063857485858596850E94F61869837A830B
:100650008B839C83EF81F885678170858185928586
:10066000681B790B872F880F880B982F0E94111A0F
:100670009B01AC0169817A818B819C810E94C61AA1
:1006800069837A838B839C839401A501B401C5019E
:100690000E94C61A9B01AC0169817A818B819C8181
:1006A0000E9467199601A7010E94F618ED81FE814C
:1006B000608371838283938381E0FDCE8091E40522
:1006C00080FD06C08091E3059091E205891B0895A5
:1006D0008091E40581FD06C09091E2058091E305DB
:1006E000805EF4CF9091E305F9CFE091E305F0E06F
:1006F000EE53FA4F80838091E40580FF0BC0909108
:10070000E3058091E205981305C08091E4058260BD
:100710008093E4058091E3058F5F8093E305803249
:1007200039F41092E3058091E40581608093E4053B
:100730000895E091E205F0E0EE53FA4F8081909148
:10074000E2059F5F9093E2059091E2059F7190937F
:10075000E2052091E2059091E30529130AC09091EA
:10076000E4059E7F9093E4059091E4059D7F90932E
:10077000E4050895CF92DF92EF92FF920F931F93BB
:10078000CF93DF93EC01162F611569F08091E4059A
:1007900080FD13C07E01E60EF11C0E94990389932F
:1007A000CE15DF05D1F7812FDF91CF911F910F91EA
:1007B000FF90EF90DF90CF9008958091E4058460E2
:1007C0008093E4058091E40581FF04C08091E305F6
:1007D0008093E205D090E20500E20D19CC2E7E0157
:1007E0000117A0F07E01E10EF11C0E94990389938C
:1007F000CE15DF05D1F78091E4058B7F8093E4056A
:10080000D2CF0E949903F70181937F018E2D8C191D
:100810008017B8F380EE8D0D180F100F011759F3E4
:100820007E01E00EF11C0E949903F70180830F5FA7
:10083000F5CF8091E40580FF0C9499038091E40545
:1008400084608093E4058091E40581FF04C0809179
:10085000E3058093E2050E9499039091E4059B7F54
:100860009093E4050895FF920F931F93CF93DF9326
:10087000FCB08091E405C091C10582FF11C081E008
:100880008C0F8093C105C370DC2FDD0FDD0BC354CB
:10089000DA4FF882DF91CF911F910F91FF90089569
:1008A0001C168CF40DEB15E0DC2FDD0FDD0BC354B3
:1008B000DA4FF80181918F010E9475030C171D0713
:1008C000C1F71092C1058F2DDF91CF911F910F912C
:1008D000FF900C9475038827B49983950895C49A62
:1008E000BC988BE694E08093E7059093E8058FE948
:1008F0009FE00197F1F700C00000E091E705F0915B
:10090000E80509959091E60580FB91F980FB92F945
:10091000892F88608093E60508950F931F93CF93E6
:10092000DF938091E60580FF30C08091E50591E07E
:10093000980F843039F09093E505DF91CF911F91A6
:100940000F9108951092E505E091E705F091E80513
:100950000995282F21709091E60592FB002700F958
:1009600010E0082E001C00088017010621F420FB6F
:1009700091F9986002C020FB92F99093E60580916E
:10098000E6058E7F8093E605D8CFE091E705F091EC
:10099000E80509959091E60592FBCC27C0F9D0E0D7
:1009A000082E001C00088C170D0639F280FB8827E2
:1009B00082F981609A7F892BE5CFDC019D96ED91CC
:1009C000FD912C9181E001C0880F2A95EAF7908172
:1009D000613019F4892B8083089580958923FBCF9A
:1009E000DC0190962D913D912D933D931996ED91BB
:1009F000FD914C9181E001C0880F4A95EAF7908102
:100A0000121613061CF4892B808308958095892380
:100A1000FBCFEF92FF920F931F93CF93DF9300D002
:100A200000D000D0CDB7DEB78D839E83FC01E2807D
:100A3000F380E60EF71EE282F382808591858E15A3
:100A40009F0524F4828393837C0107C0ED81FE819E
:100A500082859385E816F906ACF3ED81FE818481E9
:100A600095818B01081B190B06831783648375839B
:100A7000872F880F880B982F0E94111AED81FE8115
:100A800022893389448955890E94C61A69837A83E9
:100A90008B839C83B701FF0C880B982F0E94111A3F
:100AA000ED81FE8126893789408D518D0E94C61ABD
:100AB0009B01AC0169817A818B819C810E94F6182F
:100AC00069837A838B839C83B801110F880B982FDD
:100AD0000E94111AED81FE81228D338D448D558D3A
:100AE0000E94C61A9B01AC0169817A818B819C812D
:100AF0000E94F6180E94D919CB010F900F900F9009
:100B00000F900F900F90DF91CF911F910F91FF9059
:100B1000EF900895CF93DF93EC010E940905488977
:100B20005989849F9001859F300D949F300D112429
:100B300028A339A38C859D85821793071CF488A36D
:100B400099A305C08E859F8528173907C4F3DF91C7
:100B5000CF910895FC01868D978D0196868F978F92
:100B600044A147FD10C022A133A1121613065CF464
:100B70004130F0F421A532A58217930720F0168E9C
:100B8000178E81E084A381A592A524853585820FE7
:100B9000931F23A534A5820F931F268D378D281709
:100BA0003907E0F0168E178E14A2CF010C94F004D2
:100BB00051F78217930738F38485958528173907ED
:100BC00014F7A5A5B6A52C9137A581E001C0880F23
:100BD0003A95EAF7809582238C93D5CF0895CF93E9
:100BE000DF93EC010E948A058091610780FF11C0AC
:100BF0008DA19EA101968DA39EA32FA138A582173A
:100C0000930738F01DA21EA2CE01DF91CF910C9464
:100C1000AA05DF91CF910895E9EEF5E090878783EB
:100C2000618708959093ED058093EC05089581E028
:100C30008093E9050895E9EEF5E03185A781B08557
:100C40002C9181E001C0880F3A95EAF780958223C4
:100C50008C931082089583E08093E9050895E9EE6E
:100C6000F5E091850780F085E02D808121E001C0CD
:100C7000220F9A95EAF7822B80830895E9EEF5E03A
:100C800031850780F085E02D208181E001C0880F4B
:100C90003A95EAF780958223808308958091E9054B
:100CA000813099F59091F205E091F005F091F10510
:100CB000808121E001C0220F9A95EAF7822B808380
:100CC0001092EB051092EA058091E9058F5F809301
:100CD000E9058091E9058330D9F59091F205E0911D
:100CE000F005F091F105808121E001C0220F9A9575
:100CF000EAF7822780831092EB051092EA05809133
:100D0000E9058F5F8093E90508958091E9058230B8
:100D100001F78091610780FFDCCF8091EA05909117
:100D2000EB0501969093EB058093EA052091EA0587
:100D30003091EB058091EC059091ED05281739076E
:100D400040F21092EB051092EA050E941B06C1CFFB
:100D50008091E9058430C1F68091610780FFD4CF8E
:100D60008091EA059091EB0501969093EB058093B5
:100D7000EA052091EC053091ED058217930720F2EA
:100D80008091E9058150BECF882781998395089588
:100D900080B3817008958827B39983950895882733
:100DA0008699839508958827C9998395089586B370
:100DB000817008958827CB9983950895CF93DF9309
:100DC00000D000D000D0CDB7DEB729833A834B8363
:100DD0005C836D837E8390E1899FD0011124AD5F98
:100DE000B94F86E0FE01319601900D928A95E1F7A8
:100DF0000F900F900F900F900F900F90DF91CF9169
:100E000008951F93CF93DF9300D000D000D0CDB7CB
:100E1000DEB789988898BB988E98D198B898D3985F
:100E200084EC96E09093FB058093FA0588EC96E0BD
:100E300090930B0680930A068BEC96E090931B062A
:100E400080931A068FEC96E090932B0680932A06E7
:100E500083ED96E090933B0680933A0687ED96E00B
:100E600090934B0680934A068AED96E090935B063A
:100E700080935A06FE01319686E0DF011D928A9525
:100E8000E9F789818160898310E029813A814B816A
:100E90005C816D817E81812F0E94DE061F5F17308D
:100EA000A1F70F900F900F900F900F900F90DF9180
:100EB000CF911F91089590E1899FF0011124E75F80
:100EC000F94F808182FB882780F9089590E1899FFE
:100ED000F0011124E75FF94F8081869581700895B4
:100EE00090E1899FF0011124E75FF94F80818260D2
:100EF0008083089590E1899FF0011124E75FF94F05
:100F000080818D7F8083089590E1899FF001112475
:100F1000E650FA4F0280F381E02D099490E18902B6
:100F2000F0011124E75FF94F80818170089590E10D
:100F30008902F0011124E75FF94F808185FB882742
:100F400080F9089590E18902F0011124E75FF94FDB
:100F500080818F7D80830895EF92FF920F931F937E
:100F6000CF93DF9396E0E92EF12C8AE18A95F1F791
:100F700000C0870102951295107F1027007F10276F
:100F8000E801C650DA4F8C81811106C0E881F981F1
:100F900009958115D9F417C08C81813011F58D81A7
:100FA0008F5F8D83813091F41D82E881F9810995ED
:100FB000811519F08C81815008C0F801E75FF94F65
:100FC0008081816080838C818F5F8C8381E0E81ACF
:100FD000F10858F6DF91CF911F910F91FF90EF909C
:100FE00008958C81823029F4E881F9810995813056
:100FF000D1CF8C81833051F78D818F5F8D8381308C
:1010000029F71D82E881F9810995813099F6F80167
:10101000E75FF94F80818E7F80831C82D7CF90E17C
:101020008902F0011124E650FA4F968181E0983050
:1010300009F480E008950F931F93CF93DF9320E08E
:1010400030E049E0CAE053E062E07BE0C90182950C
:101050009295907F9827807F9827FC01E650FA4F61
:10106000A681A11140C0A685A11569F0E685F0E032
:10107000ED50FA4FE081E13031F4FC01E75FF94FC8
:10108000E081E3FF30C0DC01A75FB94FEC911E2F78
:101090001170E0FF28C0FC01ED5FF94FD081D0FF57
:1010A00053C1DC91D260DC93A081FC01E650FA4F81
:1010B000A1FF03C0A8E0A68301C01683DC01A75FDF
:1010C000B94FEC91E061EC93FC01E650FA4FD68504
:1010D000D11549F0E685F0E0ED50FA4FD1E0D0832C
:1010E000EC91E860EC93FC01E650FA4FA681A83041
:1010F00068F0A681AB3050F4DC01A75FB94FAC912A
:10110000A0FD04C010861782A3E0A683FC01E65070
:10111000FA4FA681A83069F4A781B0851196B087EF
:10112000A78302851385A017B10718F010861782D0
:101130004683DC01A650BA4F1696EC911697E9301B
:1011400059F4FC01E75FF94FD081D1FD05C0D08192
:10115000D260D0831696CC93FC01E650FA4FA6815C
:10116000AA3069F4A781B0851196B087A78304855A
:101170001585A017B10718F0108617824683DC0189
:10118000A650BA4F1696EC911697E63059F4FC012A
:10119000E75FF94FD081D0FD05C0D081D260D08308
:1011A00016965C93FC01E650FA4FA681A73039F4FD
:1011B000DC01A75FB94FDC91D260DC936683FC0150
:1011C000E650FA4FA681A430A1F5A781B08511960B
:1011D000B087A783DC01A75FB94FDC91D0FD0FC0BA
:1011E000078110850333110550F410861782DC91B6
:1011F000D260DC93DC91DB7FDC93A3E0A683FC016F
:10120000E650FA4FA781B085D39798F010861782E1
:10121000DC01A75FB94FDC91D260DC93DC91D46034
:10122000DC93DC01AD5FB94FAC91A1FDABC0A1E097
:10123000A683FC01E650FA4FA681A53089F5A78167
:10124000B0851196B087A783DC01A75FB94FDC9109
:10125000D0FD0FC0078110850333110550F41086AF
:101260001782DC91D260DC93DC91DB7FDC93A3E01E
:10127000A683DC01A650BA4F1796ED91FD91199700
:10128000EB34F10568F019961E921E92FC01E75F9F
:10129000F94FD081D260D083D081D460D0836E9357
:1012A000FC01E650FA4FA681A13031F4DC01A75FC2
:1012B000B94FAC91A0FF5683DC01A650BA4F1696E9
:1012C000EC911697E23059F4FC01E75FF94FD081B9
:1012D000D0FD05C0D081DD7FD08316967C93FC01C4
:1012E000E650FA4FA681A33031F4DC01A75FB94F75
:1012F000AC91A1FF7683FC01E650FA4FA681AB309A
:10130000C1F4A685A11559F0E685F0E0ED50FA4F3D
:101310001082FC01E75FF94FA081A77FA083FC0149
:10132000E650FA4F1682FC01E75FF94F80818F7E0D
:1013300080832F5F3F4F2730310509F087CEDF9143
:10134000CF911F910F910895D081D2FF05C0A6E0E3
:10135000FC01E650FA4FAFCED081D3FF02C0A7E028
:10136000F7CFD081D4FF02C0A4E0F2CFE081E5FF47
:10137000A5CED5E0FC01E650FA4FD683EC91E062B1
:10138000EC939CCEAAE054CF0E94AC070C941B08AF
:1013900080E090E0FC01E295F295F07FFE27E07F8F
:1013A000FE27E75FF94F208120FD06C001968730B8
:1013B000910581F781E0089580E0089580E090E054
:1013C000FC01E295F295F07FFE27E07FFE27E75FC4
:1013D000F94F20812D7F208301968730910581F779
:1013E00008950C94DE0980E090E0FC01E295F2950E
:1013F000F07FFE27E07FFE27E75FF94F208124FD85
:1014000006C001968730910581F781E0089580E05C
:1014100008958093790690937A0608950F931F9309
:10142000CF93DF93CDB7DEB72C970FB6F894DEBF1E
:101430000FBECDBF809193069091950680FD7CC034
:10144000191644F080919706181624F08091990699
:101450001816CCF48091930681608093930686E9F8
:1014600090E00E9412060E942B0660E08EEE96E04D
:101470000E94DD0488E0E6EEF6E0AEE7B6E001901B
:101480000D928A95E1F780919006E82FEE0FFF0B01
:10149000EC56F94F9081913008F07BC0E82FEE0FA9
:1014A000FF0BE057F94F958119160CF096C00E947A
:1014B0000F0E44E050E06DEB74E08E010F5F1F4FA4
:1014C000C8010E94451B44E060E0C8010E94EA0D8B
:1014D000809190060B871C8744E050E069EB74E034
:1014E000813030F009F04DC044E050E065EB74E02D
:1014F000C8010E94451B44E064E08B859C850E94E6
:10150000EA0DE0919006EE0FFF0BEC56F94F80814B
:101510008F5F8083109291061092920680919306BD
:1015200081702C960FB6F894DEBF0FBECDBFDF9151
:10153000CF911F910F91089581E0911180E09091DA
:101540009706911101C08F5F9091990691119BCFE1
:10155000823009F098CF0E941B06809193068E7FFF
:101560008093930688E0EEE7F6E0A6EEB6E0019001
:101570000D928A95E1F7F89488E181BD88E081BDFC
:10158000FFCF823009F0B7CF44E050E061EB74E068
:10159000AFCF21F6A82FAA0FBB0BA057B94F1596B6
:1015A0009C91911102C01082B9CF9091610790FF78
:1015B000B5CF20919106309192062F5F3F4F283E84
:1015C00093E0390728F42093910630939206A6CF32
:1015D000109291061092920610828F5F83301CF455
:1015E000809390069BCF1092900698CF80939A0696
:1015F00090939B060895E0919A06F0919B061082C5
:1016000011828170826094819C7F892B84830895EC
:10161000E0919A06F0919B068081918101968083EA
:101620009183228133818217930750F010821182B7
:101630009481892F8095817082609C7F892B84831F
:10164000089597B18F71907E892B87B9089597B1CE
:101650008295880F880F807C9F73892B87B90895A6
:1016600096B1987F892B86B90895379A089537984F
:101670000895369A089536980895811102C03D98CC
:1016800008953D9A089585B1089584B10895359AD5
:1016900008953598089590B78295880F807E9F7041
:1016A000892B80BF0895CF93DF9300D0CDB7DEB7ED
:1016B0008983862F4A830E94270B8A810E94300BE0
:1016C00089818F3F41F40E94490B0F900F90DF9169
:1016D000CF910C94350B0E94470B89810E944B0BD4
:1016E000F4CF0E94210B0C94390B0E94710B349B98
:1016F000FECF349A0895359911C00E94750B24B11C
:101700003D9B11C085B134E0839FC0011124229517
:10171000269526952370820F911D0895349A349B47
:10172000FECF349AECCF85B1982F80E0F4CFCF92E2
:10173000DF92EF92FF92CF93DF9300D000D000D0E2
:10174000CDB7DEB769837A838B839C8320E030E05A
:1017500048EC52E40E94F5182FEA30ED4FEA5EE3C0
:101760000E9467190E94D9196D837E836F3F7105AE
:101770000CF461C08EEF8D831E82ED81FE81EE0F31
:10178000FF1FEE0FFF1FE755FF4FC080D180E280A3
:10179000F3802D813E81B901330F880B982F0E9471
:1017A000111A2FEA30ED4FEA5EE30E94C61A20E0DC
:1017B00030E048EC52E40E94F6189B01AC016981CC
:1017C0007A818B819C810E94F51869837A838B834F
:1017D0009C838D819E81880F991F880F991F835547
:1017E0009F4F8D839E839601A701FC0160817181CB
:1017F000828193810E94F5189B01AC0169817A81F5
:101800008B819C810E94C61A2FEA30ED4FEA5EE37D
:101810000E9467199601A7010E94F6180F900F9079
:101820000F900F900F900F90DF91CF91FF90EF905E
:10183000DF90CF900895ED81FE81F7FF9ECF1D824E
:101840001E829BCF0F931F93CF93DF938C01EB01ED
:1018500044E060E0CE010E94D60D0F3F100761F416
:1018600087E1888389E18983CE010296DF91CF9158
:101870001F910F910C94C10D083E83E018073CF0B6
:101880008BE188838BE0898389E38A83EDCF43E012
:10189000BE01C8010E94150E80EF8B83E5CFCF9368
:1018A000DF93CDB7DEB72A970FB6F894DEBF0FBE31
:1018B000CDBF89879A879E012F5F3F4F44E150E05B
:1018C00064EB76E08FE996E00E940902811581F1D0
:1018D00089819A81AB81BC818D839E83AF83B887D8
:1018E00040E050E09A01BC01CD010E94C11A1816D7
:1018F00044F521EA36E648EC5DE36D817E818F8117
:1019000098850E94C61A20E030E048EC52E40E941C
:10191000F61829EE36E241E85FE30E94C61A0E94FB
:10192000970B0E94D919A985BA856D937D9381E0A3
:101930002A960FB6F894DEBF0FBECDBFDF91CF91D0
:101940000895E985FA8510821182F1CFCF938091B5
:101950009C06811121C044B125B18091230790914B
:101960002407FC01EE0FFF1FEC54F94F4083218345
:1019700001968431910540F48093230790932407C6
:10198000C0E08C2FCF910895109223071092240766
:1019900081E080939C06F4CF8DE996E00E944F0C85
:1019A000C82F811569F38091A60780FD1CC0609146
:1019B0009D0670919E06872F880F880B982F0E9496
:1019C000111A26E636E646EE5FE30E94C61A20E0CC
:1019D00030E040E052E40E94F6180E94D91960936A
:1019E0009D0670939E0610929C06CBCF87B3806BAA
:1019F00087BB87E18DB908958FB9779BFECF8FB1F3
:101A000008950F931F93979825E02A95F1F700000A
:101A100080E00E94FC0C082F80E00E94FC0C3AE160
:101A20003A95F1F700C0979A82FD23C0282F302FF6
:101A3000B90183E0769567958A95E1F780E090E0BB
:101A40000E940F1A20E030EF4FE754E40E94C61ABC
:101A500020E030EF4FE755E40E946719562F472FDB
:101A6000382F292F652F742F832F922F1F910F91BD
:101A7000089540E050E02FEB30E8F4CF0F931F9330
:101A8000CF93DF930F92CDB7DEB7979885E08A9515
:101A9000F1F700008827B5998395819589836E9A1F
:101AA00089810E94FC0C082F89810E94FC0C9AE11C
:101AB0009A95F1F700C06E98979A82FD0CC0902F0E
:101AC00023E0969587952A95E1F70F90DF91CF91C6
:101AD0001F910F9108958FEF9FEFF7CF8093E50649
:101AE0006093E3067093E4064093E1065093E206A8
:101AF0002093DF063093E00608958091DE06815042
:101B00001AF48091E506815024E08202C00111247C
:101B1000E091DF06F091E006E80FF91F0190F081F7
:101B2000E02D09958091DE06A091E306B091E406D0
:101B3000E091E106F091E206E80FF11D87FDFA95CC
:101B400090819C9324E08202C0011124E091DF0681
:101B5000F091E006E80FF91F0280F381E02D09956E
:101B60008091DE068F5F8093DE062091E50630E0EF
:101B7000082E001C00088217030611F41092DE06DE
:101B80000895FC01208124FB992792F922FB8827E4
:101B900084F9982B2B7E922B9083089588EE96E003
:101BA0000E94C10D8CEE96E00C94C10D20E030E057
:101BB000042E001C0008241730050CF00895562F41
:101BC000520FFC01E50FF11D57FDFA9510822F5FB2
:101BD0003F4FEECFDC0180E090E0042E001C0008B7
:101BE000841790050CF00895E62FE80F2D91FE2F35
:101BF000FF0FFF0BEA51F94F20830196EECFA6EEBF
:101C0000B6E0FC0180E090E0062E001C000886177C
:101C100090050CF008952D9121930196F5CF48E0A1
:101C200060E086EE96E00C94D60D0F931F93CF9351
:101C3000DF93CDB7DEB72D970FB6F894DEBF0FBE9A
:101C4000CDBF8C879D878B014B8760E0C8010E94C8
:101C5000D60DBE016F5F7F4F8C859D850E94490028
:101C6000BE016F5F7F4F2B85422F220F550B481B04
:101C7000590BD801A40FB51F40E050E04817590791
:101C80005CF02D960FB6F894DEBF0FBECDBFDF918E
:101C9000CF911F910F910895FB012191BF0130E079
:101CA0002B523B4FF90120812D934F5F5F4FE6CFC1
:101CB000FF920F931F93CF93DF93CDB7DEB72A9791
:101CC0000FB6F894DEBF0FBECDBF8B01F42EFB0123
:101CD0003BEE2E2F201B2F15FCF0BE016F5F7F4FB8
:101CE0000E944900DE0111964F2DFF0C550B481B39
:101CF000590B040F151F40E050E04817590774F0C6
:101D00002A960FB6F894DEBF0FBECDBFDF91CF91FC
:101D10001F910F91FF9008953193DBCF2D9130E00B
:101D20002B523B4FF9012081F80121938F014F5F26
:101D30005F4FE3CFFC019081946090830895FC0194
:101D400090819B7F9083089595980895959A089522
:101D500092980895929A089593980895939A089561
:101D600094980895949A0895DF980895DF9A0895B5
:101D7000DE980895DE9A0895DD980895DD9A089515
:101D8000DC980895DC9A0895CF93DF9320E630E045
:101D900046EE56E065E370E088E00E946E0DC0E616
:101DA000D0E0E881F9810995249680E0C038D80711
:101DB000C1F78D9A8A9A8B9A8C9AD79AD69AD59A85
:101DC000D49A84B38FEF84BBDF91CF91089524E63A
:101DD00020931507109216078AE08093FE06109252
:101DE000FF062093FA061092FB061092FC06109252
:101DF000FD0625E0209317071092180722E3209391
:101E0000190710921A0745E555E565E57FE340930C
:101E100000075093010760930207709303074DEC8E
:101E20005CEC6CEC7DE340930407509305076093F2
:101E3000060770930707109208071092090710927F
:101E40000A0710920B071092F8061092F906809379
:101E5000F6061092F70688E380931B0710921C0782
:101E600082E080931D0708958091A0079091A107BB
:101E70002091DC063091DD06821B930B21E0863039
:101E800091050CF02AE02093F6061092F7060895CB
:101E90000F931F93CF93DF9300D000D000D0CDB726
:101EA000DEB78C0186E0EEE8F0E0DE0111960190ED
:101EB0000D928A95E1F72981216029833A814B812E
:101EC0005C816D817E81F80181810E94DE0629811D
:101ED0003A814B815C816D817E81F80180810E9415
:101EE000DE0629812E7D206229833A814B815C8127
:101EF0006D817E81F80184810E94DE0629812C7D1E
:101F0000236029838AE0382F8A831B8282E0582F3E
:101F10008C831D821E8240E060E070E0F8018281C7
:101F20000E94DE0629813A814B815C816D817E8130
:101F3000F80183810F900F900F900F900F900F90EA
:101F4000DF91CF911F910F910C94DE068AE297E00A
:101F50000E94480F84E497E00C94480F89E3E3EE75
:101F6000F4E0A6E2B7E001900D928A95E1F781E0F6
:101F700080932C0782E080932D0793E090932E07A7
:101F800086E08093440784E08093460725E0209311
:101F90004707909348078093400708950E94490B94
:101FA0000E94370B82E00E94210B0E94350B87E0D4
:101FB0000E94300B81E00E94270B0E94470B80E0BB
:101FC0000E944B0B0C94390B0E94490B0E94370B5B
:101FD00080E00E94210B0E94350B87E00E94300BAD
:101FE00083E00E94270B0E94470B80E00E944B0B6E
:101FF0000C94390BCDB7DEB762970FB6F894DEBFFD
:102000000FBECDBF0E94C40E46E050E064E070E019
:1020100080EA97E00E945D1B8091A6078E7F8093E7
:10202000A6070E94AE0F919A909AC39A969AD99A4F
:10203000C09ADB9A8FE99FE00197F1F700C000009A
:102040000E9401070E946F04C298BA9AC19AB99877
:10205000BD9A65E088E390E00E940C068BE490E076
:102060000E94120612BE8BE083BF89EF8CBF89B736
:10207000826089BF78940E94E70E0E940F0E44E0B0
:1020800050E06DEA74E0CE0101960E94451B44E0E9
:1020900060E0CE0101960E94EA0D44E050E069EA5A
:1020A00074E0CE0101960E94451B44E064E0CE013D
:1020B00001960E94EA0D10E0812C912C54016401DC
:1020C00074018091620780FF0AC0809162078E7F51
:1020D000809362078091610781608093610780919E
:1020E000610780FD0E947D0D8091610790916007DE
:1020F00096FD19C080FF08C027EBA2162BE0B206A0
:102100005CF48FEFA81AB80A0E944E06809161070E
:102110008E7F80936107D5CF892F8064809360077D
:10212000A12CB12CF1CF1111AEC080FD02C010E086
:1021300016C09FEF891A990A26E98216910478F051
:1021400091E021E081FD922790FB81F98093610766
:1021500081FF96C00E94CE0F11E0812C912C882720
:10216000B1998395809399068091610780FF33C070
:102170008FEFE81AF80A94E1E916F10461F50E947C
:102180008D048091E60583FF24C0877F8093E60558
:10219000809160078460809360078BE490E00E94E8
:1021A00012060E9417060E940F0E8091E60581FD1F
:1021B00090C00E94340FBC018EEE96E00E948A050A
:1021C0008EEE96E00E94F00480916007816080931B
:1021D0006007E12CF12C809160078570853009F053
:1021E00093CF0E940E0A81118FCF80915F078130BB
:1021F00008F09EC00E94A60F44E060E081EC94E0ED
:102200000E94EA0D80915A07816080935A071092CC
:102210005B0780915F078F5F80935F0783E00E9479
:102220006607811509F48EC083E00E947A0783E077
:102230000E945B0790911C05813009F00CC182E07F
:1022400080935B0790935C0788EE93E00E941206F0
:102250000E94170642E050E060E070E08DE697E0F3
:102260000E946D1B42E050E062E070E087E897E07A
:102270000E946D1B68E0CE010B960E94FF0D62C0AC
:102280000E94E40F69CF81FF1DC00E94A60C81153A
:1022900009F465CF80916007826080936007109297
:1022A000950680919D0690919E062091DC063091C6
:1022B000DD062817390709F43ACF8093DC0690939E
:1022C000DD0635CF0E948D0111E0811509F447CF5D
:1022D0002ECF809160078E7F8093600744E064E09A
:1022E00081ED94E00E94EA0D60E08EEE96E00E949F
:1022F000DD040E94AE0F80911D0590911E05809314
:102300005F07909360078AE0E6E8F6E0A0E9B6E0B0
:1023100001900D928A95E1F70E941B068EE0E0E89D
:10232000F0E0A2E2B5E001900D928A95E1F751CF7D
:1023300009F061C082E080935F0780915B07823083
:1023400008F46CCF80915B078230D1F40E94EC16C8
:102350008130B1F490915A0790FF89C010925B07C9
:102360008AE297E00E94480F84E497E00E94480FB9
:102370000E940F0E44E060E081EC94E00E94EA0DC0
:1023800080915B078330D1F40E941B188130B1F437
:1023900090915A0790FF7EC010925B078AE297E007
:1023A0000E94480F84E497E00E94480F0E940F0E9D
:1023B00044E060E081EC94E00E94EA0D80915A07CD
:1023C00082FD0E94BC160E94340FBC018EEE96E086
:1023D0000E94EF058091610780FF96CE2FEFC21A11
:1023E000D20A84E1C816D10409F08ECE0E94C40935
:1023F000C12CD12C89CE823009F09FCF80915B0710
:1024000081119BCF8091DC069091DD0697FD06CF70
:1024100088EE93E00E9412060E94170680915A07E8
:102420008E7F80935A0781E080935B078AE297E072
:102430000E94480F10922F0784E497E00E94480FF3
:102440001092490780915A07846080935A078091BF
:102450005F078F5F70CF83E080935B0790935E0789
:1024600088EE93E00E9412060E94170603CF809325
:102470005B078AE297E00E94480F10922F0784E4DE
:1024800097E00E94480F1092490748E060E0CE01B3
:102490000B9674CF80935B078AE297E00E94480F07
:1024A00010922F0784E497E00E94480F109249078A
:1024B00048E060E0CE010B967FCF8F938FB78F936C
:1024C000809162078160809362078F918FBF8F91A7
:1024D0001895EF92FF920F931F93CF93DF9300D045
:1024E000CDB7DEB77C018B01FC01808142E0BE01EB
:1024F0006F5F7F4F982F990F990B0E94150E89815E
:10250000F80180838A818183F701818142E0BE01E5
:102510006F5F7F4F982F990F990B0E94580E78018B
:10252000F2E0EF0EF11C8981F80182838A818383B6
:10253000C80101960E949A0EC7010E949A0EC70117
:102540000E94C10D0F900F90DF91CF911F910F91BD
:10255000FF90EF9008951F93CF93DF9300D000D0AA
:1025600000D0CDB7DEB74D835E83FC0120814CE304
:102570002403900111248181F901E80FF11D87FDE9
:10258000FA95CF01FB012081240390011124518190
:10259000250F311D57FD3A95ED81FE815081540381
:1025A000A00111246181460F511D67FD5A95241B1E
:1025B000350B821B930B79F172F19C01492F440F6B
:1025C000440B542F89833A834B834C83BC01CA014B
:1025D0000E94111A20E030E040E752E40E9467199F
:1025E0000E94D919162F69817A818B819C812CE3F5
:1025F00030E040E050E00E94A018ED81FE811083A1
:1026000061830F900F900F900F900F900F90DF91BC
:10261000CF911F91089510E060E0EFCF8F929F92CD
:10262000AF92BF92CF92DF92EF92FF920F931F93E0
:10263000CF93DF93CDB7DEB764970FB6F894DEBFC4
:102640000FBECDBF06E217E080E0A82E80E0B82ED6
:1026500093E6C92E97E0D92EE12CF12CE0E9F1E0C8
:10266000D8015596ED93FD934801FAE08F0E911C29
:1026700042E050E0B501C4010E945D1BD8011A96EA
:102680008D919D91F601828793871D921D922AE17B
:102690002E9DF0012F9DF00D1124DF01AC5CB84F91
:1026A0008C9182608C93D80113961C92E85DF84F50
:1026B00080818160808380915B07813069F4BE01F5
:1026C0006F5F7F4FC4010E94691244E0F80160818E
:1026D000CE0101960E94EA0DC80104960E94480F9F
:1026E000D80119961C92C7010196065E1F4FB2E0F1
:1026F000AB0EB11CEAE1CE0ED11CEE24E394F12C1A
:10270000029709F0ABCF64960FB6F894DEBF0FBE08
:10271000CDBFDF91CF911F910F91FF90EF90DF9090
:10272000CF90BF90AF909F908F9008953F924F921F
:102730005F926F927F928F929F92AF92BF92CF9251
:10274000DF92EF92FF920F931F93CF93DF93CDB75A
:10275000DEB764970FB6F894DEBF0FBECDBF06E2BA
:1027600017E08DE6C82E87E0D82E90E0892E90E005
:10277000992EE12CF12C2AE1322EC80143960E94B9
:10278000F60AD80116968C910E9466078115B9F158
:102790003E9CF0013F9CF00D1124EC5CF84F8081D1
:1027A00082FD2DC080FD2BC0F80186810E940F089C
:1027B000811106C08BE490E00E9412060E94170669
:1027C0008AE18E9DF0018F9DF00D1124DF01A85D3F
:1027D000B84F8C918E7F8C93E95CF84F808181603B
:1027E000808381E0D80119968C9316978C931C9660
:1027F0001D921D920E94FB0AC6010E945401F8011D
:1028000087810E9466078115A9F13E9CF0013F9CDB
:10281000F00D1124EC5CF84F808182FD2BC080FD0F
:1028200029C0D80117968C910E940F08811106C00B
:102830008BE490E00E9412060E9417068AE18E9DAA
:10284000F0018F9DF00D1124DF01A85DB84F8C9130
:102850008E7F8C93E95CF84F80818160808381E07A
:10286000F801818783831786108A0E94FB0AC601BC
:102870000E946F01D80116968C910E947A07F80188
:1028800087810E947A07D80119968C911997813017
:1028900008F0EEC014968C910E946607811501F134
:1028A000F80184810E947A0788EE93E00E94120664
:1028B0000E9417068AE18E9D30018F9D700C1124B5
:1028C000F301E85CF84F808193012C5C384F59018B
:1028D00080FD96C081608083D9018C9181608C934A
:1028E0003E9CF0013F9CF00D1124DF01A95CB84F24
:1028F0008C9180FF2BC0E35CF84F808181FF15C075
:102900008D7F808390915B07913079F480FDDBC0EF
:1029100044E060E0CE0101960E94D60D44E0D8016B
:102920006C91CE0101960E94EA0D8091610780FFB3
:102930000DC0D8011F968D919D910196883BBBE0FB
:102940009B070CF0CAC0F8018787908B3E9C500112
:102950003F9CB00C1124F501E85CF84F808181FFA9
:1029600027C08D7F808342E050E0B401C6010E9401
:102970006D1BF60180819181D8011A968D939D93EC
:10298000F501E95CF84F80818E7F80831D921D9256
:10299000F501EC5CF84F8081826080831B971C926C
:1029A000F501E85DF84F80818160808316961C9266
:1029B000C7010196065E1F4FBAE1CB0ED11CE2E0C3
:1029C0008E0E911CEE24E394F12C029709F0D5CEE3
:1029D00064960FB6F894DEBF0FBECDBFDF91CF91E6
:1029E0001F910F91FF90EF90DF90CF90BF90AF902D
:1029F0009F908F907F906F905F904F903F90089541
:102A00008E7F8083F90180818E7F80832801FAE0A8
:102A10004F0E511C42E050E0B401C2010E945D1B08
:102A2000D8011C961D921D92F501808182608083E1
:102A30001B971C92F301E85DF84F808181608083D1
:102A4000D5018C918B7F8C9380915B07813069F4E9
:102A5000BE016F5F7F4FC2010E94691244E0F8011E
:102A60006081CE0101960E94EA0D0E943E0638CF99
:102A700009F036CFD80114968C910E946607811513
:102A800009F42ECFF80184810E947A0788EE93E042
:102A90000E9412060E941706EE27FF27EE19FF0973
:102AA000EA71F0E0EA5DF84F82898360828B8AE107
:102AB0008E9DF0018F9DF00D1124EC5CF84F80810C
:102AC000816080830DCFBE016F5F7F4FC6010E9482
:102AD000691244E0F801608124CFD8011F961D924D
:102AE0001D928AE18E9D90018F9D300D1124F90178
:102AF000E85CF84F8081826080832C5C384FD9017C
:102B00009C9190FF08C0A801465F5F4FB401C601C9
:102B10000E94AB121BCF8E7F808318CFCF92DF92A3
:102B2000EF92FF920F931F93CF93DF93C6E2D7E00C
:102B300000E010E0CE0143960E94F60A4AE1409F71
:102B40007001419FF00C1124C7018C5C984F6C01FF
:102B5000FC01808180FF19C08091610780FF0AC05D
:102B60008C859D859C012F5F3F4F873E9340E9F008
:102B70002C873D878AE1809FF001819FF00D112411
:102B8000EC5CF84F808181FD23C0C80101966A96F4
:102B900001E010E0029771F6DF91CF911F910F9144
:102BA000FF90EF90DF90CF9008951C861D86CE0198
:102BB0000A960E945401F6018081826080838B8195
:102BC000811106C0F701E85DF84F80818160808344
:102BD0008B85811134C08A85811131C0EAE1E09F83
:102BE000D001E19FB00D1124AC5CB84F8C918E7F69
:102BF0008C9381E0800F8170E89FF0011124DF0148
:102C0000AC5CB84F8C9182FF26C0E75CF84F87E040
:102C1000DE01539601900D928A95E1F78AE1809F3B
:102C2000F001819FF00D1124DF01A85DB84F8C9158
:102C30008E7F8C93EC5CF84F8081846080838AE186
:102C4000809FF001819FF00D1124EC5CF84F808192
:102C50008D7F80839ACF81E00E94FB0ADFCFCF92E5
:102C6000DF92EF92FF920F931F93CF93DF93CDB735
:102C7000DEB764970FB6F894DEBF0FBECDBF06E295
:102C800017E0E12CF12CC80143960E94F60AF801E6
:102C90008381811146C080915B07813009F041C07A
:102CA0002AE12E9DC0012F9D900D11249C01285DCD
:102CB000384F6901F901808180FF12C0BE016F5F4A
:102CC0007F4FC8010A960E94691244E0F8016081B2
:102CD000CE0101960E94EA0DF60180818E7F8083ED
:102CE0002AE12E9DC0012F9D900D1124FC01EC5C6A
:102CF000F84F208122FF15C0835C984FFC01808132
:102D000080FD28C044E060E0CE0101960E94D60D0F
:102D100044E0F8016081CE0101960E94EA0D0E9414
:102D20002F06C7010196065E1F4FEE24E394F12C97
:102D3000029709F0A8CF64960FB6F894DEBF0FBED5
:102D4000CDBFDF91CF911F910F91FF90EF90DF905A
:102D5000CF90089544E050E06DEC74E0CE01019610
:102D60000E94451B44E0F8016081CE0101960E945B
:102D7000EA0D0E943E06D5CF80915D07811107C004
:102D80000E940E1380915D078F5F80935D07809195
:102D90005B07813011F40E9496130E948E1580917A
:102DA0005B078130C1F40E942F1680915B07813050
:102DB00091F489E397E00E94F60A8091610780FD13
:102DC0000E94080B83E597E00E94F60A8091610754
:102DD00080FD0C94080B08950F931F93CF93DF93FE
:102DE000CDB7DEB72A970FB6F894DEBF0FBECDBFC2
:102DF00087E997E00E94F60A80915C07813008F02D
:102E000072C086E0EEE8F0E0DE01119601900D92CE
:102E10008A95E1F789818160898306E217E029813B
:102E20003A814B815C816D817E81F80180850E94B1
:102E3000DE06065E1F4FF7E00A351F0781F7809117
:102E40005C078F5F80935C0780E991E0809399072E
:102E500090939A0780919E0790919F07892BA9F0E4
:102E600080919B0781FF11C08D7F80939B0780FD20
:102E7000C7C044E060E0CE0101960E94D60D44E058
:102E800064E0CE0101960E94EA0D83E00E9466078D
:102E9000182F8115B9F083E00E947A0780915C07B2
:102EA0008F5F80935C07833009F0B4C081E080932A
:102EB0009E0710929F0710E080E590E00E941206A6
:102EC0000E9417068091610780FD0E94080B812FE8
:102ED0002A960FB6F894DEBF0FBECDBFDF91CF911B
:102EE0001F910F91089561F444E060E089EC94E053
:102EF0000E94EA0D80915C078F5F80935C07AACFE8
:102F0000823081F4BE016F5F7F4F8091DC0690912B
:102F1000DD060E94220C44E064E0CE0101960E948E
:102F2000EA0D98CF833029F444E060E085EC94E02A
:102F3000DFCF843009F08ECF06E217E0F8018681FA
:102F40000E946607811539F1F80186810E947A078F
:102F5000F80186810E940F08811106C08BE490E081
:102F60000E9412060E94170681E00E94FB0A8091CF
:102F7000A0079091A10701978093A0079093A107C4
:102F80002091A2073091A3072817390724F0209336
:102F9000A0073093A107F80187810E946607811579
:102FA00039F1F80187810E947A07F80187810E9430
:102FB0000F08811106C08BE490E00E9412060E9467
:102FC000170681E00E94FB0A8091A0079091A1075B
:102FD00001968093A0079093A1072091A4073091B8
:102FE000A5078217930724F02093A0073093A10729
:102FF000065E1F4FF7E00A351F0709F09FCF2ACF63
:10300000BE016F5F7F4F8091A0079091A1070E9442
:10301000220C35CF853009F04ECF46E050E064E019
:1030200070E080EA97E00E946D1B10929E0710925C
:103030009F0711E041CF0F931F93CF93DF93CDB73D
:10304000DEB72A970FB6F894DEBF0FBECDBF8091D2
:103050005E07813028F586E0EEE8F0E0DE011196AB
:1030600001900D928A95E1F789818160898306E25A
:1030700017E029813A814B815C816D817E81F80165
:1030800080850E94DE06065E1F4FF7E00A351F07A7
:1030900081F780915E078F5F80935E0710E01DC00F
:1030A00039F444E060E089EC94E00E94EA0DF1CF4D
:1030B000823081F4BE016F5F7F4F8091DC0690917A
:1030C000DD060E94220C44E064E0CE0101960E94DD
:1030D000EA0DE4CF11E0833009F783E00E94660730
:1030E000811571F083E00E947A0780915E078F5FFF
:1030F00080935E078BE490E00E9412060E94170600
:10310000812F2A960FB6F894DEBF0FBECDBFDF9198
:10311000CF911F910F91089597FB072E16F40094FD
:1031200007D077FD09D00E94BF1807FC05D03EF4F8
:10313000909581959F4F0895709561957F4F089563
:10314000052E97FB1EF400940E94B71857FD07D078
:103150000E94D31807FC03D04EF40C94B718509576
:103160004095309521953F4F4F4F5F4F0895909573
:103170008095709561957F4F8F4F9F4F0895AA1B43
:10318000BB1B51E107C0AA1FBB1FA617B70710F052
:10319000A61BB70B881F991F5A95A9F78095909584
:1031A000BC01CD010895A1E21A2EAA1BBB1BFD0193
:1031B0000DC0AA1FBB1FEE1FFF1FA217B307E40716
:1031C000F50720F0A21BB30BE40BF50B661F771F6E
:1031D000881F991F1A9469F760957095809590954E
:1031E0009B01AC01BD01CF0108955058BB27AA2710
:1031F0000E940D190C94871A0E94791A38F00E94C7
:10320000801A20F039F49F3F19F426F40C94761AB2
:103210000EF4E095E7FB0C94701AE92F0E94981ABF
:1032200058F3BA17620773078407950720F079F4FB
:10323000A6F50C94BA1A0EF4E0950B2EBA2FA02D19
:103240000B01B90190010C01CA01A0011124FF2753
:10325000591B99F0593F50F4503E68F11A16F0404E
:10326000A22F232F342F4427585FF3CF469537954D
:103270002795A795F0405395C9F77EF41F16BA0B12
:10328000620B730B840BBAF09150A1F0FF0FBB1FC0
:10329000661F771F881FC2F70EC0BA0F621F731F09
:1032A000841F48F4879577956795B795F7959E3F66
:1032B00008F0B0CF9395880F08F09927EE0F9795F7
:1032C000879508950E944C1A08F481E008950E94A1
:1032D0007B190C94871A0E94801A58F00E94791A60
:1032E00040F029F45F3F29F00C94701A51110C94AE
:1032F000BB1A0C94761A0E94981A68F39923B1F3BA
:10330000552391F3951B550BBB27AA27621773070B
:10331000840738F09F5F5F4F220F331F441FAA1F9F
:10332000A9F335D00E2E3AF0E0E832D0915050405B
:10333000E695001CCAF72BD0FE2F29D0660F771F09
:10334000881FBB1F261737074807AB07B0E809F0EF
:10335000BB0B802DBF01FF2793585F4F3AF09E3F74
:10336000510578F00C94701A0C94BB1A5F3FE4F38B
:10337000983ED4F3869577956795B795F7959F5FB7
:10338000C9F7880F911D9695879597F90895E1E003
:10339000660F771F881FBB1F621773078407BA0762
:1033A00020F0621B730B840BBA0BEE1F88F7E095BD
:1033B00008950E94E0196894B1110C94BB1A089505
:1033C0000E94A01A88F09F5798F0B92F9927B751FB
:1033D000B0F0E1F0660F771F881F991F1AF0BA95B9
:1033E000C9F714C0B13091F00E94BA1AB1E0089543
:1033F0000C94BA1A672F782F8827B85F39F0B93F35
:10340000CCF3869577956795B395D9F73EF490956B
:103410008095709561957F4F8F4F9F4F0895E894E9
:1034200009C097FB3EF490958095709561957F4F0C
:103430008F4F9F4F9923A9F0F92F96E9BB279395BA
:10344000F695879577956795B795F111F8CFFAF4CA
:10345000BB0F11F460FF1BC06F5F7F4F8F4F9F4FFB
:1034600016C0882311F096E911C0772321F09EE859
:10347000872F762F05C0662371F096E8862F70E0BF
:1034800060E02AF09A95660F771F881FDAF7880F99
:103490009695879597F90895990F0008550FAA0BEF
:1034A000E0E8FEEF16161706E807F907C0F0121657
:1034B0001306E407F50798F0621B730B840B950B5A
:1034C00039F40A2661F0232B242B252B21F40895AF
:1034D0000A2609F4A140A6958FEF811D811D08954C
:1034E00097F99F6780E870E060E008959FEF80ECB7
:1034F000089500240A94161617061806090608955A
:1035000000240A9412161306140605060895092EBF
:103510000394000C11F4882352F0BB0F40F4BF2B2E
:1035200011F460FF04C06F5F7F4F8F4F9F4F08956E
:1035300057FD9058440F551F59F05F3F71F0479564
:10354000880F97FB991F61F09F3F79F08795089549
:10355000121613061406551FF2CF4695F1DF08C068
:10356000161617061806991FF1CF86957105610585
:1035700008940895E894BB2766277727CB0197F92D
:1035800008950E944C1A08F48FEF08950E94D91AEA
:103590000C94871A0E94791A38F00E94801A20F041
:1035A000952311F00C94701A0C94761A11240C9433
:1035B000BB1A0E94981A70F3959FC1F3950F50E0C3
:1035C000551F629FF001729FBB27F00DB11D639FD5
:1035D000AA27F00DB11DAA1F649F6627B00DA11D7B
:1035E000661F829F2227B00DA11D621F739FB00D21
:1035F000A11D621F839FA00D611D221F749F332791
:10360000A00D611D231F849F600D211D822F762F29
:103610006A2F11249F5750409AF0F1F088234AF006
:10362000EE0FFF1FBB1F661F771F881F9150504072
:10363000A9F79E3F510580F00C94701A0C94BB1AA8
:103640005F3FE4F3983ED4F3869577956795B795F9
:10365000F795E7959F5FC1F7FE2B880F911D969513
:10366000879597F908956817790768F4FB01DC01DD
:10367000E40FF51FA40FB51F02C002900E92415037
:103680005040D8F708950C94541BFB01DC014150C5
:10369000504048F001900D920020C9F701C01D92E2
:1036A00041505040E0F70895FB01DC0102C0019059
:1036B0000D9241505040D8F70895DC01CB01FC0138
:1036C000E199FECF06C0FFBBEEBBE09A31960DB28A
:1036D0000D9241505040B8F70895DC01A40FB51F7A
:1036E0004150504048F0CB01840F951F2E910E940D
:1036F0007E1B41505040D0F70895262FE199FECF10
:103700009FBB8EBBE09A01970DB2021631F02DBB24
:103710000FB6F894E29AE19A0FBE0895F894FFCF9D
:10372000A40EA60EA80EAA0EAC0EAE0EB00EB20ED1
:10373000B40EB60EB80EBA0EBC0EBE0EC00EC20E41
:103740000000000000000000000000000000000079
:103750000000000000000000000000000000000069
:1037600000000000000000000073986EB777F3605F
:103770003F55FBE03F50C22840910A614060AB8C4E
:103780004046D3A8400DFDC440B728E1404356FD54
:1037900040D9C20C4181DB1A41F1F42841910F3725
:1037A00041022B4541AE475341C36461417B836F66
:1037B000419CA27D417CE1854113F28C411203942E
:1037C000417B149B418126A2412439A941FB4BB086
:1037D00041705FB7414D73BE41C887C541AC9CCCB9
:1037E00041F9B1D341E3C7DA4135DEE141F1F4E813
:1037F00041150CF041D723F741363CFE4165AA0242
:1038000042FD360642CAC30942E5500D4235DE107C
:1038100042D46B14428CF9174294871B42EA151F5D
:103820004274A422423333264227C2294268512DD2
:1038300042F9E03042A47034429D003842E5903BAA
:103840004262213F4213B24242F84246422CD449DE
:1038500042AF654D424CF7504252895442711B5859
:1038600042E0AD5B4283405F4275D362429B666635
:103870004210FA69429F8D6D4296217142A8B5743B
:1038800042234A7842B8DE7B429C737F4267848140
:10389000420E4F8342E8198542D0E48642DFAF886A
:1038A00042167B8A4266468C42D1118E4264DD8F7D
:1038B0004210A99142D7749342D2409542DA0C97B4
:1038C0004209D9984253A59A42C4719C424F3E9EE8
:1038D00042020BA042CFD7A142C3A4A342D171A5FB
:1038E00042073FA742570CA942C1D9AA4252A7ACEE
:1038F000420B75AE42D142B042CB10B242E0DEB3D1
:10390000420EADB542647BB742D549B9426C18BB93
:10391000421EE7BC42EAB5BE42EA84C042F853C246
:10392000422D23C44289F2C542FFC1C7426891C9F2
:10393000424861CB422731CD420601CF4268D1D007
:103940004248A1D242AA71D4428F42D642F212D842
:1039500042D7E3D942BCB4DB42A285DD428756DFC1
:1039600042F027E14258F9E242C1CAE442AC9CE687
:1039700042986EE8428340EA426F12EC425AE4ED0C
:1039800042C9B6EF423789F142A65BF342982EF561
:10399000428901F7427BD4F8426DA7FA42E17AFCF2
:1039A00042D34DFE42A4100043A0FA00435AE40162
:1039B0004356CE024352B803434EA204438B8C05B8
:1039C00043C976064306610743444B0843C33509A0
:1039D0004342200A43C10A0B433FF50B4300E00C6E
:1039E00043C1CA0D4381B50E4383A00F43448B10DE
:1039F0004346761143486112438B4C1343CF37142F
:103A00004312231543560E16439AF916431FE51722
:103A100043A4D0184329BC1943F0A71A43B6931BFB
:103A2000437D7F1C43446B1D434C571E4354431F2F
:103A3000435C2F2043641B2143AE072243F8F3224B
:103A40004342E02343CDCC244317B92543A2A52606
:103A5000436F922743FA7E2843C76B294393582A22
:103A60004360452B436F322C437D1F2D438B0C2E1F
:103A7000439AF92E43E9E62F4339D4304389C131C3
:103A800043D9AE32436A9C3343FC8934438D773546
:103A900043606536433353374306413843D92E39A3
:103AA00043EE1C3A43020B3B4317F93B432BE73CE5
:103AB0004381D53D43D7C33E432DB23F43C5A040CC
:103AC000435C8F4143F47D42438B6C4343645B44CE
:103AD00043FC49454317394643F02747430A1748F3
:103AE00043250649433FF549435AE44A43B6D34B7D
:103AF0004312C34C43B0B24D430CA24E43AA914F64
:103B000043488150432771514306615243E5505366
:103B100043C5405443A4305543C5205643E5105790
:103B2000434801584368F15843CBE159436FD25A97
:103B300043D1C25B4375B35C4319A45D43BC945E3F
:103B400043A2855F43877660436D67614352586245
:103B50004379496343A03A6443C72B65432F1D66ED
:103B600043980E6743000068431582079BF3698200
:103B700079B72900003DF1822939370719791105F4
:103B800000F1116D007A792D00EB8229009B1B0753
:103B900079EB716500EB82D9DAB27A3BC2FBF200B5
:103BA0000000000000000000000000000000000015
:103BB0000000000000000000000000000000000005
:103BC00000000000000000000000000000000000F5
:103BD00000000000000000000000000000000000E5
:00000001FF
