:100000000C942A000C9447000C9447000C94470071
:100010000C9447000C9447000C9447000C94470044
:100020000C9447000C9447000C9439120C94470030
:100030000C9447000C9447000C9447000C94470024
:100040000C9447000C9447000C9447000C94470014
:100050000C94470011241FBECFE5D8E0DEBFCDBF12
:1000600015E0A0E6B0E0E8EDF6E302C005900D92E1
:10007000A831B107D9F727E0A8E1B5E001C01D928A
:10008000A53EB207E1F70E94DB0F0C946A1B0C94AB
:100090000000EF92FF920F931F93CF93DF939C0189
:1000A000EB01E0E0F0E097FD1EC08B017B01E0E09A
:1000B000F0E0C9016AE070E00E946818AF01319673
:1000C000D7018D937D01C9019B010A9794F7DA014D
:1000D000AC0FBD1FCF0195958795AE01480F591FF5
:1000E0000417150741F4CF01DF91CF911F910F91B4
:1000F000FF90EF900895E80189918E019C919E01F7
:1001000021503109E90198838C931197E9CFAF927F
:10011000BF92CF92DF92EF92FF920F931F93CF93F4
:10012000DF9300D000D00F92CDB7DEB78C839D83D4
:100130008B014B83FC0101900020E9F73197E81B0C
:10014000F90B6E177F0748F06C01FC0180E090E02E
:100150008017910724F0009751F480E023C020819C
:10016000211102C0009705C031960196F1CF80178A
:10017000910799F3EC81FD81E00FF11F1082E12CD2
:10018000F12C5801A81AB90A8C819D8101978983A5
:100190009A83EA14FB04B4F080E090E08A159B0592
:1001A000E4F081E00F900F900F900F900F90DF918F
:1001B000CF911F910F91FF90EF90DF90CF90BF9064
:1001C000AF900895A80169817A818C819D810E94F8
:1001D0000F1B9FEFE91AF90ADCCFF6012B8121935F
:1001E0006F010196DBCF40E30C94870040E20C9452
:1001F000870090BD89B988E08AB988E18AB986E824
:1002000080BD08955D9BFECF8CB908955F9BFECFA6
:100210008CB108951F920F920FB60F9211242F9355
:100220003F934F935F936F937F938F939F93AF937E
:10023000BF93EF93FF930E941404FF91EF91BF913E
:10024000AF919F918F917F916F915F914F913F916E
:100250002F910F900FBE0F901F901895CF93DF93A3
:10026000EC018881811103C0DF91CF91089521961F
:100270000E940201F6CF0E942E018AE00C94020136
:10028000CF93DF93EC01FE018491811521F00E9450
:1002900002012196F8CFDF91CF9108950E9440018D
:1002A0008AE00C9402010895FC018181811103C050
:1002B0009081911591F081508183811531F481E015
:1002C0009081911559F080E008950CF0FCCF8BE3FC
:1002D0008183808181508083F6CF81E00895FC0185
:1002E000218190812B3321F49B3331F481E00895F7
:1002F0009B331CF0D9F72C33CCF72F5F21832B33A2
:1003000029F481E09B3341F080E008950CF4FCCFA8
:1003100011829F5F9083F8CF0895CF93DF9300D031
:1003200000D0CDB7DEB719821A821B821C82809161
:100330001A0590911B05892B39F544B125B180919F
:100340005B0790915C07FC01EE0FFF1FEB5CFA4F1F
:100350004083218301968C33910560F480935B0781
:1003600090935C0780E00F900F900F900F90DF91BB
:10037000CF91089510925B0710925C0781E0809303
:100380001A0510921B05EECF9E012F5F3F4F4CE3E5
:1003900050E065E375E084E295E00E940902811572
:1003A00009F369817A818B819C810E94BC196B332E
:1003B000710548F480912205909123050196809360
:1003C00022059093230580911E0590911F050196AB
:1003D0008230910554F480931E0590931F0510926E
:1003E0001A0510921B0581E0BECF10921E051092D7
:1003F0001F0581E02091220530912305223031052F
:100400000CF480E080938706109222051092230559
:10041000E6CF4F925F926F927F928F929F92AF92B0
:10042000BF92CF92DF92EF92FF920F931F93CF93E1
:10043000DF9300D000D000D0CDB7DEB78B839C8394
:100440008A0129833A83FC0180818130A0F51382DF
:100450001482158216821182128281E08083EB81E0
:10046000FC81E180F280C701880F991F860F971FDA
:10047000FC016081718180E090E00E94EB19EB81CA
:10048000FC8123813481458156810E94D2184B0121
:100490005C01EB81FC81638394828583B682FFEFEC
:1004A000EF1AFF0AEB81FC81E016F10608F0B1C0FB
:1004B000E182F282CCC099F2823009F0C8C0EB81AF
:1004C000FC81E180F2806701CC0CDD1CC60ED71EDA
:1004D000F6016081718180E090E00E94EB192B01B0
:1004E0003C01EB81FC8183809480A580B6809401DF
:1004F000A5010E949D1A181624F5EB81FC818781C5
:100500009085019687839087F6016081718180E0F4
:1005100090E00E94EB192B013C019401A5010E947F
:10052000D1189B01AC01EB81FC81638574858585C5
:1005300096850E94D218EB81FC816387748785873A
:1005400096879201A301B401C5010E949D1A181655
:100550003CF4EB81FC8181859285019681879287AD
:10056000FFEFEF1AFF0AEB81FC81E016F10608F4B9
:100570009FCF118212821082C384D484E584F684D2
:1005800040E050E09A01B601C7010E943E1987FF82
:100590000AC0F7FAF094F7F8F094EB81FC81C38677
:1005A000D486E586F686EB81FC816781708581853E
:1005B0009285681B790B872F880F880B982F0E94D4
:1005C000ED199601A7010E94A21A6B837C838D838B
:1005D0009E83009FB001019F700D700D1124872F25
:1005E000880F880B982F0E94ED199B01AC016B813D
:1005F0007C818D819E810E9443199401A5010E94F6
:10060000D218E981FA81608371838283938381E0C8
:100610001FC011821282B801110F880B982F0E94FF
:10062000ED199B01AC01B401C5010E944319EB8196
:10063000FC81638374838583968317821086118679
:100640001286138614861586168682E0808380E0E3
:100650000F900F900F900F900F900F90DF91CF9110
:100660001F910F91FF90EF90DF90CF90BF90AF90D0
:100670009F908F907F906F905F904F9008958091A2
:10068000D40580FD06C08091D3059091D205891BC9
:1006900008958091D40581FD06C09091D205809186
:1006A000D305805EF4CF9091D305F9CFE091D305C7
:1006B000F0E0EE54FA4F80838091D40580FF0BC0A8
:1006C0009091D3058091D205981305C08091D405EF
:1006D00082608093D4058091D3058F5F8093D3058A
:1006E000803239F41092D3058091D40581608093D3
:1006F000D4050895E091D205F0E0EE54FA4F8081E0
:100700009091D2059F5F9093D2059091D2059F71F1
:100710009093D2052091D2059091D30529130AC058
:100720009091D4059E7F9093D4059091D4059D7FA0
:100730009093D4050895CF92DF92EF92FF920F939A
:100740001F93CF93DF93EC01162F611569F0809111
:10075000D40580FD13C07E01E60EF11C0E947A03D1
:100760008993CE15DF05D1F7812FDF91CF911F91AE
:100770000F91FF90EF90DF90CF9008958091D40576
:1007800084608093D4058091D40581FF04C080915A
:10079000D3058093D205D090D20500E20D19CC2E5E
:1007A0007E010117A0F07E01E10EF11C0E947A0388
:1007B0008993CE15DF05D1F78091D4058B7F809387
:1007C000D405D2CF0E947A03F70181937F018E2D49
:1007D0008C198017B8F380EE8D0D180F100F0117CC
:1007E00059F37E01E00EF11C0E947A03F701808329
:1007F0000F5FF5CF8091D40580FF0C947A03809130
:10080000D40584608093D4058091D40581FF04C011
:100810008091D3058093D2050E947A039091D405EC
:100820009B7F9093D4050895FF920F931F93CF93CE
:10083000DF93FCB08091D405C091B10582FF11C057
:1008400081E08C0F8093B105C370DC2FDD0FDD0BD1
:10085000C355DA4FF882DF91CF911F910F91FF902E
:1008600008951C168CF40DEA15E0DC2FDD0FDD0B6E
:10087000C355DA4FF80181918F010E9456030C177E
:100880001D07C1F71092B1058F2DDF91CF911F91F8
:100890000F91FF900C9456038827B499839508957F
:1008A000C49ABC988CE494E08093D7059093D805C3
:1008B0008FE99FE00197F1F700C00000E091D705B4
:1008C000F091D80509959091D60580FB91F980FBB0
:1008D00092F9892F88608093D60508950F931F930E
:1008E000CF93DF938091D60580FF30C08091D505EE
:1008F00091E0980F843039F09093D505DF91CF9136
:100900001F910F9108951092D505E091D705F091B0
:10091000D8050995282F21709091D60592FB0027C4
:1009200000F910E0082E001C00088017010621F4D1
:1009300020FB91F9986002C020FB92F99093D605B4
:100940008091D6058E7F8093D605D8CFE091D705CC
:10095000F091D80509959091D60592FBCC27C0F966
:10096000D0E0082E001C00088C170D0639F280FB21
:10097000882782F981609A7F892BE5CFDC019D96DB
:10098000ED91FD912C9181E001C0880F2A95EAF745
:100990009081613019F4892B808308958095892393
:1009A000FBCFDC0190962D913D912D933D931996AF
:1009B000ED91FD914C9181E001C0880F4A95EAF7D5
:1009C0009081121613061CF4892B8083089580955C
:1009D0008923FBCFEF92FF920F931F93CF93DF9367
:1009E00000D000D000D0CDB7DEB78D839E83FC0150
:1009F000E280F380E60EF71EE282F3828085918525
:100A00008E159F0524F4828393837C0107C0ED81BA
:100A1000FE8182859385E816F906ACF3ED81FE81AF
:100A2000848195818B01081B190B068317836483CE
:100A30007583872F880F880B982F0E94ED19ED8101
:100A4000FE8122893389448955890E94A21A6983CB
:100A50007A838B839C83B701FF0C880B982F0E94AD
:100A6000ED19ED81FE8126893789408D518D0E94D7
:100A7000A21A9B01AC0169817A818B819C810E94C1
:100A8000D21869837A838B839C83B801110F880BFA
:100A9000982F0E94ED19ED81FE81228D338D448DBA
:100AA000558D0E94A21A9B01AC0169817A818B81CC
:100AB0009C810E94D2180E94B519CB010F900F9013
:100AC0000F900F900F900F90DF91CF911F910F918A
:100AD000FF90EF900895CF93DF93EC010E94EA041A
:100AE00048895989849F9001859F300D949F300DCE
:100AF000112428A339A38C859D85821793071CF4A4
:100B000088A399A305C08E859F8528173907C4F34C
:100B1000DF91CF910895FC01868D978D0196868F88
:100B2000978F44A147FD10C022A133A112161306CE
:100B30005CF44130F0F421A532A58217930720F030
:100B4000168E178E81E084A381A592A52485358514
:100B5000820F931F23A534A5820F931F268D378DF7
:100B600028173907E0F0168E178E14A2CF010C94C7
:100B7000D10451F78217930738F384859585281798
:100B8000390714F7A5A5B6A52C9137A581E001C0BA
:100B9000880F3A95EAF7809582238C93D5CF0895F4
:100BA000CF93DF93EC010E946B0580919D0780FF3E
:100BB00011C08DA19EA101968DA39EA32FA138A542
:100BC0008217930738F01DA21EA2CE01DF91CF91AC
:100BD0000C948B05DF91CF910895E9EDF5E09087B6
:100BE0008783618708959093DD058093DC050895E0
:100BF00081E08093D9050895E9EDF5E03185A7817D
:100C0000B0852C9181E001C0880F3A95EAF7809574
:100C100082238C931082089583E08093D9050895F0
:100C2000E9EDF5E091850780F085E02D808121E0F8
:100C300001C0220F9A95EAF7822B80830895E9ED8F
:100C4000F5E031850780F085E02D208181E001C04D
:100C5000880F3A95EAF780958223808308958091E2
:100C6000D905813099F59091E205E091E005F09188
:100C7000E105808121E001C0220F9A95EAF7822BDD
:100C800080831092DB051092DA058091D9058F5F81
:100C90008093D9058091D9058330D9F59091E205EB
:100CA000E091E005F091E105808121E001C0220F93
:100CB0009A95EAF7822780831092DB051092DA0575
:100CC0008091D9058F5F8093D90508958091D905CA
:100CD000823001F780919D0780FFDCCF8091DA059B
:100CE0009091DB0501969093DB058093DA052091C6
:100CF000DA053091DB058091DC059091DD05281740
:100D0000390740F21092DB051092DA050E94FC05CB
:100D1000C1CF8091D9058430C1F680919D0780FFB5
:100D2000D4CF8091DA059091DB0501969093DB0595
:100D30008093DA052091DC053091DD058217930759
:100D400020F28091D9058150BECF88278199839563
:100D5000089580B3817008958827B3998395089585
:100D600088278699839508958827C999839508953A
:100D700086B3817008958827CB9983950895CF9382
:100D8000DF9300D000D000D0CDB7DEB729833A83FF
:100D90004B835C836D837E8390E1899FD001112416
:100DA000AD50BA4F86E0FE01319601900D928A95C2
:100DB000E1F70F900F900F900F900F900F90DF9131
:100DC000CF9108951F93CF93DF9300D000D000D030
:100DD000CDB7DEB789988898BB988E98D198B89887
:100DE000D39885EA96E09093EB058093EA0589EA2B
:100DF00096E09093FB058093FA058CEA96E0909339
:100E00000B0680930A0680EB96E090931B06809376
:100E10001A0684EB96E090932B0680932A0688EBC3
:100E200096E090933B0680933A068BEB96E0909386
:100E30004B0680934A06FE01319686E0DF011D9243
:100E40008A95E9F789818160898310E029813A8157
:100E50004B815C816D817E81812F0E94BF061F5F67
:100E60001730A1F70F900F900F900F900F900F90E9
:100E7000DF91CF911F91089590E1899FF001112496
:100E8000E750FA4F808182FB882780F9089590E12E
:100E9000899FF0011124E750FA4F80818695817077
:100EA000089590E1899FF0011124E750FA4F808165
:100EB00082608083089590E1899FF0011124E750BA
:100EC000FA4F80818D7F8083089590E1899FF001A2
:100ED0001124E651FA4F0280F381E02D099490E14C
:100EE0008902F0011124E750FA4F80818170089542
:100EF00090E18902F0011124E750FA4F808185FBCF
:100F0000882780F9089590E18902F0011124E750C3
:100F1000FA4F80818F7D80830895EF92FF920F9327
:100F20001F93CF93DF9396E0E92EF12C8AE18A9507
:100F3000F1F700C0870102951295107F1027007FFE
:100F40001027E801C651DA4F8C81811106C0E88173
:100F5000F98109958115D9F417C08C81813011F57B
:100F60008D818F5F8D83813091F41D82E881F981BD
:100F70000995811519F08C81815008C0F801E7505E
:100F8000FA4F8081816080838C818F5F8C8381E0C8
:100F9000E81AF10858F6DF91CF911F910F91FF9059
:100FA000EF9008958C81823029F4E881F9810995C8
:100FB0008130D1CF8C81833051F78D818F5F8D83CC
:100FC000813029F71D82E881F9810995813099F6F0
:100FD000F801E750FA4F80818E7F80831C82D7CF43
:100FE00090E18902F0011124E651FA4F968181E0E7
:100FF000983009F480E008950F931F93CF93DF9307
:1010000020E030E049E0CAE053E062E07BE0C90163
:1010100082959295907F9827807F9827FC01E651D2
:10102000FA4FA681A11140C0A685A11569F0E685F9
:10103000F0E0ED51FA4FE081E13031F4FC01E7508E
:10104000FA4FE081E3FF30C0DC01A750BA4FEC91CA
:101050001E2F1170E0FF28C0FC01ED50FA4FD08127
:10106000D0FF53C1DC91D260DC93A081FC01E6513A
:10107000FA4FA1FF03C0A8E0A68301C01683DC01DC
:10108000A750BA4FEC91E061EC93FC01E651FA4FA6
:10109000D685D11549F0E685F0E0ED51FA4FD1E063
:1010A000D083EC91E860EC93FC01E651FA4FA68105
:1010B000A83068F0A681AB3050F4DC01A750BA4FDD
:1010C000AC91A0FD04C010861782A3E0A683FC01AA
:1010D000E651FA4FA681A83069F4A781B085119630
:1010E000B087A78302851385A017B10718F0108673
:1010F00017824683DC01A651BA4F1696EC911697DB
:10110000E93059F4FC01E750FA4FD081D1FD05C018
:10111000D081D260D0831696CC93FC01E651FA4F71
:10112000A681AA3069F4A781B0851196B087A783FC
:1011300004851585A017B10718F01086178246831D
:10114000DC01A651BA4F1696EC911697E63059F489
:10115000FC01E750FA4FD081D0FD05C0D081D260AC
:10116000D08316965C93FC01E651FA4FA681A73016
:1011700039F4DC01A750BA4FDC91D260DC9366836E
:10118000FC01E651FA4FA681A430A1F5A781B085F4
:101190001196B087A783DC01A750BA4FDC91D0FD30
:1011A0000FC0078110850333110550F41086178294
:1011B000DC91D260DC93DC91DB7FDC93A3E0A6833F
:1011C000FC01E651FA4FA781B085D39798F01086BD
:1011D0001782DC01A750BA4FDC91D260DC93DC911E
:1011E000D460DC93DC01AD50BA4FAC91A1FDABC033
:1011F000A1E0A683FC01E651FA4FA681A53089F54E
:10120000A781B0851196B087A783DC01A750BA4F9C
:10121000DC91D0FD0FC0078110850333110550F418
:1012200010861782DC91D260DC93DC91DB7FDC934B
:10123000A3E0A683DC01A651BA4F1796ED91FD916C
:101240001997EB34F10568F019961E921E92FC0175
:10125000E750FA4FD081D260D083D081D460D08360
:101260006E93FC01E651FA4FA681A13031F4DC0106
:10127000A750BA4FAC91A0FF5683DC01A651BA4FDC
:101280001696EC911697E23059F4FC01E750FA4FAC
:10129000D081D0FD05C0D081DD7FD08316967C93B0
:1012A000FC01E651FA4FA681A33031F4DC01A750CE
:1012B000BA4FAC91A1FF7683FC01E651FA4FA681AB
:1012C000AB30C1F4A685A11559F0E685F0E0ED51EB
:1012D000FA4F1082FC01E750FA4FA081A77FA0834C
:1012E000FC01E651FA4F1682FC01E750FA4F80816B
:1012F0008F7E80832F5F3F4F2730310509F087CEE7
:10130000DF91CF911F910F910895D081D2FF05C039
:10131000A6E0FC01E651FA4FAFCED081D3FF02C068
:10132000A7E0F7CFD081D4FF02C0A4E0F2CFE081E4
:10133000E5FFA5CED5E0FC01E651FA4FD683EC914E
:10134000E062EC939CCEAAE054CF0E948D070C94EF
:10135000FC0780E090E0FC01E295F295F07FFE272B
:10136000E07FFE27E750FA4F208120FD06C001965E
:101370008730910581F781E0089580E0089580E04D
:1013800090E0FC01E295F295F07FFE27E07FFE27DA
:10139000E750FA4F20812D7F2083019687309105F9
:1013A00081F708950C94BF0980E090E0FC01E2957C
:1013B000F295F07FFE27E07FFE27E750FA4F20816D
:1013C00024FD06C001968730910581F781E00895DC
:1013D00080E008958093690690936A0608950F93BC
:1013E0001F93CF93DF93CDB7DEB72C970FB6F8944A
:1013F000DEBF0FBECDBF809183069091850680FD34
:101400007CC0191644F080918706181624F080914C
:1014100089061816CCF48091830681608093830638
:1014200086E990E00E94F3050E940C0660E08AE2E3
:1014300097E00E94BE0488E0E2E2F7E0AEE6B6E0A4
:1014400001900D928A95E1F780918006E82FEE0FCA
:10145000FF0BEC57F94F9081913008F07BC0E82FDB
:10146000EE0FFF0BE058F94F958119160CF096C05E
:101470000E94F00D44E050E065EB74E08E010F5FD8
:101480001F4FC8010E94211B44E060E0C8010E9478
:10149000CB0D809180060B871C8744E050E061EB08
:1014A00074E0813030F009F04DC044E050E06DEA66
:1014B00074E0C8010E94211B44E064E08B859C8598
:1014C0000E94CB0DE0918006EE0FFF0BEC57F94F19
:1014D00080818F5F808310928106109282068091B6
:1014E000830681702C960FB6F894DEBF0FBECDBF79
:1014F000DF91CF911F910F91089581E0911180E0CC
:1015000090918706911101C08F5F9091890691118A
:101510009BCF823009F098CF0E94FC058091830612
:101520008E7F8093830688E0EEE6F6E0A2E2B7E0E5
:1015300001900D928A95E1F7F89488E181BD88E0E9
:1015400081BDFFCF823009F0B7CF44E050E069EAB7
:1015500074E0AFCF21F6A82FAA0FBB0BA058B94F4C
:1015600015969C91911102C01082B9CF90919D0760
:1015700090FFB5CF20918106309182062F5F3F4FBB
:10158000283E93E0390728F42093810630938206A1
:10159000A6CF109281061092820610828F5F833050
:1015A0001CF4809380069BCF1092800698CF809386
:1015B0008A0690938B060895E0918A06F0918B0637
:1015C000108211828170826094819C7F892B848338
:1015D0000895E0918A06F0918B06808191810196B1
:1015E00080839183228133818217930750F0108288
:1015F00011829481892F8095817082609C7F892BD4
:101600008483089597B18F71907E892B87B908954F
:1016100097B18295880F880F807C9F73892B87B93B
:10162000089596B1987F892B86B90895379A0895C1
:1016300037980895369A089536980895811102C012
:101640003D9808953D9A089585B1089584B108950F
:10165000359A08953598089590B78295880F807EC1
:101660009F70892B80BF0895CF93DF9300D0CDB7B3
:10167000DEB78983862F4A830E94080B8A810E94E5
:10168000110B89818F3F41F40E942A0B0F900F901C
:10169000DF91CF910C94160B0E94280B89810E9438
:1016A0002C0BF4CF0E94020B0C941A0B0E94520BCD
:1016B000349BFECF349A0895359911C00E94560B81
:1016C00024B13D9B11C085B134E0839FC00111243A
:1016D0002295269526952370820F911D0895349AA0
:1016E000349BFECF349AECCF85B1982F80E0F4CFB5
:1016F000CF92DF92EF92FF92CF93DF9300D000D092
:1017000000D0CDB7DEB769837A838B839C8320E0DA
:1017100030E048EC52E40E94D1182FEA30ED4FEA55
:101720005EE30E9443190E94B5196D837E836F3F6B
:1017300071050CF461C08EEF8D831E82ED81FE81F8
:10174000EE0FFF1FEE0FFF1FEF55FF4FC080D18040
:10175000E280F3802D813E81B901330F880B982FF1
:101760000E94ED192FEA30ED4FEA5EE30E94A21AC3
:1017700020E030E048EC52E40E94D2189B01AC011A
:1017800069817A818B819C810E94D11869837A83D7
:101790008B839C838D819E81880F991F880F991F51
:1017A0008B559F4F8D839E839601A701FC0160811D
:1017B0007181828193810E94D1189B01AC01698162
:1017C0007A818B819C810E94A21A2FEA30ED4FEA28
:1017D0005EE30E9443199601A7010E94D2180F9060
:1017E0000F900F900F900F900F90DF91CF91FF907F
:1017F000EF90DF90CF900895ED81FE81F7FF9ECFAF
:101800001D821E829BCF0F931F93CF93DF938C017A
:10181000EB0144E060E0CE010E94B70D0F3F1007DE
:1018200061F487E1888389E18983CE010296DF91A3
:10183000CF911F910F910C94A20D083E83E01807E1
:101840003CF08BE188838BE0898389E38A83EDCF49
:1018500043E0BE01C8010E94F60D80EF8B83E5CF07
:10186000CF93DF93CDB7DEB72A970FB6F894DEBFDC
:101870000FBECDBF89879A879E012F5F3F4F4CE3F4
:1018800050E060EA76E08FE896E00E940902811558
:1018900081F189819A81AB81BC818D839E83AF83E5
:1018A000B88740E050E09A01BC01CD010E949D1A2A
:1018B000181644F521EA36E648EC5DE36D817E8139
:1018C0008F8198850E94A21A20E030E048EC52E413
:1018D0000E94D21821E230EB42E85FE30E94A21A94
:1018E0000E94780B0E94B519A985BA856D937D93E6
:1018F00081E02A960FB6F894DEBF0FBECDBFDF9110
:10190000CF910895E985FA8510821182F1CFCF93A6
:1019100080918C06811121C044B125B180915F076F
:1019200090916007FC01EE0FFF1FE056F94F4083D6
:10193000218301968C33910540F480935F07909347
:101940006007C0E08C2FCF91089510925F0710922E
:10195000600781E080938C06F4CF8DE896E00E94CA
:10196000300CC82F811569F38091E20780FD1CC0FF
:1019700060918D0670918E06872F880F880B982FA7
:101980000E94ED1926E636E646EE5FE30E94A21AB3
:1019900020E030E040E052E40E94D2180E94B519E5
:1019A00060938D0670938E0610928C06CBCF87B312
:1019B000806B87BB87E18DB908958FB9779BFECF88
:1019C0008FB108950F931F93979825E02A95F1F70B
:1019D000000080E00E94DD0C082F80E00E94DD0CFA
:1019E0003AE13A95F1F700C0979A82FD23C0282F7B
:1019F000302FB90183E0769567958A95E1F780E00D
:101A000090E00E94EB1920E030EF4FE754E40E9491
:101A1000A21A20E030EF4FE755E40E944319562FF9
:101A2000472F382F292F652F742F832F922F1F9127
:101A30000F91089540E050E02FEB30E8F4CF0F9382
:101A40001F93CF93DF930F92CDB7DEB7979885E0C2
:101A50008A95F1F700008827B59983958195898348
:101A60006E9A89810E94DD0C082F89810E94DD0C0D
:101A70009AE19A95F1F700C06E98979A82FD0CC092
:101A8000902F23E0969587952A95E1F70F90DF91A7
:101A9000CF911F910F9108958FEF9FEFF7CF809314
:101AA000210760931F077093200740931D075093F1
:101AB0001E0720931B0730931C07089580911A0777
:101AC00081501AF480912107815024E08202C001E4
:101AD0001124E0911B07F0911C07E80FF91F0190FA
:101AE000F081E02D099580911A07A0911F07B09110
:101AF0002007E0911D07F0911E07E80FF11D87FDFB
:101B0000FA9590819C9324E08202C0011124E09117
:101B10001B07F0911C07E80FF91F0280F381E02DED
:101B2000099580911A078F5F80931A0720912107EA
:101B300030E0082E001C00088217030611F41092F2
:101B40001A070895FC01208124FB992792F922FBB2
:101B5000882784F9982B2B7E922B9083089584E21A
:101B600097E00E94A20D88E297E00C94A20D20E07D
:101B700030E0042E001C0008241730050CF00895F6
:101B8000562F520FFC01E50FF11D57FDFA951082FB
:101B90002F5F3F4FEECFDC0180E090E0042E001C71
:101BA0000008841790050CF00895E62FE80F2D919A
:101BB000FE2FFF0FFF0BEE5DF84F20830196EECF57
:101BC000A2E2B7E0FC0180E090E0062E001C0008D5
:101BD000861790050CF008952D9121930196F5CF6D
:101BE00048E060E082E297E00C94B70D0F931F93FA
:101BF000CF93DF93CDB7DEB72D970FB6F894DEBF46
:101C00000FBECDBF8C879D878B014B8760E0C801DD
:101C10000E94B70DBE016F5F7F4F8C859D850E942E
:101C20004900BE016F5F7F4F2B85422F220F550B5E
:101C3000481B590BD801A40FB51F40E050E04817CE
:101C400059075CF02D960FB6F894DEBF0FBECDBFDE
:101C5000DF91CF911F910F910895FB012191BF0159
:101C600030E023533B4FF90120812D934F5F5F4FAD
:101C7000E6CFFF920F931F93CF93DF93CDB7DEB7DD
:101C80002A970FB6F894DEBF0FBECDBF8B01F42E9E
:101C9000FB013BEE2E2F201B2F15FCF0BE016F5FCA
:101CA0007F4F0E944900DE0111964F2DFF0C550B0E
:101CB000481B590B040F151F40E050E04817590707
:101CC00074F02A960FB6F894DEBF0FBECDBFDF9139
:101CD000CF911F910F91FF9008953193DBCF2D91FC
:101CE00030E023533B4FF9012081F80121938F010C
:101CF0004F5F5F4FE3CFFC01908194609083089524
:101D0000FC0190819B7F9083089595980895959A02
:101D1000089592980895929A089593980895939AA1
:101D2000089594980895949A0895DF980895DF9AF5
:101D30000895DE980895DE9A0895DD980895DD9A55
:101D40000895DC980895DC9A0895CF93DF9320E6F8
:101D500030E042E257E065E370E088E00E944F0D1A
:101D6000C0E6D0E0E881F9810995249680E0C0388A
:101D7000D807C1F78D9A8A9A8B9A8C9AD79AD69A55
:101D8000D59AD49A84B38FEF84BBDF91CF91089515
:101D900024E620935107109252078AE080933A0775
:101DA00010923B072093360710923707109238079E
:101DB0001092390725E0209353071092540722E32D
:101DC000209355071092560745E555E565E57FE3F5
:101DD00040933C0750933D0760933E0770933F0745
:101DE0004DEC5CEC6CEC7DE3409340075093410775
:101DF000609342077093430710924407109245077F
:101E00001092460710924707109234071092350738
:101E1000809332071092330788E38093570710921C
:101E2000580782E08093590708958091DC079091CC
:101E3000DD072091180730911907821B930B21E0D1
:101E4000863091050CF02AE0209332071092330778
:101E500008950F931F93CF93DF9300D000D000D04D
:101E6000CDB7DEB78C0186E0EAE8F0E0DE0111963E
:101E700001900D928A95E1F72981216029833A81A9
:101E80004B815C816D817E81F80181810E94BF065A
:101E900029813A814B815C816D817E81F80180814D
:101EA0000E94BF0629812E7D206229833A814B81C1
:101EB0005C816D817E81F80184810E94BF06298149
:101EC0002C7D236029838AE0382F8A831B8282E05D
:101ED000582F8C831D821E8240E060E070E0F80184
:101EE00082810E94BF0629813A814B815C816D818C
:101EF0007E81F80183810F900F900F900F900F90CB
:101F00000F90DF91CF911F910F910C94BF0686E641
:101F100097E00E94290F80E897E00C94290F89E34D
:101F2000EBEDF4E0A2E6B7E001900D928A95E1F7BF
:101F300081E08093680782E08093690793E0909343
:101F40006A0786E08093800784E08093820725E01B
:101F5000209383079093840780937C0708950E94C1
:101F60002A0B0E94180B82E00E94020B0E94160BA3
:101F700087E00E94110B81E00E94080B0E94280B51
:101F800080E00E942C0B0C941A0B0E942A0B0E94DA
:101F9000180B80E00E94020B0E94160B87E00E9443
:101FA000110B83E00E94080B0E94280B80E00E9426
:101FB0002C0B0C941A0BCDB7DEB762970FB6F894C2
:101FC000DEBF0FBECDBF0E94A50E46E050E064E02C
:101FD00070E08CED97E00E94391B0E948F0F919A60
:101FE000909AC39A969AD99AC09ADB9A8FE99FE001
:101FF0000197F1F700C000000E94E2060E94500421
:10200000C298BA9AC19AB998BD9A65E088E390E0FF
:102010000E94ED058BE490E00E94F30512BE8BE078
:1020200083BF89EF8CBF89B7826089BF78940E9493
:10203000C80E0E94F00D44E050E065EA74E0CE0165
:1020400001960E94211B44E060E0CE0101960E94AF
:10205000CB0D44E050E061EA74E0CE0101960E94AD
:10206000211B44E064E0CE0101960E94CB0D10E0FC
:10207000812C912C54016401740180919E0780FF92
:102080000AC080919E078E7F80939E0780919D0756
:10209000816080939D0780919D0780FD0E945E0D69
:1020A00080919D0790919C0796FD19C080FF08C004
:1020B00027EBA2162BE0B2065CF48FEFA81AB80A41
:1020C0000E942F0680919D078E7F80939D07D5CF1C
:1020D000892F806480939C07A12CB12CF1CF111122
:1020E000AEC080FD02C010E016C09FEF891A990AA9
:1020F00026E98216910478F091E021E081FD922793
:1021000090FB81F980939D0781FF96C00E94AF0FDD
:1021100011E0812C912C8827B199839580938906B1
:1021200080919D0780FF33C08FEFE81AF80A94E191
:10213000E916F10461F50E946E048091D60583FFD3
:1021400024C0877F8093D60580919C07846080930C
:102150009C078BE490E00E94F3050E94F8050E9422
:10216000F00D8091D60581FD90C00E94150FBC0135
:102170008AE297E00E946B058AE297E00E94D10410
:1021800080919C07816080939C07E12CF12C8091C9
:102190009C078570853009F093CF0E94EF0981116B
:1021A0008FCF80919B07813008F09EC00E94870FDF
:1021B00044E060E089EB94E00E94CB0D80919607AB
:1021C0008160809396071092970780919B078F5F9D
:1021D00080939B0783E00E944707811509F48EC016
:1021E00083E00E945B0783E00E943C079091140506
:1021F000813009F00CC182E0809397079093980793
:1022000088EE93E00E94F3050E94F80542E050E05A
:1022100060E070E089EA97E00E94491B42E050E0EC
:1022200062E070E083EC97E00E94491B68E0CE0119
:102230000B960E94E00D62C00E94C50F69CF81FF1E
:102240001DC00E94870C811509F465CF80919C0701
:10225000826080939C071092850680918D069091F4
:102260008E0620911807309119072817390709F4AD
:102270003ACF809318079093190735CF0E948D01AC
:1022800011E0811509F447CF2ECF80919C078E7FF6
:1022900080939C0744E064E089EC94E00E94CB0DBD
:1022A00060E08AE297E00E94BE040E948F0F809156
:1022B00015059091160580939B0790939C078AE0E3
:1022C000E6E7F6E0A0E8B6E001900D928A95E1F726
:1022D0000E94FC058AE0E0E8F0E0AAE1B5E00190A8
:1022E0000D928A95E1F751CF09F061C082E08093A9
:1022F0009B0780919707823008F46CCF80919707F5
:102300008230D1F40E94C8168130B1F490919607C2
:1023100090FF89C01092970786E697E00E94290FE8
:1023200080E897E00E94290F0E94F00D44E060E0F1
:1023300089EB94E00E94CB0D809197078330D1F414
:102340000E94F7178130B1F49091960790FF7EC0FC
:102350001092970786E697E00E94290F80E897E0A1
:102360000E94290F0E94F00D44E060E089EB94E0A8
:102370000E94CB0D8091960782FD0E9498160E94C4
:10238000150FBC018AE297E00E94D00580919D075D
:1023900080FF96CE2FEFC21AD20A84E1C816D1046C
:1023A00009F08ECE0E94A509C12CD12C89CE823095
:1023B00009F09FCF8091970781119BCF80911807DB
:1023C0009091190797FD06CF88EE93E00E94F305E0
:1023D0000E94F805809196078E7F8093960781E092
:1023E0008093970786E697E00E94290F10926B076B
:1023F00080E897E00E94290F109285078091960748
:1024000084608093960780919B078F5F70CF83E0F5
:102410008093970790939A0788EE93E00E94F305C4
:102420000E94F80503CF8093970786E697E00E9405
:10243000290F10926B0780E897E00E94290F1092F5
:10244000850748E060E0CE010B9674CF8093970734
:1024500086E697E00E94290F10926B0780E897E0CC
:102460000E94290F1092850748E060E0CE010B968C
:102470007FCF8F938FB78F9380919E0781608093DA
:102480009E078F918FBF8F911895EF92FF920F93B8
:102490001F93CF93DF9300D0CDB7DEB77C018B01C4
:1024A000FC01808142E0BE016F5F7F4F982F990F42
:1024B000990B0E94F60D8981F80180838A818183BE
:1024C000F701818142E0BE016F5F7F4F982F990F26
:1024D000990B0E94390E7801F2E0EF0EF11C898110
:1024E000F80182838A818383C80101960E947B0E52
:1024F000C7010E947B0EC7010E94A20D0F900F9092
:10250000DF91CF911F910F91FF90EF9008951F934E
:10251000CF93DF9300D000D000D0CDB7DEB74D838E
:102520005E83FC0120814CE324039001112481810E
:10253000F901E80FF11D87FDFA95CF01FB0120811C
:102540002403900111245181250F311D57FD3A9527
:10255000ED81FE8150815403A00111246181460F59
:10256000511D67FD5A95241B350B821B930B79F186
:1025700072F19C01492F440F440B542F89833A83F5
:102580004B834C83BC01CA010E94ED1920E030E06E
:1025900040E752E40E9443190E94B519162F698141
:1025A0007A818B819C812CE330E040E050E00E94F6
:1025B0007C18ED81FE81108361830F900F900F9046
:1025C0000F900F900F90DF91CF911F91089510E021
:1025D00060E0EFCF8F929F92AF92BF92CF92DF9247
:1025E000EF92FF920F931F93CF93DF93CDB7DEB798
:1025F00064970FB6F894DEBF0FBECDBF02E617E0BA
:1026000080E0A82E80E0B82E9FE9C92E97E0D92E51
:10261000E12CF12CE0E9F1E0D8015596ED93FD9322
:102620004801FAE08F0E911C42E050E0B501C40170
:102630000E94391BD8011A968D919D91F6018287CF
:1026400093871D921D922AE12E9DF0012F9DF00D82
:102650001124DF01A059B84F8C9182608C93D8016E
:1026600013961C92EC59F84F808181608083809191
:102670009707813069F4BE016F5F7F4FC4010E94EC
:10268000451244E0F8016081CE0101960E94CB0D15
:10269000C80104960E94290FD80119961C92C701FF
:1026A0000196065E1F4FB2E0AB0EB11CEAE1CE0E02
:1026B000D11CEE24E394F12C029709F0ABCF649681
:1026C0000FB6F894DEBF0FBECDBFDF91CF911F9143
:1026D0000F91FF90EF90DF90CF90BF90AF909F90C1
:1026E0008F9008953F924F925F926F927F928F9258
:1026F0009F92AF92BF92CF92DF92EF92FF920F9391
:102700001F93CF93DF93CDB7DEB764970FB6F894DE
:10271000DEBF0FBECDBF02E617E089EAC82E87E014
:10272000D82E90E0892E90E0992EE12CF12C2AE110
:10273000322EC80143960E94D70AD80116968C9172
:102740000E9447078115B9F13E9CF0013F9CF00DB6
:102750001124E059F84F808182FD2DC080FD2BC0EF
:10276000F80186810E94F007811106C08BE490E099
:102770000E94F3050E94F8058AE18E9DF0018F9D6D
:10278000F00D1124DF01AC59B84F8C918E7F8C93E2
:10279000ED58F84F80818160808381E0D8011996DF
:1027A0008C9316978C931C961D921D920E94DC0AA6
:1027B000C6010E945401F80187810E9447078115D4
:1027C000A9F13E9CF0013F9CF00D1124E059F84F17
:1027D000808182FD2BC080FD29C0D80117968C9185
:1027E0000E94F007811106C08BE490E00E94F3057F
:1027F0000E94F8058AE18E9DF0018F9DF00D112455
:10280000DF01AC59B84F8C918E7F8C93ED58F84F07
:1028100080818160808381E0F801818783831786CE
:10282000108A0E94DC0AC6010E946F01D801169628
:102830008C910E945B07F80187810E945B07D80199
:1028400019968C911997813008F0EEC014968C91EE
:102850000E944707811501F1F80184810E945B07FE
:1028600088EE93E00E94F3050E94F8058AE18E9DB0
:1028700030018F9D700C1124F301EC58F84F8081CA
:1028800093012059384F590180FD96C081608083A3
:10289000D9018C9181608C933E9CF0013F9CF00D9E
:1028A0001124DF01AD58B84F8C9180FF2BC0E75841
:1028B000F84F808181FF15C08D7F808390919707AD
:1028C000913079F480FDDBC044E060E0CE010196F8
:1028D0000E94B70D44E0D8016C91CE0101960E9490
:1028E000CB0D80919D0780FF0DC0D8011F968D9163
:1028F0009D910196883BBBE09B070CF0CAC0F80194
:102900008787908B3E9C50013F9CB00C1124F501B1
:10291000EC58F84F808181FF27C08D7F808342E093
:1029200050E0B401C6010E94491BF60180819181EB
:10293000D8011A968D939D93F501ED58F84F80813B
:102940008E7F80831D921D92F501E059F84F8081A2
:10295000826080831B971C92F501EC59F84F8081AF
:102960008160808316961C92C7010196065E1F4FF8
:10297000BAE1CB0ED11CE2E08E0E911CEE24E39462
:10298000F12C029709F0D5CE64960FB6F894DEBF0D
:102990000FBECDBFDF91CF911F910F91FF90EF90B0
:1029A000DF90CF90BF90AF909F908F907F906F906F
:1029B0005F904F903F9008958E7F8083F9018081D2
:1029C0008E7F80832801FAE04F0E511C42E050E0D8
:1029D000B401C2010E94391BD8011C961D921D92A0
:1029E000F5018081826080831B971C92F301EC5972
:1029F000F84F808181608083D5018C918B7F8C938F
:102A000080919707813069F4BE016F5F7F4FC201EB
:102A10000E94451244E0F8016081CE0101960E94B7
:102A2000CB0D0E941F0638CF09F036CFD80114967F
:102A30008C910E944707811509F42ECFF8018481FB
:102A40000E945B0788EE93E00E94F3050E94F80560
:102A5000EE27FF27EE19FF09EA71F0E0EE59F84F73
:102A600082898360828B8AE18E9DF0018F9DF00DBB
:102A70001124E059F84F8081816080830DCFBE0121
:102A80006F5F7F4FC6010E94451244E0F8016081EC
:102A900024CFD8011F961D921D928AE18E9D900130
:102AA0008F9D300D1124F901EC58F84F8081826020
:102AB00080832059384FD9019C9190FF08C0A8010C
:102AC000465F5F4FB401C6010E9487121BCF8E7F05
:102AD000808318CFCF92DF92EF92FF920F931F93D4
:102AE000CF93DF93C2E6D7E000E010E0CE0143963B
:102AF0000E94D70A4AE1409F7001419FF00C1124C7
:102B0000C7018059984F6C01FC01808180FF19C07A
:102B100080919D0780FF0AC08C859D859C012F5F59
:102B20003F4F873E9340E9F02C873D878AE1809FA5
:102B3000F001819FF00D1124E059F84F808181FD53
:102B400023C0C80101966A9601E010E0029771F671
:102B5000DF91CF911F910F91FF90EF90DF90CF9079
:102B600008951C861D86CE010A960E945401F60126
:102B70008081826080838B81811106C0F701EC59CE
:102B8000F84F8081816080838B85811134C08A8574
:102B9000811131C0EAE1E09FD001E19FB00D112425
:102BA000A059B84F8C918E7F8C9381E0800F8170FB
:102BB000E89FF0011124DF01A059B84F8C9182FFEA
:102BC00026C0EB58F84F87E0DE01539601900D9236
:102BD0008A95E1F78AE1809FF001819FF00D112431
:102BE000DF01AC59B84F8C918E7F8C93E059F84F30
:102BF0008081846080838AE1809FF001819FF00D55
:102C00001124E059F84F80818D7F80839ACF81E035
:102C10000E94DC0ADFCFCF92DF92EF92FF920F93F8
:102C20001F93CF93DF93CDB7DEB764970FB6F894B9
:102C3000DEBF0FBECDBF02E617E0E12CF12CC801CC
:102C400043960E94D70AF8018381811146C0809182
:102C50009707813009F041C02AE12E9DC0012F9DC8
:102C6000900D11249C012C59384F6901F901808184
:102C700080FF12C0BE016F5F7F4FC8010A960E949D
:102C8000451244E0F8016081CE0101960E94CB0D0F
:102C9000F60180818E7F80832AE12E9DC0012F9DC9
:102CA000900D1124FC01E059F84F208122FF15C03E
:102CB0008758984FFC01808180FD28C044E060E087
:102CC000CE0101960E94B70D44E0F8016081CE016B
:102CD00001960E94CB0D0E941006C7010196065E68
:102CE0001F4FEE24E394F12C029709F0A8CF6496CD
:102CF0000FB6F894DEBF0FBECDBFDF91CF911F910D
:102D00000F91FF90EF90DF90CF90089544E050E056
:102D100065EC74E0CE0101960E94211B44E0F801AD
:102D20006081CE0101960E94CB0D0E941F06D5CF77
:102D300080919907811107C00E94EA12809199073A
:102D40008F5F8093990780919707813011F40E94DB
:102D500072130E946A15809197078130C1F40E9416
:102D60000B1680919707813091F485E797E00E94D8
:102D7000D70A80919D0780FD0E94E90A8FE897E0BD
:102D80000E94D70A80919D0780FD0C94E90A08955E
:102D90000F931F93CF93DF93CDB7DEB72A970FB66C
:102DA000F894DEBF0FBECDBF83ED97E00E94D70A37
:102DB00080919807813008F072C086E0EAE8F0E080
:102DC000DE01119601900D928A95E1F7898181606B
:102DD000898302E617E029813A814B815C816D810C
:102DE0007E81F80180850E94BF06065E1F4FF7E0D6
:102DF00006391F0781F7809198078F5F80939807A6
:102E000080E991E08093D5079093D6078091DA0707
:102E10009091DB07892BA9F08091D70781FF11C022
:102E20008D7F8093D70780FDC7C044E060E0CE016E
:102E300001960E94B70D44E064E0CE0101960E9425
:102E4000CB0D83E00E944707182F8115B9F083E06E
:102E50000E945B07809198078F5F8093980783306B
:102E600009F0B4C081E08093DA071092DB0710E02C
:102E700080E590E00E94F3050E94F80580919D078F
:102E800080FD0E94E90A812F2A960FB6F894DEBFD2
:102E90000FBECDBFDF91CF911F910F91089561F4C7
:102EA00044E060E081EC94E00E94CB0D80919807B3
:102EB0008F5F80939807AACF823081F4BE016F5F45
:102EC0007F4F80911807909119070E94030C44E0EE
:102ED00064E0CE0101960E94CB0D98CF833029F497
:102EE00044E060E08DEB94E0DFCF843009F08ECFDA
:102EF00002E617E0F80186810E944707811539F143
:102F0000F80186810E945B07F80186810E94F00724
:102F1000811106C08BE490E00E94F3050E94F80541
:102F200081E00E94DC0A8091DC079091DD07019727
:102F30008093DC079093DD072091DE073091DF0757
:102F40002817390724F02093DC073093DD07F801B8
:102F500087810E944707811539F1F80187810E9416
:102F60005B07F80187810E94F007811106C08BE49E
:102F700090E00E94F3050E94F80581E00E94DC0ABF
:102F80008091DC079091DD0701968093DC07909398
:102F9000DD072091E0073091E1078217930724F0C5
:102FA0002093DC073093DD07065E1F4FF7E00639FC
:102FB0001F0709F09FCF2ACFBE016F5F7F4F80911F
:102FC000DC079091DD070E94030C35CF853009F0B6
:102FD0004ECF46E050E064E070E08CED97E00E9458
:102FE000491B1092DA071092DB0711E041CF0F93D3
:102FF0001F93CF93DF93CDB7DEB72A970FB6F89420
:10300000DEBF0FBECDBF80919A07813028F586E0E4
:10301000EAE8F0E0DE01119601900D928A95E1F761
:1030200089818160898302E617E029813A814B8199
:103030005C816D817E81F80180850E94BF06065EFD
:103040001F4FF7E006391F0781F780919A078F5FBE
:1030500080939A0710E01DC039F444E060E081ECF1
:1030600094E00E94CB0DF1CF823081F4BE016F5FFE
:103070007F4F80911807909119070E94030C44E03C
:1030800064E0CE0101960E94CB0DE4CF11E08330C5
:1030900009F783E00E944707811571F083E00E94E1
:1030A0005B0780919A078F5F80939A078BE490E08B
:1030B0000E94F3050E94F805812F2A960FB6F89416
:1030C000DEBF0FBECDBFDF91CF911F910F9108954D
:1030D00097FB072E16F4009407D077FD09D00E94C5
:1030E0009B1807FC05D03EF4909581959F4F08955D
:1030F000709561957F4F0895052E97FB1EF40094FF
:103100000E94931857FD07D00E94AF1807FC03D008
:103110004EF40C94931850954095309521953F4F5F
:103120004F4F5F4F089590958095709561957F4FB3
:103130008F4F9F4F0895AA1BBB1B51E107C0AA1FC9
:10314000BB1FA617B70710F0A61BB70B881F991F48
:103150005A95A9F780959095BC01CD010895A1E2FB
:103160001A2EAA1BBB1BFD010DC0AA1FBB1FEE1F01
:10317000FF1FA217B307E407F50720F0A21BB30B4C
:10318000E40BF50B661F771F881F991F1A9469F7C8
:1031900060957095809590959B01AC01BD01CF0124
:1031A00008955058BB27AA270E94E9180C94631A67
:1031B0000E94551A38F00E945C1A20F039F49F3FA3
:1031C00019F426F40C94521A0EF4E095E7FB0C94D3
:1031D0004C1AE92F0E94741A58F3BA176207730742
:1031E0008407950720F079F4A6F50C94961A0EF44E
:1031F000E0950B2EBA2FA02D0B01B90190010C0107
:10320000CA01A0011124FF27591B99F0593F50F41E
:10321000503E68F11A16F040A22F232F342F442776
:10322000585FF3CF469537952795A795F04053956E
:10323000C9F77EF41F16BA0B620B730B840BBAF03E
:103240009150A1F0FF0FBB1F661F771F881FC2F7A9
:103250000EC0BA0F621F731F841F48F487957795BD
:103260006795B795F7959E3F08F0B0CF9395880F77
:1032700008F09927EE0F9795879508950E94281AD0
:1032800008F481E008950E9457190C94631A0E9473
:103290005C1A58F00E94551A40F029F45F3F29F05B
:1032A0000C944C1A51110C94971A0C94521A0E94B7
:1032B000741A68F39923B1F3552391F3951B550BB9
:1032C000BB27AA2762177307840738F09F5F5F4FF9
:1032D000220F331F441FAA1FA9F335D00E2E3AF038
:1032E000E0E832D091505040E695001CCAF72BD050
:1032F000FE2F29D0660F771F881FBB1F26173707A1
:103300004807AB07B0E809F0BB0B802DBF01FF27D2
:1033100093585F4F3AF09E3F510578F00C944C1A49
:103320000C94971A5F3FE4F3983ED4F38695779513
:103330006795B795F7959F5FC9F7880F911D96958B
:10334000879597F90895E1E0660F771F881FBB1FE7
:10335000621773078407BA0720F0621B730B840B94
:10336000BA0BEE1F88F7E09508950E94BC19689487
:10337000B1110C94971A08950E947C1A88F09F57F7
:1033800098F0B92F9927B751B0F0E1F0660F771F89
:10339000881F991F1AF0BA95C9F714C0B13091F07F
:1033A0000E94961AB1E008950C94961A672F782F10
:1033B0008827B85F39F0B93FCCF386957795679544
:1033C000B395D9F73EF490958095709561957F4FB0
:1033D0008F4F9F4F0895E89409C097FB3EF4909556
:1033E0008095709561957F4F8F4F9F4F9923A9F0DE
:1033F000F92F96E9BB279395F6958795779567956D
:10340000B795F111F8CFFAF4BB0F11F460FF1BC0B0
:103410006F5F7F4F8F4F9F4F16C0882311F096E943
:1034200011C0772321F09EE8872F762F05C06623F1
:1034300071F096E8862F70E060E02AF09A95660FAA
:10344000771F881FDAF7880F9695879597F9089563
:10345000990F0008550FAA0BE0E8FEEF16161706A5
:10346000E807F907C0F012161306E407F50798F00D
:10347000621B730B840B950B39F40A2661F0232B26
:10348000242B252B21F408950A2609F4A140A695A2
:103490008FEF811D811D089597F99F6780E870E087
:1034A00060E008959FEF80EC089500240A941616BA
:1034B000170618060906089500240A941216130622
:1034C000140605060895092E0394000C11F48823B0
:1034D00052F0BB0F40F4BF2B11F460FF04C06F5FCC
:1034E0007F4F8F4F9F4F089557FD9058440F551FA2
:1034F00059F05F3F71F04795880F97FB991F61F076
:103500009F3F79F087950895121613061406551FEC
:10351000F2CF4695F1DF08C0161617061806991F58
:10352000F1CF86957105610508940895E894BB274D
:1035300066277727CB0197F908950E94281A08F487
:103540008FEF08950E94B51A0C94631A0E94551AC1
:1035500038F00E945C1A20F0952311F00C944C1A5C
:103560000C94521A11240C94971A0E94741A70F336
:10357000959FC1F3950F50E0551F629FF001729F18
:10358000BB27F00DB11D639FAA27F00DB11DAA1F27
:10359000649F6627B00DA11D661F829F2227B00D74
:1035A000A11D621F739FB00DA11D621F839FA00DFF
:1035B000611D221F749F3327A00D611D231F849F4F
:1035C000600D211D822F762F6A2F11249F575040A6
:1035D0009AF0F1F088234AF0EE0FFF1FBB1F661F21
:1035E000771F881F91505040A9F79E3F510580F0EA
:1035F0000C944C1A0C94971A5F3FE4F3983ED4F362
:10360000869577956795B795F795E7959F5FC1F78D
:10361000FE2B880F911D9695879597F90895681749
:10362000790768F4FB01DC01E40FF51FA40FB51F57
:1036300002C002900E9241505040D8F708950C9469
:10364000301BFB01DC014150504048F001900D92CD
:103650000020C9F701C01D9241505040E0F7089585
:10366000FB01DC0102C001900D9241505040D8F79F
:103670000895DC01CB01FC01E199FECF06C0FFBB40
:10368000EEBBE09A31960DB20D9241505040B8F722
:103690000895DC01A40FB51F4150504048F0CB0104
:1036A000840F951F2E910E945A1B41505040D0F715
:1036B0000895262FE199FECF9FBB8EBBE09A01971C
:1036C0000DB2021631F02DBB0FB6F894E29AE19AD2
:0836D0000FBE0895F894FFCF2E
:1036D800850E870E890E8B0E8D0E8F0E910E930E12
:1036E800950E970E990E9B0E9D0E9F0EA10EA30E82
:1036F80000000000000000000000000000000000C2
:1037080000000000000000000000000000000000B1
:103718000073986EB777F3603F55FBE03F50C228BF
:1037280040910A614060AB8C4046D3A8400DFDC46F
:1037380040B728E1404356FD40D9C20C4181DB1A0D
:1037480041F1F42841910F3741022B4541AE4753CF
:1037580041C36461417B836F419CA27D417CE185CB
:103768004113F28C41120394417B149B418126A2A0
:10377800412439A941FB4BB041705FB7414D73BE3D
:1037880041C887C541AC9CCC41F9B1D341E3C7DA04
:103798004135DEE141F1F4E841150CF041D723F75A
:1037A80041363CFE4165AA0242FD360642CAC309BB
:1037B80042E5500D4235DE1042D46B14428CF917A5
:1037C8004294871B42EA151F4274A42242333326CF
:1037D8004227C2294268512D42F9E03042A4703490
:1037E800429D003842E5903B4262213F4213B2427B
:1037F80042F84246422CD44942AF654D424CF750FC
:103808004252895442711B5842E0AD5B4283405F8B
:103818004275D362429B66664210FA69429F8D6D7B
:103828004296217142A8B57442234A7842B8DE7B99
:10383800429C737F42678481420E4F8342E8198518
:1038480042D0E48642DFAF8842167B8A4266468CC5
:1038580042D1118E4264DD8F4210A99142D77493F0
:1038680042D2409542DA0C974209D9984253A59A18
:1038780042C4719C424F3E9E42020BA042CFD7A148
:1038880042C3A4A342D171A542073FA742570CA93E
:1038980042C1D9AA4252A7AC420B75AE42D142B03E
:1038A80042CB10B242E0DEB3420EADB542647BB704
:1038B80042D549B9426C18BB421EE7BC42EAB5BEC4
:1038C80042EA84C042F853C2422D23C44289F2C559
:1038D80042FFC1C7426891C9424861CB422731CDF6
:1038E800420601CF4268D1D04248A1D242AA71D43F
:1038F800428F42D642F212D842D7E3D942BCB4DB57
:1039080042A285DD428756DF42F027E14258F9E2BC
:1039180042C1CAE442AC9CE642986EE8428340EA5F
:10392800426F12EC425AE4ED42C9B6EF423789F1D0
:1039380042A65BF342982EF5428901F7427BD4F800
:10394800426DA7FA42E17AFC42D34DFE42A4100030
:1039580043A0FA00435AE4014356CE024352B80347
:10396800434EA204438B8C0543C976064306610780
:1039780043444B0843C335094342200A43C10A0B59
:10398800433FF50B4300E00C43C1CA0D4381B50E1C
:103998004383A00F43448B1043467611434861127A
:1039A800438B4C1343CF37144312231543560E163B
:1039B800439AF916431FE51743A4D0184329BC19A5
:1039C80043F0A71A43B6931B437D7F1C43446B1DEA
:1039D800434C571E4354431F435C2F2043641B2111
:1039E80043AE072243F8F3224342E02343CDCC24DD
:1039F8004317B92543A2A526436F922743FA7E2889
:103A080043C76B294393582A4360452B436F322C95
:103A1800437D1F2D438B0C2E439AF92E43E9E62F45
:103A28004339D4304389C13143D9AE32436A9C33D8
:103A380043FC8934438D77354360653643335337C8
:103A48004306413843D92E3943EE1C3A43020B3B17
:103A58004317F93B432BE73C4381D53D43D7C33E4E
:103A6800432DB23F43C5A040435C8F4143F47D42A0
:103A7800438B6C4343645B4443FC494543173946D5
:103A880043F02747430A174843250649433FF5496A
:103A9800435AE44A43B6D34B4312C34C43B0B24DE6
:103AA800430CA24E43AA914F43488150432771517A
:103AB8004306615243E5505343C5405443A430552F
:103AC80043C5205643E51057434801584368F15809
:103AD80043CBE159436FD25A43D1C25B4375B35CC0
:103AE8004319A45D43BC945E43A2855F4387766017
:103AF800436D6761435258624379496343A03A640E
:103B080043C72B65432F1D6643980E674300006823
:103B1800431582079BF3698279B72900003DF1823A
:103B2800293937071979110500F1116D007A792DB6
:103B380000EB8229009B1B0779EB716500EB82D9AA
:103B4800DAB27A3BC2FBF20000000000000000007D
:103B5800000000000000000000000000000000005D
:103B6800000000000000000000000000000000004D
:103B7800000000000000000000000000000000003D
:083B8800000000000000000035
:00000001FF
