:100000000C942A000C9447000C9447000C94470071
:100010000C9447000C9447000C9447000C94470044
:100020000C9447000C9447000C948A130C944700DE
:100030000C9447000C9447000C9447000C94470024
:100040000C9447000C9447000C9447000C94470014
:100050000C94470011241FBECFE5D8E0DEBFCDBF12
:1000600011E0A0E6B0E0EEE9FBE302C005900D92DE
:10007000AE30B107D9F722E0AEE0B1E001C01D9289
:10008000A839B207E1F70E947A100C94CD1D0C94A8
:1000900000008F929F92AF92BF92CF92DF92EF9229
:1000A000FF920F931F93CF93DF93AC014B0180E03E
:1000B00090E057FD77C0FB01DB0180E090E01DEC94
:1000C000A12E6DEC7CEC05E0B02E352F330F330BF9
:1000D000232F2370F22E8A01129502950F700127AB
:1000E0001F7001270F70242F2F70200F152F1F70E6
:1000F000210F152F12951F70210F2F0D2A9D112DE5
:100100001124012F069506951C7F100F211B3C7FA3
:10011000230F022E000C330B7A01E21AF30AE69E3B
:100120008001E79E100DF69E100D11247801C1E0AC
:10013000EC22C0E8FC2217FF0AC0D1E0ED1AF1085A
:10014000CEEFEC2AFF24FA94DFEFED1AFD0ABE9CF5
:100150006001BF9CD00C11242C0D3D1D17FF02C067
:100160000F5F1F4F01962D939A01A8015595479552
:100170002A3031050CF0A9CF9C0135952795211522
:10018000310581F0DC01A80DB91D820E931E21916D
:100190003E91AF0141505109EA0138832C93E81593
:1001A000F905A9F7DF91CF911F910F91FF90EF9083
:1001B000DF90CF90BF90AF909F908F9008958F92D7
:1001C0009F92AF92BF92DF92EF92FF920F931F9395
:1001D000CF93DF938C01EB01D42EFC010190002022
:1001E000E9F73197E81BF90B6E177F07A8F1161690
:1001F000170694F5FC0180E090E004C00196C81752
:10020000D90751F121912111F9CF009729F1C81790
:10021000D90711F1F801EC0FFD1F10825E01A81A39
:10022000B90AE12CF12CC80101974C011A141B04E6
:100230008CF4AE01B401C8010E946B1D9FEFE91A56
:10024000F90AEA14FB04A9F76D2D70E0A701C801B3
:100250000E947D1D81E001C080E0DF91CF911F9160
:100260000F91FF90EF90DF90BF90AF909F908F9095
:10027000089540E30C94DF0040E20C94DF00089501
:10028000FC018181811109C08081811581F09BE38E
:1002900091838150808380E008958150818381150E
:1002A00041F481E09081911519F080E0089581E09A
:1002B00008950CF0FACF8081EACFFC018181908112
:1002C0008B3379F09C337CF49B3379F021E0280F59
:1002D00021838B53843418F411829F5F908380E0D4
:1002E00008959B33CCF381E008958C33E4F791E0DB
:1002F000980F918381E09B3391F708952F923F925D
:100300004F925F926F927F928F929F92AF92BF9225
:10031000CF92DF92EF92FF920F931F93CF93DF93D1
:10032000EC01FB018A0179018881811152C01A8296
:10033000198281E08883EE24E394F12C812C912CA6
:10034000540160817181072E000C880B990B0E946B
:10035000491CA50194010E942E1B5B016C01AB019D
:10036000BC014B835C836D837E83E016F10608F449
:1003700087C01A821982B801110F880B990B0E944D
:10038000491C9B01AC01B501C6010E949F1B6B83F8
:100390007C838D839E8318861F821A8619861B860E
:1003A0001C861D861E8682E0888380E0DF91CF91C7
:1003B0001F910F91FF90EF90DF90CF90BF90AF9083
:1003C0009F908F907F906F905F904F903F902F9075
:1003D0000895813009F4A1C0823039F7A980BA802C
:1003E0004501880C991C860E971EF401608171816D
:1003F000072E000C880B990B0E94491C1B016C01F5
:100400004B805C806D807E80A30192010E94F91C6C
:10041000181604F58F819885019698878F83F401CB
:1004200060817181072E000C880B990B0E94491C7A
:100430001B016C01A30192010E942D1B9B01AC01C9
:100440006B857C858D859E850E942E1B6B877C87A6
:100450008D879E879101A601C301B2010E94F91CFC
:1004600018162CF489859A8501969A878987FFEF5B
:10047000AF1ABF0AA016B10630F4BA82A98295CF8E
:10048000FA82E98292CF1A82198218828B849C8424
:10049000AD84BE8420E030E0A901C501B4010E9412
:1004A0009A1B87FD31C06F81788589859A85681B85
:1004B000790B072E000C880B990B0E94491CA50193
:1004C00094010E94FE1C6B01D82FC92F009FB00120
:1004D000019F700D700D1124072E000C880B990BD5
:1004E0000E94491C9B01AC01B6018D2F9C2F0E94DC
:1004F0009F1BA30192010E942E1BF7016083718351
:100500008283938381E052CFB7FAB094B7F8B09466
:100510008B869C86AD86BE86C6CF8B809C80AD8048
:10052000BE80E980FA80C701880F991FE80FF91F84
:100530008FEFE81AF80A05CF89B382FB882780F984
:100540000895DA9AD298E0E1F1E08CE992E09383A1
:1005500082838FE99FE00197F1F700C000000280DD
:10056000F381E02D0995E1E1F1E0908180FB91F9C3
:1005700080FB92F9892F8860808308950F931F93E1
:10058000CF93DF938091110180FD20C0E091120193
:10059000F091130109959091110192FB222720F906
:1005A000C22F20E0D22F082E001C00088C170D0649
:1005B00041F0880F880F847081609A7F892B809327
:1005C0001101DF91CF911F910F910895809110013A
:1005D00091E0980F843039F090931001DF91CF9122
:1005E0001F910F91089510921001E0911201F09166
:1005F000130109959091110192FB002700F910E079
:10060000082E001C00088017010671F080FB92F98B
:1006100090931101809111018E7F80931101DF91E0
:10062000CF911F910F910895880F82708860957FF8
:10063000892B80931101EECFFC01A5A5B6A527A5B6
:1006400081E090E001C0880F2A95EAF79C91613023
:1006500021F0809589238C930895892B8C9308959C
:10066000FC0120A131A133A322A3A5A5B6A547A5CE
:1006700081E090E001C0880F4A95EAF79C9112163C
:1006800013061CF4892B8C930895809589238C93F1
:100690000895AF92BF92CF92DF92EF92FF920F93A5
:1006A0001F93CF93DF93EC01CB012A813B81260F6F
:1006B000371F3B832A83088519850217130734F0F7
:1006C0000A851B85201731070CF065C01B830A8340
:1006D0002C813D817C01E21AF30AFF82EE829D8328
:1006E0008C83BC01990F880B990B0E94491C2A89A5
:1006F0003B894C895D890E94FE1C5B016C01B8013D
:10070000110F880B990B0E94491C2E893F89488D37
:10071000598D0E94FE1C9B01AC01B501C6010E94CF
:100720002E1B6B018C01B701FF0C880B990B0E94EB
:10073000491C2A8D3B8D4C8D5D8D0E94FE1C9B01BA
:10074000AC01B601C8010E942E1B0E94111C462F4D
:10075000572F28893989249FC001259F900D349FE8
:10076000900D112499A388A32C853D85281739075E
:100770002CF02E853F858217930714F439A328A304
:10078000DF91CF911F910F91FF90EF90DF90CF906D
:10079000BF90AF90089589019BCFAF92BF92CF9247
:1007A000DF92EF92FF920F931F93CF93DF93EC01B1
:1007B000CB012A813B81260F371F3B832A83088583
:1007C00019850217130734F00A851B852017310796
:1007D0000CF04DC01B830A832C813D817C01E21A01
:1007E000F30AFF82EE829D838C83BC01990F880BF4
:1007F000990B0E94491C2A893B894C895D890E947A
:10080000FE1C5B016C01B801110F880B990B0E9453
:10081000491C2E893F89488D598D0E94FE1C9B01E1
:10082000AC01B501C6010E942E1B6B018C01B70102
:10083000FF0C880B990B0E94491C2A8D3B8D4C8D17
:100840005D8D0E94FE1C9B01AC01B601C8010E9497
:100850002E1B0E94111CCB01DF91CF911F910F9194
:10086000FF90EF90DF90CF90BF90AF9008958901F7
:10087000B3CFFC01268D378D2F5F3F4F378F268FEB
:1008800084A14485558587FD18C062A173A1161601
:1008900017069CF481110CC081A592A52817390771
:1008A00070F0178E168E21E024A320E030E007C000
:1008B000813019F42617370738F581A592A5840FE2
:1008C000951F43A554A5840F951F2817390708F4D1
:1008D0000895178E168E14A220A131A133A322A34E
:1008E000A5A5B6A547A581E090E001C0880F4A956F
:1008F000EAF79C91121613061CF4892B8C93089529
:10090000809589238C93089564177507B4F6A5A57F
:10091000B6A52C9137A581E090E001C0880F3A95EB
:10092000EAF7809582238C93268D378D81A592A539
:1009300044855585C4CFAF92BF92CF92DF92EF929C
:10094000FF920F931F93CF93DF93EC01CB012A818A
:100950003B81260F371F3B832A83088519850217A1
:10096000130734F00A851B85201731070CF074C07B
:100970001B830A832C813D817C01E21AF30AFF82EA
:10098000EE829D838C83BC01990F880B990B0E948A
:10099000491C2A893B894C895D890E94FE1C5B01A8
:1009A0006C01B801110F880B990B0E94491C2E890C
:1009B0003F89488D598D0E94FE1C9B01AC01B501F9
:1009C000C6010E942E1B6B018C01B701FF0C880B26
:1009D000990B0E94491C2A8D3B8D4C8D5D8D0E9488
:1009E000FE1C9B01AC01B601C8010E942E1B0E9497
:1009F000111C462F572F28893989249FC001259F14
:100A0000900D349F900D112499A388A32C853D85CA
:100A100028173907F4F02E853F8582179307CCF00D
:100A20008091500280FF0AC08DA19EA101969EA3D5
:100A30008DA32FA138A58217930780F4DF91CF9162
:100A40001F910F91FF90EF90DF90CF90BF90AF90EC
:100A5000089539A328A3E4CF89018CCF1EA21DA23B
:100A6000CE01DF91CF911F910F91FF90EF90DF901A
:100A7000CF90BF90AF900C943904E4E1F1E09087FF
:100A800087836187089590931801809317010895D3
:100A900081E0809314010895E4E1F1E03185A781BC
:100AA000B0852C9181E090E002C0880F991F3A95A3
:100AB000E2F78095909582238C931082089583E0CD
:100AC000809314010895E4E1F1E091850780F085B9
:100AD000E02D808121E030E001C0220F9A95EAF7F5
:100AE000822B80830895E4E1F1E031850780F08571
:100AF000E02D208181E090E002C0880F991F3A9597
:100B0000E2F7809590958223808308958091140167
:100B1000813009F472C080911401823021F18091FA
:100B20001401833009F450C080911401843009F01D
:100B300008958091500280FFFBCF80911501909124
:100B400016010196909316018093150120911701CB
:100B5000309118018217930758F380911401815046
:100B60008093140108958091500280FFD8CF809126
:100B7000150190911601019690931601809315012D
:100B80002091150130911601809117019091180163
:100B90002817390720F21092160110921501309192
:100BA0001D01E0911B01F0911C01208181E090E08A
:100BB00002C0880F991F3A95E2F78095909582239D
:100BC000808310921401ABCF90911D01E0911B0125
:100BD000F0911C01808121E030E001C0220F9A9544
:100BE000EAF78227808310921601109215018091F6
:100BF00014018F5F80931401089590911D01E0917D
:100C00001B01F0911C01808121E030E001C0220F26
:100C10009A95EAF7822B80831092160110921501A3
:100C2000809114018F5F8093140179CF80B38695F2
:100C30008170089580B38170089586B383FB8827FF
:100C400080F9089580B386FB882780F9089589B3D9
:100C500086958170089586B38170089589B383FB6A
:100C6000882780F90895CF93DF9300D000D000D07B
:100C7000CDB7DEB729833A834B835C836D837E8354
:100C800090E1899FD0011124A25DBE4F86E0FE0154
:100C9000319601900D928A95E1F70F900F900F9089
:100CA0000F900F900F90DF91CF910895CF93DF9326
:100CB000CDB7DEB72C970FB6F894DEBF0FBECDBF11
:100CC00089988898BB988E98D198B898D398E5E27F
:100CD000F1E086E196E0918380838AE196E0918B52
:100CE000808B8DE196E091A380A382E296E091ABA8
:100CF00080AB87E296E090936601809365018BE27A
:100D000096E090937601809375018EE296E0909341
:100D1000860180938501CE01079626E0FC011192A1
:100D20002A95E9F72F8121602F8326E0FC01DE015F
:100D3000119601900D922A95E1F726E0FE01319679
:100D4000AEE2B1E001900D922A95E1F726E0FC01B8
:100D5000DE01119601900D922A95E1F726E0FE0141
:100D60003196AEE3B1E001900D922A95E1F726E0CD
:100D7000FC01DE01119601900D922A95E1F726E023
:100D8000FE013196AEE4B1E001900D922A95E1F7B3
:100D900026E0FC01DE01119601900D922A95E1F703
:100DA00026E0FE013196AEE5B1E001900D922A9564
:100DB000E1F726E0FC01DE01119601900D922A95E3
:100DC000E1F726E0FE013196AEE6B1E001900D922A
:100DD0002A95E1F726E0FC01DE01119601900D92C3
:100DE0002A95E1F726E0FE013196AEE7B1E00190E9
:100DF0000D922A95E1F726E0FC01DE0111960190A3
:100E00000D922A95E1F786E0FE013196AEE8B1E059
:100E100001900D928A95E1F72C960FB6F894DEBFFB
:100E20000FBECDBFDF91CF910895E4E3F1E0808163
:100E30008D7F8083E4E4F1E080818D7F8083E4E531
:100E4000F1E080818D7F8083E4E6F1E080818D7F19
:100E50008083E4E7F1E080818D7F8083E4E8F1E046
:100E600080818D7F8083E4E9F1E080818D7F8083C4
:100E7000089590E1899FF0011124EC5CFE4F808180
:100E800082FB882780F9089590E1899FF001112461
:100E9000EC5CFE4F808186958170089590E1899F7A
:100EA000F0011124EC5CFE4F808182608083089504
:100EB00090E1899FF0011124EC5CFE4F80818D7FD1
:100EC0008083089590E1899FF0011124EB5DFE4F2E
:100ED0000280F381E02D099490E18902F001112450
:100EE000EC5CFE4F80818170089590E18902F001F1
:100EF0001124EC5CFE4F808185FB882780F90895E2
:100F000090E18902F0011124EC5CFE4F80818F7D1D
:100F100080830895EF92FF920F931F93CF93DF93F7
:100F200006E010E00CC0E881F9810995811103C049
:100F30008C818F5F8C830150110908F440C08AE1D5
:100F40008A95F1F700C07801E294F29480EFF822DC
:100F5000FE24E822FE24E701CB5DDE4F8C81811563
:100F600011F38C818130C9F08C81823079F18C81D0
:100F7000833009F78D818F5F8D838130E1F61D828B
:100F8000E881F9810995813041F5F701EC5CFE4F6C
:100F900080818E7F80831C82CECF8D818F5F8D83F9
:100FA000813049F61D82E881F9810995811115C0CA
:100FB000F701EC5CFE4F808181608083B9CFDF91C7
:100FC000CF911F910F91FF90EF900895E881F981E3
:100FD0000995813009F0AFCFABCF8C8181508C83E4
:100FE000AACF90E18902F0011124EB5DFE4F9681BA
:100FF00081E0983009F0089580E008950F931F93E1
:10100000CF93DF9320E030E079E0AAE063E042E0B4
:101010005BE052C0FC01EB5DFE4FB681B93009F4D4
:101020009AC0FC01EB5DFE4FB681BA3009F4A4C052
:10103000FC01EB5DFE4FB681B63009F4B2C0FC0195
:10104000EB5DFE4FB681B73039F4EC01CC5CDE4F7E
:10105000B881B260B8834683FC01EB5DFE4FB68178
:10106000B43009F417C1FC01EB5DFE4FB681B53019
:1010700009F4E0C0FC01EB5DFE4FB681B13009F42C
:10108000D1C0FC01EB5DFE4FB681B23009F4BFC0A8
:10109000FC01EB5DFE4FB681B33009F4B0C0FC013A
:1010A000EB5DFE4FB681BB3009F486C02F5F3F4F2A
:1010B0002730310509F49EC0C90182959295907F31
:1010C0009827807F9827FC01EB5DFE4FB681B11118
:1010D00013C0B685B11541F0E685F0E0E25EFE4F43
:1010E000E081E13009F436C1EC01CC5CDE4FE881EF
:1010F000BE2FB170E0FD04C1FC01EB5DFE4FB68177
:10110000B83068F0B681BB3050F4EC01CC5CDE4FF7
:10111000B881B0FD04C010861782B3E0B683FC012D
:10112000EB5DFE4FB681B83009F074CFC781D08532
:101130002196D087C78302851385C017D10708F48D
:1011400069CF108617827683FC01EB5DFE4FB68176
:10115000B93009F066CFEC01CC5CDE4FB881B1FD4F
:1011600060CFB881B260B883A683FC01EB5DFE4F0F
:10117000B681BA3009F05CCFC781D0852196D0877F
:10118000C78304851585C017D10708F451CF108691
:1011900017827683FC01EB5DFE4FB681B63009F015
:1011A0004ECFEC01CC5CDE4FB881B0FD48CFB881AA
:1011B000B260B883668343CFB685B11559F0E68532
:1011C000F0E0E25EFE4F1082FC01EC5CFE4FB0816D
:1011D000B77FB083FC01EB5DFE4F1682FC01EC5C37
:1011E000FE4F80818F7E80832F5F3F4F27303105F8
:1011F00009F062CFDF91CF911F910F910895EC011B
:10120000CC5CDE4FB881B1FD4ACF568348CFEC01AC
:10121000CC5CDE4FB881B0FD3BCFB881BD7FB883D9
:10122000568336CFEC01CC5CDE4FB881B0FD29CFC0
:10123000668327CFC781D0852196D087C783EC01ED
:10124000CC5CDE4FB881B0FD0FC007811085033341
:10125000110550F410861782B881B260B883B88146
:10126000BB7FB883B3E0B683FC01EB5DFE4FC78163
:10127000D085CB34D10508F4FDCE10861782EC0161
:10128000CC5CDE4FB881B260B883B881B460B883FB
:101290004683F0CEC781D0852196D087C783EC01E5
:1012A000CC5CDE4FB881B0FD0FC0078110850333E1
:1012B000110550F410861782B881B260B883B881E6
:1012C000BB7FB883B3E0B683FC01EB5DFE4FC78103
:1012D000D085E39708F4C7CE10861782EC01CC5C6A
:1012E000DE4FB881B260B883B881B460B883EC01D6
:1012F000C25DDE4FB881B1FD2AC0B1E0B683B3CE86
:10130000FC01E25DFE4F108110FF2BC018811260BE
:101310001883E081E1FD36C0FC01EB5DFE4FB68332
:10132000FC01EC5CFE4FB081B061B083EC01CB5DA1
:10133000DE4FBE85B11509F4DFCECE85D0E0C25EAA
:10134000DE4FB1E0B883B081B860B083D5CEBAE0EB
:10135000B68389CEFC01EC5CFE4FE081E3FDC4CE98
:10136000CBCEB081B2FF02C0B6E0D6CFB081B3FD24
:101370000FC0B081B4FF12C0B4E0FC01EB5DFE4FC2
:10138000B683CECFB8E0FC01EB5DFE4FB683C8CF8D
:10139000B7E0FC01EB5DFE4FB683C2CFE081E5FF15
:1013A000BFCFB5E0FC01EB5DFE4FB683E881E062A4
:1013B000E883B6CF0E948A070C94FE07809134011F
:1013C00080FD19C08091440180FD15C080915401B9
:1013D00080FD11C08091640180FD0DC08091740179
:1013E00080FD09C08091840180FD05C08091940139
:1013F00080958170089580E00895E4E3F1E08081B4
:101400008D7F8083E4E4F1E080818D7F8083E4E55B
:10141000F1E080818D7F8083E4E6F1E080818D7F43
:101420008083E4E7F1E080818D7F8083E4E8F1E070
:1014300080818D7F8083E4E9F1E080818D7F8083EE
:1014400008958091340184FD1BC08091440184FD86
:1014500017C08091540184FD13C08091640184FD04
:101460000FC08091740184FD0BC08091840184FDC4
:1014700007C0909194019295917081E0891B089525
:1014800080E008959093A5018093A401089590931E
:10149000AA018093A9010895E091A901F091AA0100
:1014A000118210828170826094819C7F892B848359
:1014B0000895E091A901F091AA018081918101969E
:1014C00091838083228133818217930750F01182A8
:1014D00010829481892F8095817082609C7F892BF6
:1014E0008483089597B1907F8F70982B97B9089552
:1014F00097B19F738295880F880F807C892B87B95D
:10150000089596B1987F892B86B90895379A0895E2
:1015100037980895811102C03D9808953D9A089525
:1015200085B1089584B1089597B19F736295660F50
:10153000660F607C692B67B996B1987F492B46B9D5
:101540008F3F51F0359A90B79F708295880F807EBB
:10155000892B80BF379A08953598379A089597B1A7
:10156000907F8F70982B97B9369A089597B1907F96
:101570008F70982B97B9369A3699FECF0895359982
:1015800018C097B1907F8F70892B87B9369A36999A
:10159000FECF24B13D9B14C085B190E0880F991F08
:1015A000880F991F2295269526952370820F911DED
:1015B0000895349A349BFECF349A24B13D99ECCFF0
:1015C00085B190E0982F8827820F911D08950F9381
:1015D0001F93CF93DF938C01EB0144E060E0CE01D9
:1015E0000E94720D0F3F100709F1083E83E01807B3
:1015F00074F08BE188838BE0898389E38A83CE0151
:101600000296DF91CF911F910F910C94460D43E00C
:10161000BE01C8010E94CD0D80EF8B83CE010296E2
:10162000DF91CF911F910F910C94460D87E1888334
:1016300089E18983CE010296DF91CF911F910F91AD
:101640000C94460D0E94C70C9C012F3F3207D9F025
:1016500080910A0290910B02FC01EE0FFF1FEF53E5
:10166000FE4F3183208301968430910530F49093AE
:101670000B0280930A0280E0089510920B021092F0
:101680000A0281E008958091C5009091C600A09162
:10169000C700B091C8008093090290930A02A093FA
:1016A0000B02B0930C0281E1E6E8F0E0A0EBB1E0C0
:1016B00001900D928A95E1F78FEF0895CF92DF9216
:1016C000EF92FF920F931F93CF93DF9300D000D040
:1016D000CDB7DEB78C019E012F5F3F4F44E050E055
:1016E00061EC71E080EB91E00E947E0181110DC000
:1016F0000F900F900F900F90DF91CF911F910F914E
:10170000FF90EF90DF90CF900895C980DA80EB8052
:10171000FC8020E030E0A901C701B6010E94F91C5D
:101720001816D4F420E030EF4FE754E4C701B601B7
:101730000E94FE1C20E030EF4FE755E40E949F1B03
:1017400020E030E0A9010E942E1B0E94111CF8012C
:101750007183608381E0CCCFF8011182108281E037
:10176000C7CFCF92DF92EF92FF92CF93DF9300D05B
:1017700000D0CDB7DEB78091AD0181111DC0809141
:10178000500280FF0DC08091AB019091AC01019699
:101790008C3D910508F065C09093AC018093AB013E
:1017A00080E00F900F900F900F90DF91CF91FF90FE
:1017B000EF90DF90CF9008959E012F5F3F4F44E060
:1017C00050E061EC71E080EB91E00E947E018115B8
:1017D00039F3C980DA80EB80FC8020E030E0A90199
:1017E000C701B6010E94F91C60E070E01816ACF465
:1017F00020E030EF4FE754E4C701B6010E94FE1C21
:1018000020E030EF4FE755E40E949F1B20E030E0DE
:10181000A9010E942E1B0E94111C7093AF016093BE
:10182000AE018091950280FD18C0072E000C880B38
:10183000990B0E94491C26E636E646EE5FE30E94BD
:10184000FE1C20E030E040E052E40E942E1B0E948B
:10185000111C7093AF016093AE011092AD0181E055
:10186000A0CF1092AC011092AB010E94C70C9C015A
:101870002F3F3207A1F080910A0290910B02FC01E8
:10188000EE0FFF1FEF53FE4F31832083019684300C
:10189000910540F590930B0280930A0281CF8091CD
:1018A000C5009091C600A091C700B091C800809378
:1018B000090290930A02A0930B02B0930C0281E1FB
:1018C000E6E8F0E0A0EBB1E001900D928A95E1F737
:1018D0001092AC011092AB013093AF012093AE0196
:1018E00081E05FCF10920B0210920A028091AD014D
:1018F0008F5F8093AD0154CF87B3806B87BB87E147
:101900008DB908958FB9779BFECF8FB10895CF938E
:10191000C49885E08A95F1F7000080E00E94820C6F
:10192000C82F80E00E94820C682F8AE18A95F1F727
:1019300000C0C49A62FD21C07C2F7695679576958C
:1019400067957695679580E090E00E94471C20E0BF
:1019500030EF4FE754E40E94FE1C20E030EF4FE7E9
:1019600055E40E949F1B562F472F382F292F652F94
:10197000742F832F922FCF91089550E040E030E8EC
:101980002FEB652F742F832F922FCF910895CF9334
:10199000DF93C49885E08A95F1F70000C6B3C5FBD4
:1019A000CC27C0F9C1956E9A8C2F0E94820CD82F3B
:1019B0008C2F0E94820C9AE19A95F1F700C06E98E4
:1019C000C49A82FD0AC09D2F969587959695879516
:1019D00096958795DF91CF9108958FEF9FEFFACF7E
:1019E0008093D0017093CF016093CE015093CD01CD
:1019F0004093CC013093CB012093CA01089580918C
:101A0000C901815087FF03C08091D001815024E03B
:101A10008202C0011124E091CA01F091CB01E80FCC
:101A2000F91F0190F081E02D09958091C901082EE0
:101A3000000C990BA091CE01B091CF01E091CC01A7
:101A4000F091CD01E80FF91F20812C93880F991F89
:101A5000880F991FE091CA01F091CB01E80FF91F9F
:101A60000280F381E02D09958091C9018F5F8093F9
:101A7000C9012091D00130E0082E001C0008821717
:101A8000030609F008951092C9010895FC019081A0
:101A9000892F869586958470292F220F220F207119
:101AA000822B9B7E892B80830895E1EDF1E092816A
:101AB000892F869586958470292F220F220F2071F9
:101AC000822B9B7E892B82839681892F8695869592
:101AD0008470292F220F220F2071822B9B7E892B4D
:101AE000868308959C0114165CF4460F862F6F5F61
:101AF000F901E80FF11D87FDFA9510826413F6CF06
:101B0000089514166CF4DC01460FE62F6F5F8D917B
:101B10000E2E000CFF0BEF52FE4F80836413F5CFA7
:101B20000895FC01862F062E000C990B161664F5FD
:101B30002091D10120838130910531F12091D20192
:101B400021838230910501F12091D30122838330DA
:101B50009105D1F02091D401238384309105A1F027
:101B60002091D50124838530910571F02091D60113
:101B700025838630910541F02091D7012683079770
:101B800019F08091D80187830895E1EDF1E088E0B4
:101B9000DF011D928A95E9F70895CF92DF92EF92C7
:101BA000FF920F931F93CF93DF93CDB7DEB72A97A2
:101BB0000FB6F894DEBF0FBECDBF7C018B01C42EE3
:101BC000042E000CDD08141634F4A60160E070E069
:101BD000C8010E947D1DBE016F5F7F4FC7010E943B
:101BE00049009C01C81AD90A181619060CF091C0B0
:101BF000C6010196E981F0E0E554FF4F6081F801EC
:101C0000EC0DFD1D60832130310509F482C0B60161
:101C10006E5F7F4F800F911FEA81F0E0E554FF4F28
:101C2000E081DC01EC932230310509F472C0C60179
:101C30000396600F711FEB81F0E0E554FF4FE081E8
:101C4000DB01EC932330310509F463C0B6016C5F0E
:101C50007F4F800F911FEC81F0E0E554FF4FE08152
:101C6000DC01EC932430310509F453C0C60105961C
:101C7000600F711FED81F0E0E554FF4FE081DB0163
:101C8000EC932530310509F444C0B6016A5F7F4FFB
:101C9000800F911FEE81F0E0E554FF4FE081DC0101
:101CA000EC9326303105A9F1C6010796600F711F2C
:101CB000EF81F0E0E554FF4FE081DB01EC9327304A
:101CC000310539F1B601685F7F4F800F911FE885BC
:101CD000F0E0E554FF4FE081DC01EC932830310562
:101CE000C1F0A601475F5F4F600F711FE985F0E00B
:101CF000E554FF4F8081FB0180832930310549F095
:101D0000F801E40FF51FAA85B0E0A554BF4F8C91F0
:101D100080832A960FB6F894DEBF0FBECDBFDF9149
:101D2000CF911F910F91FF90EF90DF90CF9008958A
:101D3000DF92EF92FF920F931F93CF93DF93CDB774
:101D4000DEB72A970FB6F894DEBF0FBECDBFD82EF0
:101D5000092F7B01142F141634F450E06BEE70E061
:101D6000C7010E947D1DBE016F5F7F4F8D2D902F9B
:101D70000E9449009C01412F110F550B481B590B24
:101D8000181619060CF090C0CA010196E981F0E01E
:101D9000E554FF4F6081F701E40FF51F60832130A8
:101DA000310509F481C0BA016E5F7F4F8E0D9F1D12
:101DB000EA81F0E0E554FF4FE081DC01EC93223052
:101DC000310509F471C0CA0103966E0D7F1DEB81C8
:101DD000F0E0E554FF4FE081DB01EC932330310567
:101DE00009F462C0BA016C5F7F4F8E0D9F1DEC81BC
:101DF000F0E0E554FF4FE081DC01EC932430310545
:101E000009F452C0CA0105966E0D7F1DED81F0E008
:101E1000E554FF4FE081DB01EC932530310509F4F7
:101E200043C0BA016A5F7F4F8E0D9F1DEE81F0E0C7
:101E3000E554FF4FE081DC01EC9326303105A1F140
:101E4000CA0107966E0D7F1DEF81F0E0E554FF4F4C
:101E5000E081DB01EC932730310531F1BA01685F95
:101E60007F4F8E0D9F1DE885F0E0E554FF4FE08128
:101E7000DC01EC9328303105B9F0475F5F4F6E0D00
:101E80007F1DE985F0E0E554FF4F8081FB018083F1
:101E90002930310549F0F701E40FF51FAA85B0E0BC
:101EA000A554BF4F8C9180832A960FB6F894DEBF5D
:101EB0000FBECDBFDF91CF911F910F91FF90EF909B
:101EC000DF900895FC018081846080830895FC0187
:101ED00080818B7F8083089595980895959A0895C1
:101EE00092980895929A089593980895939A0895D0
:101EF00094980895949A0895DF980895DF9A089524
:101F0000DE980895DE9A0895DD980895DD9A089583
:101F1000DC980895DC9A0895CF93DF9320E630E0B3
:101F200041ED51E065E370E088E00E94F00CC0E60E
:101F3000D0E0E881F9810995249680E0C038D8077F
:101F4000C1F78D9A8A9A8B9A8C9AD79AD69AD59AF3
:101F5000D49A84B38FEF84BBDF91CF910895E9EDDC
:101F6000F1E024E630E030A727A38AE090E0918BEF
:101F7000808B358724871786168625E030E032A7C8
:101F800021A722E330E034A723A74DEC5CEC6CE4FE
:101F90007EE3428B538B648B758B4DEC5CEC6CEC6D
:101FA0007DE3468B578B608F718F128E138E148E4C
:101FB000158E138612869187808788E390E096A716
:101FC00085A782E087A7089580918F029091900263
:101FD0002091AE013091AF01821B930B21E030E0E4
:101FE0008630910514F02AE030E03093E20120932E
:101FF000E10108950F931F93CF93DF9300D000D09A
:1020000000D0CDB7DEB78C0186E0E0E8F0E0DE017D
:10201000119601900D928A95E1F72981216029831B
:102020003A814B815C816D817E81F80181810E94C2
:10203000330629813A814B815C816D817E81F80173
:1020400080810E94330629812E7D206229833A8176
:102050004B815C816D817E81F80184810E94330611
:1020600029812C7D236029838AE0382F8A831B8273
:1020700082E0582F8C831D821E8240E060E070E079
:10208000F80182810E94330629813A814B815C816B
:102090006D817E81F80183810F900F900F900F90DA
:1020A0000F900F90DF91CF911F910F910C943306F9
:1020B00081E192E00E94FA0F8BE292E00C94FA0F19
:1020C00089E3E9ECF0E0ADE0B2E001900D928A9591
:1020D000E1F7EDE0F2E081E0868382E0878393E040
:1020E000908786E0868F84E080A325E021A392A3D9
:1020F000828F0895CDB7DEB762970FB6F894DEBF32
:102100000FBECDBF0E948C0F46E050E064E070E04F
:102110008FE892E00E949C1D0E946010919A909A14
:10212000C39A969AD99AC09ADB9A8FE99FE0019751
:10213000F1F700C000000E9456060E94A102C2985A
:10214000BA9A47E063E080E00E94940A80E00E942F
:10215000720A369A3499FECFC19AB998BD9A65E051
:1021600088E390E00E943D058BE490E00E944305E7
:102170000E947C0C12BE8BE083BF89EF8CBF89B7B5
:10218000826089BF78940E94AF0FE12CF12C00E0AF
:1021900010E0C0900B01D0900C019090020142E041
:1021A000B42EAA24A39430C020E091E080914F0285
:1021B00020FB84F980934F0290934C0221E090E041
:1021C000B19902C020E091E080914F0220FB85F997
:1021D00080934F0290934D028091500280FF06C081
:1021E0000F5F1F4F0431110509F4DDC080914F02CC
:1021F000982F9570953009F442C00E948605809111
:1022000050028E7F809350028091510280FF0AC05D
:10221000809151028E7F80935102809150028160A3
:10222000809350028091500280FD26C00E94B10B25
:102230008115A1F080914F0282602091AE01309112
:10224000AF012F3F320709F478C0283E33400CF429
:102250007AC0B0924B02877F80934F0285B124B140
:1022600090E0982F8827820F911D8F34910508F4F4
:102270009BCF21E090E09ACF0E94FF0CD7CF9091A6
:102280004602911166C090914802E92F092E000C78
:10229000FF0BEA5BFD4F258112160CF48DC09F5F8A
:1022A00093300CF0C1C0909348028A738A3309F0CE
:1022B000A4CF90914E02911509F4F3C0809142028F
:1022C000913009F438C1923009F448C1823008F4E1
:1022D00002C1823009F409C1833009F410C1809130
:1022E000410282FDDBC060918F027091900280916B
:1022F000AE019091AF01681B790B91E080E06630F0
:10230000710514F09AE080E09093E1018093E2017E
:1023100089ED91E00E949B048091500280FF6DCF77
:102320008FEFE81AF80A94E1E916F10409F065CF95
:102330000E94DA09E12CF12C60CF877F80934F0255
:10234000A0924B028BCF10924B02886080934F0279
:1023500085CF913009F0A9CF90914802E92F092E3D
:10236000000CFF0BEA5BFD4F2581211509F4EFC03E
:102370002091500220FF99CF2091490230914A02CA
:102380002F5F3F4F30934A0220934902283E33404B
:1023900008F48BCF9F5F93300CF090E0909348024D
:1023A0001092460282CF0E94BE028091110183FDED
:1023B0003EC000E010E01ACF0E94C50D44E050E09E
:1023C00063EA70E0CE0101960E94841D44E060E063
:1023D000CE0101960E94810D80914802811509F479
:1023E000ADC0813009F425C1823009F444C144E014
:1023F00064E0CE0101960E94810D809146028F5FBC
:102400008093460210924A02109249028CE291E0B7
:102410000E9443050E945F0560E089ED91E00E9403
:102420001C0380914F0241CF109248023ECF877F1C
:102430008093110180914F02846080934F028BE45E
:1024400090E00E9443050E9448050E94C50D8091BE
:10245000110181FDB2C060918F0270919002809154
:10246000AE019091AF01681B790B91E080E066307E
:10247000710514F09AE080E09093E1018093E2010D
:1024800089ED91E00E94490389ED91E00E943003BB
:1024900080914F02816080934F028BCF0E94E5189C
:1024A00022CF81E192E00E94FA0F8BE292E00E943B
:1024B000FA0F44E060E087EA90E00E94810D80918D
:1024C00041028160809341021092420280914E024B
:1024D0008F5F80934E0283E00E94440781118FC07A
:1024E00080914202823009F0F7CE0E941D1981309E
:1024F00009F4A8C080914202833009F0F0CE0E9416
:10250000711A813009F0EBCE9091410290FFD1C059
:102510001092420281E192E00E94FA0F8BE292E077
:102520000E94FA0F0E94C50D44E060E087EA90E047
:102530000E94810DD4CEB0924E02C8CE44E050E04D
:102540006FE970E0CE0101960E94841D50CF109279
:1025500046020E944C0580914F02A7CE8111B6CE53
:102560008091AE019091AF0197FDB5CF88EE93E0D9
:102570000E9443050E944805809141028E7F80930E
:10258000410281E08093420281E192E00E94FA0FD1
:10259000109216028BE292E00E94FA0F1092300223
:1025A0008091410284608093410280914E028F5F4E
:1025B00080934E028091420289CE80914F028E7F9D
:1025C00080934F0244E064E087EB90E00E94810D2D
:1025D00060E089ED91E00E941C030E946010D0929F
:1025E0004F02C0924E0288E0E3E0F1E0A6E4B2E0E0
:1025F00001900D928A95E1F70E944C05DACE83E0B6
:102600000E94580783E00E943907813009F466C0B0
:1026100083E0809342029092450288EE93E00E940C
:1026200043050E94480568E0CE010B960E94910D7B
:1026300057CF44E050E06BE970E0CE0101960E9474
:10264000841DD5CE9091410290FF1EC0109242028F
:1026500081E192E00E94FA0F8BE292E00E94FA0F71
:102660000E94C50D44E060E087EA90E00E94810D81
:102670008091420231CE44E050E067E970E0CE0143
:1026800001960E94841DB3CE8093420281E192E0C4
:102690000E94FA0F109216028BE292E00E94FA0F4B
:1026A0001092300248E060E0CE010B960E94810D4E
:1026B00021CF8093420281E192E00E94FA0F1092B2
:1026C00016028BE292E00E94FA0F1092300248E06C
:1026D00060E0CE010B960E94810D01CE82E08093D6
:1026E00042029092430288EE93E00E9443050E94CA
:1026F000480542E050E060E070E08CE592E00E9426
:10270000AC1D42E050E062E070E086E792E00E949B
:10271000AC1D89CF8F938FB78F93809151028160C9
:10272000809351028F918FBF8F911895EF92FF92F6
:102730000F931F93CF93DF9300D0CDB7DEB77C010B
:102740008B01FC01808142E0BE016F5F7F4F082E4C
:10275000000C990B0E94CD0D8A819981F80190831C
:102760008183F701818142E0BE016F5F7F4F082EB8
:10277000000C990B0E94980E7801F2E0EF0EF11C0C
:102780008A819981F80192838383C80101960E940E
:10279000620FC7010E94620FC7010E94460D0F9091
:1027A0000F90DF91CF911F910F91FF90EF900895BF
:1027B000CF92DF92EF92FF921F93CF93DF93DC01D2
:1027C000FB01EA012C913CE32303600111241196E3
:1027D0008C91C80ED11C87FDDA9420812303C0019F
:1027E00011242181820F911D27FD9A9528812303B1
:1027F000900111244981240F311D47FD3A95821B18
:10280000930BC81AD90A10E060E01C141D04CCF424
:102810000D2C000CEE08FF08C701B6010E94491CF0
:1028200020E030E040E752E40E949F1B0E94111C10
:10283000162FC701B6012CE330E040E050E00E94C3
:10284000EC1A18836983DF91CF911F91FF90EF906D
:10285000DF90CF9008957F928F929F92AF92BF9218
:10286000CF92DF92EF92FF920F931F93CF93DF935C
:10287000CDB7DEB766970FB6F894DEBF0FBECDBFFB
:102880000DE012E080E0A82E80E0B82E92E5C92E7F
:1028900092E0D92EE12CF12C20E9822E99249394F8
:1028A0003AE1732ED80156969C928E92559742E04B
:1028B00050E0B501C8010A960E949C1DF80182856E
:1028C0009385D6011B969C938E931A971586148632
:1028D0007E9CF0017F9CF00D1124DF01A55EBD4FB1
:1028E0008C9182608C93D80113961C921397E15FB0
:1028F000FD4F80818160808380914202813049F167
:10290000C80104960E94FA0FF8011186EA94EF2894
:1029100061F0065E1F4F82E0A80EB11CAAE1CA0E4C
:10292000D11CEE24E394F12CBDCF66960FB6F8943B
:10293000DEBF0FBECDBFDF91CF911F910F91FF90F2
:10294000EF90DF90CF90BF90AF909F908F907F904F
:1029500008951A968C9142E0BE016B5E7F4F082E5F
:10296000000C990B0E94CD0D8E899D8999838A83D5
:10297000F801838542E0BE016B5E7F4F082E000C9C
:10298000990B0E94980E8E899D899B838C83CE0122
:1029900002960E94620FCE0103960E94620FCE0142
:1029A00003960E94460D44E0D8016C91CE01019639
:1029B0000E94810DA5CF5F926F927F928F929F921E
:1029C000AF92BF92CF92DF92EF92FF920F931F933D
:1029D000CF93DF93CDB7DEB766970FB6F894DEBF1F
:1029E0000FBECDBF0DE012E08CE5C82E82E0D82EE0
:1029F00090E0A92E90E0B92EE12CF12C2AE1522E84
:102A0000C80143960E94470AD80116968C910E94ED
:102A10004407811561F05E9CF0015F9CF00D11246C
:102A2000E55EFD4F808182FD02C080FF82C1F8011A
:102A300087810E944407811561F05E9CF0015F9CD4
:102A4000F00D1124E55EFD4F808182FD02C080FF04
:102A50004BC1D80116968C910E945807F8018781C6
:102A60000E945807D80119968C911997811509F47D
:102A700071C0813009F40EC15E9CC0015F9C900D55
:102A80001124FC01E25EFD4F208120FD2EC05E9CE2
:102A9000F0015F9CF00D1124E15EFD4F808181FD0E
:102AA000C4C0065E1F4FFAE1CF0ED11C22E0A20E79
:102AB000B11CEF2821F4EE24E394F12CA1CF66960B
:102AC0000FB6F894DEBF0FBECDBFDF91CF911F913F
:102AD0000F91FF90EF90DF90CF90BF90AF909F90BD
:102AE0008F907F906F905F900895FC01EC5DFD4F9B
:102AF000808181FF07C08D7F808390914202913059
:102B000009F441C18091500280FFC1CFD8011F96C6
:102B10008D919C910196883BBBE09B070CF4E0C033
:102B2000D80150961C921E921F978AE18E9D9001AB
:102B30008F9D300D1124F901E15EFD4F808182608F
:102B40008083255E3D4FD9019C9190FD29C08E7FE9
:102B500080839DCF14968C910E944407811509F4BF
:102B60008BCFF80184810E94580788EE93E00E9481
:102B700043050E9448058AE18E9D40018F9D900C7F
:102B80001124F401E15EFD4F808180FD0CC1816064
:102B90008083F401E55EFD4F8081816080836CCF8E
:102BA000F60160812CE36203B00111248181680F7A
:102BB000711D87FD7A95D5014C914203A001112426
:102BC00011963C91430F511D37FD5A95F8013285FE
:102BD0003203C00111242385820F911D27FD9A9590
:102BE000481B590B641B750B161617060CF079C1A0
:102BF0003B01770F88089908C401B3010E94491C62
:102C000020E030E040E752E40E949F1B0E94111C2C
:102C1000D8011A966C93C401B3012CE330E040E074
:102C200050E00E94EC1AF80163878AE18E9D400112
:102C30008F9D900C1124F401E15EFD4F80818D7F0A
:102C4000808342E050E0B501C6010E94AC1DD60170
:102C50008D919C91F80193878287F401E25EFD4F8C
:102C600080818E7F8083D8011D961C921E921C97B6
:102C7000F401E55EFD4F80818260808313961C9293
:102C80001397F401E15FFD4F808181608083199685
:102C90001C9207CF14968C910E944407811509F469
:102CA000EBCEF80184810E94580788EE93E00E94E1
:102CB00043050E9448058AE18E9DF0018F9DF00D2D
:102CC0001124DF01A35FBD4F52968C915297836010
:102CD00052968C93E55EFD4F808181608083CCCEDF
:102CE000F801908B8787D3CED80117968C910E94DC
:102CF000F107811509F4B4C08AE18E9DF0018F9D22
:102D0000F00D1124DF01A15FBD4F8C918E7F8C935C
:102D1000E25EFD4F80818160808381E0F8018187E0
:102D20008383108A17860E944C0AC6010E945D01A7
:102D300090CEF80186810E94F107811509F497C0B1
:102D40008AE18E9DF0018F9DF00D1124DF01A15FBE
:102D5000BD4F8C918E7F8C93E25EFD4F80818160B0
:102D6000808381E0D80119968C93199713968C93E0
:102D7000139750961C921E921F970E944C0AC601F0
:102D80000E94400154CE80FD38C044E060E0CE0196
:102D900001960E94720D44E0D8016C91CE0101961B
:102DA0000E94810DAFCE8E7F8083C401855E9D4FD2
:102DB0003C01DC018C918E7F8C9342E050E0B501A8
:102DC000C8010A960E949C1DF80115861486D3013D
:102DD0008C9182608C931382F401E15FFD4F8081BE
:102DE000816080838C918B7F8C93809142028130B3
:102DF00009F444C00E9473053FCEF601808142E091
:102E0000BE016B5E7F4F082E000C990B0E94CD0D0A
:102E10008E899D8999838A83D60111968C9142E08F
:102E2000BE016B5E7F4F082E000C990B0E94980E1E
:102E30008E899D899B838C83CE0102960E94620FAE
:102E4000CE0103960E94620FCE0103960E94460DAA
:102E500044E0F8016081CE0101960E94810D52CEBE
:102E60008BE490E00E9443050E94480545CF8BE427
:102E700090E00E9443050E94480562CFF8018285D8
:102E800042E0BE016B5E7F4F082E000C990B0E9442
:102E9000CD0D8E899D8999838A83D8011B968C914B
:102EA00042E0BE016B5E7F4F082E000C990B0E9422
:102EB000980E8E899D899B838C83CE0102960E94F9
:102EC000620FCE0103960E94620FCE0103960E940C
:102ED000460D44E0F8016081CE0101960E94810D0B
:102EE00089CF12861386A1CE9F92AF92BF92CF92C6
:102EF000DF92EF92FF920F931F93CF93DF930DE03A
:102F000012E0C0E0D0E08AE1982EC80143960E940A
:102F1000470A9C9E70019D9EF00C1124F701E55E0E
:102F2000FD4F6F01808180FD15C0065E1F4FCD2BC8
:102F300029F441E0C42F80E0D82FE7CFDF91CF9173
:102F40001F910F91FF90EF90DF90CF90BF90AF90C7
:102F50009F9008958091500280FF0DC0F8018485F4
:102F600095859C012F5F3F4F873E934009F458C0E1
:102F7000F801358724878AE18C9FF0018D9FF00D41
:102F80001124E55EFD4F808181FFCFCFF80183855D
:102F900081113AC0F8018285811136C08AE18C9F87
:102FA000F0018D9FF00D1124E55EFD4F90819E7F15
:102FB00090839C2F9F5F90FBAA24A0F8B12C8A9D40
:102FC000F0018B9DF00D1124DF01A55EBD4F8C91AA
:102FD00082FF3CC0E05EFD4F87E0D8015396019030
:102FE0000D928A95E1F78AE18C9FF0018D9FF00D9B
:102FF0001124DF01A15FBD4F8C918E7F8C93E55E24
:10300000FD4F8081846080838AE18C9FF0018D9FD9
:10301000F00D1124E55EFD4F80818D7F808385CF8B
:10302000F80115861486C8010A960E944001F6012F
:10303000808182608083F80183818111A7CFF701AD
:10304000E15FFD4F808181608083A0CF81E00E949D
:103050004C0AC9CFCF92DF92EF92FF920F931F934A
:10306000CF93DF93CDB7DEB766970FB6F894DEBF88
:103070000FBECDBF0DE012E0E12CF12CC80143964C
:103080000E94470AF8018381811104C080914202A5
:103090008130A1F0065E1F4FEF2809F03FC0EE24FB
:1030A000E394F12CC80143960E94470AF8018381FA
:1030B0008111F0CF80914202813061F72AE12E9D8B
:1030C000C0012F9D900D11249C01215F3D4F69018E
:1030D000F901808180FD31C02AE12E9DC0012F9D24
:1030E000900D1124FC01E55EFD4F208122FFD2CF1F
:1030F0008C5D9D4FFC01808180FD55C044E060E007
:10310000CE0101960E94720D44E0F8016081CE016B
:1031100001960E94810D0E946305BCCF66960FB692
:10312000F894DEBF0FBECDBFDF91CF911F910F91FD
:10313000FF90EF90DF90CF900895F801828542E0F4
:10314000BE016B5E7F4F082E000C990B0E94CD0DC7
:103150008E899D8999838A83F801838542E0BE0127
:103160006B5E7F4F082E000C990B0E94980E8E8983
:103170009D899B838C83CE0102960E94620FCE01B3
:1031800003960E94620FCE0103960E94460D44E012
:10319000F8016081CE0101960E94810DF6018081C7
:1031A0008E7F808399CF44E050E063EB70E0CE01E6
:1031B00001960E94841D44E0F8016081CE010196D1
:1031C0000E94810D0E94730565CF80914402811594
:1031D00019F180914202813051F10E94741780915F
:1031E0004202813009F008950E942A18809142021B
:1031F0008130C9F780E292E00E94470A8091500234
:1032000080FD18C08AE392E00E94470A8091500234
:1032100080FFE9CF0C94590A0E942B14809144023C
:103220008F5F80934402809142028130B1F60E9408
:10323000DB14D3CF0E94590AE5CFEF92FF920F9390
:103240001F93CF93DF93CDB7DEB72A970FB6F894CD
:10325000DEBF0FBECDBF86E892E00E94470A809194
:103260004302811181C086E0E0E8F0E0DE011196C2
:1032700001900D928A95E1F72981216029833A8195
:103280004B815C816D817E81809115020E943306A5
:1032900029813A814B815C816D817E8180912F02F1
:1032A0000E943306809143028F5F8093430280E93E
:1032B00091E0909389028093880280918D02909191
:1032C0008E02892B21F080918A0281FD18C083E053
:1032D0000E94440710E081112CC08091500280FDB3
:1032E00040C0812F2A960FB6F894DEBF0FBECDBF27
:1032F000DF91CF911F910F91FF90EF9008958D7FF7
:1033000080938A0280FF52C08E010F5F1F4FB80169
:1033100080918F02909190020E94E70A44E064E05D
:10332000C8010E94810D83E00E94440710E08115CE
:10333000A1F283E00E945807809143028F5F80933F
:1033400043028330E1F1853009F4AFC010E080E53D
:1033500090E00E9443050E9448058091500280FF42
:10336000C0CF0E94590ABDCF813081F18230D1F1A6
:10337000833009F447C0843009F09FCF0DE012E09C
:1033800081E4E82E82E0F82EF80186810E9444074D
:10339000811168C0F80187810E94440781113EC0F5
:1033A000065E1F4FE016F10679F787CF44E060E034
:1033B0008E010F5F1F4FC8010E94720DAFCF81E0D9
:1033C00090E090938E0280938D02C0CF44E060E045
:1033D0008FEA90E00E94810D809143028F5F80937D
:1033E00043026BCFBE016F5F7F4F8091AE01909122
:1033F000AF010E94E70A44E064E0CE0101960E941A
:10340000810D5BCF44E060E08BEA90E00E94810D8B
:10341000809143028F5F809343024FCFF8018781F1
:103420000E945807F80187810E94F107811509F46D
:1034300051C081E00E944C0A80918F0290919002CD
:1034400001969093900280938F0220919302309185
:103450009402821793070CF4A3CF30939002209329
:103460008F029ECFF80186810E945807F80186815D
:103470000E94F107811539F181E00E944C0A809188
:103480008F029091900201979093900280938F0207
:103490002091910230919202281739070CF47ACFCB
:1034A0003093900220938F0275CF46E050E064E0A5
:1034B00070E08FE892E00E94AC1D10928E02109294
:1034C0008D0211E044CF8BE490E00E9443050E94FE
:1034D0004805D2CF8BE490E00E9443050E94480546
:1034E000A8CF1F93CF93DF93CDB7DEB72A970FB640
:1034F000F894DEBF0FBECDBF80914502811135C06B
:1035000086E0E0E8F0E0DE01119601900D928A95E8
:10351000E1F72981216029833A814B815C816D81AA
:103520007E81809115020E94330629813A814B8168
:103530005C816D817E8180912F020E943306809193
:1035400045028F5F8093450210E083E00E944407AC
:10355000811117C0812F2A960FB6F894DEBF0FBED7
:10356000CDBFDF91CF911F9108958130C9F0823096
:1035700019F111E0833041F783E00E94440781157F
:1035800049F383E00E945807809145028F5F809342
:1035900045028BE490E00E9443050E944805DACF83
:1035A00044E060E08FEA90E00E94810D8091450246
:1035B0008F5F80934502C8CFBE016F5F7F4F8091C0
:1035C000AE019091AF010E94E70A44E064E0CE01B1
:1035D00001960E94810DB8CF052E97FB1EF4009432
:1035E0000E94031B57FD07D00E940B1B07FC03D052
:1035F0004EF40C94031B50954095309521953F4F08
:103600004F4F5F4F089590958095709561957F4FCE
:103610008F4F9F4F0895A1E21A2EAA1BBB1BFD01DD
:103620000DC0AA1FBB1FEE1FFF1FA217B307E407A1
:10363000F50720F0A21BB30BE40BF50B661F771FF9
:10364000881F991F1A9469F76095709580959095D9
:103650009B01AC01BD01CF0108955058BB27AA279B
:103660000E94451B0C94BF1C0E94B11C38F00E94A4
:10367000B81C20F039F49F3F19F426F40C94AE1CCA
:103680000EF4E095E7FB0C94A81CE92F0E94D01CD7
:1036900058F3BA17620773078407950720F079F487
:1036A000A6F50C94F21C0EF4E0950B2EBA2FA02D6B
:1036B0000B01B90190010C01CA01A0011124FF27DF
:1036C000591B99F0593F50F4503E68F11A16F040DA
:1036D000A22F232F342F4427585FF3CF46953795D9
:1036E0002795A795F0405395C9F77EF41F16BA0B9E
:1036F000620B730B840BBAF09150A1F0FF0FBB1F4C
:10370000661F771F881FC2F70EC0BA0F621F731F94
:10371000841F48F4879577956795B795F7959E3FF1
:1037200008F0B0CF9395880F08F09927EE0F979582
:10373000879508950E94841C08F481E008950E94F2
:10374000B31B0C94BF1C0E94B81C58F00E94B11C03
:1037500040F029F45F3F29F00C94A81C51110C94FF
:10376000F31C0C94AE1C0E94D01C68F39923B1F397
:10377000552391F3951B550BBB27AA276217730797
:10378000840738F09F5F5F4F220F331F441FAA1F2B
:10379000A9F335D00E2E3AF0E0E832D091505040E7
:1037A000E695001CCAF72BD0FE2F29D0660F771F95
:1037B000881FBB1F261737074807AB07B0E809F07B
:1037C000BB0B802DBF01FF2793585F4F3AF09E3F00
:1037D000510578F00C94A81C0C94F31C5F3FE4F3A3
:1037E000983ED4F3869577956795B795F7959F5F43
:1037F000C9F7880F911D9695879597F90895E1E08F
:10380000660F771F881FBB1F621773078407BA07ED
:1038100020F0621B730B840BBA0BEE1F88F7E09548
:1038200008950E94181C6894B1110C94F31C08951B
:103830000E94D81C88F09F5798F0B92F9927B7514C
:10384000B0F0E1F0660F771F881F991F1AF0BA9544
:10385000C9F714C0B13091F00E94F21CB1E0089594
:103860000C94F21C672F782F8827B85F39F0B93F86
:10387000CCF3869577956795B395D9F73EF49095F7
:103880008095709561957F4F8F4F9F4F0895E89475
:1038900009C097FB3EF490958095709561957F4F98
:1038A0008F4F9F4F9923A9F0F92F96E9BB27939546
:1038B000F695879577956795B795F111F8CFFAF456
:1038C000BB0F11F460FF1BC06F5F7F4F8F4F9F4F87
:1038D00016C0882311F096E911C0772321F09EE8E5
:1038E000872F762F05C0662371F096E8862F70E04B
:1038F00060E02AF09A95660F771F881FDAF7880F25
:103900009695879597F90895990F0008550FAA0B7A
:10391000E0E8FEEF16161706E807F907C0F01216E2
:103920001306E407F50798F0621B730B840B950BE5
:1039300039F40A2661F0232B242B252B21F408953A
:103940000A2609F4A140A6958FEF811D811D0895D7
:1039500097F99F6780E870E060E008959FEF80EC42
:10396000089500240A9416161706180609060895E5
:1039700000240A9412161306140605060895092E4B
:103980000394000C11F4882352F0BB0F40F4BF2BBA
:1039900011F460FF04C06F5F7F4F8F4F9F4F0895FA
:1039A00057FD9058440F551F59F05F3F71F04795F0
:1039B000880F97FB991F61F09F3F79F087950895D5
:1039C000121613061406551FF2CF4695F1DF08C0F4
:1039D000161617061806991FF1CF86957105610511
:1039E00008940895E894BB2766277727CB0197F9B9
:1039F00008950E94841C08F48FEF08950E94111D01
:103A00000C94BF1C0E94B11C38F00E94B81C20F01E
:103A1000952311F00C94A81C0C94AE1C11240C944A
:103A2000F31C0E94D01C70F3959FC1F3950F50E0DA
:103A3000551F629FF001729FBB27F00DB11D639F60
:103A4000AA27F00DB11DAA1F649F6627B00DA11D06
:103A5000661F829F2227B00DA11D621F739FB00DAC
:103A6000A11D621F839FA00D611D221F749F33271C
:103A7000A00D611D231F849F600D211D822F762FB5
:103A80006A2F11249F5750409AF0F1F088234AF092
:103A9000EE0FFF1FBB1F661F771F881F91505040FE
:103AA000A9F79E3F510580F00C94A81C0C94F31CC0
:103AB0005F3FE4F3983ED4F3869577956795B79585
:103AC000F795E7959F5FC1F7FE2B880F911D96959F
:103AD000879597F908956817790768F4FB01DC0169
:103AE000E40FF51FA40FB51F02C002900E924150C3
:103AF0005040D8F708950C94931DDC0101C06D93DC
:103B000041505040E0F70895FB01DC014150504026
:103B100048F001900D920020C9F701C01D9241505C
:103B20005040E0F70895FB01DC0102C001900D92C6
:103B300041505040D8F70895DC01CB01FC01E199D8
:103B4000FECF06C0FFBBEEBBE09A31960DB20D92E0
:103B500041505040B8F70895DC01A40FB51F415003
:103B6000504048F0CB01840F951F2E910E94BD1D3F
:103B700041505040D0F70895262FE199FECF9FBBCA
:103B80008EBBE09A01970DB2021631F02DBB0FB635
:0E3B9000F894E29AE19A0FBE0895F894FFCFE0
:103B9E006C0F6E0F700F720F740F760F780F7A0F07
:103BAE007C0F7E0F800F820F840F860F880F8A0F77
:103BBE0000000000000000000000000000000000F7
:103BCE0000000000000000B72900003DF1822939F5
:103BDE0037071979110500F1116D007A792D00EB77
:103BEE008229009B1B0779EB716500EB82D9DAB253
:103BFE007A3BC2FBF2000000000000000000000053
:103C0E0000000000000000000000000000000000A6
:103C1E000000000000000000000000000000000096
:103C2E000000000000000000000000000000000086
:0E3C3E00000000000000000000000000000078
:00000001FF
