:100000000C942A000C9447000C9447000C94470071
:100010000C9447000C9447000C9447000C94470044
:100020000C9447000C9447000C9483190C944700DF
:100030000C9447000C9447000C9447000C94470024
:100040000C948F190C9447000C9447000C944700B3
:100050000C94470011241FBECFE5D8E0DEBFCDBF12
:1000600015E0A0E6B0E0EAE1F8E402C005900D92E8
:10007000A831B107D9F726E0A8E1B5E001C01D928B
:10008000A53FB207E1F70E9408170C940B240C94CB
:1000900000008F929F92AF92BF92CF92DF92EF9229
:1000A000FF920F931F93CF93DF93AC014B0180E03E
:1000B00090E057FD77C0FB01DB0180E090E01DEC94
:1000C000A12E6DEC7CEC05E0B02E352F330F330BF9
:1000D000232F2370F22E8A01129502950F700127AB
:1000E0001F7001270F70242F2F70200F152F1F70E6
:1000F000210F152F12951F70210F2F0D2A9D112DE5
:100100001124012F069506951C7F100F211B3C7FA3
:10011000230F022E000C330B7A01E21AF30AE69E3B
:100120008001E79E100DF69E100D11247801C1E0AC
:10013000EC22C0E8FC2217FF0AC0D1E0ED1AF1085A
:10014000CEEFEC2AFF24FA94DFEFED1AFD0ABE9CF5
:100150006001BF9CD00C11242C0D3D1D17FF02C067
:100160000F5F1F4F01962D939A01A8015595479552
:100170002A3031050CF0A9CF9C0135952795211522
:10018000310581F0DC01A80DB91D820E931E21916D
:100190003E91AF0141505109EA0138832C93E81593
:1001A000F905A9F7DF91CF911F910F91FF90EF9083
:1001B000DF90CF90BF90AF909F908F9008958F92D7
:1001C0009F92AF92BF92DF92EF92FF920F931F9395
:1001D000CF93DF938C01EB01D42EFC010190002022
:1001E000E9F73197E81BF90B6E177F07A8F11C168A
:1001F0001D0694F5FC0180E090E004C00196C8174C
:10020000D90751F121912111F9CF009729F1C81790
:10021000D90711F1F801EC0FFD1F10825E01A81A39
:10022000B90AE12CF12CC80101974C011A141B04E6
:100230008CF4AE01B401C8010E94A9239FEFE91A12
:10024000F90AEA14FB04A9F76D2D70E0A701C801B3
:100250000E94BB2381E001C080E0DF91CF911F911C
:100260000F91FF90EF90DF90BF90AF909F908F9095
:10027000089540E30C94DF0040E20C94DF00089501
:10028000FC018181811109C08081882381F09BE379
:1002900091838150808380E0089581508183811112
:1002A00008C081E09081992319F080E0089581E0F1
:1002B000089587FFFACF8081EACFFC018181908188
:1002C0008B3379F09C337CF49B3379F021E0280F59
:1002D00021838B53843418F411829F5F908380E0D4
:1002E00008959B33CCF381E008958C33E4F791E0DB
:1002F000980F918381E09B3391F7F6CF6F927F92B5
:100300008F929F92AF92BF92CF92DF92EF92FF9225
:100310000F931F93CF93DF93CDB7DEB765970FB6DB
:10032000F894DEBF0FBECDBF89879A87FB018A0193
:100330007901A985BA858C91811181C012961C9290
:100340001E92119781E08C93EE24E394F12C812C82
:10035000912C5401808191819C0140E050E02983DF
:100360003A834B835C83CA01B9010E948522A501AF
:10037000940169837A838B839C8369817A818B81E1
:100380009C810E946C215B016C01AB01BC01A985C1
:10039000BA8513964D935D936D937C931697E016F3
:1003A000F10608F4DEC0FD01128211829801110FDE
:1003B000440B550B29833A834B835C83CA01B901F3
:1003C0000E9487229B01AC01A982BA82CB82DC8287
:1003D00069817A818B819C810E94DD216D877E8776
:1003E0008F87988BA985BA8513966D937D938D938E
:1003F0009C93169718961C921E9217971A961C9209
:100400001E921997FD01138614861586168682E0C2
:10041000808380E065960FB6F894DEBF0FBECDBF37
:10042000DF91CF911F910F91FF90EF90DF90CF90D0
:10043000BF90AF909F908F907F906F900895813084
:1004400009F41DC1823029F71196AD90BC90450189
:10045000880C991C860E971EF401808191819C0165
:1004600040E050E029833A834B835C83CA01B901A1
:100470000E9485223B016C01A985BA8513968D9156
:100480009D910D90BC91A02D8D839E83AF83B887E5
:100490009C01AD0169827A82CB82DC8269817A819A
:1004A0008B819C810E9437231816DCF5E985FA853B
:1004B00087819085019690878783D4018D919C9147
:1004C0009C0140E050E029833A834B835C83CA015E
:1004D000B9010E9485223B016C012D813E814F8133
:1004E000588569837A828B83DC8269817A818B81EA
:1004F0009C810E946B219B01AC01A985BA851B964A
:100500006D917D918D919C911E970E946C21698BBC
:100510007A8B8B8B9C8BE985FA85638774878587BB
:1005200096879301A6016D817E818F8198850E94B7
:10053000372318165CF4A985BA8519968D919C917C
:100540001A9701961A969C938E931997BFEFAB1A40
:10055000BB0AA016B10650F4E985FA85B282A182E1
:1005600058CF1296FC92EE92119753CFA985BA8577
:1005700012961C921E9211971C921B962D913D91E2
:100580004D915C911E9729833A834B835C8320E0D5
:1005900030E0A90169817A818B819C810E94D821F8
:1005A00087FD5BC0E985FA85878190852185328545
:1005B000821B930B9C01990F440B550B29873A879B
:1005C0004B875C87CA01B9010E94872229813A8141
:1005D0004B815C8169837A838B839C8369817A8177
:1005E0008B819C810E943C236B018D8B9987009F9E
:1005F000C001019F900D900D11249C01990F440B97
:10060000550B29833A834B835C83CA01B9010E944D
:1006100087229B01AC01C982DA828D898B839985FF
:100620009C8369817A818B819C810E94DD212D814F
:100630003E814F81588569837A838B839C8369814E
:100640007A818B819C810E946C21D7016D937D936F
:100650008D939C93139781E0DDCE29813A814B8164
:100660005C81505829833A834B835C83A985BA8582
:100670001B962D933D934D935C931E9793CFA98525
:10068000BA8513968D909D90AD90BC90169711965B
:10069000ED90FC90C701880F991FE80FF91FBFEF7D
:1006A000EB1AFB0A57CE86B3829581700895C49ADF
:1006B000BC98EAE1F5E083E593E0938382838FE9D8
:1006C0009FE00197F1F700C000000280F381E02D68
:1006D0000995982F9170EBE1F5E0808190FB81F90D
:1006E00090FB82F98860808308950F931F93CF93C6
:1006F000DF9380911B0580FD21C0E0911C05F091E6
:100700001D05099590911B0592FB222720F9C22F08
:1007100020E0D22F282F082E000C330BC217D3074E
:1007200041F0880F880F847081609A7F892B8093B5
:100730001B05DF91CF911F910F91089580911A05AC
:1007400091E0980F843039F090931A05DF91CF91A2
:100750001F910F91089510921A05E0911C05F091D8
:100760001D05099590911B0592FB002700F910E0EB
:10077000282F082E000C330B0217130771F080FB93
:1007800092F990931B0580911B058E7F80931B052A
:10079000DF91CF911F910F910895880F827088602B
:1007A000957F892B80931B05EECFFC01A5A5B6A5EF
:1007B00027A581E090E001C0880F2A95EAF79C9177
:1007C000613021F0809589238C930895892B8C9337
:1007D0000895FC0120A131A133A322A3A5A5B6A5AC
:1007E00047A581E090E001C0880F4A95EAF79C9107
:1007F000121613061CF4892B8C9308958095892377
:100800008C930895AF92BF92CF92DF92EF92FF92B6
:100810000F931F93CF93DF9300D000D000D0CDB7BC
:10082000DEB78D839E83CB01AD81BE8112962D9163
:100830003C911397260F371F13963C932E931297D4
:1008400018960D911C911997021713070CF0BAC056
:1008500013961C930E93129714962D913C91159715
:100860007C01E21AF30A1796FC92EE9216971596FF
:100870009C938E9314979C01990F440B550B2983DD
:100880003A834B835C83CA01B9010E948722AD8100
:10089000BE8152962D913D914D915C915597698302
:1008A0007A838B839C8369817A818B819C810E946E
:1008B0003C235B016C019801110F440B550B2983FC
:1008C0003A834B835C83CA01B9010E948722AD81C0
:1008D000BE8156962D913D914D915C9159976983BA
:1008E0007A838B839C8369817A818B819C810E942E
:1008F0003C239B01AC01A982BA82CB82DC82698154
:100900007A818B819C810E946C216B018C01970103
:10091000FF0C440B550B29833A834B835C83CA013C
:10092000B9010E948722AD81BE815A962D913D91D9
:100930004D915C915D9769837A838B839C836981F8
:100940007A818B819C810E943C239B01AC01C982EE
:10095000DA820B831C8369817A818B819C810E945E
:100960006C2169837A838B839C8369817A818B81F3
:100970009C810E944F22462F572FED81FE812089B6
:100980003189249FC001259F900D349F900D112423
:1009900091A380A32485358528173907E4F431A372
:1009A00020A30F900F900F900F900F900F90DF915A
:1009B000CF911F910F91FF90EF90DF90CF90BF905C
:1009C000AF900895FD0102851385201731075CF46F
:1009D0001383028341CF26853785821793070CF74F
:1009E00031A320A3DECF890137CFAF92BF92CF9240
:1009F000DF92EF92FF920F931F93CF93DF9300D07C
:100A000000D000D0CDB7DEB78D839E83CB01AD8102
:100A1000BE8112962D913C911397260F371F139686
:100A20003C932E93129718960D911C9119970217CB
:100A300013070CF0A5C013961C930E9312971496EF
:100A40002D913C9115977C01E21AF30A1796FC92BE
:100A5000EE92169715969C938E9314979C01990F7E
:100A6000440B550B29833A834B835C83CA01B9013C
:100A70000E948722AD81BE8152962D913D914D916C
:100A80005C91559769837A838B839C8369817A8192
:100A90008B819C810E943C235B016C019801110FAA
:100AA000440B550B29833A834B835C83CA01B901FC
:100AB0000E948722AD81BE8156962D913D914D9128
:100AC0005C91599769837A838B839C8369817A814E
:100AD0008B819C810E943C239B01AC01A982BA823C
:100AE000CB82DC8269817A818B819C810E946C211E
:100AF0006B018C019701FF0C440B550B29833A8342
:100B00004B835C83CA01B9010E948722AD81BE81FB
:100B10005A962D913D914D915C915D9769837A83B1
:100B20008B839C8369817A818B819C810E943C2389
:100B30009B01AC01C982DA820B831C8369817A81B3
:100B40008B819C810E946C2169837A838B839C8337
:100B500069817A818B819C810E944F22CB010F9009
:100B60000F900F900F900F900F90DF91CF911F91EA
:100B70000F91FF90EF90DF90CF90BF90AF900895CE
:100B8000FD0102851385201731071CF413830283AE
:100B900056CF890154CFFC01268D378D2F5F3F4FF3
:100BA000378F268F84A14485558587FD18C062A1A3
:100BB00073A1161617069CF481110CC081A592A58D
:100BC0002817390770F0178E168E21E024A320E035
:100BD00030E007C0813019F42617370738F581A5B2
:100BE00092A5840F951F43A554A5840F951F281720
:100BF000390708F40895178E168E14A220A131A18A
:100C000033A322A3A5A5B6A547A581E090E001C026
:100C1000880F4A95EAF79C91121613061CF4892B4B
:100C20008C930895809589238C9308956417750794
:100C3000B4F6A5A5B6A52C9137A581E090E001C03A
:100C4000880F3A95EAF7809582238C93268D378D0D
:100C500081A592A544855585C4CFAF92BF92CF920E
:100C6000DF92EF92FF920F931F93CF93DF9300D009
:100C700000D000D0CDB7DEB78D839E83CB01AD8190
:100C8000BE8112962D913C911397260F371F139614
:100C90003C932E93129718960D911C911997021759
:100CA00013070CF0D2C013961C930E931297149650
:100CB0002D913C9115977C01E21AF30A1796FC924C
:100CC000EE92169715969C938E9314979C01990F0C
:100CD000440B550B29833A834B835C83CA01B901CA
:100CE0000E948722AD81BE8152962D913D914D91FA
:100CF0005C91559769837A838B839C8369817A8120
:100D00008B819C810E943C235B016C019801110F37
:100D1000440B550B29833A834B835C83CA01B90189
:100D20000E948722AD81BE8156962D913D914D91B5
:100D30005C91599769837A838B839C8369817A81DB
:100D40008B819C810E943C239B01AC01A982BA82C9
:100D5000CB82DC8269817A818B819C810E946C21AB
:100D60006B018C019701FF0C440B550B29833A83CF
:100D70004B835C83CA01B9010E948722AD81BE8189
:100D80005A962D913D914D915C915D9769837A833F
:100D90008B839C8369817A818B819C810E943C2317
:100DA0009B01AC01C982DA820B831C8369817A8141
:100DB0008B819C810E946C2169837A838B839C83C5
:100DC00069817A818B819C810E944F22462F572F07
:100DD000ED81FE8120893189249FC001259F900DDE
:100DE000349F900D112491A380A324853585281765
:100DF00039071CF531A320A38091AC0680FF0CC0FD
:100E0000ED81FE8185A196A1019696A385A327A1D8
:100E100030A58217930720F50F900F900F900F9039
:100E20000F900F90DF91CF911F910F91FF90EF9056
:100E3000DF90CF90BF90AF900895268537858217B9
:100E40009307D4F631A320A3D7CFFD0102851385E4
:100E5000201731071CF41383028329CF890127CF80
:100E600016A215A2CF010F900F900F900F900F9028
:100E70000F90DF91CF911F910F91FF90EF90DF9036
:100E8000CF90BF90AF900C94CB05EEE1F5E090874A
:100E900087836187089590932205809321050895A3
:100EA00081E080931E050895EEE1F5E03185A7818C
:100EB000B0852C9181E090E002C0880F991F3A958F
:100EC000E2F78095909582238C931082089583E0B9
:100ED00080931E050895EEE1F5E091850780F08589
:100EE000E02D808121E030E001C0220F9A95EAF7E1
:100EF000822B80830895EEE1F5E031850780F0854F
:100F0000E02D208181E090E002C0880F991F3A9582
:100F1000E2F78095909582238083089580911E0545
:100F2000813009F472C080911E05823021F18091D8
:100F30001E05833009F450C080911E05843009F0ED
:100F400008958091AC0680FFFBCF80911F059091A2
:100F5000200501969093200580931F05209121057F
:100F6000309122058217930758F380911E05815016
:100F700080931E0508958091AC0680FFD8CF8091A4
:100F80001F059091200501969093200580931F05E1
:100F900020911F0530912005809121059091220517
:100FA0002817390720F21092200510921F05309162
:100FB0002705E0912505F0912605208181E090E04C
:100FC00002C0880F991F3A95E2F780959095822389
:100FD000808310921E05ABCF90912705E0912505E7
:100FE000F0912605808121E030E001C0220F9A9522
:100FF000EAF7822780831092200510921F058091C6
:101000001E058F5F80931E05089590912705E0913E
:101010002505F0912605808121E030E001C0220FF6
:101020009A95EAF7822B80831092200510921F0573
:1010300080911E058F5F80931E0579CF80B38695C2
:101040008170089580B38170089586B383FB8827EB
:1010500080F9089580B386FB882780F9089589B3C5
:1010600086958170089586B38170089589B383FB56
:10107000882780F90895CF93DF9300D000D000D067
:10108000CDB7DEB729833A834B835C836D837E8340
:1010900090E1899FD0011124A85CBA4F86E0FE013F
:1010A000319601900D928A95E1F70F900F900F9075
:1010B0000F900F900F90DF91CF910895CF93DF9312
:1010C000CDB7DEB72C970FB6F894DEBF0FBECDBFFD
:1010D00089988898BB988E98D198B898D398EFE261
:1010E000F5E08EE198E09183808382E298E0918B35
:1010F000808B85E298E091A380A38AE298E091AB8F
:1011000080AB8FE298E09093700580936F0583E346
:1011100098E09093800580937F0586E398E0909314
:10112000900580938F05CE01079626E0FC01119271
:101130002A95E9F72F8121602F8326E0FC01DE014B
:10114000119601900D922A95E1F726E0FE01319665
:10115000A8E3B5E001900D922A95E1F726E0FC01A5
:10116000DE01119601900D922A95E1F726E0FE012D
:101170003196A8E4B5E001900D922A95E1F726E0BA
:10118000FC01DE01119601900D922A95E1F726E00F
:10119000FE013196A8E5B5E001900D922A95E1F7A0
:1011A00026E0FC01DE01119601900D922A95E1F7EF
:1011B00026E0FE013196A8E6B5E001900D922A9551
:1011C000E1F726E0FC01DE01119601900D922A95CF
:1011D000E1F726E0FE013196A8E7B5E001900D9217
:1011E0002A95E1F726E0FC01DE01119601900D92AF
:1011F0002A95E1F726E0FE013196A8E8B5E00190D6
:101200000D922A95E1F726E0FC01DE01119601908E
:101210000D922A95E1F786E0FE013196A8E9B5E046
:1012200001900D928A95E1F72C960FB6F894DEBFE7
:101230000FBECDBFDF91CF910895EEE3F5E0808141
:101240008D7F8083EEE4F5E080818D7F8083EEE505
:10125000F5E080818D7F8083EEE6F5E080818D7FF3
:101260008083EEE7F5E080818D7F8083EEE8F5E016
:1012700080818D7F8083EEE9F5E080818D7F8083A2
:10128000089590E1899FF0011124E25CFA4F80817A
:1012900082FB882780F9089590E1899FF00111244D
:1012A000E25CFA4F808186958170089590E1899F74
:1012B000F0011124E25CFA4F8081826080830895FE
:1012C00090E1899FF0011124E25CFA4F80818D7FCB
:1012D0008083089590E1899FF0011124E15DFA4F28
:1012E0000280F381E02D099490E18902F00111243C
:1012F000E25CFA4F80818170089590E18902F001EB
:101300001124E25CFA4F808185FB882780F90895DB
:1013100090E18902F0011124E25CFA4F80818F7D17
:1013200080830895EF92FF920F931F93CF93DF93E3
:1013300006E010E00CC0E881F9810995811103C035
:101340008C818F5F8C830150110908F440C08AE1C1
:101350008A95F1F700C07801E294F29480EFF822C8
:10136000FE24E822FE24E701C15DDA4F8C81882348
:1013700011F38C818130C9F08C81823079F18C81BC
:10138000833009F78D818F5F8D838130E1F61D8277
:10139000E881F9810995813041F5F701E25CFA4F66
:1013A00080818E7F80831C82CECF8D818F5F8D83E5
:1013B000813049F61D82E881F9810995811115C0B6
:1013C000F701E25CFA4F808181608083B9CFDF91C1
:1013D000CF911F910F91FF90EF900895E881F981CF
:1013E0000995813009F0AFCFABCF8C8181508C83D0
:1013F000AACF90E18902F0011124E15DFA4F9681B4
:1014000081E0983009F0089580E00895FF920F93ED
:101410001F93CF93DF9320E030E079E0FAE0FF2ED6
:1014200063E042E05BE052C0FC01E15DFA4FB6814F
:10143000B93009F49AC0FC01E15DFA4FB681BA30C7
:1014400009F4A4C0FC01E15DFA4FB681B63009F49D
:10145000B2C0FC01E15DFA4FB681B73039F4EC015E
:10146000C25CDA4FB881B260B8834683FC01E15DAB
:10147000FA4FB681B43009F418C1FC01E15DFA4FAE
:10148000B681B53009F4E1C0FC01E15DFA4FB681E7
:10149000B13009F4D2C0FC01E15DFA4FB681B2303F
:1014A00009F4C0C0FC01E15DFA4FB681B33009F424
:1014B000B1C0FC01E15DFA4FB681BB3009F486C0D2
:1014C0002F5F3F4F2730310509F49EC0C901829537
:1014D0009295907F9827807F9827FC01E15DFA4FD5
:1014E000B681B11113C0B685BB2341F0E685F0E0AB
:1014F000E85DFA4FE081E13009F41FC1EC01C25C04
:10150000DA4FE881E170E13009F405C1FC01E15DE9
:10151000FA4FB681B83068F0B681BB3050F4EC01B8
:10152000C25CDA4FB881B0FD04C010861782B3E008
:10153000B683FC01E15DFA4FB681B83009F074CF93
:10154000C781D0852196D087C78302851385C017B0
:10155000D10708F469CF108617827683FC01E15D1C
:10156000FA4FB681B93009F066CFEC01C25CDA4FB0
:10157000B881B1FD60CFB881B260B883F682FC015A
:10158000E15DFA4FB681BA3009F05CCFC781D085F2
:101590002196D087C78304851585C017D10708F425
:1015A00051CF108617827683FC01E15DFA4FB68138
:1015B000B63009F04ECFEC01C25CDA4FB881B0FD15
:1015C00048CFB881B260B883668343CFB685BB236A
:1015D00059F0E685F0E0E85DFA4F1082FC01E25C2C
:1015E000FA4FB081B77FB083FC01E15DFA4F1682FC
:1015F000FC01E25CFA4F80818F7E80832F5F3F4F3A
:101600002730310509F062CFDF91CF911F910F9103
:10161000FF900895EC01C25CDA4FB881B1FD49CF6B
:10162000568347CFEC01C25CDA4FB881B0FD3ACFA8
:10163000B881BD7FB883568335CFEC01C25CDA4FE9
:10164000B881B0FD28CF668326CFC781D08521968B
:10165000D087C783EC01C25CDA4FB881B0FD0FC000
:10166000078110850333110550F410861782B88165
:10167000B260B883B881BB7FB883B3E0B683FC01A6
:10168000E15DFA4FC781D085CB34D10508F4FCCE9B
:1016900010861782EC01C25CDA4FB881B260B88361
:1016A000B881B460B8834683EFCEC781D0852196D8
:1016B000D087C783EC01C25CDA4FB881B0FD0FC0A0
:1016C000078110850333110550F410861782B88105
:1016D000B260B883B881BB7FB883B3E0B683FC0146
:1016E000E15DFA4FC781D085E39708F4C6CE108636
:1016F0001782EC01C25CDA4FB881B260B883B8815E
:10170000B460B883EC01C85CDA4FB881B1FD1CC08D
:10171000B1E0B683B2CEDC01A85CBA4FFC91F0FF19
:1017200016C0F881F260F883FC91F1FF3BC0B8E08D
:10173000FC01E15DFA4FB68312C0FC01E25CFA4F96
:10174000E081E3FDDBCEE2CEBAE0B68396CEEC914B
:10175000E2FF1CC0B6E0FC01E15DFA4FB683FC017C
:10176000E25CFA4FB081B061B083EC01C15DDA4F49
:10177000BE85BB2309F4CACECE85D0E0C85DDA4F62
:10178000B1E0B883B081B860B083C0CEEC91E3FD26
:101790000EC0EC91E4FF11C0B4E0FC01E15DFA4F32
:1017A000B683DDCFEC01C15DDA4FEE83D8CFB7E071
:1017B000FC01E15DFA4FB683D2CFEC91E5FFCFCFCC
:1017C000B5E0FC01E15DFA4FB683E881E062E883B1
:1017D000C6CF0E9492090C94060A80913E0580FDB6
:1017E00019C080914E0580FD15C080915E0580FD79
:1017F00011C080916E0580FD0DC080917E0580FD39
:1018000009C080918E0580FD05C080919E05809560
:101810008170089580E00895EEE3F5E080818D7F8A
:101820008083EEE4F5E080818D7F8083EEE5F5E056
:1018300080818D7F8083EEE6F5E080818D7F8083DF
:10184000EEE7F5E080818D7F8083EEE8F5E0808132
:101850008D7F8083EEE9F5E080818D7F8083089520
:1018600080913E0584FD1BC080914E0584FD17C00C
:1018700080915E0584FD13C080916E0584FD0FC0CC
:1018800080917E0584FD0BC080918E0584FD07C08C
:1018900090919E059295917081E0891B089580E05A
:1018A00008959093AF058093AE050895CF93DF938D
:1018B000CDB7DEB72A970FB6F894DEBF0FBECDBF07
:1018C0009091CA058091C80580FD2CC019160CF4B2
:1018D00061C08091CC0518160CF45CC08091CE05D7
:1018E00018160CF457C02091C505822F022E000C4B
:1018F000990BA22FAA0FBB0BA753BA4F3C913111E2
:1019000034C0880F991FFC01EB53FA4F85811816DC
:101910000CF45AC02F5F2093C50523304CF1109270
:10192000C50526C021E091112FC08091CC05811101
:10193000DACF8091CE058111D6CF2130A1F60E9459
:1019400054078091C8058E7F8093C80588E0E3EB3B
:10195000F5E0ABE2B6E001900D928A95E1F7F894DC
:1019600088E181BD88E081BDFFCF313009F459C0E5
:101970008091C80581702A960FB6F894DEBF0FBE1D
:10198000CDBFDF91CF91089520E08091CC058111EA
:10199000AACFCFCF8091C80581608093C80586E922
:1019A00090E00E944B070E94670760E08DE396E09D
:1019B0000E94D50388E0EBE2F6E0A3EBB5E00190EE
:1019C0000D928A95E1F78FCF0E94C91344E050E051
:1019D0006BEA74E0CE0101960E94C22344E060E00D
:1019E000CE0101960E9485138091C5058823A9F137
:1019F0008130E1F1823009F442C044E064E0CE017C
:101A000001960E948513E091C505EE0FFF0BE75389
:101A1000FA4F80818F5F80831092C7051092C605B0
:101A2000A7CF880F991FFC01EB53FA4F85818111D5
:101A300002C01C929DCF8091AC0680FF99CF80910F
:101A4000C6059091C7050196883E33E0930700F5DF
:101A50009093C7058093C6058BCF44E050E067EABA
:101A600074E0CE0101960E94C223C7CF44E050E04B
:101A700063EA74E0CE0101960E94C223BECF44E027
:101A800050E06FE974E0CE0101960E94C223B5CF09
:101A90001092C7051092C6051C923CCF9093D005BA
:101AA0008093CF050895E091CF05F091D005118284
:101AB00010828170826094819C7F892B8483089539
:101AC000E091CF05F091D0058081918101969183BD
:101AD0008083228133818217930750F01182108214
:101AE0009481892F8095817082609C7F892B84836B
:101AF000089597B1907E8F71982B97B9089527B16B
:101B00002F7330E4839FC0011124822B87B908957D
:101B100096B1987F892B86B90895379A089537989A
:101B20000895811102C03D9808953D9A089585B1A8
:101B3000089584B1089597B19F7320E4629FB00126
:101B40001124692B67B996B1987F492B46B98F3F0D
:101B500059F0359A20B72F7030E28302C00111246A
:101B6000822B80BF379A08953598379A089597B198
:101B7000907E8F71982B97B9369A089597B1907E81
:101B80008F71982B97B9369A349BFECF349A08956B
:101B9000359919C097B1907E8F71892B87B9369A84
:101BA000349BFECF349A24B13D9B14C085B190E0A4
:101BB000880F991F880F991F2295269526952370C7
:101BC000820F911D0895349A349BFECF349A24B12C
:101BD0003D99ECCF85B190E0982F8827820F911D19
:101BE0000895AF92BF92CF92DF92EF92FF920F9340
:101BF0001F93CF93DF9300D000D000D0CDB7DEB7D6
:101C00005B018C0120E030E048EC52E46983BA8249
:101C10008B831C8369817A818B819C810E946B21DB
:101C20002FEA30ED4FEA5EE369837A838B839C83EE
:101C300069817A818B819C810E94DD2169837A830D
:101C40008B839C8369817A818B819C810E944F2246
:101C50006D837E838D819E818F3F91050CF497C0AB
:101C6000AEEFB0E0BE83AD83ED81FE81EE0FFF1FCE
:101C7000EE0FFF1FE956FF4FC080D180E280F38056
:101C80008D819E81092E000CAA0BBB0B89839A8340
:101C9000AB83BC83BC01CD010E9487222FEA30EDCB
:101CA0004FEA5EE369837A838B839C8369817A81BF
:101CB0008B819C810E943C2320E030E048EC52E480
:101CC00069837A838B839C8369817A818B819C81F0
:101CD0000E946C219B01AC01A982BA820B831C83F8
:101CE00069817A818B819C810E946B215B018C01CF
:101CF000AD81BE81AA0FBB1FAA0FBB1FA556BF4F48
:101D0000A70196016D917D918D919C910E946B210F
:101D10009B01AC01A982BA820B831C8369817A8101
:101D20008B819C810E943C232FEA30ED4FEA5EE3D9
:101D300069837A838B839C8369817A818B819C817F
:101D40000E94DD21A701960169837A838B839C839E
:101D500069817A818B819C810E946C2169837A835D
:101D60008B839C8369817A818B819C810F900F90FA
:101D70000F900F900F900F90DF91CF911F910F91C7
:101D8000FF90EF90DF90CF90BF90AF90089597FFB6
:101D90006BCF1E821D8268CF0F931F93CF93DF936B
:101DA0008C01EB0144E060E0CE010E9476130F3F0E
:101DB000100709F1083E83E0180774F08BE188836F
:101DC0008BE0898389E38A83CE010296DF91CF91EC
:101DD0001F910F910C943B1343E0BE01C8010E9478
:101DE000D11380EF8B83CE010296DF91CF911F91AB
:101DF0000F910C943B1387E1888389E18983CE019D
:101E00000296DF91CF911F910F910C943B1380911B
:101E1000D2059091D305892B31F48091AC0683FFD4
:101E200031C080E008958091AE0681FFFACF8091A5
:101E3000AE068D7F8093AE068091AC06877F80933F
:101E4000AC061092D3051092D20544B185B1209111
:101E50006E0630916F06F901EE0FFF1FEB51FA4F3E
:101E600090E0982F8827840F911D918380832F5FA6
:101E70003F4F2E313105D0F430936F0620936E061C
:101E800080E0089588608093AC0681E00E947F0D19
:101E900082E00E94B70D8091D2059091D305019602
:101EA0009093D3058093D20580E0089510926F0639
:101EB00010926E0681E008954F925F926F927F922A
:101EC000AF92BF92CF92DF92EF92FF920F931F9348
:101ED000CF93DF93CDB7DEB728970FB6F894DEBF68
:101EE0000FBECDBF8C019E012F5F3F4F4EE150E0F2
:101EF00065EE75E084ED95E00E947E01811115C0CC
:101F000028960FB6F894DEBF0FBECDBFDF91CF91FC
:101F10001F910F91FF90EF90DF90CF90BF90AF9007
:101F20007F906F905F904F90089589819A81AB81E7
:101F3000BC818D839E83AF83B88720E030E0A90108
:101F4000BC01CD010E94372318160CF0E4C026EF27
:101F500038E948EC5DE36D817E818F8198850E9430
:101F60003C2320E030E048EC52E46D837E838F8395
:101F700098876D817E818F8198850E946C2123E7EF
:101F800038E641E85FE36D837E838F8398876D81B8
:101F90007E818F8198850E943C235B016C0120E04B
:101FA00030E048EC52E46D83BE828F83D8866D8129
:101FB0007E818F8198850E946B212FEA30ED4FEA58
:101FC0005EE36D837E838F8398876D817E818F81B1
:101FD00098850E94DD216D837E838F8398876D8134
:101FE0007E818F8198850E944F227B019FEFE916A9
:101FF000F1040CF089C0F7FC8BC0F701EE0FFF1F56
:10200000EE0FFF1FE956FF4F4080518062807380C2
:10201000C7010F2C000CAA0BBB0B8D839E83AF83D3
:10202000B887BC01CD010E9487222FEA30ED4FEA2C
:102030005EE36D837E838F8398876D817E818F8140
:1020400098850E943C2320E030E048EC52E46D8308
:102050007E838F8398876D817E818F8198850E9492
:102060006C219B01AC01AD82BE82CF82D8866D818E
:102070007E818F8198850E946B215B016C01F70145
:10208000EE0FFF1FEE0FFF1FE556FF4FA30192015A
:1020900060817181828193810E946B219B01AC01DF
:1020A000AD82BE82CF82D8866D817E818F819885F8
:1020B0000E943C232FEA30ED4FEA5EE36D837E837E
:1020C0008F8398876D817E818F8198850E94DD2125
:1020D000A30192016D837E838F8398876D817E81BA
:1020E0008F8198850E946C216D837E838F83988772
:1020F0006D817E818F8198850E944F22CB01D8010E
:102100008D939C9381E0FCCE2EEFE22EF12C75CFC7
:10211000E12CF12C72CF80E090E0F1CF8F929F9272
:10212000AF92BF92CF92DF92EF92FF920F931F93E5
:10213000CF93DF93CDB7DEB728970FB6F894DEBF05
:102140000FBECDBF8091D10581111FC08091D205F6
:102150009091D305892B09F052C18091AC0683FF81
:102160007FC180E028960FB6F894DEBF0FBECDBFCA
:10217000DF91CF911F910F91FF90EF90DF90CF9063
:10218000BF90AF909F908F9008959E012F5F3F4F1B
:102190004EE150E065EE75E084ED95E00E947E0131
:1021A0008823F9F229813A814B815C812D833E831A
:1021B0004F83588720E030E0A9016D817E818F81B7
:1021C00098850E94372318160CF069C126EF38E96C
:1021D00048EC5DE36D817E818F8198850E943C2370
:1021E00020E030E048EC52E46D837E838F83988753
:1021F0006D817E818F8198850E946C2123E738E66E
:1022000041E85FE36D837E838F8398876D817E8154
:102210008F8198850E943C236B017C0120E030E097
:1022200048EC52E46D83DE828F83F8866D817E8177
:102230008F8198850E946B212FEA30ED4FEA5EE393
:102240006D837E838F8398876D817E818F81988552
:102250000E94DD216D837E838F8398876D817E81CF
:102260008F8198850E944F228B016F3F71050CF47E
:1022700011C10EEF10E0F801EE0FFF1FEE0FFF1F70
:10228000E956FF4F80809180A280B380C801012E63
:10229000000CAA0BBB0B8D839E83AF83B887BC0158
:1022A000CD010E9487222FEA30ED4FEA5EE36D8375
:1022B0007E838F8398876D817E818F8198850E9430
:1022C0003C2320E030E048EC52E46D837E838F8332
:1022D00098876D817E818F8198850E946C219B01FA
:1022E000AC01CD82DE82EF82F8866D817E818F81A6
:1022F00098850E946B216B017C01F801EE0FFF1F96
:10230000EE0FFF1FE556FF4FA5019401608171811B
:10231000828193810E946B219B01AC01CD82DE8280
:10232000EF82F8866D817E818F8198850E943C23A3
:102330002FEA30ED4FEA5EE36D837E838F839887CB
:102340006D817E818F8198850E94DD21A501940198
:102350006D837E838F8398876D817E818F81988541
:102360000E946C216D837E838F8398876D817E812F
:102370008F8198850E944F22CB01909322068093F3
:1023800021062091F20620FD36C09C01990F440BD6
:10239000550B2D833E834F835887CA01B9010E9494
:1023A000872226E636E646EE5FE36D837E838F83E3
:1023B00098876D817E818F8198850E943C2320E0E3
:1023C00030E040E052E46D837E838F8398876D8197
:1023D0007E818F8198850E946C216D837E838F839F
:1023E00098876D817E818F8198850E944F2270939E
:1023F0002206609321061092D10581E0B3CE809130
:10240000AE0686958170813009F0ABCE9091AE0614
:102410009D7F9093AE069091AC06977F9093AC060B
:102420001092D3051092D20594B125B140916E0659
:1024300050916F06FA01EE0FFF1FEB51FA4F30E09B
:10244000322F2227290F311D318320834F5F5F4FA9
:102450004E315105C0F450936F0640936E0681CE05
:1024600088608093AC0681E00E947F0D82E00E942C
:10247000B70D8091D2059091D30501969093D30525
:102480008093D2056ECE10926F0610926E068093E6
:10249000D10567CE77FFEFCE00E010E0ECCE80E014
:1024A00090E06BCF87B3806B87BB87E18DB90895D0
:1024B0008FB9779BFECF8FB10895CF93DF9300D074
:1024C00000D0CDB7DEB7979825E02A95F1F7000048
:1024D00080E00E945812898380E00E9458123AE1FD
:1024E0003A95F1F700C0979A82FD3EC04981942F3A
:1024F0009695879596958795969587959C0140E04A
:1025000050E029833A834B835C83CA01B9010E945E
:10251000852220E030EF4FE754E469837A838B8390
:102520009C8369817A818B819C810E943C2320E07D
:1025300030EF4FE755E469837A838B839C8369810D
:102540007A818B819C810E94DD2169837A838B83D0
:102550009C8369817A818B819C810F900F900F9071
:102560000F90DF91CF91089560E070E080E89FEBDD
:10257000ECCFCF93DF93979885E08A95F1F7000031
:10258000C6B3C5FBCC27C0F9C1956E9A8C2F0E94AB
:102590005812D82F8C2F0E9458129AE19A95F1F771
:1025A00000C06E98979A282F30E082FD0BC0C901B9
:1025B0009D2B969587959695879596958795DF910E
:1025C000CF9108958FEF9FEFFACF80932A067093F3
:1025D00029066093280650932706409326063093D9
:1025E000250620932406089580912306815087FFB5
:1025F00003C080912A06815024E08202C001112488
:10260000E0912406F0912506E80FF91F0190F08172
:10261000E02D099580912306082E000C990BA091BE
:102620002806B0912906E0912606F0912706E80FCA
:10263000F91F20812C93880F991F880F991FE09113
:102640002406F0912506E80FF91F0280F381E02DA2
:102650000995809123068F5F80932306082E000C36
:10266000990B20912A0630E08217930709F008950C
:10267000109223060895FC014081242F30E0C90107
:1026800095958795959587958470220F331F220F16
:10269000331F2071822B4B7E842B80830895EBE2C5
:1026A000F6E04281242F30E0C901959587959595F4
:1026B00087958470220F331F220F331F2071822BC6
:1026C0004B7E842B82834681242F30E0C90195956F
:1026D0008795959587958470220F331F220F331F9E
:1026E0002071822B4B7E842B868308959C011416C7
:1026F0005CF4460F862F6F5FF901E80FF11D87FD2F
:10270000FA9510826413F6CF089514166CF4DC0168
:10271000460FE62F6F5F8D910E2E000CFF0BE55DCF
:10272000F94F80836413F5CF0895FC01862F062EA0
:10273000000C990B161664F520912B06208381302E
:10274000910531F120912C0621838230910501F110
:1027500020912D06228383309105D1F020912E0601
:10276000238384309105A1F020912F0624838530A6
:10277000910571F02091300625838630910541F056
:10278000209131062683079719F0809132068783BE
:102790000895EBE2F6E088E0DF011D928A95E9F703
:1027A0000895CF92DF92EF92FF920F931F93CF93F2
:1027B000DF93CDB7DEB72A970FB6F894DEBF0FBE12
:1027C000CDBF7C018B01C42E042E000CDD08141635
:1027D00034F4A60160E070E0C8010E94BB23BE0192
:1027E0006F5F7F4FC7010E9449009C01C81AD90A38
:1027F000181619060CF091C0C6010196E981F0E0A7
:10280000ED53FB4F6081F801EC0DFD1D608321301D
:10281000310509F482C0B6016E5F7F4F800F911FB2
:10282000EA81F0E0ED53FB4FE081DC01EC932230D4
:10283000310509F472C0C6010396600F711FEB8168
:10284000F0E0ED53FB4FE081DB01EC9323303105E9
:1028500009F463C0B6016C5F7F4F800F911FEC815C
:10286000F0E0ED53FB4FE081DC01EC9324303105C7
:1028700009F453C0C6010596600F711FED81F0E0A9
:10288000ED53FB4FE081DB01EC932530310509F47A
:1028900044C0B6016A5F7F4F800F911FEE81F0E068
:1028A000ED53FB4FE081DC01EC9326303105A9F1BB
:1028B000C6010796600F711FEF81F0E0ED53FB4FEB
:1028C000E081DB01EC932730310539F1B601685F17
:1028D0007F4F800F911FE885F0E0ED53FB4FE081C3
:1028E000DC01EC9328303105C1F0A601475F5F4F52
:1028F000600F711FE985F0E0ED53FB4F8081FB0114
:1029000080832930310549F0F801E40FF51FAA85CD
:10291000B0E0AD53BB4F8C9180832A960FB6F894EC
:10292000DEBF0FBECDBFDF91CF911F910F91FF9002
:10293000EF90DF90CF900895DF92EF92FF920F9388
:102940001F93CF93DF93CDB7DEB72A970FB6F894D6
:10295000DEBF0FBECDBFD82E092F7B01142F14165A
:1029600034F450E06BEE70E0C7010E94BB23BE015F
:102970006F5F7F4F8D2D902F0E9449009C01412F4A
:10298000110F550B481B590B181619060CF090C067
:10299000CA010196E981F0E0ED53FB4F6081F70138
:1029A000E40FF51F60832130310509F481C0BA01BD
:1029B0006E5F7F4F8E0D9F1DEA81F0E0ED53FB4F60
:1029C000E081DC01EC932230310509F471C0CA01C9
:1029D00003966E0D7F1DEB81F0E0ED53FB4FE08120
:1029E000DB01EC932330310509F462C0BA016C5F5E
:1029F0007F4F8E0D9F1DEC81F0E0ED53FB4FE0818A
:102A0000DC01EC932430310509F452C0CA0105966B
:102A10006E0D7F1DED81F0E0ED53FB4FE081DB019A
:102A2000EC932530310509F443C0BA016A5F7F4F4A
:102A30008E0D9F1DEE81F0E0ED53FB4FE081DC0138
:102A4000EC9326303105A1F1CA0107966E0D7F1D6A
:102A5000EF81F0E0ED53FB4FE081DB01EC93273099
:102A6000310531F1BA01685F7F4F8E0D9F1DE885FA
:102A7000F0E0ED53FB4FE081DC01EC9328303105B1
:102A8000B9F0475F5F4F6E0D7F1DE985F0E0ED53B4
:102A9000FB4F8081FB0180832930310549F0F7012C
:102AA000E40FF51FAA85B0E0AD53BB4F8C91808336
:102AB0002A960FB6F894DEBF0FBECDBFDF91CF913F
:102AC0001F910F91FF90EF90DF900895FC0180819E
:102AD000846080830895FC0180818B7F80830895CA
:102AE00095980895959A089592980895929A0895C0
:102AF00093980895939A089594980895949A0895B0
:102B0000DF980895DF9A0895DE980895DE9A089573
:102B1000DD980895DD9A0895DC980895DC9A08956B
:102B2000CF93DF9320E630E04BE256E065E370E0C0
:102B300088E00E94E512C0E6D0E0E881F9810995BD
:102B4000249680E0C038D807C1F78D9A8A9A8B9A6C
:102B50008C9AD79AD69AD59AD49A84B38FEF84BB9D
:102B6000DF91CF910895EDE3F6E024E630E030A761
:102B700027A38AE090E0918B808B35872487178686
:102B8000168625E030E032A721A722E330E034A703
:102B900023A74DEC5CEC6CEC7EE3428B538B648B97
:102BA000758B4DEC5CEC6CEC7DE3468B578B608F4A
:102BB000718F128E138E148E158E13861286918746
:102BC000808788E390E096A785A782E087A708958D
:102BD0008091EC069091ED0620912106309122061D
:102BE000821B930B21E030E08630910514F02AE03F
:102BF00030E0309346062093450608950F931F93C7
:102C0000CF93DF9300D000D000D0CDB7DEB78C01DA
:102C100086E0E0E8F0E0DE01119601900D928A95E1
:102C2000E1F72981216029833A814B815C816D81A3
:102C30007E81F80181810E943B0829813A814B8184
:102C40005C816D817E81F80180810E943B08298131
:102C50002E7D206229833A814B815C816D817E814A
:102C6000F80184810E943B0829812C7D23602983FF
:102C70008AE0382F8A831B8282E0582F8C831D8242
:102C80001E8240E060E070E0F80182810E943B0813
:102C900029813A814B815C816D817E81F80183813C
:102CA0000F900F900F900F900F900F90DF91CF919A
:102CB0001F910F910C943B0885E796E00E94FE154A
:102CC0008FE896E00C94FE1589E3EBEDF4E0A1E7C4
:102CD000B6E001900D928A95E1F7E1E7F6E081E038
:102CE000868382E0878393E0908786E0868F84E006
:102CF00080A325E021A392A3828F089580913306BB
:102D000090913406892BC1F48091AC0680FF1EC0DF
:102D100080913706909138060196823391050CF424
:102D20005AC0109238061092370681E090E09093D6
:102D300034068093330608958091350690913606C7
:102D4000892B29F48091AC0683FF4AC008958091B5
:102D5000AE0681FFFBCF8091AE068D7F8093AE06DD
:102D60008091AC06877F8093AC0610923406109257
:102D70003306109236061092350624B185B190E0E4
:102D8000982F8827820F911DCB9748F480913B069E
:102D900090913C06019690933C0680933B0680916F
:102DA000390690913A0601968A30910564F11092A5
:102DB0003A061092390681E020913B0630913C069C
:102DC0002A3031050CF480E08093CC0510923C064B
:102DD00010923B0608959093380680933706089525
:102DE00088608093AC0683E00E947F0D80E00E94A3
:102DF000B70D809135069091360601969093360670
:102E000080933506089590933A0680933906089585
:102E1000CDB7DEB762970FB6F894DEBF0FBECDBF59
:102E20000E94901546E050E064E070E08CEE96E081
:102E30000E94DA230E946416919A909AC39A969AF5
:102E4000D99AC09ADB9A8FE99FE00197F1F700C009
:102E500000000E945E080E945703C298BA9A47E099
:102E600061E08FEF0E949B0D82E00E94790D369AFF
:102E7000349BFECF349A339A8091AC06877F80933F
:102E8000AC06C19AB998BD9A65E088E390E00E94CB
:102E900045078BE490E00E944B0712BE8BE083BF96
:102EA00089EF8CBF89B7826089BF78940E94B3157F
:102EB0000E94C91344E050E06BE974E0CE01019632
:102EC0000E94C22344E060E0CE0101960E94851377
:102ED00044E050E067E974E0CE0101960E94C2230D
:102EE00044E064E0CE0101960E94851300E010E00A
:102EF000C12CD12CE12CF12CA0901505B090160519
:102F0000909014052CC08091AB0686FF21C00E94D2
:102F10008E10882339F08091AB0682608093AB06D7
:102F20001092CA0586B3869581708093CE058091F4
:102F3000AC0680FF08C08FEFE81AF80A94E1E916A2
:102F4000F10409F47CC08091AB068570853079F17D
:102F50000E948E078091AC068E7F8093AC06809194
:102F6000AE0680FF0AC08091AE068E7F8093AE06CB
:102F70008091AC0681608093AC068091AC0680FFA6
:102F8000C2CF0E94F4128091AB0686FDC0CF909113
:102F9000AC0690FFDDCF0F5F1F4F083B9BE019078A
:102FA000BCF280648093AB0600E010E0D1CF0E94B9
:102FB000560C8111CDCF9091AA06992309F481C0B6
:102FC0008091A606913009F4A8C0923009F4E2C0BD
:102FD000823008F490C0823009F497C0833009F43D
:102FE000A0C08091A50682FD69C06091EC06709139
:102FF000ED068091210690912206681B790B91E0E5
:1030000080E06630710514F09AE080E09093450608
:10301000809346068DE396E00E942D068091AC06D3
:1030200080FF96CF8FEFC81AD80A94E1C916D10451
:1030300009F08ECF0E94E90BC12CD12C89CF0E94C0
:10304000750380911B0583FD03C0E12CF12C7BCF20
:10305000877F80931B058091AB0684608093AB06CD
:103060008BE490E00E944B070E9450070E94C91316
:1030700080911B0581FDBDC06091EC067091ED064D
:103080008091210690912206681B790B81E090E0E7
:10309000663071050CF061C090934606809345063A
:1030A0008DE396E00E9402048DE396E00E94E9031E
:1030B0008091AB0681608093AB06C7CF0E94231F2F
:1030C00094CF85E796E00E94FE158FE896E00E9477
:1030D000FE1544E060E08FEA94E00E948513809141
:1030E000A50681608093A5061092A6068091AA0687
:1030F0008F5F8093AA0683E00E944C09811130C043
:103100008091A606823009F069CF0E945B1F813052
:1031100009F49AC08091A60661CF92E09093AA0626
:1031200057CF0E94AF20813009F05BCF9091A50668
:1031300090FFB8C01092A60685E796E00E94FE15A3
:103140008FE896E00E94FE150E94C91344E060E0FB
:103150008FEA94E00E94851344CF8AE090E09CCFF0
:1031600083E00E94600983E00E944109813009F4F4
:10317000AEC083E08093A6069092A90688EE93E005
:103180000E944B070E94500768E0CE010B960E94F8
:103190009513B6CF81111CCF809121069091220604
:1031A00097FDA9CF88EE93E00E944B070E9450073D
:1031B0008091A5068E7F8093A50681E08093A60668
:1031C00085E796E00E94FE1510927A068FE896E059
:1031D0000E94FE15109294068091A506846080934B
:1031E000A5068091AA068F5F8093AA068091A60605
:1031F000EFCE8091AB068E7F8093AB0644E064E017
:103200008FEB94E00E94851360E08DE396E00E94CE
:10321000D5030E946416B092AB06A092AA068AE07B
:10322000EBEBF5E0A5ECB5E001900D928A95E1F7A6
:103230000E9454078AE0EDECF4E0A3E3B6E00190CD
:103240000D928A95E1F701CF9091A50690FF15C0E8
:103250001092A60685E796E00E94FE158FE896E09C
:103260000E94FE150E94C91344E060E08FEA94E0DA
:103270000E9485138091A606B1CE8093A60685E7AD
:1032800096E00E94FE1510927A068FE896E00E9462
:10329000FE151092940648E060E0CE010B960E9465
:1032A000851338CF8093A60685E796E00E94FE1529
:1032B00010927A068FE896E00E94FE15109294060E
:1032C00048E060E0CE010B960E9485138ACE82E032
:1032D0008093A6069092A70688EE93E00E944B0783
:1032E0000E94500742E050E060E070E089EB96E019
:1032F0000E94EA2342E050E062E070E083ED96E055
:103300000E94EA2341CF8F938FB78F938091AE06AF
:1033100081608093AE068F918FBF8F9118958F93A8
:103320008FB78F938091AE0682608093AE068F91A7
:103330008FBF8F911895EF92FF920F931F93CF93AA
:10334000DF9300D0CDB7DEB77C018B01FC0180811B
:1033500042E0BE016F5F7F4F082E000C990B0E9468
:10336000D1138A819981F80190838183F70181814A
:1033700042E0BE016F5F7F4F082E000C990B0E9448
:103380009C147801F2E0EF0EF11C8A819981F8011A
:1033900092838383C80101960E946615C7010E942B
:1033A0006615C7010E943B130F900F90DF91CF91DC
:1033B0001F910F91FF90EF9008951F93CF93DF938C
:1033C000CDB7DEB72A970FB6F894DEBF0FBECDBFDC
:1033D000DC01FB0149875A874C913CE34303A00180
:1033E000112411962C91420F511D27FD5A952081D1
:1033F0002303C00111242181820F911D27FD9A957D
:10340000A985BA852C9123039001112411966C9102
:10341000260F311D67FD3A95821B930B481B590BF4
:1034200010E060E0141615067CF5CA01550FAA0BD2
:10343000BB0B8D839E83AF83B887BC01CD010E94F7
:10344000872220E030E040E752E469837A838B836F
:103450009C8369817A818B819C810E94DD216983B3
:103460007A838B839C8369817A818B819C810E9482
:103470004F22162F6D817E818F8198852CE330E05D
:1034800040E050E00E942A21A985BA851C9311963C
:103490006C932A960FB6F894DEBF0FBECDBFDF91B6
:1034A000CF911F9108957F928F929F92AF92BF927A
:1034B000CF92DF92EF92FF920F931F93CF93DF9300
:1034C000CDB7DEB766970FB6F894DEBF0FBECDBF9F
:1034D00001E716E080E0A82E80E0B82E9FEAC92E12
:1034E00096E0D92EE12CF12C20E9822E9924939498
:1034F0003AE1732ED80156969C928E92559742E0EF
:1035000050E0B501C8010A960E94DA23F8018285CD
:103510009385D6011B969C938E931A9715861486D5
:103520007E9CF0017F9CF00D1124DF01A158B94F62
:103530008C9182608C93D80113961C921397ED584E
:10354000F94F8081816080838091A606813049F1A6
:10355000C80104960E94FE15F8011186EA94EF282E
:1035600061F0065E1F4F82E0A80EB11CAAE1CA0EF0
:10357000D11CEE24E394F12CBDCF66960FB6F894DF
:10358000DEBF0FBECDBFDF91CF911F910F91FF9096
:10359000EF90DF90CF90BF90AF909F908F907F90F3
:1035A00008951A968C9142E0BE016B5E7F4F082E03
:1035B000000C990B0E94D1138E899D8999838A836F
:1035C000F801838542E0BE016B5E7F4F082E000C40
:1035D000990B0E949C148E899D899B838C83CE01BC
:1035E00002960E946615CE0103960E946615CE01D2
:1035F00003960E943B1344E0D8016C91CE010196E2
:103600000E948513A5CF5F926F927F928F929F92B7
:10361000AF92BF92CF92DF92EF92FF920F931F93E0
:10362000CF93DF93CDB7DEB76E970FB6F894DEBFBA
:103630000FBECDBF01E716E089EBC82E86E0D82E7D
:1036400090E0A92E90E0B92EE12CF12C2AE1522E27
:10365000C80143960E944E0DD80116968C910E9487
:103660004C09882361F05E9CF0015F9CF00D1124F1
:10367000E158F94F808182FD02C080FF98C1F801B6
:1036800087810E944C09882361F05E9CF0015F9C59
:10369000F00D1124E158F94F808182FD02C080FFB6
:1036A00061C1D80116968C910E946009F80187814A
:1036B0000E946009D80119968C911997882309F402
:1036C00071C0813009F424C15E9CC0015F9C900DE3
:1036D0001124FC01EE57F94F208120FD2EC05E9C85
:1036E000F0015F9CF00D1124ED57F94F808181FDB1
:1036F000DAC0065E1F4FFAE1CF0ED11C22E0A20E07
:10370000B11CEF2821F4EE24E394F12CA1CF6E96A6
:103710000FB6F894DEBF0FBECDBFDF91CF911F91E2
:103720000F91FF90EF90DF90CF90BF90AF909F9060
:103730008F907F906F905F900895FC01E857F94F4C
:10374000808181FF07C08D7F80839091A606913094
:1037500009F457C18091AC0680FFC1CFD8011F96F4
:103760008D919C910196883BBBE09B070CF4F6C0C1
:10377000D80150961C921E921F978AE18E9D90014F
:103780008F9D300D1124F901ED57F94F8081826032
:1037900080832158394FD9019C9190FD29C08E7F9B
:1037A00080839DCF14968C910E944C09882309F444
:1037B0008BCFF80184810E94600988EE93E00E941B
:1037C0004B070E9450078AE18E9D40018F9D900C0F
:1037D0001124F401ED57F94F808180FD22C18160F1
:1037E0008083F401E158F94F8081816080836CCF40
:1037F000F60140812CE34203A00111243181430FE3
:10380000511D37FD5A95D5016C916203B001112409
:1038100011963C91630F711D37FD7A95F801328541
:103820003203C00111242385820F911D27FD9A9533
:10383000681B790B461B570B141615060CF08FC12D
:10384000CA01550FAA0BBB0B8B8F9C8FAD8FBE8F00
:10385000BC01CD010E94872220E030E040E752E425
:103860006F8B788F898F9A8F6F89788D898D9A8DDC
:103870000E94DD216F8B788F898F9A8F6F89788D69
:10388000898D9A8D0E944F22D8011A966C936B8D68
:103890007C8D8D8D9E8D2CE330E040E050E00E94C9
:1038A0002A21F80163878AE18E9D40018F9D900C4B
:1038B0001124F401ED57F94F80818D7F808342E020
:1038C00050E0B501C6010E94EA23D6018D919C917A
:1038D000F80193878287F401EE57F94F80818E7F3C
:1038E0008083D8011D961C921E921C97F401E1580A
:1038F000F94F80818260808313961C921397F401A4
:10390000ED58F94F80818160808319961C92F1CE29
:1039100014968C910E944C09882309F4D5CEF801A5
:1039200084810E94600988EE93E00E944B070E9408
:1039300050078AE18E9DF0018F9DF00D1124DF016B
:10394000AF58B94F52968C915297836052968C9390
:10395000E158F94F808181608083B6CEF801908B69
:103960008787BDCED80117968C910E94F9098823CC
:1039700009F4B4C08AE18E9DF0018F9DF00D1124F1
:10398000DF01AD58B94F8C918E7F8C93EE57F94F74
:1039900080818160808381E0F80181878383108A40
:1039A00017860E94530DC6010E945D017ACEF80170
:1039B00086810E94F909882309F497C08AE18E9DC7
:1039C000F0018F9DF00D1124DF01AD58B94F8C919E
:1039D0008E7F8C93EE57F94F80818160808381E0E8
:1039E000D80119968C93199713968C931397509628
:1039F0001C921E921F970E94530DC6010E94400107
:103A00003ECE80FD38C044E060E0CE0101960E94C9
:103A1000761344E0D8016C91CE0101960E94851383
:103A200099CE8E7F8083C4018158994F3C01DC017F
:103A30008C918E7F8C9342E050E0B501C8010A96CC
:103A40000E94DA23F80115861486D3018C918260D6
:103A50008C931382F401ED58F94F8081816080834B
:103A60008C918B7F8C938091A606813009F444C0A1
:103A70000E947B0729CEF601808142E0BE016B5E89
:103A80007F4F082E000C990B0E94D1138E899D89BF
:103A900099838A83D60111968C9142E0BE016B5EB8
:103AA0007F4F082E000C990B0E949C148E899D89D3
:103AB0009B838C83CE0102960E946615CE010396ED
:103AC0000E946615CE0103960E943B1344E0F80164
:103AD0006081CE0101960E9485133CCE8BE490E07C
:103AE0000E944B070E94500745CF8BE490E00E9454
:103AF0004B070E94500762CFF801828542E0BE0169
:103B00006B5E7F4F082E000C990B0E94D1138E899B
:103B10009D8999838A83D8011B968C9142E0BE01CE
:103B20006B5E7F4F082E000C990B0E949C148E89AF
:103B30009D899B838C83CE0102960E946615CE01DF
:103B400003960E946615CE0103960E943B1344E043
:103B5000F8016081CE0101960E94851389CF1286FB
:103B60001386A1CE9F92AF92BF92CF92DF92EF9237
:103B7000FF920F931F93CF93DF9301E716E0C0E00E
:103B8000D0E08AE1982EC80143960E944E0D9C9E7B
:103B900070019D9EF00C1124F701E158F94F6F015F
:103BA000808180FD15C0065E1F4FCD2B29F441E0BA
:103BB000C42F80E0D82FE7CFDF91CF911F910F91D5
:103BC000FF90EF90DF90CF90BF90AF909F900895BF
:103BD0008091AC0680FF0DC0F801848595859C011D
:103BE0002F5F3F4F873E934009F458C0F801358757
:103BF00024878AE18C9FF0018D9FF00D1124E158FC
:103C0000F94F808181FFCFCFF801838581113AC0C0
:103C1000F8018285811136C08AE18C9FF0018D9F69
:103C2000F00D1124E158F94F90819E7F90839C2FD5
:103C30009F5F90FBAA24A0F8B12C8A9DF0018B9D78
:103C4000F00D1124DF01A158B94F8C9182FF3CC0C7
:103C5000EC57F94F87E0D801539601900D928A9561
:103C6000E1F78AE18C9FF0018D9FF00D1124DF01B7
:103C7000AD58B94F8C918E7F8C93E158F94F80816C
:103C8000846080838AE18C9FF0018D9FF00D112468
:103C9000E158F94F80818D7F808385CFF8011586AB
:103CA0001486C8010A960E944001F6018081826054
:103CB0008083F80183818111A7CFF701ED58F94F77
:103CC000808181608083A0CF81E00E94530DC9CFA5
:103CD000CF92DF92EF92FF920F931F93CF93DF93D8
:103CE000CDB7DEB766970FB6F894DEBF0FBECDBF77
:103CF00001E716E0E12CF12CC80143960E944E0D1D
:103D0000F8018381811104C08091A6068130A1F061
:103D1000065E1F4FEF2809F03FC0EE24E394F12C1C
:103D2000C80143960E944E0DF80183818111F0CFA6
:103D30008091A606813061F72AE12E9DC0012F9D5A
:103D4000900D11249C012D58394F6901F901808192
:103D500080FD31C02AE12E9DC0012F9D900D1124C0
:103D6000FC01E158F94F208122FFD2CF8857994FAB
:103D7000FC01808180FD55C044E060E0CE010196E9
:103D80000E94761344E0F8016081CE0101960E9402
:103D900085130E946B07BCCF66960FB6F894DEBF02
:103DA0000FBECDBFDF91CF911F910F91FF90EF908C
:103DB000DF90CF900895F801828542E0BE016B5EEE
:103DC0007F4F082E000C990B0E94D1138E899D897C
:103DD00099838A83F801838542E0BE016B5E7F4F41
:103DE000082E000C990B0E949C148E899D899B8340
:103DF0008C83CE0102960E946615CE0103960E9426
:103E00006615CE0103960E943B1344E0F8016081E1
:103E1000CE0101960E948513F60180818E7F8083FA
:103E200099CF44E050E06BEB74E0CE0101960E9424
:103E3000C22344E0F8016081CE0101960E948513FF
:103E40000E947B0765CF8091A806882319F1809195
:103E5000A606813051F10E94B21D8091A6068130E4
:103E600009F008950E94681E8091A6068130C9F766
:103E700084E896E00E944E0D8091AC0680FD18C04B
:103E80008EE996E00E944E0D8091AC0680FFE9CF4E
:103E90000C94600D0E94531A8091A8068F5F809346
:103EA000A8068091A6068130B1F60E94031BD3CFED
:103EB0000E94600DE5CFEF92FF920F931F93CF9377
:103EC000DF93CDB7DEB72A970FB6F894DEBF0FBEEB
:103ED000CDBF83EE96E00E944E0D8091A706811122
:103EE00081C086E0E0E8F0E0DE01119601900D92DD
:103EF0008A95E1F72981216029833A814B815C8190
:103F00006D817E81809179060E943B0829813A81EA
:103F10004B815C816D817E81809193060E943B087C
:103F20008091A7068F5F8093A70680E991E0909328
:103F3000E6068093E5068091EA069091EB06892BD0
:103F400021F08091E70681FD18C083E00E944C09B2
:103F500010E081112CC08091AC0680FD40C0812F03
:103F60002A960FB6F894DEBF0FBECDBFDF91CF917A
:103F70001F910F91FF90EF9008958D7F8093E7063A
:103F800080FF52C08E010F5F1F4FB8018091EC0679
:103F90009091ED060E94CC0E44E064E0C8010E94BE
:103FA000851383E00E944C0910E08823A1F283E08E
:103FB0000E9460098091A7068F5F8093A7068330D7
:103FC000E1F1853009F4AFC010E080E590E00E9497
:103FD0004B070E9450078091AC0680FFC0CF0E9423
:103FE000600DBDCF813081F18230D1F1833009F491
:103FF00047C0843009F09FCF01E716E085EAE82E3C
:1040000086E0F82EF80186810E944C09811168C073
:10401000F80187810E944C0981113EC0065E1F4F46
:10402000E016F10679F787CF44E060E08E010F5F7C
:104030001F4FC8010E947613AFCF81E090E09093AC
:10404000EB068093EA06C0CF44E060E087EB94E0A3
:104050000E9485138091A7068F5F8093A7066BCF80
:10406000BE016F5F7F4F80912106909122060E94D2
:10407000CC0E44E064E0CE0101960E9485135BCF34
:1040800044E060E083EB94E00E9485138091A706F2
:104090008F5F8093A7064FCFF80187810E94600948
:1040A000F80187810E94F909882309F451C081E051
:1040B0000E94530D8091EC069091ED06019690932D
:1040C000ED068093EC062091F0063091F106821700
:1040D00093070CF4A3CF3093ED062093EC069ECF0C
:1040E000F80186810E946009F80186810E94F90921
:1040F000882339F181E00E94530D8091EC06909164
:10410000ED0601979093ED068093EC062091EE0664
:104110003091EF06281739070CF47ACF3093ED066B
:104120002093EC0675CF46E050E064E070E08CEE42
:1041300096E00E94EA231092EB061092EA0611E044
:1041400044CF8BE490E00E944B070E945007D2CFEF
:104150008BE490E00E944B070E945007A8CF1F936A
:10416000CF93DF93CDB7DEB72A970FB6F894DEBFB3
:104170000FBECDBF8091A906811135C086E0E0E871
:10418000F0E0DE01119601900D928A95E1F7298108
:10419000216029833A814B815C816D817E81809190
:1041A00079060E943B0829813A814B815C816D81AF
:1041B0007E81809193060E943B088091A9068F5FC3
:1041C0008093A90610E083E00E944C09811117C07A
:1041D000812F2A960FB6F894DEBF0FBECDBFDF91B8
:1041E000CF911F9108958130C9F0823019F111E00B
:1041F000833041F783E00E944C09882349F383E030
:104200000E9460098091A9068F5F8093A9068BE4C4
:1042100090E00E944B070E945007DACF44E060E034
:1042200087EB94E00E9485138091A9068F5F8093AD
:10423000A906C8CFBE016F5F7F4F80912106909184
:1042400022060E94CC0E44E064E0CE0101960E945A
:104250008513B8CF052E97FB1EF400940E944121D0
:1042600057FD07D00E94492107FC03D04EF40C945F
:10427000412150954095309521953F4F4F4F5F4FCD
:10428000089590958095709561957F4F8F4F9F4FC2
:104290000895A1E21A2EAA1BBB1BFD010DC0AA1F87
:1042A000BB1FEE1FFF1FA217B307E407F50720F09F
:1042B000A21BB30BE40BF50B661F771F881F991F1A
:1042C0001A9469F760957095809590959B01AC0163
:1042D000BD01CF0108955058BB27AA270E94832112
:1042E0000C94FD220E94EF2238F00E94F62220F06A
:1042F00039F49F3F19F426F40C94EC220EF4E09567
:10430000E7FB0C94E622E92F0E940E2358F3BA171C
:10431000620773078407950720F079F4A6F50C94DB
:1043200030230EF4E0950B2EBA2FA02D0B01B9010E
:1043300090010C01CA01A0011124FF27591B99F01B
:10434000593F50F4503E68F11A16F040A22F232F27
:10435000342F4427585FF3CF469537952795A79577
:10436000F0405395C9F77EF41F16BA0B620B730B1E
:10437000840BBAF09150A1F0FF0FBB1F661F771F8F
:10438000881FC2F70EC0BA0F621F731F841F48F444
:10439000879577956795B795F7959E3F08F0B0CFCD
:1043A0009395880F08F09927EE0F979587950895B4
:1043B0000E94C22208F481E008950E94F1210C9429
:1043C000FD220E94F62258F00E94EF2240F029F4CC
:1043D0005F3F29F00C94E62251110C9431230C9488
:1043E000EC220E940E2368F39923B1F3552391F335
:1043F000951B550BBB27AA2762177307840738F054
:104400009F5F5F4F220F331F441FAA1FA9F335D0B0
:104410000E2E3AF0E0E832D091505040E695001C64
:10442000CAF72BD0FE2F29D0660F771F881FBB1F1E
:10443000261737074807AB07B0E809F0BB0B802DFC
:10444000BF01FF2793585F4F3AF09E3F510578F028
:104450000C94E6220C9431235F3FE4F3983ED4F3AE
:10446000869577956795B795F7959F5FC9F7880FFC
:10447000911D9695879597F90895E1E0660F771F4E
:10448000881FBB1F621773078407BA0720F0621BDF
:10449000730B840BBA0BEE1F88F7E09508950E940A
:1044A00056226894B1110C94312308950E9416236A
:1044B00088F09F5798F0B92F9927B751B0F0E1F0E5
:1044C000660F771F881F991F1AF0BA95C9F714C095
:1044D000B13091F00E943023B1E008950C94302364
:1044E000672F782F8827B85F39F0B93FCCF38695CE
:1044F00077956795B395D9F73EF49095809570952B
:1045000061957F4F8F4F9F4F0895E89409C097FBA7
:104510003EF490958095709561957F4F8F4F9F4F9A
:104520009923A9F0F92F96E9BB279395F6958795DE
:1045300077956795B795F111F8CFFAF4BB0F11F4A1
:1045400060FF1BC06F5F7F4F8F4F9F4F16C0882348
:1045500011F096E911C0772321F09EE8872F762F7E
:1045600005C0662371F096E8862F70E060E02AF0BF
:104570009A95660F771F881FDAF7880F96958795AB
:1045800097F90895990F0008550FAA0BE0E8FEEF80
:1045900016161706E807F907C0F012161306E40707
:1045A000F50798F0621B730B840B950B39F40A2600
:1045B00061F0232B242B252B21F408950A2609F4DE
:1045C000A140A6958FEF811D811D089597F99F67E2
:1045D00080E870E060E008959FEF80EC089500248B
:1045E0000A941616170618060906089500240A9458
:1045F00012161306140605060895092E0394000CDE
:1046000011F4882352F0BB0F40F4BF2B11F460FF6C
:1046100004C06F5F7F4F8F4F9F4F089557FD905895
:10462000440F551F59F05F3F71F04795880F97FB76
:10463000991F61F09F3F79F0879508951216130630
:104640001406551FF2CF4695F1DF08C0161617065F
:104650001806991FF1CF8695710561050894089594
:10466000E894BB2766277727CB0197F908950E9426
:10467000C22208F48FEF08950E944F230C94FD226C
:104680000E94EF2238F00E94F62220F0952311F0CC
:104690000C94E6220C94EC2211240C9431230E94F9
:1046A0000E2370F3959FC1F3950F50E0551F629F45
:1046B000F001729FBB27F00DB11D639FAA27F00D7B
:1046C000B11DAA1F649F6627B00DA11D661F829FA2
:1046D0002227B00DA11D621F739FB00DA11D621F87
:1046E000839FA00D611D221F749F3327A00D611DA4
:1046F000231F849F600D211D822F762F6A2F112486
:104700009F5750409AF0F1F088234AF0EE0FFF1FB8
:10471000BB1F661F771F881F91505040A9F79E3F0F
:10472000510580F00C94E6220C9431235F3FE4F3B2
:10473000983ED4F3869577956795B795F795E79565
:104740009F5FC1F7FE2B880F911D9695879597F96E
:1047500008956817790768F4FB01DC01E40FF51F81
:10476000A40FB51F02C002900E9241505040D8F7DE
:1047700008950C94D123DC0101C06D934150504049
:10478000E0F70895FB01DC014150504048F00190F2
:104790000D920020C9F701C01D9241505040E0F732
:1047A0000895FB01DC0102C001900D924150504080
:1047B000D8F70895DC01CB01FC01E199FECF06C0DA
:1047C000FFBBEEBBE09A31960DB20D9241505040C6
:1047D000B8F70895DC01A40FB51F4150504048F0D0
:1047E000CB01840F951F2E910E94FB234150504016
:1047F000D0F70895262FE199FECF9FBB8EBBE09A9C
:1048000001970DB2021631F02DBB0FB6F894E29A63
:0A481000E19A0FBE0895F894FFCF5F
:10481A00701572157415761578157A157C157E152E
:10482A00801582158415861588158A158C158E159E
:10483A00000000000000000000000000000000006E
:10484A000000000000000073986EB777F3603F55D0
:10485A00FBE03F50C22840910A614060AB8C404661
:10486A00D3A8400DFDC440B728E1404356FD40D9C6
:10487A00C20C4181DB1A41F1F42841910F37410200
:10488A002B4541AE475341C36461417B836F419CD1
:10489A00A27D417CE1854113F28C41120394417B54
:1048AA00149B418126A2412439A941FB4BB0417096
:1048BA005FB7414D73BE41C887C541AC9CCC41F935
:1048CA00B1D341E3C7DA4135DEE141F1F4E84115FC
:1048DA000CF041D723F741363CFE4165AA0242FD5E
:1048EA00360642CAC30942E5500D4235DE1042D4AB
:1048FA006B14428CF9174294871B42EA151F4274C3
:10490A00A422423333264227C2294268512D42F952
:10491A00E03042A47034429D003842E5903B426246
:10492A00213F4213B24242F84246422CD44942AF96
:10493A00654D424CF7504252895442711B5842E02D
:10494A00AD5B4283405F4275D362429B666642100A
:10495A00FA69429F8D6D4296217142A8B57442232D
:10496A004A7842B8DE7B429C737F42678481420E5A
:10497A004F8342E8198542D0E48642DFAF88421667
:10498A007B8A4266468C42D1118E4264DD8F421088
:10499A00A99142D7749342D2409542DA0C974209C0
:1049AA00D9984253A59A42C4719C424F3E9E4202F4
:1049BA000BA042CFD7A142C3A4A342D171A54207FB
:1049CA003FA742570CA942C1D9AA4252A7AC420BEF
:1049DA0075AE42D142B042CB10B242E0DEB3420ED3
:1049EA00ADB542647BB742D549B9426C18BB421E89
:1049FA00E7BC42EAB5BE42EA84C042F853C2422D3D
:104A0A0023C44289F2C542FFC1C7426891C94248DC
:104A1A0061CB422731CD420601CF4268D1D042480C
:104A2A00A1D242AA71D4428F42D642F212D842D7B8
:104A3A00E3D942BCB4DB42A285DD428756DF42F0AD
:104A4A0027E14258F9E242C1CAE442AC9CE64298E4
:104A5A006EE8428340EA426F12EC425AE4ED42C9E0
:104A6A00B6EF423789F142A65BF342982EF54289A6
:104A7A0001F7427BD4F8426DA7FA42E17AFC42D3AD
:104A8A004DFE42A4100043A0FA00435AE4014356E3
:104A9A00CE024352B803434EA204438B8C0543C94A
:104AAA0076064306610743444B0843C3350943422C
:104ABA00200A43C10A0B433FF50B4300E00C43C1F4
:104ACA00CA0D4381B50E4383A00F43448B1043465E
:104ADA00761143486112438B4C1343CF3714431268
:104AEA00231543560E16439AF916431FE51743A496
:104AFA00D0184329BC1943F0A71A43B6931B437D28
:104B0A007F1C43446B1D434C571E4354431F435C55
:104B1A002F2043641B2143AE072243F8F32243426A
:104B2A00E02343CDCC244317B92543A2A526436FDE
:104B3A00922743FA7E2843C76B294393582A436036
:104B4A00452B436F322C437D1F2D438B0C2E439AEA
:104B5A00F92E43E9E62F4339D4304389C13143D989
:104B6A00AE32436A9C3343FC8934438D77354360C4
:104B7A006536433353374306413843D92E3943EE1A
:104B8A001C3A43020B3B4317F93B432BE73C438157
:104B9A00D53D43D7C33E432DB23F43C5A040435CF6
:104BAA008F4143F47D42438B6C4343645B4443FC33
:104BBA0049454317394643F02747430A17484325CF
:104BCA000649433FF549435AE44A43B6D34B431295
:104BDA00C34C43B0B24D430CA24E43AA914F434833
:104BEA008150432771514306615243E5505343C5EF
:104BFA00405443A4305543C5205643E51057434813
:104C0A0001584368F15843CBE159436FD25A43D113
:104C1A00C25B4375B35C4319A45D43BC945E43A273
:104C2A00855F43877660436D676143525862437973
:104C3A00496343A03A6443C72B65432F1D664398D3
:104C4A000E6743000068431582079BF3698279B7B0
:104C5A002900003DF182293937071979110500F138
:104C6A00116D007A792D00EB8229009B1B0779EBE5
:104C7A00716500EB82D9DAB27A3BC2FBF20000001E
:104C8A00000000000000000000000000000000001A
:104C9A00000000000000000000000000000000000A
:104CAA0000000000000000000000000000000000FA
:104CBA0000000000000000000000000000000000EA
:084CCA000000000000000000E2
:00000001FF
