:100000000C942A000C9447000C9447000C94470071
:100010000C9447000C9447000C9447000C94470044
:100020000C9447000C9447000C9473180C944700F0
:100030000C9447000C9447000C9447000C94470024
:100040000C9447000C9447000C9447000C94470014
:100050000C94470011241FBECFE5D8E0DEBFCDBF12
:1000600015E0A0E6B0E0E2EEF5E402C005900D92E6
:10007000AE30B107D9F726E0AEE0B5E001C01D9281
:10008000AA3CB207E1F70E94E1150C94EF220C9410
:1000900000008F929F92AF92BF92CF92DF92EF9229
:1000A000FF920F931F93CF93DF93AC014B0180E03E
:1000B00090E057FD77C0FB01DB0180E090E01DEC94
:1000C000A12E6DEC7CEC05E0B02E352F330F330BF9
:1000D000232F2370F22E8A01129502950F700127AB
:1000E0001F7001270F70242F2F70200F152F1F70E6
:1000F000210F152F12951F70210F2F0D2A9D112DE5
:100100001124012F069506951C7F100F211B3C7FA3
:10011000230F022E000C330B7A01E21AF30AE69E3B
:100120008001E79E100DF69E100D11247801C1E0AC
:10013000EC22C0E8FC2217FF0AC0D1E0ED1AF1085A
:10014000CEEFEC2AFF24FA94DFEFED1AFD0ABE9CF5
:100150006001BF9CD00C11242C0D3D1D17FF02C067
:100160000F5F1F4F01962D939A01A8015595479552
:100170002A3031050CF0A9CF9C0135952795211522
:10018000310581F0DC01A80DB91D820E931E21916D
:100190003E91AF0141505109EA0138832C93E81593
:1001A000F905A9F7DF91CF911F910F91FF90EF9083
:1001B000DF90CF90BF90AF909F908F9008958F92D7
:1001C0009F92AF92BF92DF92EF92FF920F931F9395
:1001D000CF93DF938C01EB01D42EFC010190002022
:1001E000E9F73197E81BF90B6E177F07A8F11C168A
:1001F0001D0694F5FC0180E090E004C00196C8174C
:10020000D90751F121912111F9CF009729F1C81790
:10021000D90711F1F801EC0FFD1F10825E01A81A39
:10022000B90AE12CF12CC80101974C011A141B04E6
:100230008CF4AE01B401C8010E948D229FEFE91A2F
:10024000F90AEA14FB04A9F76D2D70E0A701C801B3
:100250000E949F2281E001C080E0DF91CF911F9139
:100260000F91FF90EF90DF90BF90AF909F908F9095
:10027000089540E30C94DF0040E20C94DF00089501
:10028000FC018181811109C08081882381F09BE379
:1002900091838150808380E0089581508183811112
:1002A00008C081E09081992319F080E0089581E0F1
:1002B000089587FFFACF8081EACFFC018181908188
:1002C0008B3379F09C337CF49B3379F021E0280F59
:1002D00021838B53843418F411829F5F908380E0D4
:1002E00008959B33CCF381E008958C33E4F791E0DB
:1002F000980F918381E09B3391F7F6CF6F927F92B5
:100300008F929F92AF92BF92CF92DF92EF92FF9225
:100310000F931F93CF93DF93CDB7DEB765970FB6DB
:10032000F894DEBF0FBECDBF89879A87FB018A0193
:100330007901A985BA858C91811181C012961C9290
:100340001E92119781E08C93EE24E394F12C812C82
:10035000912C5401808191819C0140E050E02983DF
:100360003A834B835C83CA01B9010E946921A501CC
:10037000940169837A838B839C8369817A818B81E1
:100380009C810E9450205B016C01AB01BC01A985DE
:10039000BA8513964D935D936D937C931697E016F3
:1003A000F10608F4DEC0FD01128211829801110FDE
:1003B000440B550B29833A834B835C83CA01B901F3
:1003C0000E946B219B01AC01A982BA82CB82DC82A4
:1003D00069817A818B819C810E94C1206D877E8793
:1003E0008F87988BA985BA8513966D937D938D938E
:1003F0009C93169718961C921E9217971A961C9209
:100400001E921997FD01138614861586168682E0C2
:10041000808380E065960FB6F894DEBF0FBECDBF37
:10042000DF91CF911F910F91FF90EF90DF90CF90D0
:10043000BF90AF909F908F907F906F900895813084
:1004400009F41DC1823029F71196AD90BC90450189
:10045000880C991C860E971EF401808191819C0165
:1004600040E050E029833A834B835C83CA01B901A1
:100470000E9469213B016C01A985BA8513968D9173
:100480009D910D90BC91A02D8D839E83AF83B887E5
:100490009C01AD0169827A82CB82DC8269817A819A
:1004A0008B819C810E941B221816DCF5E985FA8558
:1004B00087819085019690878783D4018D919C9147
:1004C0009C0140E050E029833A834B835C83CA015E
:1004D000B9010E9469213B016C012D813E814F8150
:1004E000588569837A828B83DC8269817A818B81EA
:1004F0009C810E944F209B01AC01A985BA851B9667
:100500006D917D918D919C911E970E945020698BD9
:100510007A8B8B8B9C8BE985FA85638774878587BB
:1005200096879301A6016D817E818F8198850E94B7
:100530001B2218165CF4A985BA8519968D919C9199
:100540001A9701961A969C938E931997BFEFAB1A40
:10055000BB0AA016B10650F4E985FA85B282A182E1
:1005600058CF1296FC92EE92119753CFA985BA8577
:1005700012961C921E9211971C921B962D913D91E2
:100580004D915C911E9729833A834B835C8320E0D5
:1005900030E0A90169817A818B819C810E94BC2015
:1005A00087FD5BC0E985FA85878190852185328545
:1005B000821B930B9C01990F440B550B29873A879B
:1005C0004B875C87CA01B9010E946B2129813A815E
:1005D0004B815C8169837A838B839C8369817A8177
:1005E0008B819C810E9420226B018D8B9987009FBB
:1005F000C001019F900D900D11249C01990F440B97
:10060000550B29833A834B835C83CA01B9010E944D
:100610006B219B01AC01C982DA828D898B8399851C
:100620009C8369817A818B819C810E94C1202D816C
:100630003E814F81588569837A838B839C8369814E
:100640007A818B819C810E945020D7016D937D938C
:100650008D939C93139781E0DDCE29813A814B8164
:100660005C81505829833A834B835C83A985BA8582
:100670001B962D933D934D935C931E9793CFA98525
:10068000BA8513968D909D90AD90BC90169711965B
:10069000ED90FC90C701880F991FE80FF91FBFEF7D
:1006A000EB1AFB0A57CE86B3829581700895C49ADF
:1006B000BC98E0E1F5E083E593E0938382838FE9E2
:1006C0009FE00197F1F700C000000280F381E02D68
:1006D0000995982F9170E1E1F5E0808190FB81F917
:1006E00090FB82F98860808308950F931F93CF93C6
:1006F000DF938091110580FD21C0E0911205F091FA
:10070000130509959091110592FB222720F9C22F1C
:1007100020E0D22F282F082E000C330BC217D3074E
:1007200041F0880F880F847081609A7F892B8093B5
:100730001105DF91CF911F910F91089580911005C0
:1007400091E0980F843039F090931005DF91CF91AC
:100750001F910F91089510921005E0911205F091EC
:10076000130509959091110592FB002700F910E0FF
:10077000282F082E000C330B0217130771F080FB93
:1007800092F990931105809111058E7F8093110548
:10079000DF91CF911F910F910895880F827088602B
:1007A000957F892B80931105EECFFC01A5A5B6A5F9
:1007B00027A581E090E001C0880F2A95EAF79C9177
:1007C000613021F0809589238C930895892B8C9337
:1007D0000895FC0120A131A133A322A3A5A5B6A5AC
:1007E00047A581E090E001C0880F4A95EAF79C9107
:1007F000121613061CF4892B8C9308958095892377
:100800008C930895AF92BF92CF92DF92EF92FF92B6
:100810000F931F93CF93DF9300D000D000D0CDB7BC
:10082000DEB78D839E83CB01AD81BE8112962D9163
:100830003C911397260F371F13963C932E931297D4
:1008400018960D911C911997021713070CF0BAC056
:1008500013961C930E93129714962D913C91159715
:100860007C01E21AF30A1796FC92EE9216971596FF
:100870009C938E9314979C01990F440B550B2983DD
:100880003A834B835C83CA01B9010E946B21AD811D
:10089000BE8152962D913D914D915C915597698302
:1008A0007A838B839C8369817A818B819C810E946E
:1008B00020225B016C019801110F440B550B298319
:1008C0003A834B835C83CA01B9010E946B21AD81DD
:1008D000BE8156962D913D914D915C9159976983BA
:1008E0007A838B839C8369817A818B819C810E942E
:1008F00020229B01AC01A982BA82CB82DC82698171
:100900007A818B819C810E9450206B018C01970120
:10091000FF0C440B550B29833A834B835C83CA013C
:10092000B9010E946B21AD81BE815A962D913D91F6
:100930004D915C915D9769837A838B839C836981F8
:100940007A818B819C810E9420229B01AC01C9820B
:10095000DA820B831C8369817A818B819C810E945E
:10096000502069837A838B839C8369817A818B8110
:100970009C810E943321462F572FED81FE812089D3
:100980003189249FC001259F900D349F900D112423
:1009900091A380A32485358528173907E4F431A372
:1009A00020A30F900F900F900F900F900F90DF915A
:1009B000CF911F910F91FF90EF90DF90CF90BF905C
:1009C000AF900895FD0102851385201731075CF46F
:1009D0001383028341CF26853785821793070CF74F
:1009E00031A320A3DECF890137CFAF92BF92CF9240
:1009F000DF92EF92FF920F931F93CF93DF9300D07C
:100A000000D000D0CDB7DEB78D839E83CB01AD8102
:100A1000BE8112962D913C911397260F371F139686
:100A20003C932E93129718960D911C9119970217CB
:100A300013070CF0A5C013961C930E9312971496EF
:100A40002D913C9115977C01E21AF30A1796FC92BE
:100A5000EE92169715969C938E9314979C01990F7E
:100A6000440B550B29833A834B835C83CA01B9013C
:100A70000E946B21AD81BE8152962D913D914D9189
:100A80005C91559769837A838B839C8369817A8192
:100A90008B819C810E9420225B016C019801110FC7
:100AA000440B550B29833A834B835C83CA01B901FC
:100AB0000E946B21AD81BE8156962D913D914D9145
:100AC0005C91599769837A838B839C8369817A814E
:100AD0008B819C810E9420229B01AC01A982BA8259
:100AE000CB82DC8269817A818B819C810E9450203B
:100AF0006B018C019701FF0C440B550B29833A8342
:100B00004B835C83CA01B9010E946B21AD81BE8118
:100B10005A962D913D914D915C915D9769837A83B1
:100B20008B839C8369817A818B819C810E942022A6
:100B30009B01AC01C982DA820B831C8369817A81B3
:100B40008B819C810E94502069837A838B839C8354
:100B500069817A818B819C810E943321CB010F9026
:100B60000F900F900F900F900F90DF91CF911F91EA
:100B70000F91FF90EF90DF90CF90BF90AF900895CE
:100B8000FD0102851385201731071CF413830283AE
:100B900056CF890154CFFC01268D378D2F5F3F4FF3
:100BA000378F268F84A14485558587FD18C062A1A3
:100BB00073A1161617069CF481110CC081A592A58D
:100BC0002817390770F0178E168E21E024A320E035
:100BD00030E007C0813019F42617370738F581A5B2
:100BE00092A5840F951F43A554A5840F951F281720
:100BF000390708F40895178E168E14A220A131A18A
:100C000033A322A3A5A5B6A547A581E090E001C026
:100C1000880F4A95EAF79C91121613061CF4892B4B
:100C20008C930895809589238C9308956417750794
:100C3000B4F6A5A5B6A52C9137A581E090E001C03A
:100C4000880F3A95EAF7809582238C93268D378D0D
:100C500081A592A544855585C4CFAF92BF92CF920E
:100C6000DF92EF92FF920F931F93CF93DF9300D009
:100C700000D000D0CDB7DEB78D839E83CB01AD8190
:100C8000BE8112962D913C911397260F371F139614
:100C90003C932E93129718960D911C911997021759
:100CA00013070CF0D2C013961C930E931297149650
:100CB0002D913C9115977C01E21AF30A1796FC924C
:100CC000EE92169715969C938E9314979C01990F0C
:100CD000440B550B29833A834B835C83CA01B901CA
:100CE0000E946B21AD81BE8152962D913D914D9117
:100CF0005C91559769837A838B839C8369817A8120
:100D00008B819C810E9420225B016C019801110F54
:100D1000440B550B29833A834B835C83CA01B90189
:100D20000E946B21AD81BE8156962D913D914D91D2
:100D30005C91599769837A838B839C8369817A81DB
:100D40008B819C810E9420229B01AC01A982BA82E6
:100D5000CB82DC8269817A818B819C810E945020C8
:100D60006B018C019701FF0C440B550B29833A83CF
:100D70004B835C83CA01B9010E946B21AD81BE81A6
:100D80005A962D913D914D915C915D9769837A833F
:100D90008B839C8369817A818B819C810E94202234
:100DA0009B01AC01C982DA820B831C8369817A8141
:100DB0008B819C810E94502069837A838B839C83E2
:100DC00069817A818B819C810E943321462F572F24
:100DD000ED81FE8120893189249FC001259F900DDE
:100DE000349F900D112491A380A324853585281765
:100DF00039071CF531A320A38091820680FF0CC027
:100E0000ED81FE8185A196A1019696A385A327A1D8
:100E100030A58217930720F50F900F900F900F9039
:100E20000F900F90DF91CF911F910F91FF90EF9056
:100E3000DF90CF90BF90AF900895268537858217B9
:100E40009307D4F631A320A3D7CFFD0102851385E4
:100E5000201731071CF41383028329CF890127CF80
:100E600016A215A2CF010F900F900F900F900F9028
:100E70000F90DF91CF911F910F91FF90EF90DF9036
:100E8000CF90BF90AF900C94CB05E4E1F5E0908754
:100E900087836187089590931805809317050895B7
:100EA00081E0809314050895E4E1F5E03185A781A0
:100EB000B0852C9181E090E002C0880F991F3A958F
:100EC000E2F78095909582238C931082089583E0B9
:100ED000809314050895E4E1F5E091850780F0859D
:100EE000E02D808121E030E001C0220F9A95EAF7E1
:100EF000822B80830895E4E1F5E031850780F08559
:100F0000E02D208181E090E002C0880F991F3A9582
:100F1000E2F780959095822380830895809114054F
:100F2000813009F472C080911405823021F18091E2
:100F30001405833009F450C080911405843009F001
:100F400008958091820680FFFBCF809115059091D6
:100F500016050196909316058093150520911705A7
:100F6000309118058217930758F38091140581502A
:100F70008093140508958091820680FFD8CF8091D8
:100F80001505909116050196909316058093150509
:100F9000209115053091160580911705909118053F
:100FA0002817390720F21092160510921505309176
:100FB0001D05E0911B05F0911C05208181E090E06A
:100FC00002C0880F991F3A95E2F780959095822389
:100FD000808310921405ABCF90911D05E0911B0505
:100FE000F0911C05808121E030E001C0220F9A952C
:100FF000EAF78227808310921605109215058091DA
:1010000014058F5F80931405089590911D05E0915C
:101010001B05F0911C05808121E030E001C0220F0A
:101020009A95EAF7822B8083109216051092150587
:10103000809114058F5F8093140579CF80B38695D6
:101040008170089580B38170089586B383FB8827EB
:1010500080F9089580B386FB882780F9089589B3C5
:1010600086958170089586B38170089589B383FB56
:10107000882780F90895CF93DF9300D000D000D067
:10108000CDB7DEB729833A834B835C836D837E8340
:1010900090E1899FD0011124A25DBA4F86E0FE0144
:1010A000319601900D928A95E1F70F900F900F9075
:1010B0000F900F900F90DF91CF910895CF93DF9312
:1010C000CDB7DEB72C970FB6F894DEBF0FBECDBFFD
:1010D00089988898BB988E98D198B898D398E5E26B
:1010E000F5E08EE198E09183808382E298E0918B35
:1010F000808B85E298E091A380A38AE298E091AB8F
:1011000080AB8FE298E0909366058093650583E35A
:1011100098E0909376058093750586E398E0909328
:10112000860580938505CE01079626E0FC01119285
:101130002A95E9F72F8121602F8326E0FC01DE014B
:10114000119601900D922A95E1F726E0FE01319665
:10115000AEE2B5E001900D922A95E1F726E0FC01A0
:10116000DE01119601900D922A95E1F726E0FE012D
:101170003196AEE3B5E001900D922A95E1F726E0B5
:10118000FC01DE01119601900D922A95E1F726E00F
:10119000FE013196AEE4B5E001900D922A95E1F79B
:1011A00026E0FC01DE01119601900D922A95E1F7EF
:1011B00026E0FE013196AEE5B5E001900D922A954C
:1011C000E1F726E0FC01DE01119601900D922A95CF
:1011D000E1F726E0FE013196AEE6B5E001900D9212
:1011E0002A95E1F726E0FC01DE01119601900D92AF
:1011F0002A95E1F726E0FE013196AEE7B5E00190D1
:101200000D922A95E1F726E0FC01DE01119601908E
:101210000D922A95E1F786E0FE013196AEE8B5E041
:1012200001900D928A95E1F72C960FB6F894DEBFE7
:101230000FBECDBFDF91CF910895E4E3F5E080814B
:101240008D7F8083E4E4F5E080818D7F8083E4E519
:10125000F5E080818D7F8083E4E6F5E080818D7FFD
:101260008083E4E7F5E080818D7F8083E4E8F5E02A
:1012700080818D7F8083E4E9F5E080818D7F8083AC
:10128000089590E1899FF0011124EC5CFA4F808170
:1012900082FB882780F9089590E1899FF00111244D
:1012A000EC5CFA4F808186958170089590E1899F6A
:1012B000F0011124EC5CFA4F8081826080830895F4
:1012C00090E1899FF0011124EC5CFA4F80818D7FC1
:1012D0008083089590E1899FF0011124EB5DFA4F1E
:1012E0000280F381E02D099490E18902F00111243C
:1012F000EC5CFA4F80818170089590E18902F001E1
:101300001124EC5CFA4F808185FB882780F90895D1
:1013100090E18902F0011124EC5CFA4F80818F7D0D
:1013200080830895EF92FF920F931F93CF93DF93E3
:1013300006E010E00CC0E881F9810995811103C035
:101340008C818F5F8C830150110908F440C08AE1C1
:101350008A95F1F700C07801E294F29480EFF822C8
:10136000FE24E822FE24E701CB5DDA4F8C8188233E
:1013700011F38C818130C9F08C81823079F18C81BC
:10138000833009F78D818F5F8D838130E1F61D8277
:10139000E881F9810995813041F5F701EC5CFA4F5C
:1013A00080818E7F80831C82CECF8D818F5F8D83E5
:1013B000813049F61D82E881F9810995811115C0B6
:1013C000F701EC5CFA4F808181608083B9CFDF91B7
:1013D000CF911F910F91FF90EF900895E881F981CF
:1013E0000995813009F0AFCFABCF8C8181508C83D0
:1013F000AACF90E18902F0011124EB5DFA4F9681AA
:1014000081E0983009F0089580E00895FF920F93ED
:101410001F93CF93DF9320E030E079E0FAE0FF2ED6
:1014200063E042E05BE052C0FC01EB5DFA4FB68145
:10143000B93009F49AC0FC01EB5DFA4FB681BA30BD
:1014400009F4A4C0FC01EB5DFA4FB681B63009F493
:10145000B2C0FC01EB5DFA4FB681B73039F4EC0154
:10146000CC5CDA4FB881B260B8834683FC01EB5D97
:10147000FA4FB681B43009F418C1FC01EB5DFA4FA4
:10148000B681B53009F4E1C0FC01EB5DFA4FB681DD
:10149000B13009F4D2C0FC01EB5DFA4FB681B23035
:1014A00009F4C0C0FC01EB5DFA4FB681B33009F41A
:1014B000B1C0FC01EB5DFA4FB681BB3009F486C0C8
:1014C0002F5F3F4F2730310509F49EC0C901829537
:1014D0009295907F9827807F9827FC01EB5DFA4FCB
:1014E000B681B11113C0B685BB2341F0E685F0E0AB
:1014F000E25EFA4FE081E13009F41FC1EC01CC5CFF
:10150000DA4FE881E170E13009F405C1FC01EB5DDF
:10151000FA4FB681B83068F0B681BB3050F4EC01B8
:10152000CC5CDA4FB881B0FD04C010861782B3E0FE
:10153000B683FC01EB5DFA4FB681B83009F074CF89
:10154000C781D0852196D087C78302851385C017B0
:10155000D10708F469CF108617827683FC01EB5D12
:10156000FA4FB681B93009F066CFEC01CC5CDA4FA6
:10157000B881B1FD60CFB881B260B883F682FC015A
:10158000EB5DFA4FB681BA3009F05CCFC781D085E8
:101590002196D087C78304851585C017D10708F425
:1015A00051CF108617827683FC01EB5DFA4FB6812E
:1015B000B63009F04ECFEC01CC5CDA4FB881B0FD0B
:1015C00048CFB881B260B883668343CFB685BB236A
:1015D00059F0E685F0E0E25EFA4F1082FC01EC5C27
:1015E000FA4FB081B77FB083FC01EB5DFA4F1682F2
:1015F000FC01EC5CFA4F80818F7E80832F5F3F4F30
:101600002730310509F062CFDF91CF911F910F9103
:10161000FF900895EC01CC5CDA4FB881B1FD49CF61
:10162000568347CFEC01CC5CDA4FB881B0FD3ACF9E
:10163000B881BD7FB883568335CFEC01CC5CDA4FDF
:10164000B881B0FD28CF668326CFC781D08521968B
:10165000D087C783EC01CC5CDA4FB881B0FD0FC0F6
:10166000078110850333110550F410861782B88165
:10167000B260B883B881BB7FB883B3E0B683FC01A6
:10168000EB5DFA4FC781D085CB34D10508F4FCCE91
:1016900010861782EC01CC5CDA4FB881B260B88357
:1016A000B881B460B8834683EFCEC781D0852196D8
:1016B000D087C783EC01CC5CDA4FB881B0FD0FC096
:1016C000078110850333110550F410861782B88105
:1016D000B260B883B881BB7FB883B3E0B683FC0146
:1016E000EB5DFA4FC781D085E39708F4C6CE10862C
:1016F0001782EC01CC5CDA4FB881B260B883B88154
:10170000B460B883EC01C25DDA4FB881B1FD1CC092
:10171000B1E0B683B2CEDC01A25DBA4FFC91F0FF1E
:1017200016C0F881F260F883FC91F1FF3BC0B8E08D
:10173000FC01EB5DFA4FB68312C0FC01EC5CFA4F82
:10174000E081E3FDDBCEE2CEBAE0B68396CEEC914B
:10175000E2FF1CC0B6E0FC01EB5DFA4FB683FC0172
:10176000EC5CFA4FB081B061B083EC01CB5DDA4F35
:10177000BE85BB2309F4CACECE85D0E0C25EDA4F67
:10178000B1E0B883B081B860B083C0CEEC91E3FD26
:101790000EC0EC91E4FF11C0B4E0FC01EB5DFA4F28
:1017A000B683DDCFEC01CB5DDA4FEE83D8CFB7E067
:1017B000FC01EB5DFA4FB683D2CFEC91E5FFCFCFC2
:1017C000B5E0FC01EB5DFA4FB683E881E062E883A7
:1017D000C6CF0E9492090C94060A8091340580FDC0
:1017E00019C08091440580FD15C08091540580FD8D
:1017F00011C08091640580FD0DC08091740580FD4D
:1018000009C08091840580FD05C080919405809574
:101810008170089580E00895E4E3F5E080818D7F94
:101820008083E4E4F5E080818D7F8083E4E5F5E06A
:1018300080818D7F8083E4E6F5E080818D7F8083E9
:10184000E4E7F5E080818D7F8083E4E8F5E0808146
:101850008D7F8083E4E9F5E080818D7F808308952A
:101860008091340584FD1BC08091440584FD17C020
:101870008091540584FD13C08091640584FD0FC0E0
:101880008091740584FD0BC08091840584FD07C0A0
:10189000909194059295917081E0891B089580E064
:1018A00008959093A5058093A4050895CF93DF93A1
:1018B000CDB7DEB72A970FB6F894DEBF0FBECDBF07
:1018C0008091C0059091BE0590FD33C018160CF4B0
:1018D00098C08091C20518160CF493C08091C4057D
:1018E00018160CF48EC02091BB05822F022E000C1E
:1018F000990BA22FAA0FBB0BA154BA4F3C913111E7
:101900006AC0880F991FFC01E554FA4F85811816AB
:10191000A4F12F5F2093BB05233014F01092BB0578
:101920002A960FB6F894DEBF0FBECDBFDF91CF91E0
:10193000089591E081111BC08091C2058111D3CF20
:101940008091C4058111CFCF913069F60E94540770
:101950008091BE058E7F8093BE0588E0E9EAF5E0C0
:10196000ABE0B6E001900D928A95E1F7BCCF90E034
:101970008091C2058111B7CFE3CF0E942C1344E0C0
:1019800050E06BEA74E0CE0101960E94A62244E08A
:1019900060E0CE0101960E94E8128091BB05882389
:1019A00039F1813009F459C0823009F45FC044E054
:1019B00064E0CE0101960E94E812E091BB05EE0FB3
:1019C000FF0BE154FA4F80818F5F80831092BD0539
:1019D0001092BC05A5CF313009F0A2CF880F991F16
:1019E000FC01E554FA4F8581811125C01C9298CFE6
:1019F00044E050E067EA74E0CE0101960E94A6221E
:101A0000D6CF8091BE0581608093BE0586E990E0C7
:101A10000E944B070E94670760E083E196E00E9406
:101A2000D50388E0EBE0F6E0A9EAB5E001900D927D
:101A30008A95E1F758CF8091820680FF71CF80911F
:101A4000BC059091BD050196883E33E09307B8F43C
:101A50009093BD058093BC0563CF44E050E063EAFA
:101A600074E0CE0101960E94A622A1CF44E050E08E
:101A70006FE974E0CE0101960E94A62298CF1092E1
:101A8000BD051092BC051C9244CF9093C60580936F
:101A9000C5050895E091C505F091C6051182108233
:101AA0008170826094819C7F892B84830895E0916A
:101AB000C505F091C605808191810196918380834F
:101AC000228133818217930750F011821082948112
:101AD000892F8095817082609C7F892B84830895F3
:101AE00097B1907E8F71982B97B9089527B12F7376
:101AF00030E4839FC0011124822B87B9089596B1E9
:101B0000987F892B86B90895379A08953798089554
:101B1000811102C03D9808953D9A089585B10895B8
:101B200084B1089597B19F7320E4629FB00111249E
:101B3000692B67B996B1987F492B46B98F3F59F009
:101B4000359A20B72F7030E28302C0011124822B16
:101B500080BF379A08953598379A089597B1907E47
:101B60008F71982B97B9369A089597B1907E8F719F
:101B7000982B97B9369A349BFECF349A08953599AD
:101B800019C097B1907E8F71892B87B9369A349B93
:101B9000FECF349A24B13D9B14C085B190E0880FEC
:101BA000991F880F991F2295269526952370820FDD
:101BB000911D0895349A349BFECF349A24B13D99F7
:101BC000ECCF85B190E0982F8827820F911D089562
:101BD000AF92BF92CF92DF92EF92FF920F931F933B
:101BE000CF93DF9300D000D000D0CDB7DEB75B013C
:101BF0008C0120E030E048EC52E46983BA828B83A8
:101C00001C8369817A818B819C810E944F202FEAFD
:101C100030ED4FEA5EE369837A838B839C8369812D
:101C20007A818B819C810E94C12069837A838B8316
:101C30009C8369817A818B819C810E9433216D8391
:101C40007E838D819E818F3F91050CF497C0AEEF0E
:101C5000B0E0BE83AD83ED81FE81EE0FFF1FEE0F7E
:101C6000FF1FE956FF4FC080D180E280F3808D8155
:101C70009E81092E000CAA0BBB0B89839A83AB8330
:101C8000BC83BC01CD010E946B212FEA30ED4FEAED
:101C90005EE369837A838B839C8369817A818B81FC
:101CA0009C810E94202220E030E048EC52E46983CD
:101CB0007A838B839C8369817A818B819C810E944A
:101CC00050209B01AC01A982BA820B831C836981DD
:101CD0007A818B819C810E944F205B018C01AD81B8
:101CE000BE81AA0FBB1FAA0FBB1FA556BF4FA701DE
:101CF00096016D917D918D919C910E944F209B0149
:101D0000AC01A982BA820B831C8369817A818B81A1
:101D10009C810E9420222FEA30ED4FEA5EE3698326
:101D20007A838B839C8369817A818B819C810E94D9
:101D3000C120A701960169837A838B839C83698183
:101D40007A818B819C810E94502069837A838B8366
:101D50009C8369817A818B819C810F900F900F9079
:101D60000F900F900F90DF91CF911F910F91FF90E7
:101D7000EF90DF90CF90BF90AF90089597FF6BCF1B
:101D80001E821D8268CF0F931F93CF93DF938C0128
:101D9000EB0144E060E0CE010E94D9120F3F100732
:101DA00009F1083E83E0180774F08BE188838BE02B
:101DB000898389E38A83CE010296DF91CF911F91B7
:101DC0000F910C949E1243E0BE01C8010E9434138F
:101DD00080EF8B83CE010296DF91CF911F910F91FF
:101DE0000C949E1287E1888389E18983CE01029653
:101DF000DF91CF911F910F910C949E1281E00E9470
:101E0000760D82E00E94B50D84B125B130E0322F0D
:101E10002227280F311D4091440650914506BA01F2
:101E20006F5F7F4F80E06431710518F060E070E013
:101E300081E0440F551FFA01E752FA4F31832083A6
:101E4000709345066093440608954F925F926F9297
:101E50007F92AF92BF92CF92DF92EF92FF920F9359
:101E60001F93CF93DF93CDB7DEB728970FB6F894C3
:101E7000DEBF0FBECDBF8C019E012F5F3F4F44E1FF
:101E800050E069ED75E088EC95E00E947E018111DB
:101E900015C028960FB6F894DEBF0FBECDBFDF91F8
:101EA000CF911F910F91FF90EF90DF90CF90BF9057
:101EB000AF907F906F905F904F90089589819A8145
:101EC000AB81BC818D839E83AF83B88720E030E0F7
:101ED000A901BC01CD010E941B2218160CF0E4C020
:101EE00023E332E348EC5DE36D817E818F81988549
:101EF0000E94202220E030E048EC52E46D837E8393
:101F00008F8398876D817E818F8198850E94502074
:101F100023E738E641E85FE36D837E838F8398870C
:101F20006D817E818F8198850E9420225B016C01EA
:101F300020E030E048EC52E46D83BE828F83D88687
:101F40006D817E818F8198850E944F202FEA30ED30
:101F50004FEA5EE36D837E838F8398876D817E81F8
:101F60008F8198850E94C1206D837E838F8398879F
:101F70006D817E818F8198850E9433217B019FEF47
:101F8000E916F1040CF089C0F7FC8BC0F701EE0FE5
:101F9000FF1FEE0FFF1FE956FF4F40805180628008
:101FA0007380C7010F2C000CAA0BBB0B8D839E8383
:101FB000AF83B887BC01CD010E946B212FEA30EDC1
:101FC0004FEA5EE36D837E838F8398876D817E8188
:101FD0008F8198850E94202220E030E048EC52E476
:101FE0006D837E838F8398876D817E818F819885B5
:101FF0000E9450209B01AC01AD82BE82CF82D88668
:102000006D817E818F8198850E944F205B016C01DC
:10201000F701EE0FFF1FEE0FFF1FE556FF4FA30165
:10202000920160817181828193810E944F209B0186
:10203000AC01AD82BE82CF82D8866D817E818F81D8
:1020400098850E9420222FEA30ED4FEA5EE36D83EF
:102050007E838F8398876D817E818F8198850E9492
:10206000C120A30192016D837E838F8398876D8148
:102070007E818F8198850E9450206D837E838F831F
:1020800098876D817E818F8198850E943321CB0155
:10209000D8018D939C9381E0FCCE2EEFE22EF12CA3
:1020A00075CFE12CF12C72CF80E090E0F1CF8F92D0
:1020B0009F92AF92BF92CF92DF92EF92FF920F93D7
:1020C0001F93CF93DF93CDB7DEB728970FB6F89461
:1020D000DEBF0FBECDBF8091C705811136C081E044
:1020E0000E94760D82E00E94B50D44B185B1209129
:1020F000440630914506F901EE0FFF1FE752FA4FF3
:1021000090E0982F8827840F911D918380832F5F03
:102110003F4F2431310508F016C130934506209316
:10212000440680E028960FB6F894DEBF0FBECDBF00
:10213000DF91CF911F910F91FF90EF90DF90CF90A3
:10214000BF90AF909F908F9008959E012F5F3F4F5B
:1021500044E150E069ED75E088EC95E00E947E0175
:102160008823F9F289819A81AB81BC818D839E831A
:10217000AF83B88720E030E0A901BC01CD010E9407
:102180001B2218160CF0EEC023E332E348EC5DE3AB
:102190006D817E818F8198850E94202220E030E031
:1021A00048EC52E46D837E838F8398876D817E81B6
:1021B0008F8198850E94502023E738E641E85FE34D
:1021C0006D837E838F8398876D817E818F819885D3
:1021D0000E9420226B017C0120E030E048EC52E4B8
:1021E0006D83DE828F83F8866D817E818F819885F5
:1021F0000E944F202FEA30ED4FEA5EE36D837E832D
:102200008F8398876D817E818F8198850E94C12000
:102210006D837E838F8398876D817E818F81988582
:102220000E9433218B016F3F71050CF496C00EEFB5
:1022300010E0F801EE0FFF1FEE0FFF1FE956FF4FF2
:1022400080809180A280B380C801012E000CAA0B6F
:10225000BB0B8D839E83AF83B887BC01CD010E94E9
:102260006B212FEA30ED4FEA5EE36D837E838F832F
:1022700098876D817E818F8198850E94202220E041
:1022800030E048EC52E46D837E838F8398876D81C4
:102290007E818F8198850E9450209B01AC01CD8268
:1022A000DE82EF82F8866D817E818F8198850E9423
:1022B0004F206B017C01F801EE0FFF1FEE0FFF1F97
:1022C000E556FF4FA5019401608171818281938160
:1022D0000E944F209B01AC01CD82DE82EF82F88606
:1022E0006D817E818F8198850E9420222FEA30EDBA
:1022F0004FEA5EE36D837E838F8398876D817E8155
:102300008F8198850E94C120A50194016D837E83F1
:102310008F8398876D817E818F8198850E94502060
:102320006D837E838F8398876D817E818F81988571
:102330000E943321CB0190930206809301061092F4
:10234000C70581E0EFCE10924506109244068091B9
:10235000C7058F5F8093C705E4CE77FF6ACF00E0A3
:1023600010E067CF80E090E0E6CF87B3806B87BB5B
:1023700087E18DB908958FB9779BFECF8FB108950E
:10238000CF93DF9300D000D0CDB7DEB7979825E08C
:102390002A95F1F7000080E00E94BB11898380E05C
:1023A0000E94BB113AE13A95F1F700C0979A82FD7D
:1023B0003EC04981942F96958795969587959695D9
:1023C00087959C0140E050E029833A834B835C83EE
:1023D000CA01B9010E94692120E030EF4FE754E4BF
:1023E00069837A838B839C8369817A818B819C81C9
:1023F0000E94202220E030EF4FE755E469837A8382
:102400008B839C8369817A818B819C810E94C1200E
:1024100069837A838B839C8369817A818B819C8198
:102420000F900F900F900F90DF91CF91089560E083
:1024300070E080E89FEBECCFCF93DF93979885E037
:102440008A95F1F70000C6B3C5FBCC27C0F9C1954A
:102450006E9A8C2F0E94BB11D82F8C2F0E94BB111B
:102460009AE19A95F1F700C06E98979A282F30E07C
:1024700082FD0BC0C9019D2B9695879596958795F2
:1024800096958795DF91CF9108958FEF9FEFFACFC3
:1024900080930A0670930906609308065093070616
:1024A0004093060630930506209304060895809114
:1024B0000306815087FF03C080910A06815024E003
:1024C0008202C0011124E0910406F0910506E80F94
:1024D000F91F0190F081E02D099580910306082EE7
:1024E000000C990BA0910806B0910906E091060630
:1024F000F0910706E80FF91F20812C93880F991F90
:10250000880F991FE0910406F0910506E80FF91F66
:102510000280F381E02D0995809103068F5F8093FF
:102520000306082E000C990B20910A0630E0821752
:10253000930709F00895109203060895FC01408165
:10254000242F30E0C90195958795959587958470DE
:10255000220F331F220F331F2071822B4B7E842BBF
:1025600080830895EBE0F6E04281242F30E0C9013A
:1025700095958795959587958470220F331F220F27
:10258000331F2071822B4B7E842B82834681242F24
:1025900030E0C90195958795959587958470220FB0
:1025A000331F220F331F2071822B4B7E842B868397
:1025B00008959C0114165CF4460F862F6F5FF90195
:1025C000E80FF11D87FDFA9510826413F6CF089588
:1025D00014166CF4DC01460FE62F6F5F8D910E2E02
:1025E000000CFF0BE55FF94F80836413F5CF08956E
:1025F000FC01862F062E000C990B161664F520910F
:102600000B0620838130910531F120910C06218346
:102610008230910501F120910D06228383309105CE
:10262000D1F020910E06238384309105A1F02091F2
:102630000F0624838530910571F0209110062583C3
:102640008630910541F0209111062683079719F0F5
:102650008091120687830895EBE0F6E088E0DF01C1
:102660001D928A95E9F70895CF92DF92EF92FF923B
:102670000F931F93CF93DF93CDB7DEB72A970FB693
:10268000F894DEBF0FBECDBF7C018B01C42E042E9B
:10269000000CDD08141634F4A60160E070E0C801F7
:1026A0000E949F22BE016F5F7F4FC7010E944900B9
:1026B0009C01C81AD90A181619060CF091C0C60157
:1026C0000196E981F0E0ED53FB4F6081F801EC0DDC
:1026D000FD1D60832130310509F482C0B6016E5FB3
:1026E0007F4F800F911FEA81F0E0ED53FB4FE081B7
:1026F000DC01EC932230310509F472C0C601039667
:10270000600F711FEB81F0E0ED53FB4FE081DB01C7
:10271000EC932330310509F463C0B6016C5F7F4F41
:10272000800F911FEC81F0E0ED53FB4FE081DC0165
:10273000EC932430310509F453C0C6010596600FAF
:10274000711FED81F0E0ED53FB4FE081DB01EC9375
:102750002530310509F444C0B6016A5F7F4F800F10
:10276000911FEE81F0E0ED53FB4FE081DC01EC9333
:1027700026303105A9F1C6010796600F711FEF8160
:10278000F0E0ED53FB4FE081DB01EC9327303105A6
:1027900039F1B601685F7F4F800F911FE885F0E047
:1027A000ED53FB4FE081DC01EC9328303105C1F0A3
:1027B000A601475F5F4F600F711FE985F0E0ED53A1
:1027C000FB4F8081FB0180832930310549F0F801FE
:1027D000E40FF51FAA85B0E0AD53BB4F8C91808309
:1027E0002A960FB6F894DEBF0FBECDBFDF91CF9112
:1027F0001F910F91FF90EF90DF90CF900895DF929F
:10280000EF92FF920F931F93CF93DF93CDB7DEB775
:102810002A970FB6F894DEBF0FBECDBFD82E092F72
:102820007B01142F141634F450E06BEE70E0C701F6
:102830000E949F22BE016F5F7F4F8D2D902F0E94BF
:1028400049009C01412F110F550B481B590B1816BD
:1028500019060CF090C0CA010196E981F0E0ED5331
:10286000FB4F6081F701E40FF51F608321303105D4
:1028700009F481C0BA016E5F7F4F8E0D9F1DEA8102
:10288000F0E0ED53FB4FE081DC01EC9322303105A9
:1028900009F471C0CA0103966E0D7F1DEB81F0E053
:1028A000ED53FB4FE081DB01EC932330310509F45C
:1028B00062C0BA016C5F7F4F8E0D9F1DEC81F0E00E
:1028C000ED53FB4FE081DC01EC932430310509F43A
:1028D00052C0CA0105966E0D7F1DED81F0E0ED53EB
:1028E000FB4FE081DB01EC932530310509F443C057
:1028F000BA016A5F7F4F8E0D9F1DEE81F0E0ED53B0
:10290000FB4FE081DC01EC9326303105A1F1CA01D7
:1029100007966E0D7F1DEF81F0E0ED53FB4FE081D8
:10292000DB01EC932730310531F1BA01685F7F4F4D
:102930008E0D9F1DE885F0E0ED53FB4FE081DC013B
:10294000EC9328303105B9F0475F5F4F6E0D7F1D66
:10295000E985F0E0ED53FB4F8081FB018083293056
:10296000310549F0F701E40FF51FAA85B0E0AD533A
:10297000BB4F8C9180832A960FB6F894DEBF0FBEB2
:10298000CDBFDF91CF911F910F91FF90EF90DF901E
:102990000895FC018081846080830895FC0180811A
:1029A0008B7F8083089595980895959A08959298BD
:1029B0000895929A089593980895939A08959498F3
:1029C0000895949A0895DF980895DF9A0895DE98FF
:1029D0000895DE9A0895DD980895DD9A0895DC98AB
:1029E0000895DC9A0895CF93DF9320E630E04BE022
:1029F00056E065E370E088E00E944812C0E6D0E04F
:102A0000E881F9810995249680E0C038D807C1F79C
:102A10008D9A8A9A8B9A8C9AD79AD69AD59AD49A62
:102A200084B38FEF84BBDF91CF910895E3E1F6E0AB
:102A300024E630E030A727A38AE090E0918B808BDA
:102A4000358724871786168625E030E032A721A730
:102A500022E330E034A723A74DEC5CEC6CEC7EE382
:102A6000428B538B648B758B4DEC5CEC6CEC7DE393
:102A7000468B578B608F718F128E138E148E158E2E
:102A8000138612869187808788E390E096A785A7B2
:102A900082E087A708958091C1069091C206209197
:102AA000010630910206821B930B21E030E0863054
:102AB000910514F02AE030E030931C0620931B06A9
:102AC00008950F931F93CF93DF9300D000D000D0D1
:102AD000CDB7DEB78C0186E0E0E8F0E0DE011196CC
:102AE00001900D928A95E1F72981216029833A812D
:102AF0004B815C816D817E81F80181810E943B0860
:102B000029813A814B815C816D817E81F8018081D0
:102B10000E943B0829812E7D206229833A814B81C6
:102B20005C816D817E81F80184810E943B0829814E
:102B30002C7D236029838AE0382F8A831B8282E0E0
:102B4000582F8C831D821E8240E060E070E0F80107
:102B500082810E943B0829813A814B815C816D8191
:102B60007E81F80183810F900F900F900F900F904E
:102B70000F90DF91CF911F910F910C943B088BE444
:102B800096E00E94611585E696E00C94611589E354
:102B9000E1EDF4E0A7E4B6E001900D928A95E1F74B
:102BA000E7E4F6E081E0868382E0878393E0908724
:102BB00086E0868F84E080A325E021A392A3828F04
:102BC0000895CDB7DEB762970FB6F894DEBF0FBE9B
:102BD000CDBF0E94F31446E050E064E070E081EC69
:102BE00096E00E94BE220E94C715919A909AC39ABD
:102BF000969AD99AC09ADB9A8FE99FE00197F1F7EC
:102C000000C000000E945E080E945703C298BA9A52
:102C100047E061E08FEF0E94920D82E00E94700D0C
:102C2000369A349BFECF349AC19AB998BD9A65E022
:102C300088E390E00E9445078BE490E00E944B07F8
:102C400012BE8BE083BF89EF8CBF89B7826089BFDA
:102C500078940E9416150E942C1344E050E06BE912
:102C600074E0CE0101960E94A62244E060E0CE010D
:102C700001960E94E81244E050E067E974E0CE015A
:102C800001960E94A62244E064E0CE0101960E94D3
:102C9000E81200E010E0C12CD12CE12CF12CA09026
:102CA0000B05B0900C0590900A054FC080918106ED
:102CB00086FF44C00E945710882339F01092C00547
:102CC000809181068A608093810683E00E94760D60
:102CD00080E00E94B50D24B185B190E0982F88273F
:102CE000820F911DCB9708F058C020E091E08091B1
:102CF000810620FB84F9809381069093C20521E030
:102D000090E0B19B02C020E091E08091810620FB21
:102D100085F9809381069093C4058091820680FF97
:102D200008C08FEFE81AF80A94E1E916F10409F4F3
:102D300082C0809181068570853091F10E948E0756
:102D4000809182068E7F809382068091830680FF29
:102D50000AC0809183068E7F8093830680918206CD
:102D60008160809382068091820680FF9FCF0E94BF
:102D700057128091810686FD9DCF9091820690FF2B
:102D8000DDCF0F5F1F4F083B9BE01907BCF280644B
:102D90008093810600E010E0D1CF21E090E0A7CF42
:102DA0000E94560C809181068A738A3339F690917D
:102DB0008006992309F480C080917C06913009F443
:102DC000A0C0923009F4E7C0823008F48FC082308E
:102DD00009F4B7C0833009F498C080917B0682FD66
:102DE00068C06091C1067091C20680910106909101
:102DF0000206681B790B81E090E06630710514F0E3
:102E00008AE090E090931C0680931B0683E196E095
:102E10000E942D068091820680FF90CF8FEFC81A06
:102E2000D80A94E1C916D10409F088CF0E94E90BB1
:102E3000C12CD12C83CF0E9475038091110583FD95
:102E400003C0E12CF12C75CF877F80931105809111
:102E500081068460809381068BE490E00E944B079A
:102E60000E9450070E942C138091110581FD71C0B2
:102E70006091C1067091C206809101069091020690
:102E8000681B790B81E090E066307105BCF590938A
:102E90001C0680931B0683E196E00E94020483E1F6
:102EA00096E00E94E903809181068160809381060B
:102EB000C8CF0E94071E95CF8BE496E00E94611553
:102EC00085E696E00E94611544E060E08FEA94E0B8
:102ED0000E94E81280917B06816080937B061092AD
:102EE0007C06809180068F5F8093800683E00E943D
:102EF0004C0981117FC080917C0669CF8AE090E007
:102F0000C6CF92E0909380065FCF0E94931F8130DE
:102F100009F063CF90917B0690FF9FC010927C06D2
:102F20008BE496E00E94611585E696E00E946115AB
:102F30000E942C1344E060E08FEA94E00E94E812C3
:102F40004CCF0E943F1E813009F46EC080917C06F8
:102F500041CF809181068E7F8093810644E064E0BA
:102F60008FEB94E00E94E81260E083E196E00E941B
:102F7000D5030E94C715B0928106A09280068AE010
:102F8000E1EBF5E0ABEBB5E001900D928A95E1F74E
:102F90000E94540756CF811117CF8091010690915E
:102FA000020697FDA3CF88EE93E00E944B070E9494
:102FB000500780917B068E7F80937B0681E0809313
:102FC0007C068BE496E00E9461151092500685E61F
:102FD00096E00E94611510926A0680917B068460DB
:102FE00080937B06809180068F5F8093800680911E
:102FF0007C06EACE83E00E94600983E00E944109DA
:10300000813009F454C083E080937C0690927F065F
:1030100088EE93E00E944B070E94500768E0CE01C3
:103020000B960E94F81267CF90917B0690FF2AC002
:1030300010927C068BE496E00E94611585E696E08E
:103040000E9461150E942C1344E060E08FEA94E036
:103050000E94E81280917C06BDCE80937C068BE4B2
:1030600096E00E9461151092500685E696E00E9457
:10307000611510926A0648E060E0CE010B960E944E
:10308000E812ABCE80937C068BE496E00E9461153B
:103090001092500685E696E00E94611510926A062D
:1030A00048E060E0CE010B960E94E8124FCF82E02C
:1030B00080937C0690927D0688EE93E00E944B07F9
:1030C0000E94500742E050E060E070E08EE896E039
:1030D0000E94CE2242E050E062E070E088EA96E092
:1030E0000E94CE229BCF8F938FB78F9380918306C0
:1030F0008160809383068F918FBF8F911895EF9297
:10310000FF920F931F93CF93DF9300D0CDB7DEB71D
:103110007C018B01FC01808142E0BE016F5F7F4F2B
:10312000082E000C990B0E9434138A819981F801B2
:1031300090838183F701818142E0BE016F5F7F4F01
:10314000082E000C990B0E94FF137801F2E0EF0E9D
:10315000F11C8A819981F80192838383C8010196C9
:103160000E94C914C7010E94C914C7010E949E127F
:103170000F900F90DF91CF911F910F91FF90EF90E3
:1031800008951F93CF93DF93CDB7DEB72A970FB67D
:10319000F894DEBF0FBECDBFDC01FB0149875A8723
:1031A0004C913CE34303A001112411962C91420F52
:1031B000511D27FD5A9520812303C001112421812F
:1031C000820F911D27FD9A95A985BA852C9123031D
:1031D0009001112411966C91260F311D67FD3A95CF
:1031E000821B930B481B590B10E060E01416150668
:1031F0007CF5CA01550FAA0BBB0B8D839E83AF8351
:10320000B887BC01CD010E946B2120E030E040E78F
:1032100052E469837A838B839C8369817A818B8171
:103220009C810E94C12069837A838B839C836981FE
:103230007A818B819C810E943321162F6D817E8142
:103240008F8198852CE330E040E050E00E940E2012
:10325000A985BA851C9311966C932A960FB6F8949B
:10326000DEBF0FBECDBFDF91CF911F9108957F923A
:103270008F929F92AF92BF92CF92DF92EF92FF9286
:103280000F931F93CF93DF93CDB7DEB766970FB63B
:10329000F894DEBF0FBECDBF07E416E080E0A82E95
:1032A00080E0B82E94E8C92E96E0D92EE12CF12CBE
:1032B00020E9822E992493943AE1732ED8015696F0
:1032C0009C928E92559742E050E0B501C8010A9653
:1032D0000E94BE22F80182859385D6011B969C939D
:1032E0008E931A97158614867E9CF0017F9CF00DB4
:1032F0001124DF01AB5AB94F8C9182608C93D801B5
:1033000013961C921397E75BF94F8081816080834D
:1033100080917C06813049F1C80104960E946115B4
:10332000F8011186EA94EF2861F0065E1F4F82E0F3
:10333000A80EB11CAAE1CA0ED11CEE24E394F12C14
:10334000BDCF66960FB6F894DEBF0FBECDBFDF913E
:10335000CF911F910F91FF90EF90DF90CF90BF9092
:10336000AF909F908F907F9008951A968C9142E035
:10337000BE016B5E7F4F082E000C990B0E94341328
:103380008E899D8999838A83F801838542E0BE01F5
:103390006B5E7F4F082E000C990B0E94FF138E89E5
:1033A0009D899B838C83CE0102960E94C914CE0115
:1033B00003960E94C914CE0103960E949E1244E017
:1033C000D8016C91CE0101960E94E812A5CF5F92C0
:1033D0006F927F928F929F92AF92BF92CF92DF9225
:1033E000EF92FF920F931F93CF93DF93CDB7DEB78A
:1033F0006E970FB6F894DEBF0FBECDBF07E416E0A0
:103400008EE8C82E86E0D82E90E0A92E90E0B92E46
:10341000E12CF12C2AE1522EC80143960E94450D61
:10342000D80116968C910E944C09882361F05E9C0D
:10343000F0015F9CF00D1124EB5AF94F808182FD61
:1034400002C080FF98C1F80187810E944C0988233F
:1034500061F05E9CF0015F9CF00D1124EB5AF94F76
:10346000808182FD02C080FF61C1D80116968C91D7
:103470000E946009F80187810E946009D8011996AD
:103480008C911997882309F471C0813009F424C103
:103490005E9CC0015F9C900D1124FC01E85AF94F1D
:1034A000208120FD2EC05E9CF0015F9CF00D112458
:1034B000E75AF94F808181FDDAC0065E1F4FFAE1BD
:1034C000CF0ED11C22E0A20EB11CEF2821F4EE2475
:1034D000E394F12CA1CF6E960FB6F894DEBF0FBE29
:1034E000CDBFDF91CF911F910F91FF90EF90DF90B3
:1034F000CF90BF90AF909F908F907F906F905F9094
:103500000895FC01E25AF94F808181FF07C08D7F49
:10351000808390917C06913009F457C18091820696
:1035200080FFC1CFD8011F968D919C910196883B59
:10353000BBE09B070CF4F6C0D80150961C921E927B
:103540001F978AE18E9D90018F9D300D1124F90106
:10355000E75AF94F8081826080832B5A394FD90115
:103560009C9190FD29C08E7F80839DCF14968C9175
:103570000E944C09882309F48BCFF80184810E94B2
:10358000600988EE93E00E944B070E9450078AE191
:103590008E9D40018F9D900C1124F401E75AF94F44
:1035A000808180FD22C181608083F401EB5AF94F54
:1035B0008081816080836CCFF60140812CE34203DF
:1035C000A00111243181430F511D37FD5A95D501BA
:1035D0006C916203B001112411963C91630F711D2F
:1035E00037FD7A95F80132853203C0011124238515
:1035F000820F911D27FD9A95681B790B461B570B6F
:10360000141615060CF08FC1CA01550FAA0BBB0B7F
:103610008B8F9C8FAD8FBE8FBC01CD010E946B2123
:1036200020E030E040E752E46F8B788F898F9A8FEB
:103630006F89788D898D9A8D0E94C1206F8B788FCC
:10364000898F9A8F6F89788D898D9A8D0E94332109
:10365000D8011A966C936B8D7C8D8D8D9E8D2CE38D
:1036600030E040E050E00E940E20F80163878AE1DC
:103670008E9D40018F9D900C1124F401E75AF94F63
:1036800080818D7F808342E050E0B501C6010E94B9
:10369000CE22D6018D919C91F80193878287F40107
:1036A000E85AF94F80818E7F8083D8011D961C9245
:1036B0001E921C97F401EB5AF94F8081826080833F
:1036C00013961C921397F401E75BF94F8081816098
:1036D000808319961C92F1CE14968C910E944C090D
:1036E000882309F4D5CEF80184810E94600988EE10
:1036F00093E00E944B070E9450078AE18E9DF001E3
:103700008F9DF00D1124DF01A95BB94F52968C916A
:103710005297836052968C93EB5AF94F8081816067
:103720008083B6CEF801908B8787BDCED8011796DF
:103730008C910E94F909882309F4B4C08AE18E9D16
:10374000F0018F9DF00D1124DF01A75BB94F8C9123
:103750008E7F8C93E85AF94F80818160808381E06D
:10376000F80181878383108A17860E944A0DC6015B
:103770000E945D017ACEF80186810E94F9098823B2
:1037800009F497C08AE18E9DF0018F9DF00D112400
:10379000DF01A75BB94F8C918E7F8C93E85AF94F6C
:1037A00080818160808381E0D80119968C9319977C
:1037B00013968C93139750961C921E921F970E94FB
:1037C0004A0DC6010E9440013ECE80FD38C044E053
:1037D00060E0CE0101960E94D91244E0D8016C91BC
:1037E000CE0101960E94E81299CE8E7F8083C4019B
:1037F0008B5A994F3C01DC018C918E7F8C9342E077
:1038000050E0B501C8010A960E94BE22F801158653
:103810001486D3018C9182608C931382F401E75B50
:10382000F94F8081816080838C918B7F8C93809114
:103830007C06813009F444C00E947B0729CEF60142
:10384000808142E0BE016B5E7F4F082E000C990B19
:103850000E9434138E899D8999838A83D60111969B
:103860008C9142E0BE016B5E7F4F082E000C990BDD
:103870000E94FF138E899D899B838C83CE010296C3
:103880000E94C914CE0103960E94C914CE0103966A
:103890000E949E1244E0F8016081CE0101960E94D0
:1038A000E8123CCE8BE490E00E944B070E94500748
:1038B00045CF8BE490E00E944B070E94500762CFF7
:1038C000F801828542E0BE016B5E7F4F082E000C3E
:1038D000990B0E9434138E899D8999838A83D8011C
:1038E0001B968C9142E0BE016B5E7F4F082E000C50
:1038F000990B0E94FF138E899D899B838C83CE0137
:1039000002960E94C914CE0103960E94C914CE01EA
:1039100003960E949E1244E0F8016081CE01019658
:103920000E94E81289CF12861386A1CE9F92AF9291
:10393000BF92CF92DF92EF92FF920F931F93CF939C
:10394000DF9307E416E0C0E0D0E08AE1982EC801DA
:1039500043960E94450D9C9E70019D9EF00C112483
:10396000F701EB5AF94F6F01808180FD15C0065EAB
:103970001F4FCD2B29F441E0C42F80E0D82FE7CF93
:10398000DF91CF911F910F91FF90EF90DF90CF903B
:10399000BF90AF909F9008958091820680FF0DC0E8
:1039A000F801848595859C012F5F3F4F873E9340AA
:1039B00009F458C0F801358724878AE18C9FF0010B
:1039C0008D9FF00D1124EB5AF94F808181FFCFCFED
:1039D000F801838581113AC0F8018285811136C0D2
:1039E0008AE18C9FF0018D9FF00D1124EB5AF94F65
:1039F00090819E7F90839C2F9F5F90FBAA24A0F8CC
:103A0000B12C8A9DF0018B9DF00D1124DF01AB5A82
:103A1000B94F8C9182FF3CC0E65AF94F87E0D8013C
:103A2000539601900D928A95E1F78AE18C9FF001FF
:103A30008D9FF00D1124DF01A75BB94F8C918E7F14
:103A40008C93EB5AF94F8081846080838AE18C9F4C
:103A5000F0018D9FF00D1124EB5AF94F80818D7F7D
:103A6000808385CFF80115861486C8010A960E94C6
:103A70004001F601808182608083F8018381811199
:103A8000A7CFF701E75BF94F808181608083A0CFEA
:103A900081E00E944A0DC9CFCF92DF92EF92FF9250
:103AA0000F931F93CF93DF93CDB7DEB766970FB613
:103AB000F894DEBF0FBECDBF07E416E0E12CF12C79
:103AC000C80143960E94450DF8018381811104C00D
:103AD00080917C068130A1F0065E1F4FEF2809F02F
:103AE0003FC0EE24E394F12CC80143960E94450D9B
:103AF000F80183818111F0CF80917C06813061F7DC
:103B00002AE12E9DC0012F9D900D11249C01275B61
:103B1000394F6901F901808180FD31C02AE12E9D74
:103B2000C0012F9D900D1124FC01EB5AF94F20810B
:103B300022FFD2CF825A994FFC01808180FD55C06F
:103B400044E060E0CE0101960E94D91244E0F80101
:103B50006081CE0101960E94E8120E946B07BCCFE3
:103B600066960FB6F894DEBF0FBECDBFDF91CF9142
:103B70001F910F91FF90EF90DF90CF900895F80183
:103B8000828542E0BE016B5E7F4F082E000C990BD0
:103B90000E9434138E899D8999838A83F8018385D5
:103BA00042E0BE016B5E7F4F082E000C990B0E9415
:103BB000FF138E899D899B838C83CE0102960E9480
:103BC000C914CE0103960E94C914CE0103960E9427
:103BD0009E1244E0F8016081CE0101960E94E81235
:103BE000F60180818E7F808399CF44E050E06BEBBB
:103BF00074E0CE0101960E94A62244E0F8016081A3
:103C0000CE0101960E94E8120E947B0765CF809149
:103C10007E06882319F180917C06813051F10E9443
:103C2000961C80917C06813009F008950E944C1DFD
:103C300080917C068130C9F78AE596E00E94450DA7
:103C40008091820680FD18C084E796E00E94450DB1
:103C50008091820680FFE9CF0C94570D0E9437199E
:103C600080917E068F5F80937E0680917C068130F6
:103C7000B1F60E94E719D3CF0E94570DE5CFEF921E
:103C8000FF920F931F93CF93DF93CDB7DEB72A97A1
:103C90000FB6F894DEBF0FBECDBF88EB96E00E9452
:103CA000450D80917D06811181C086E0E0E8F0E05D
:103CB000DE01119601900D928A95E1F7298121602C
:103CC00029833A814B815C816D817E8180914F0691
:103CD0000E943B0829813A814B815C816D817E8104
:103CE000809169060E943B0880917D068F5F8093DA
:103CF0007D0680E991E09093BB068093BA0680919F
:103D0000BF069091C006892B21F08091BC0681FDF1
:103D100018C083E00E944C0910E081112CC08091F2
:103D2000820680FD40C0812F2A960FB6F894DEBF30
:103D30000FBECDBFDF91CF911F910F91FF90EF90FC
:103D400008958D7F8093BC0680FF52C08E010F5F67
:103D50001F4FB8018091C1069091C2060E94C30E08
:103D600044E064E0C8010E94E81283E00E944C092C
:103D700010E08823A1F283E00E94600980917D0613
:103D80008F5F80937D068330E1F1853009F4AFC009
:103D900010E080E590E00E944B070E945007809160
:103DA000820680FFC0CF0E94570DBDCF813081F1C8
:103DB0008230D1F1833009F447C0843009F09FCFBD
:103DC00007E416E08BE7E82E86E0F82EF8018681FE
:103DD0000E944C09811168C0F80187810E944C093A
:103DE00081113EC0065E1F4FE016F10679F787CFBE
:103DF00044E060E08E010F5F1F4FC8010E94D9129E
:103E0000AFCF81E090E09093C0068093BF06C0CF13
:103E100044E060E087EB94E00E94E81280917D0628
:103E20008F5F80937D066BCFBE016F5F7F4F809168
:103E30000106909102060E94C30E44E064E0CE01A8
:103E400001960E94E8125BCF44E060E083EB94E0CF
:103E50000E94E81280917D068F5F80937D064FCF90
:103E6000F80187810E946009F80187810E94F909A1
:103E7000882309F451C081E00E944A0D8091C10657
:103E80009091C20601969093C2068093C10620913C
:103E9000C5063091C606821793070CF4A3CF309362
:103EA000C2062093C1069ECFF80186810E94600958
:103EB000F80186810E94F909882339F181E00E9486
:103EC0004A0D8091C1069091C20601979093C20657
:103ED0008093C1062091C3063091C4062817390784
:103EE0000CF47ACF3093C2062093C10675CF46E01A
:103EF00050E064E070E081EC96E00E94CE221092E7
:103F0000C0061092BF0611E044CF8BE490E00E94FF
:103F10004B070E945007D2CF8BE490E00E944B07E2
:103F20000E945007A8CF1F93CF93DF93CDB7DEB782
:103F30002A970FB6F894DEBF0FBECDBF80917F06E3
:103F4000811135C086E0E0E8F0E0DE0111960190D5
:103F50000D928A95E1F72981216029833A814B816D
:103F60005C816D817E8180914F060E943B08298192
:103F70003A814B815C816D817E81809169060E94CE
:103F80003B0880917F068F5F80937F0610E083E07F
:103F90000E944C09811117C0812F2A960FB6F89400
:103FA000DEBF0FBECDBFDF91CF911F91089581304D
:103FB000C9F0823019F111E0833041F783E00E94AB
:103FC0004C09882349F383E00E94600980917F06B1
:103FD0008F5F80937F068BE490E00E944B070E94E6
:103FE0005007DACF44E060E087EB94E00E94E812EB
:103FF00080917F068F5F80937F06C8CFBE016F5F81
:104000007F4F80910106909102060E94C30E44E00A
:1040100064E0CE0101960E94E812B8CF052E97FB0E
:104020001EF400940E94252057FD07D00E942D20E9
:1040300007FC03D04EF40C94252050954095309504
:1040400021953F4F4F4F5F4F089590958095709504
:1040500061957F4F8F4F9F4F0895A1E21A2EAA1BA3
:10406000BB1BFD010DC0AA1FBB1FEE1FFF1FA21728
:10407000B307E407F50720F0A21BB30BE40BF50B25
:10408000661F771F881F991F1A9469F760957095AE
:10409000809590959B01AC01BD01CF0108955058CA
:1040A000BB27AA270E9467200C94E1210E94D321FC
:1040B00038F00E94DA2120F039F49F3F19F426F4F9
:1040C0000C94D0210EF4E095E7FB0C94CA21E92F63
:1040D0000E94F22158F3BA17620773078407950705
:1040E00020F079F4A6F50C9414220EF4E0950B2E32
:1040F000BA2FA02D0B01B90190010C01CA01A0013A
:104100001124FF27591B99F0593F50F4503E68F194
:104110001A16F040A22F232F342F4427585FF3CFD5
:10412000469537952795A795F0405395C9F77EF4A6
:104130001F16BA0B620B730B840BBAF09150A1F0EF
:10414000FF0FBB1F661F771F881FC2F70EC0BA0F75
:10415000621F731F841F48F4879577956795B795FD
:10416000F7959E3F08F0B0CF9395880F08F09927F8
:10417000EE0F9795879508950E94A62108F481E097
:1041800008950E94D5200C94E1210E94DA2158F074
:104190000E94D32140F029F45F3F29F00C94CA21FA
:1041A00051110C9415220C94D0210E94F22168F335
:1041B0009923B1F3552391F3951B550BBB27AA27E0
:1041C00062177307840738F09F5F5F4F220F331F1A
:1041D000441FAA1FA9F335D00E2E3AF0E0E832D0E2
:1041E00091505040E695001CCAF72BD0FE2F29D0E5
:1041F000660F771F881FBB1F261737074807AB07B7
:10420000B0E809F0BB0B802DBF01FF2793585F4F2B
:104210003AF09E3F510578F00C94CA210C94152277
:104220005F3FE4F3983ED4F3869577956795B7950D
:10423000F7959F5FC9F7880F911D9695879597F918
:104240000895E1E0660F771F881FBB1F6217730791
:104250008407BA0720F0621B730B840BBA0BEE1FA6
:1042600088F7E09508950E943A216894B1110C9462
:10427000152208950E94FA2188F09F5798F0B92FCF
:104280009927B751B0F0E1F0660F771F881F991F8B
:104290001AF0BA95C9F714C0B13091F00E941422F7
:1042A000B1E008950C941422672F782F8827B85F07
:1042B00039F0B93FCCF3869577956795B395D9F7E3
:1042C0003EF490958095709561957F4F8F4F9F4FED
:1042D0000895E89409C097FB3EF4909580957095F9
:1042E00061957F4F8F4F9F4F9923A9F0F92F96E942
:1042F000BB279395F695879577956795B795F111B7
:10430000F8CFFAF4BB0F11F460FF1BC06F5F7F4F53
:104310008F4F9F4F16C0882311F096E911C0772365
:1043200021F09EE8872F762F05C0662371F096E86E
:10433000862F70E060E02AF09A95660F771F881F3D
:10434000DAF7880F9695879597F90895990F0008E1
:10435000550FAA0BE0E8FEEF16161706E807F90757
:10436000C0F012161306E407F50798F0621B730BF2
:10437000840B950B39F40A2661F0232B242B252B73
:1043800021F408950A2609F4A140A6958FEF811D16
:10439000811D089597F99F6780E870E060E00895B7
:1043A0009FEF80EC089500240A941616170618064D
:1043B0000906089500240A94121613061406050629
:1043C0000895092E0394000C11F4882352F0BB0FBA
:1043D00040F4BF2B11F460FF04C06F5F7F4F8F4F1D
:1043E0009F4F089557FD9058440F551F59F05F3F58
:1043F00071F04795880F97FB991F61F09F3F79F007
:1044000087950895121613061406551FF2CF469588
:10441000F1DF08C0161617061806991FF1CF86950A
:104420007105610508940895E894BB2766277727EE
:10443000CB0197F908950E94A62108F48FEF089503
:104440000E9433220C94E1210E94D32138F00E9473
:10445000DA2120F0952311F00C94CA210C94D0217C
:1044600011240C9415220E94F22170F3959FC1F340
:10447000950F50E0551F629FF001729FBB27F00D12
:10448000B11D639FAA27F00DB11DAA1F649F662767
:10449000B00DA11D661F829F2227B00DA11D621FB6
:1044A000739FB00DA11D621F839FA00D611D221F70
:1044B000749F3327A00D611D231F849F600D211D54
:1044C000822F762F6A2F11249F5750409AF0F1F0D7
:1044D00088234AF0EE0FFF1FBB1F661F771F881F40
:1044E00091505040A9F79E3F510580F00C94CA218D
:1044F0000C9415225F3FE4F3983ED4F386957795AC
:104500006795B795F795E7959F5FC1F7FE2B880FE5
:10451000911D9695879597F908956817790768F41E
:10452000FB01DC01E40FF51FA40FB51F02C00290D0
:104530000E9241505040D8F708950C94B522DC01FA
:1045400001C06D9341505040E0F70895FB01DC013C
:104550004150504048F001900D920020C9F701C031
:104560001D9241505040E0F70895FB01DC0102C06C
:1045700001900D9241505040D8F70895DC01CB01D5
:10458000FC01E199FECF06C0FFBBEEBBE09A31967D
:104590000DB20D9241505040B8F70895DC01A40FC0
:1045A000B51F4150504048F0CB01840F951F2E910C
:1045B0000E94DF2241505040D0F70895262FE19904
:1045C000FECF9FBB8EBBE09A01970DB2021631F071
:1045D0002DBB0FB6F894E29AE19A0FBE0895F894B5
:0245E000FFCF0B
:1045E200D314D514D714D914DB14DD14DF14E11459
:1045F200E314E514E714E914EB14ED14EF14F114C9
:1046020000000000000000000000000000000000A8
:104612000000000000000073986EB777F3603F550A
:10462200FBE03F50C22840910A614060AB8C40469B
:10463200D3A8400DFDC440B728E1404356FD40D900
:10464200C20C4181DB1A41F1F42841910F3741023A
:104652002B4541AE475341C36461417B836F419C0B
:10466200A27D417CE1854113F28C41120394417B8E
:10467200149B418126A2412439A941FB4BB04170D0
:104682005FB7414D73BE41C887C541AC9CCC41F96F
:10469200B1D341E3C7DA4135DEE141F1F4E8411536
:1046A2000CF041D723F741363CFE4165AA0242FD98
:1046B200360642CAC30942E5500D4235DE1042D4E5
:1046C2006B14428CF9174294871B42EA151F4274FD
:1046D200A422423333264227C2294268512D42F98D
:1046E200E03042A47034429D003842E5903B426281
:1046F200213F4213B24242F84246422CD44942AFD1
:10470200654D424CF7504252895442711B5842E067
:10471200AD5B4283405F4275D362429B6666421044
:10472200FA69429F8D6D4296217142A8B574422367
:104732004A7842B8DE7B429C737F42678481420E94
:104742004F8342E8198542D0E48642DFAF884216A1
:104752007B8A4266468C42D1118E4264DD8F4210C2
:10476200A99142D7749342D2409542DA0C974209FA
:10477200D9984253A59A42C4719C424F3E9E42022E
:104782000BA042CFD7A142C3A4A342D171A5420735
:104792003FA742570CA942C1D9AA4252A7AC420B29
:1047A20075AE42D142B042CB10B242E0DEB3420E0D
:1047B200ADB542647BB742D549B9426C18BB421EC3
:1047C200E7BC42EAB5BE42EA84C042F853C2422D77
:1047D20023C44289F2C542FFC1C7426891C9424817
:1047E20061CB422731CD420601CF4268D1D0424847
:1047F200A1D242AA71D4428F42D642F212D842D7F3
:10480200E3D942BCB4DB42A285DD428756DF42F0E7
:1048120027E14258F9E242C1CAE442AC9CE642981E
:104822006EE8428340EA426F12EC425AE4ED42C91A
:10483200B6EF423789F142A65BF342982EF54289E0
:1048420001F7427BD4F8426DA7FA42E17AFC42D3E7
:104852004DFE42A4100043A0FA00435AE40143561D
:10486200CE024352B803434EA204438B8C0543C984
:1048720076064306610743444B0843C33509434266
:10488200200A43C10A0B433FF50B4300E00C43C12E
:10489200CA0D4381B50E4383A00F43448B10434698
:1048A200761143486112438B4C1343CF37144312A2
:1048B200231543560E16439AF916431FE51743A4D0
:1048C200D0184329BC1943F0A71A43B6931B437D62
:1048D2007F1C43446B1D434C571E4354431F435C90
:1048E2002F2043641B2143AE072243F8F3224342A5
:1048F200E02343CDCC244317B92543A2A526436F19
:10490200922743FA7E2843C76B294393582A436070
:10491200452B436F322C437D1F2D438B0C2E439A24
:10492200F92E43E9E62F4339D4304389C13143D9C3
:10493200AE32436A9C3343FC8934438D77354360FE
:104942006536433353374306413843D92E3943EE54
:104952001C3A43020B3B4317F93B432BE73C438191
:10496200D53D43D7C33E432DB23F43C5A040435C30
:104972008F4143F47D42438B6C4343645B4443FC6D
:1049820049454317394643F02747430A1748432509
:104992000649433FF549435AE44A43B6D34B4312CF
:1049A200C34C43B0B24D430CA24E43AA914F43486D
:1049B2008150432771514306615243E5505343C529
:1049C200405443A4305543C5205643E5105743484D
:1049D20001584368F15843CBE159436FD25A43D14E
:1049E200C25B4375B35C4319A45D43BC945E43A2AE
:1049F200855F43877660436D6761435258624379AE
:104A0200496343A03A6443C72B65432F1D6643980D
:104A12000E6743000068431582079BF3698279B7EA
:104A22002900003DF182293937071979110500F172
:104A3200116D007A792D00EB8229009B1B0779EB1F
:104A4200716500EB82D9DAB27A3BC2FBF200000058
:104A52000000000000000000000000000000000054
:104A62000000000000000000000000000000000044
:104A72000000000000000000000000000000000034
:0E4A8200000000000000000000000000000026
:00000001FF
