:100000000C942A000C9447000C9447000C94470071
:100010000C9447000C9447000C9447000C94470044
:100020000C9447000C9447000C94B1190C944700B1
:100030000C9447000C9447000C9447000C94470024
:100040000C9447000C9447000C9447000C94470014
:100050000C94470011241FBECFE5D8E0DEBFCDBF12
:1000600013E0A0E6B0E0EEEFF7E402C005900D92D9
:10007000AA30B107D9F725E0AAE0B3E001C01D928C
:10008000A232B207E1F70E94D9160C94FD230C941A
:1000900000008F929F92AF92BF92CF92DF92EF9229
:1000A000FF920F931F93CF93DF93AC014B0197FD0A
:1000B0007BC0FB01DB0180E090E07DECA72ECDEC66
:1000C000DCEC15E0B12E352F330F330B132F1370EB
:1000D000042F02950F70242F2F70200F052F0F7003
:1000E000200F052F02950F70200F210F2A9D112D33
:1000F0001124012F069506951C7F100F211B3C7FB4
:10010000230F322F330F330B7A01E21AF30AEC9EDE
:100110008001ED9E100DFC9E100D1124780161E010
:10012000E62260E8F62217FF08C0EA946EEFE62A9E
:100130006FEFF62E6FEFE61AF60ABE9C6001BF9CC9
:10014000D00C11242C0D17FF02C00F5F1F4F7C0134
:1001500001962D939A01A801559547952A303105AE
:100160000CF0B1CF9C01359527952115310579F01B
:10017000D4011196AE0DBF1DB401620F731F219102
:100180003E91EF013A932C93E617F707C1F7DF9101
:10019000CF911F910F91FF90EF90DF90CF90BF9084
:1001A000AF909F908F90089580E090E0F0CFAF9255
:1001B000BF92CF92DF92EF92FF920F931F93CF9354
:1001C000DF9300D00F92CDB7DEB77C016A837B83CB
:1001D00049830E94AB232A813B8128173907D8F134
:1001E00012161306C4F5F70180E090E007C03196BF
:1001F00001962A813B812817390769F12081211155
:10020000F6CF009741F12A813B812817390719F170
:10021000F901EE0DFF1D10826901C81AD90AC9F053
:10022000C2F000E010E0570131E0A31AB1084A81A2
:100230005B81B501C7010E9492230F5F1F4F0C1510
:100240001D05A9F78981682F70E0A801C7010E94E8
:10025000A42381E001C080E00F900F900F90DF9108
:10026000CF911F910F91FF90EF90DF90CF90BF90B3
:10027000AF90089540E30C94D70040E20C94D7006F
:1002800090BD89B988E08AB988E18AB986E880BDDD
:1002900008955D9BFECF8CB908955F9BFECF8CB116
:1002A00008951F920F920FB60F9211242F933F9330
:1002B0004F935F936F937F938F939F93AF93BF936E
:1002C000EF93FF930E94BB05FF91EF91BF91AF9118
:1002D0009F918F917F916F915F914F913F912F915E
:1002E0000F900FBE0F901F901895FC0190819115F3
:1002F00039F031965D9BFECF9CB991919111FACF67
:100300000895FC019081911539F031965D9BFECFE7
:100310009CB991919111FACF5D9BFECF8AE08CB987
:100320000895FC018491811539F05D9BFECF8CB955
:10033000319684918111F9CF0895FC018491811542
:1003400039F05D9BFECF8CB9319684918111F9CF44
:100350005D9BFECF8AE08CB908950895FC019181E0
:10036000911109C08081811581F09BE391838150B7
:10037000808380E0089591509183911541F481E04C
:100380009081911519F080E0089581E008950CF0B6
:10039000FACF8081EACFFC01818190818B3381F09B
:1003A0009B331CF089F081E0089521E0280F218320
:1003B0008B53843418F411829F5F908380E00895FA
:1003C0009B33CCF381E008958C336CF791E0980F68
:1003D000918381E09B3391F70895CF93DF9300D011
:1003E00000D0CDB7DEB719821A821B821C828091A1
:1003F0000C0390910D03892B41F544B185B12091F7
:10040000980430919904F901EE0FFF1FE15DFC4F54
:10041000408381832F5F3F4F2E31310560F420935D
:1004200098043093990480E00F900F900F900F90F4
:10043000DF91CF910895109298041092990481E071
:1004400080930C0310920D03EECF9E012F5F3F4F60
:100450004EE150E06FE273E08AE193E00E947002A7
:10046000811509F369817A818B819C810E944A22DE
:100470006733710548F48091140390911503019638
:1004800080931403909315038091100390911103AE
:10049000019682309105FCF0109210031092110326
:1004A00081E02091140330911503223031050CF4C2
:1004B00080E080934504109214031092150310926B
:1004C0000C0310920D0381E00F900F900F900F908E
:1004D000DF91CF9108958093100390931103EFCF94
:1004E000CF93DF93CDB7DEB767970FB6F894DEBF33
:1004F0000FBECDBF8E8B9F8BFB014F8358872D8303
:100500003E83DC018C91813008F062C011961D920F
:100510001D92139781E08C9321E02D831E82198216
:100520001A821B821C826081718180E090E00E94AF
:10053000732229813A814B815C810E946021698309
:100540007A838B839C83AE89BF8913966D937D9349
:100550008D939D931797ED81FE812F813885E2174A
:10056000F30708F4AAC0F90111961D921D92BF016C
:10057000FF0F880B982F0E9475229B01AC016981A7
:100580007A818B819C810E94D121AE89BF8913968B
:100590006D937D938D939D931D921D921D921D923F
:1005A0001B97FD0113861486158616861F961D92CD
:1005B0001D921D921D92539782E08C9380E0679666
:1005C0000FB6F894DEBF0FBECDBFDF91CF91089577
:1005D00009F4FBC0823091F7AE89BF8911960D9066
:1005E000BC91A02DAA8BBB8BCD01880F991F9B01BD
:1005F000280F391F2C8B3D8BD9016D917D9180E0A7
:1006000090E00E9473226B877F87888B998BAE89DD
:10061000BF8913968D919D910D90BC91A02D8983DA
:100620009A83AB83BC83262F3F854889598969818A
:100630007A818B819C810E94CC2187FD42C06B8591
:100640007F85888999899B01AC0169817A818B8139
:100650009C810E942023181614F5EE89FF8981855C
:1006600092850196818792872B853F854889598994
:1006700069817A818B819C810E945F219B01AC0101
:10068000AE89BF891F966D917D918D919D910E943C
:100690006021EE89FF896787708B818B928B8A89B5
:1006A0009B8901962F81388582179307A8F5AE891B
:1006B000BF8911968D939D9381CF1196ED93FD93F4
:1006C0007DCFEE89FF89878190850196878390870A
:1006D00029813A814B815C816B857F8588899989E5
:1006E0000E945F219B01AC01AE89BF891B966D9171
:1006F0007D918D919D910E946021EE89FF89638794
:10070000748785879687AC89BD896D917D9180E0DE
:1007100090E00E94732297CFEE89FF8911821282A6
:100720001082B901330F880B982F0E9475226F83B6
:10073000788789879A87AE89BF891F962D913D91C9
:100740004D915D9118976D917D918D919D910E9434
:1007500060216B877C878D879E87EE89FF89678103
:10076000708581859285681B790B872F880F880B90
:10077000982F0E9475229B01AC016B857C858D852D
:100780009E850E9425236B877C878D879E872F817E
:10079000388549855A85B901CA010E9425239B01E4
:1007A000AC016B857C858D859E850E94D121298138
:1007B0003A814B815C810E946021AD81BE816D9345
:1007C0007D938D939D9381E0FACEAE89BF89139678
:1007D0008D919D910D90BC91A02D89839A83AB83BF
:1007E000BC83AE89BF8911968D919D919C01220F8A
:1007F000331FE20FF31F9C012F5F3F4F2D833E837A
:1008000092CE8091920380FD06C0809191039091D9
:100810009003891B08958091920381FF07C09091F6
:10082000910380919103805E891B089590919003BC
:1008300080919103805E891B0895E0919103F0E01F
:10084000E059FC4F80838091920380FD10C080911D
:1008500091038F5F80939103803209F00895109285
:100860009103809192038160809392030895909107
:100870009103809190039813EACF80919203826054
:1008800080939203E4CFE0919003F0E0E059FC4FB5
:100890008081909190039F5F90939003909190033B
:1008A0009F7190939003209190039091910329134D
:1008B0000895909192039E7F90939203909192035A
:1008C0009D7F909392030895CF93DF930F92CDB7BE
:1008D000DEB7DC01862F611511F19091920390FD36
:1008E00022C0AD01460F511DE0919003F0E0E059A8
:1008F000FC4F3081909190039F5F90939003909173
:1009000090039F7190939003209190039091910395
:10091000291709F471C03D93A417B50729F70F9063
:10092000DF91CF91089590919203946090939203F8
:100930009091920391FD96C020919003298390E2BB
:10094000921B981708F068C0AD0130E0203239F4EE
:10095000B0C0FA017083391738F54F5F5F4F3F5FC2
:10096000E0919003F0E0E059FC4F708120919003FA
:100970002F5F20939003209190032F712093900379
:1009800060919003209191036213E3CF2091920331
:100990002E7F20939203209192032D7F2093920328
:1009A000FA0170833917C8F229812052820F09F4A5
:1009B0007EC0890F21E0290FAD01490F511DE09143
:1009C0009003F0E0E059FC4F6081909190039F5FAD
:1009D00090939003909190039F7190939003309126
:1009E000900390919103391709F441C0FA01608393
:1009F000281779F1922FDECF909192039E7F9093EA
:100A00009203909192039D7F909392033D934A1796
:100A10005B0709F069CF83CFAD01480F511DE0910D
:100A20009003F0E0E059FC4F3081909190039F5F7C
:100A300090939003909190039F71909390032091D5
:100A4000900390919103291711F13D93A417B507D5
:100A500031F7909192039B7F909392030F90DF91D7
:100A6000CF910895909191039093900365CF9091C9
:100A700092039E7F90939203909192039D7F909317
:100A80009203FA016083281721F3922F93CF90915C
:100A900092039E7F90939203909192039D7F9093F7
:100AA00092033D93A417B50709F0B9CFD2CF892F90
:100AB000D0CF90E07ECF8091920380FD17C0E0916F
:100AC0009003F0E0E059FC4F8081909190039F5F8C
:100AD00090939003909190039F7190939003209135
:100AE0009003909191032917B1F108958091920399
:100AF0008460809392038091920381FD37C0E091DE
:100B00009003F0E0E059FC4F8081909190039F5F4B
:100B100090939003909190039F71909390032091F4
:100B2000900390919103291731F0909192039B7F4C
:100B3000909392030895909192039E7F90939203D5
:100B4000909192039D7F90939203909192039B7F4B
:100B5000909392030895909192039E7F90939203B5
:100B6000909192039D7F90939203089580919103B9
:100B700080939003C4CF2CB180919203E0916F03D6
:100B800082FD93C01E160CF06AC08E2FEE0F990BDB
:100B900030916B03E0919103F0E0E059FC4F30831A
:100BA0003091920330FDB5C0309191033F5F309397
:100BB0009103303239F410929103309192033160F5
:100BC000309392038130910509F447C030916C0352
:100BD000E0919103F0E0E059FC4F308330919203B3
:100BE00030FD77C0309191033F5F309391033032F5
:100BF00009F467C08230910581F130916D03E09175
:100C00009103F0E0E059FC4F30833091920330FDC6
:100C100074C0309191033F5F30939103303209F4F7
:100C200064C00397D1F080916E03E0919103F0E0EE
:100C3000E059FC4F80838091920380FD76C08091C3
:100C400091038F5F80939103803239F41092910366
:100C50008091920381608093920310926F03E091E0
:100C60009103F0E0E059FC4F20838091920380FDD6
:100C700010C0809191038F5F80939103803209F0BF
:100C80000895109291038091920381608093920362
:100C9000089590919103809190039813EACF8091E9
:100CA0009203826080939203E4CF81E08E0F809361
:100CB0006F03E370FE2FFF0FFF0BE559FC4F2083FE
:100CC0000895109291033091920331603093920312
:100CD00091CF4091910330919003431383CF309192
:100CE00092033260309392037DCF10929103309142
:100CF000920331603093920394CF409191033091ED
:100D00009003431386CF3091920332603093920365
:100D100080CF4091910330919003431345CF3091A0
:100D200092033260309392033FCF90919103809170
:100D30009003981384CF80919203826080939203F2
:100D40007ECF8827B49983950895C49ABC9881EA88
:100D500096E080939503909396038FE99FE0019727
:100D6000F1F700C00000E0919503F091960309951A
:100D70009091940380FB91F980FB92F9892F886010
:100D8000809394030895CF93DF9300D000D0CDB724
:100D9000DEB78091940380FF0FC08091930391E0B0
:100DA000980F843061F1909393030F900F900F9000
:100DB0000F90DF91CF910895E0919503F091960304
:100DC00009959091940392FB552750F959831A8203
:100DD00029813A81082E001C00088217030629F396
:100DE00080FB882782F981609A7F892B8093940306
:100DF0000F900F900F900F90DF91CF910895109268
:100E00009303E0919503F09196030995282F2170A3
:100E10009091940392FB332730F93B831C824B81E2
:100E20005C81082E001C00088417050681F020FB59
:100E300092F990939403809194038E7F809394030E
:100E40000F900F900F900F90DF91CF91089520FB9E
:100E500091F9986090939403EECFDC019D96ED910B
:100E6000FD912C9181E001C0880F2A95EAF79081CD
:100E7000613021F08095892380830895892B8083B8
:100E80000895FC0180A191A182A393A3A5A5B6A575
:100E90001816190654F48C9197A521E001C0220F71
:100EA0009A95EAF7822B8C9308952C9137A581E0CF
:100EB00001C0880F3A95EAF7809582238C930895B4
:100EC000EF92FF920F931F93CF93DF9300D000D048
:100ED00000D0CDB7DEB78D839E83FC0182819381E4
:100EE000860F971F82839383E084F184E816F906C6
:100EF00044F0ED81FE81E284F3848E159F050CF0B1
:100F000077C0E282F382ED81FE81848195818B013D
:100F1000081B190B0683178364837583872F880F3B
:100F2000880B982F0E947522ED81FE8122893389DA
:100F3000448955890E94252369837A838B839C8306
:100F4000B701FF0C880B982F0E947522ED81FE815E
:100F500026893789408D518D0E9425239B01AC0144
:100F600069817A818B819C810E94602169837A8367
:100F70008B839C83B801110F880B982F0E947522D8
:100F8000ED81FE81228D338D448D558D0E94252368
:100F90009B01AC0169817A818B819C810E946021D7
:100FA0000E944322ED81FE8120893189269FA00184
:100FB000279F500D369F500D112440A351A3248527
:100FC0003585241735072CF02685378542175307BA
:100FD00014F420A331A30F900F900F900F900F9057
:100FE0000F90DF91CF911F910F91FF90EF90089597
:100FF0007C0189CFEF92FF920F931F93CF93DF93E2
:1010000000D000D000D0CDB7DEB78D839E83FC0129
:1010100082819381860F971F82839383E084F1847A
:10102000E816F90644F0ED81FE81E284F3848E1522
:101030009F050CF05FC0E282F382ED81FE81848126
:1010400095818B01081B190B0683178364837583B5
:10105000872F880F880B982F0E947522ED81FE81C3
:1010600022893389448955890E94252369837A839B
:101070008B839C83B701FF0C880B982F0E947522ED
:10108000ED81FE8126893789408D518D0E9425236F
:101090009B01AC0169817A818B819C810E946021D6
:1010A00069837A838B839C83B801110F880B982FF7
:1010B0000E947522ED81FE81228D338D448D558DE8
:1010C0000E9425239B01AC0169817A818B819C81DF
:1010D0000E9460210E944322CB010F900F900F903D
:1010E0000F900F900F90DF91CF911F910F91FF9074
:1010F000EF9008957C01A1CFFC01268D378D2F5FE5
:101100003F4F268F378F84A14485558587FD17C0B3
:1011100062A173A11616170694F4813060F481A5BC
:1011200092A52817390768F0168E178E21E024A3A0
:1011300020E030E006C019F42617370768F581A5CE
:1011400092A5840F951F43A554A5840F951F2817BA
:10115000390708F40895168E178E14A280A191A164
:1011600082A393A3A5A5B6A51816190654F48C91CD
:1011700097A521E001C0220F9A95EAF7822B8C9364
:1011800008952C9137A581E001C0880F3A95EAF7C0
:10119000809582238C9308956417750784F6A5A51E
:1011A000B6A52C9137A581E001C0880F3A95EAF7E2
:1011B000809582238C93268D378D81A592A54485B9
:1011C0005585BFCFEF92FF920F931F93CF93DF937D
:1011D00000D000D000D0CDB7DEB78D839E83FC0158
:1011E00082819381860F971F82839383E084F184A9
:1011F000E816F90644F0ED81FE81E284F3848E1551
:101200009F050CF088C0E282F382ED81FE8184812B
:1012100095818B01081B190B0683178364837583E3
:10122000872F880F880B982F0E947522ED81FE81F1
:1012300022893389448955890E94252369837A83C9
:101240008B839C83B701FF0C880B982F0E9475221B
:10125000ED81FE8126893789408D518D0E9425239D
:101260009B01AC0169817A818B819C810E94602104
:1012700069837A838B839C83B801110F880B982F25
:101280000E947522ED81FE81228D338D448D558D16
:101290000E9425239B01AC0169817A818B819C810D
:1012A0000E9460210E944322ED81FE8120893189C4
:1012B000269FA001279F500D369F500D112440A35B
:1012C00051A3248535852417350714F126853785E4
:1012D00042175307ECF08091DA0480FF0CC0ED81D7
:1012E000FE8185A196A1019685A396A327A130A58D
:1012F0008217930790F40F900F900F900F900F901C
:101300000F90DF91CF911F910F91FF90EF90089573
:1013100020A331A3E0CF7C0178CF15A216A2CF0184
:101320000F900F900F900F900F900F90DF91CF9133
:101330001F910F91FF90EF900C947C08E7E9F3E088
:10134000908787836187089590939B0380939A0386
:10135000089581E0809397030895E7E9F3E03185EC
:10136000A781B0852C9181E001C0880F3A95EAF7FA
:10137000809582238C931082089583E08093970355
:101380000895E7E9F3E091850780F085E02D8081FD
:1013900021E001C0220F9A95EAF7822B80830895FD
:1013A000E7E9F3E031850780F085E02D208181E0D9
:1013B00001C0880F3A95EAF78095822380830895CB
:1013C00080919703813009F46EC080919703823039
:1013D00021F180919703833009F44DC080919703E8
:1013E000843009F008958091DA0480FFFBCF80916A
:1013F0009803909199030196909399038093980391
:1014000020919A0330919B038217930758F38091A0
:10141000970381508093970308958091DA0480FFA9
:10142000D8CF809198039091990301969093990356
:1014300080939803209198033091990380919A03A7
:1014400090919B032817390720F21092990310926C
:1014500098033091A003E0919E03F0919F032081B7
:1014600081E001C0880F3A95EAF780958223808356
:1014700010929703AECF9091A003E0919E03F0915C
:101480009F03808121E001C0220F9A95EAF782270D
:1014900080831092990310929803809197038F5F35
:1014A0008093970308959091A003E0919E03F0919B
:1014B0009F03808121E001C0220F9A95EAF7822BD9
:1014C00080831092990310929803809197038F5F05
:1014D000809397037ECF882781998395089580B361
:1014E000817008958827B3998395089588278699F0
:1014F000839508958827C9998395089586B3817047
:1015000008958827CB9983950895CF93DF9300D0D2
:1015100000D000D0CDB7DEB729833A834B835C83FC
:101520006D837E8390E1899FD0011124AF54BC4F1D
:1015300086E0FE01319601900D928A95E1F70F90B9
:101540000F900F900F900F900F90DF91CF91089513
:10155000CF93DF93CDB7DEB72C970FB6F894DEBFED
:101560000FBECDBF89988898BB988E98D198B898AF
:10157000D398E8EAF3E08BE69AE0918380838FE6E4
:101580009AE0918B808B82E79AE091A380A386E713
:101590009AE091AB80AB8AE79AE09093E90380935D
:1015A000E8038EE79AE09093F9038093F80381E8CB
:1015B0009AE09093090480930804CE01079626E0F0
:1015C000FC0111922A95E9F72F8121602F8326E0F3
:1015D000FC01DE01119601900D922A95E1F726E0BB
:1015E000FE013196A1EBB3E001900D922A95E1F74F
:1015F00026E0FC01DE01119601900D922A95E1F79B
:1016000026E0FE013196A1ECB3E001900D922A95FF
:10161000E1F726E0FC01DE01119601900D922A957A
:10162000E1F726E0FE013196A1EDB3E001900D92C5
:101630002A95E1F726E0FC01DE01119601900D925A
:101640002A95E1F726E0FE013196A1EEB3E0019084
:101650000D922A95E1F726E0FC01DE01119601903A
:101660000D922A95E1F726E0FE013196A1EFB3E055
:1016700001900D922A95E1F726E0FC01DE0111961A
:1016800001900D922A95E1F726E0FE013196A1E046
:10169000B4E001900D922A95E1F726E0FC01DE010D
:1016A000119601900D922A95E1F786E0FE013196A0
:1016B000A1E1B4E001900D928A95E1F72C960FB666
:1016C000F894DEBF0FBECDBFDF91CF910895E7EB59
:1016D000F3E080818D7F8083E7ECF3E080818D7F74
:1016E0008083E7EDF3E080818D7F8083E7EEF3E098
:1016F00080818D7F8083E7EFF3E080818D7F808321
:10170000E7E0F4E080818D7F8083E7E1F4E0808191
:101710008D7F8083089590E1899FF0011124E95421
:10172000FC4F808182FB882780F9089590E1899F92
:10173000F0011124E954FC4F808186958170089551
:1017400090E1899FF0011124E954FC4F808182606F
:101750008083089590E1899FF0011124E954FC4FA2
:1017600080818D7F8083089590E1899FF00111240D
:10177000E855FC4F0280F381E02D099490E1890245
:10178000F0011124E954FC4F80818170089590E1AB
:101790008902F0011124E954FC4F808185FB8827E0
:1017A00080F9089590E18902F0011124E954FC4F79
:1017B00080818F7D80830895EF92FF920F931F9316
:1017C000CF93DF9306E010E00CC0E881F981099522
:1017D000811103C08C818F5F8C830150110908F443
:1017E00040C08AE18A95F1F700C07801E294F29452
:1017F00080EFF822FE24E822FE24E701C855DC4FE2
:101800008C81811511F38C818130C9F08C818230FB
:1018100079F18C81833009F78D818F5F8D838130E1
:10182000E1F61D82E881F9810995813041F5F701E2
:10183000E954FC4F80818E7F80831C82CECF8D81C6
:101840008F5F8D83813049F61D82E881F98109958A
:10185000811115C0F701E954FC4F808181608083BC
:10186000B9CFDF91CF911F910F91FF90EF90089525
:10187000E881F9810995813009F0AFCFABCF8C8138
:1018800081508C83AACF90E18902F0011124E855A0
:10189000FC4F968181E0983009F0089580E008952A
:1018A0000F931F93CF93DF9320E030E079E0AAE01D
:1018B00063E042E05BE052C0FC01E855FC4FB681BA
:1018C000B93009F49AC0FC01E855FC4FB681BA3032
:1018D00009F4A4C0FC01E855FC4FB681B63009F408
:1018E000B2C0FC01E855FC4FB681B73039F4EC01C9
:1018F000C954DC4FB881B260B8834683FC01E85517
:10190000FC4FB681B43009F417C1FC01E855FC4F17
:10191000B681B53009F4E0C0FC01E855FC4FB68152
:10192000B13009F4D1C0FC01E855FC4FB681B230AA
:1019300009F4BFC0FC01E855FC4FB681B33009F48F
:10194000B0C0FC01E855FC4FB681BB3009F486C03D
:101950002F5F3F4F2730310509F49EC0C9018295A2
:101960009295907F9827807F9827FC01E855FC4F3F
:10197000B681B11113C0B685B11541F0E685F0E02E
:10198000EF55FC4FE081E13009F436C1EC01C95458
:10199000DC4FE881BE2FB170E0FD04C1FC01E855C9
:1019A000FC4FB681B83068F0B681BB3050F4EC0122
:1019B000C954DC4FB881B0FD04C010861782B3E073
:1019C000B683FC01E855FC4FB681B83009F074CFFE
:1019D000C781D0852196D087C78302851385C0171C
:1019E000D10708F469CF108617827683FC01E85589
:1019F000FC4FB681B93009F066CFEC01C954DC4F19
:101A0000B881B1FD60CFB881B260B883A683FC0114
:101A1000E855FC4FB681BA3009F05CCFC781D0855C
:101A20002196D087C78304851585C017D10708F490
:101A300051CF108617827683FC01E855FC4FB681A2
:101A4000B63009F04ECFEC01C954DC4FB881B0FD7F
:101A500048CFB881B260B883668343CFB685B115ED
:101A600059F0E685F0E0EF55FC4F1082FC01E95497
:101A7000FC4FB081B77FB083FC01E855FC4F168264
:101A8000FC01E954FC4F80818F7E80832F5F3F4FA4
:101A90002730310509F062CFDF91CF911F910F916F
:101AA0000895EC01C954DC4FB881B1FD4ACF56838B
:101AB00048CFEC01C954DC4FB881B0FD3BCFB881B1
:101AC000BD7FB883568336CFEC01C954DC4FB88153
:101AD000B0FD29CF668327CFC781D0852196D087D7
:101AE000C783EC01C954DC4FB881B0FD0FC007813A
:101AF00010850333110550F410861782B881B26047
:101B0000B883B881BB7FB883B3E0B683FC01E855E6
:101B1000FC4FC781D085CB34D10508F4FDCE1086AB
:101B20001782EC01C954DC4FB881B260B883B88128
:101B3000B460B8834683F0CEC781D0852196D08724
:101B4000C783EC01C954DC4FB881B0FD0FC00781D9
:101B500010850333110550F410861782B881B260E6
:101B6000B883B881BB7FB883B3E0B683FC01E85586
:101B7000FC4FC781D085E39708F4C7CE1086178243
:101B8000EC01C954DC4FB881B260B883B881B4604D
:101B9000B883EC01CF54DC4FB881B1FD2AC0B1E06D
:101BA000B683B3CEFC01EF54FC4F108110FF2BC065
:101BB000188112601883E081E1FD36C0FC01E85510
:101BC000FC4FB683FC01E954FC4FB081B061B08397
:101BD000EC01C855DC4FBE85B11509F4DFCECE85CA
:101BE000D0E0CF55DC4FB1E0B883B081B860B083AE
:101BF000D5CEBAE0B68389CEFC01E954FC4FE08132
:101C0000E3FDC4CECBCEB081B2FF02C0B6E0D6CFEA
:101C1000B081B3FD0FC0B081B4FF12C0B4E0FC01CD
:101C2000E855FC4FB683CECFB8E0FC01E855FC4F39
:101C3000B683C8CFB7E0FC01E855FC4FB683C2CFEE
:101C4000E081E5FFBFCFB5E0FC01E855FC4FB6836E
:101C5000E881E062E883B6CF0E94DC0B0C94500C64
:101C60008091B70380FD19C08091C70380FD15C026
:101C70008091D70380FD11C08091E70380FD0DC0E6
:101C80008091F70380FD09C08091070480FD05C0A5
:101C90008091170480958170089580E00895E7EBA6
:101CA000F3E080818D7F8083E7ECF3E080818D7F9E
:101CB0008083E7EDF3E080818D7F8083E7EEF3E0C2
:101CC00080818D7F8083E7EFF3E080818D7F80834B
:101CD000E7E0F4E080818D7F8083E7E1F4E08081BC
:101CE0008D7F808308958091B70384FD1AC0809111
:101CF000C70384FD16C08091D70384FD12C0809174
:101D0000E70384FD0EC08091F70384FD0AC0809133
:101D1000070484FD06C08091170482958395817025
:101D2000089580E0089580932704909328040895EF
:101D3000CF93DF93CDB7DEB72A970FB6F894DEBF07
:101D40000FBECDBF8091410480FD28C08091430427
:101D500018160CF45FC08091450418160CF45AC094
:101D60008091470418160CF455C080913E04E82F6A
:101D7000EE0FFF0BEE5BFB4F90819130A0F5E82F4B
:101D8000EE0FFF0BE25CFB4F958119160CF45CC063
:101D90008F5F8330E4F110923E0427C091E0809180
:101DA000430481112EC0809145048111DECF8091C2
:101DB00047048111DACF9130C1F60E94AD098091BC
:101DC00041048E7F8093410488E0ECE2F4E0AFE5CB
:101DD000B4E001900D928A95E1F7F89488E181BD15
:101DE00088E081BDFFCF09F45BC080914104817020
:101DF0002A960FB6F894DEBF0FBECDBFDF91CF910C
:101E0000089590E0809145048111AFCFD0CF8093A9
:101E10003E04EBCF8091410481608093410486E9C8
:101E200090E00E94A4090E94BD0960E087E694E06A
:101E30000E942D0788E0EFE5F4E0ACE2B4E0019009
:101E40000D928A95E1F791CF0E94511444E050E041
:101E500068EA72E0CE0101960E94B42344E060E09B
:101E6000CE0101960E940E1480913E048130B0F1A3
:101E7000F1F1823009F444C044E064E0CE010196FF
:101E80000E940E14E0913E04EE0FFF0BEE5BFB4F41
:101E900080818F5F808310923F0410924004A5CF11
:101EA000A82FAA0FBB0BA25CBB4F15969C9191115A
:101EB00002C010829ACF9091DA0490FF96CF2091C1
:101EC0003F04309140042F5F3F4F283E93E0390795
:101ED00000F520933F043093400487CF44E050E066
:101EE00064EA72E0CE0101960E94B423C5CF44E0BB
:101EF00050E060EA72E0CE0101960E94B423BCCFAC
:101F000044E050E06CE972E0CE0101960E94B423F7
:101F1000B3CF10923F0410924004108239CF8093C7
:101F20004804909349040895E0914804F0914904CD
:101F3000108211828170826094819C7F892B8483BE
:101F40000895E0914804F0914904808191810196BF
:101F500080839183228133818217930750F010820E
:101F600011829481892F8095817082609C7F892B5A
:101F70008483089597B18F71907E892B87B90895D6
:101F800097B18295880F880F807C9F73892B87B9C2
:101F9000089596B1987F892B86B90895379A089548
:101FA00037980895369A089536980895811102C099
:101FB0003D9808953D9A089585B1089584B1089596
:101FC0003598089590B78295880F807E9F70892BF1
:101FD00080BF0895359A90B79F708295880F807E54
:101FE000892B80BF089597B19F736295660F660F26
:101FF000607C692B67B996B1987F492B46B98F3FB2
:1020000051F0359A90B79F708295880F807E892B0A
:1020100080BF379A08953598379A089597B1907E82
:102020008F71982B97B9369A089597B1907E8F71DA
:10203000982B97B9369A349BFECF349A08953599E8
:1020400019C097B1907E8F71982B97B9369A349BAF
:10205000FECF349A24B13D9B14C085B190E0880F27
:10206000991F880F991F2295269526952370820F18
:10207000911D0895349A349BFECF349A24B13D9932
:10208000ECCF85B1982F822F0895CF93DF939C01D9
:10209000ACE0B9E40E940421DC01CB0180589F4FE1
:1020A000AF4FBF4F492F5A2F91302FEFA207B105E5
:1020B00028F080E098EEDF91CF91089541158FEFE1
:1020C0005807B9F32A2F30E0F901EE0FFF1FEC5645
:1020D000FF4FC081D181220F331FF901EA56FF4F14
:1020E000208131812C1B3D0BA42FB0E00E940421E4
:1020F000982F872F8C0F9D1FDF91CF910895CF923E
:10210000DF92EF92FF920F931F93CF93DF9300D054
:1021100000D0CDB7DEB79C0180915004909151045E
:10212000A0915204B0915304820F931FA11DB11DC1
:102130008093500490935104A0935204B09353049D
:1021400020914F042F5F20934F04283008F47CC067
:1021500023E0B695A795979587952A95D1F7109284
:102160005004109251041092520410925304109291
:102170004F048C0120E030E040914E04411509F4F9
:102180004BC080914A0490914B04A0914C04B091B3
:102190004D04A801B901481B590B6A0B7B0B4983FD
:1021A0005A836B837C8377FF0AC06C017D01C01A60
:1021B000D10AE20AF30AC982DA82EB82FC8209813F
:1021C0001A812B813C8106301105210531050CF463
:1021D00044C001E010E020E030E0E1E01416150614
:1021E000160617060CF055C0400F511F621F731FD3
:1021F00004C07595679557954795EA95D2F7840F72
:10220000951FA61FB71F80934A0490934B04A09379
:102210004C04B0934D040BC080934A0410934B04BC
:1022200010924C0410924D0421E020934E040F9024
:102230000F900F900F90DF91CF911F910F91FF9012
:10224000EF90DF90CF90089530E040E050E0BC0187
:10225000CD010E941321C901EACF033011052105E8
:10226000310564F4411551056105710551F14CF1D9
:1022700004E010E020E030E0E3E0B6CF02E010E060
:1022800020E030E0E2E014161506160617060CF4FE
:10229000ABCF401B510B620B730B04C07595679558
:1022A00057954795EA95D2F7840F951FA61FB71F3C
:1022B00080934A0490934B04A0934C04B0934D0434
:1022C000B6CF09F4B4CF04E010E020E030E0E3E062
:1022D000E0CFCF92DF92EF92FF920F931F93CF93B5
:1022E000DF9300D000D0CDB7DEB724B185B1382F51
:1022F0008091500490915104A0915204B0915304E4
:10230000820F931FA11DB11D80935004909351041F
:10231000A0935204B093530420914F042F5F209355
:102320004F04283008F4E9C003E0B695A7959795C7
:1023300087950A95D1F7109250041092510410928B
:1023400052041092530410924F048C0120E030E0AC
:1023500040914E04411509F44CC080914A0490917B
:102360004B04A0914C04B0914D04A801B901481B45
:10237000590B6A0B7B0B49835A836B837C8377FFF2
:102380000AC06C017D01C01AD10AE20AF30AC982AF
:10239000DA82EB82FC8209811A812B813C81063032
:1023A0001105210531050CF4B0C001E010E020E07A
:1023B00030E0E1E014161506160617060CF0C1C051
:1023C000400F511F621F731F04C075956795579585
:1023D0004795EA95D2F7840F951FA61FB71F8093E4
:1023E0004A0490934B04A0934C04B0934D049C0179
:1023F0000CC080934A0410934B0410924C0410922A
:102400004D0421E020934E049C01ACE0B9E40E940D
:102410000421DC01CB0180589F4FAF4FBF4F492FA4
:102420005A2F91301FEFA107B10570F120E43FEE64
:1024300040E050E080911F0580FD11C0ADECB1E09F
:102440000E9454219B01AC0120583F4F4F4F5F4FDA
:10245000232F342F452F50E0305E4F4F5F4F809138
:1024600054048F5F8830F4F58093540480E00F901B
:102470000F900F900F90DF91CF911F910F91FF90D0
:10248000EF90DF90CF90089541152FEF520771F232
:102490008A2F90E0FC01EE0FFF1FEC56FF4FC0802B
:1024A000D180880F991FFC01EA56FF4F20813181AE
:1024B0002C193D09A42FB0E00E940421672F782F2A
:1024C0009601260F371FA8E0B1E00E9404219B016E
:1024D000AC0120583F4F4F4F5F4F232F342F452FD4
:1024E00050E0A8CF1092540420583F4F4F4F3093E4
:1024F00055044093560481E0BACF30E040E050E00C
:10250000BC01CD010E94132180CF033011052105AC
:10251000310564F4411551056105710559F154F116
:1025200004E010E020E030E0E3E04ACF02E010E019
:1025300020E030E0E2E014161506160617060CF44B
:102540003FCF401B510B620B730B04C07595679511
:1025500057954795EA95D2F7840F951FA61FB71F89
:1025600080934A0490934B04A0934C04B0934D0481
:102570009C014BCF09F43BCF04E010E020E030E0B9
:10258000E3E0DFCF0F931F93CF93DF938C01EB0139
:1025900044E060E0CE010E94FF130F3F100709F1F5
:1025A000083E83E0180774F08BE188838BE0898311
:1025B00089E38A83CE010296DF91CF911F910F911B
:1025C0000C94D71343E0BE01C8010E94591480EF58
:1025D0008B83CE010296DF91CF911F910F910C94C6
:1025E000D71387E1888389E18983CE010296DF9141
:1025F000CF911F910F910C94D71387B3806B87BB3A
:1026000087E18DB908958FB9779BFECF8FB108957B
:10261000CF93DF9300D0CDB7DEB7979825E02A950A
:10262000F1F7000080E00E940313898380E00E949C
:1026300003133AE13A95F1F700C0979A82FD27C05B
:10264000282F9981392FB9017695679576956795E9
:102650007695679580E090E00E94732220E030EF4D
:102660004FE754E40E94252320E030EF4FE755E484
:102670000E94D121562F472F382F292F652F742FD5
:10268000832F922F0F900F90DF91CF91089540E00C
:1026900050E02FEB30E8F2CFCF93DF9300D00F92D2
:1026A000CDB7DEB7979825E02A95F1F70000882787
:1026B000B5998395819589836E9A89810E940313C8
:1026C0008A8389810E9403139AE19A95F1F700C0E9
:1026D0006E98979A82FD0EC02A81922F96958795C3
:1026E00096958795969587950F900F900F90DF910F
:1026F000CF9108958FEF9FEF0F900F900F90DF9184
:10270000CF91089580935E0460935C0470935D04A0
:1027100040935A0450935B04209358043093590417
:1027200008958091570481501AF480915E0481507D
:1027300024E08202C0011124E0915804F091590470
:10274000E80FF91F0190F081E02D09958091570461
:10275000982F990F990BA0915C04B0915D04E091C2
:102760005A04F0915B04E80FF91F20812C93880F25
:10277000991F880F991FE0915804F0915904E80FB0
:10278000F91F0280F381E02D0995809157048F5F36
:102790008093570420915E0430E0082E001C00084E
:1027A0008217030609F00895109257040895FC015A
:1027B000208124FB992792F922FB882784F9982B02
:1027C0002B7E922B908308959091610494FB88272F
:1027D00082F992FB222724F9822B9B7E892B8093FE
:1027E00061049091650494FB882782F992FB22276B
:1027F00024F9822B9B7E892B8093650408959C018C
:1028000014165CF4460F962F6F5FF901E90FF11D66
:1028100097FDFA9510826413F6CF089514166CF4A0
:10282000DC01460FE62FF62FFF0FFF0B6F5F8D9138
:10283000E15AFB4F80834613F5CF0895FC0116162D
:102840007CF5862F962F990F990B20915F0420839A
:10285000613031F12091600421838230910501F1D2
:1028600020916104228383309105D1F0209162048C
:10287000238384309105A1F0209163042483853063
:10288000910571F02091640425838630910541F013
:10289000209165042683079719F080916604878349
:1028A0000895EFE5F4E088E0DF011D928A95E9F7ED
:1028B0000895EF92FF920F931F93CF93DF93CDB7BD
:1028C000DEB72C970FB6F894DEBF0FBECDBF8B8757
:1028D0009C877B01042F142F110F110B141634F455
:1028E000A80160E070E0C7010E94A423BE016F5FF1
:1028F0007F4F8B859C850E944900181619060CF0A5
:102900005DC0081B190BF701E00FF11FA981B0E0B2
:10291000A054BD4F2C9120838130910509F44EC005
:10292000AA81B0E0A054BD4F2C9121838230910543
:1029300009F444C0AB81B0E0A054BD4F2C91228378
:1029400083309105D9F1AC81B0E0A054BD4F2C91FA
:1029500023838430910591F1AD81B0E0A054BD4F47
:102960002C9124838530910549F1AE81B0E0A054CB
:10297000BD4F2C9125838630910501F1AF81B0E0E8
:10298000A054BD4F2C91268387309105B9F0A885BE
:10299000B0E0A054BD4F2C9127838830910571F091
:1029A000A985B0E0A054BD4F2C912087099731F044
:1029B000AA85B0E0A054BD4F8C9181872C960FB6AC
:1029C000F894DEBF0FBECDBFDF91CF911F910F9165
:1029D000FF90EF900895EF92FF921F93CF93DF93B4
:1029E000CDB7DEB72C970FB6F894DEBF0FBECDBFC4
:1029F0008B879C877B01142F141634F450E06BEE08
:102A000070E0C7010E94A423BE016F5F7F4F8B85DA
:102A10009C850E944900181619060CF060C0412FD1
:102A2000110F550B481B590BF701E40FF51FA98136
:102A3000B0E0A054BD4F2C9120838130910509F462
:102A40004EC0AA81B0E0A054BD4F2C9121838230AA
:102A5000910509F444C0AB81B0E0A054BD4F2C9166
:102A6000228383309105D9F1AC81B0E0A054BD4FF1
:102A70002C9123838430910591F1AD81B0E0A05475
:102A8000BD4F2C9124838530910549F1AE81B0E092
:102A9000A054BD4F2C9125838630910501F1AF8163
:102AA000B0E0A054BD4F2C91268387309105B9F03A
:102AB000A885B0E0A054BD4F2C91278388309105A4
:102AC00071F0A985B0E0A054BD4F2C9120870997E3
:102AD00031F0AA85B0E0A054BD4F8C9181872C962F
:102AE0000FB6F894DEBF0FBECDBFDF91CF911F911F
:102AF000FF90EF900895FC01908194609083089579
:102B0000FC0190819B7F9083089595980895959AF4
:102B1000089592980895929A089593980895939A93
:102B2000089594980895949A0895DF980895DF9AE7
:102B30000895DE980895DE9A0895DD980895DD9A47
:102B40000895DC980895DC9A0895CF93DF9320E6EA
:102B500030E04FE554E065E370E088E00E948213C6
:102B6000C0E6D0E0E881F9810995249680E0C0387C
:102B7000D807C1F78D9A8A9A8B9A8C9AD79AD69A47
:102B8000D59AD49A84B38FEF84BBDF91CF91089507
:102B900024E620938E0410928F048AE080937704B9
:102BA00010927804209373041092740410927504A8
:102BB0001092760425E0209390041092910422E371
:102BC000209392041092930445E555E565E57FE373
:102BD0004093790450937A0460937B0470937C044F
:102BE0004DEC5CEC6CEC7DE340937D0450937E04F3
:102BF00060937F0470938004109281041092820489
:102C00001092830410928404109271041092720442
:102C100080936F041092700488E380939404109260
:102C2000950482E08093960408958091190590910F
:102C30001A052091550430915604821B930B21E014
:102C4000863091050CF02AE020936F0410927004F6
:102C500008950F931F93CF93DF9300D000D000D03F
:102C6000CDB7DEB78C0186E0EEE8F0E0DE0111962C
:102C700001900D928A95E1F72981216029833A819B
:102C80004B815C816D817E81F80181810E94850A82
:102C900029813A814B815C816D817E81F80180813F
:102CA0000E94850A29812E7D206229833A814B81E9
:102CB0005C816D817E81F80184810E94850A298171
:102CC0002C7D236029838AE0382F8A831B8282E04F
:102CD000582F8C831D821E8240E060E070E0F80176
:102CE00082810E94850A29813A814B815C816D81B4
:102CF0007E81F80183810F900F900F900F900F90BD
:102D00000F90DF91CF911F910F910C94850A83EA68
:102D100094E00E9429168DEB94E00C94291689E327
:102D2000EEECF2E0AFE9B4E001900D928A95E1F7A4
:102D300081E08093A50482E08093A60493E09093C1
:102D4000A70486E08093BD0484E08093BF0425E05F
:102D50002093C0049093C1048093B904089582E045
:102D60000E94BA0F0E94CE0F87E00E94C90F81E037
:102D70000E94C00F80E00E94EA0F0E94D20F349A96
:102D8000349BFECF349A089580E00E94BA0F0E94CF
:102D9000CE0F87E00E94C90F83E00E94C00F80E041
:102DA0000E94EA0F0E94D20F349A349BFECF349ACD
:102DB0000895CDB7DEB762970FB6F894DEBF0FBEA9
:102DC000CDBF0E94A51546E050E064E070E089E1C7
:102DD00095E00E94CC2380911F058E7F80931F0574
:102DE0000E948F16919A909AC39A969AD99AC09AED
:102DF000DB9A8FE99FE00197F1F700C000000E9485
:102E0000A80A0E94A506C298BA9AC19AB998BD9A12
:102E100065E088E390E00E949E098BE490E00E94C8
:102E2000A40912BE8BE083BF89EF8CBF89B7826093
:102E300089BF78940E94C8150E94511444E050E064
:102E400068E972E0CE0101960E94B42344E060E09C
:102E5000CE0101960E940E1444E050E064E972E055
:102E6000CE0101960E94B42344E064E0CE010196B5
:102E70000E940E14712CC12CD12C560185017501B4
:102E8000E39480900803909009036090070322E088
:102E9000522E4E2C15C090FF0CC098EBE9169BE00B
:102EA000F9060CF49EC080648093D90481E0E82E7A
:102EB000F12C0E94E0098091DA048E7F8093DA047D
:102EC0008091DB0480FF0AC08091DB048E7F8093B9
:102ED000DB048091DA0481608093DA040E9491130C
:102EE0009091DA048091D90486FFD5CF71104EC03D
:102EF00090FD7BC0B199B9C01092470485708530B0
:102F0000C1F60E94980E8111D4CF8091D8048130EF
:102F100008F405C109F44DC1823009F44FC1809114
:102F2000D404823008F415C1823009F41CC1833006
:102F300009F423C18091D30482FDEEC0609119058C
:102F400070911A058091550490915604681B790B75
:102F500091E0663071050CF09AE090936F04109246
:102F6000700487E694E00E94E2088091DA0480FF12
:102F7000A0CF8FEFA81AB80A94E1A916B10409F0FE
:102F800098CF0E942C0EA12CB12C93CF91FF1FC083
:102F90000E946911811509F18091D90482608093A2
:102FA000D904109243048091DA048170712C99271E
:102FB000B199939590934704811531F00F5F1F4F9E
:102FC0000431110509F448C08091D90497CF0E94BB
:102FD000ED01772473948111712C8091DA04817052
:102FE000E6CF2FEFE21AF20A64CF2FEFC21AD20A0D
:102FF0008FE0C816D10430F1842D21E091FD8227A5
:1030000080FB91F99093DA0491FF32C082E00E9434
:10301000BA0F0E94CE0F87E00E94C90F81E00E9484
:10302000C00F80E00E94EA0F0E94D20F349A349BB6
:10303000FECF349A8091DA04817077247394C12C86
:10304000D12CB5CFB19930C0109247040F5F1F4FFC
:103050000431110509F0B8CF0E94C3068091940392
:1030600083FD25C000E010E0AFCF4092470446CF7B
:1030700080E00E94BA0F0E94CE0F87E00E94C90F25
:1030800083E00E94C00F80E00E94EA0F0E94D20FEE
:10309000349A349BFECF349A8091DA04817077247D
:1030A0007394C12CD12C83CF4092470487CF877F64
:1030B000809394038091D90484608093D9048BE435
:1030C00090E00E94A4090E94A9090E9451148091D5
:1030D000940381FDA2C06091190570911A05809139
:1030E000550490915604681B790B81E06630710598
:1030F0000CF08AE080936F041092700487E694E0ED
:103100000E94600787E694E00E9441078091D904FD
:1031100081608093D904A6CF0E94071F0FCF83EA56
:1031200094E00E9429168DEB94E00E94291644E059
:1031300060E08CEA92E00E940E148091D3048160DA
:103140008093D3041092D4048091D8048F5F80932D
:10315000D80483E00E94960B81118AC08091D40428
:10316000823009F0E4CE0E943F1F813009F49AC0FA
:103170008091D404833009F0DDCE0E948E2081300E
:1031800009F0D8CE9091D30490FFBAC01092D40425
:1031900083EA94E00E9429168DEB94E00E942916A0
:1031A0000E94511444E060E08CEA92E00E940E1408
:1031B000C1CE5092D8048091D404B3CE8091D4046F
:1031C0008111AFCE809155049091560497FDC1CFE7
:1031D00088EE93E00E94A4090E94A9098091D3047B
:1031E0008E7F8093D30481E08093D40483EA94E0BB
:1031F0000E9429161092A8048DEB94E00E942916D3
:103200001092C2048091D30484608093D30480918F
:10321000D8048F5F8093D80482CE8091D9048E7FAA
:103220008093D90444E064E08CEB92E00E940E1499
:1032300060E087E694E00E942D070E948F1680923E
:10324000D8049092D9048AE0E4E3F4E0AEE3B4E079
:1032500001900D928A95E1F70E94AD098EE0E0E8B9
:10326000F0E0ACE0B3E001900D928A95E1F7FACE80
:1032700083E00E94AA0B83E00E948B0B813009F44B
:1032800054C083E08093D4046092D70488EE93E026
:103290000E94A4090E94A90968E0CE010B960E9431
:1032A0001E145CCF9091D30490FF15C01092D404EB
:1032B00083EA94E00E9429168DEB94E00E9429167F
:1032C0000E94511444E060E08CEA92E00E940E14E7
:1032D0008091D4042CCE8093D40483EA94E00E949D
:1032E00029161092A8048DEB94E00E9429161092E2
:1032F000C20448E060E0CE010B960E940E1438CF65
:103300008093D40483EA94E00E9429161092A804C2
:103310008DEB94E00E9429161092C20448E060E010
:10332000CE010B960E940E1405CE82E08093D40449
:103330006092D50488EE93E00E94A4090E94A90936
:1033400042E050E060E070E086EE94E00E94DC2312
:1033500042E050E062E070E080E095E00E94DC2313
:103360009BCF8F938FB78F938091DB048160809385
:10337000DB048F918FBF8F911895EF92FF920F937F
:103380001F93CF93DF9300D0CDB7DEB77C018B01C5
:10339000FC01808142E0BE016F5F7F4F982F990F43
:1033A000990B0E9459148A819981F8019083818335
:1033B000F701818142E0BE016F5F7F4F982F990F27
:1033C000990B0E94EB147801F2E0EF0EF11C8A8158
:1033D0009981F80192838383C80101960E947B152D
:1033E000C7010E947B15C7010E94D7130F900F9051
:1033F000DF91CF911F910F91FF90EF9008951F9350
:10340000CF93DF9300D000D000D0CDB7DEB74D838F
:103410005E83DC014D913CE34303A00111248C91B8
:10342000480F511D87FD5A95FB0120812303C001E0
:1034300011242181820F911D27FD9A95AD81BE81B6
:103440002D912303900111246C91260F311D67FDEE
:103450003A95821B930B481B590B79F172F1CA0103
:10346000A52FAA0FAA0BBA2F49839A83AB83AC83EB
:10347000BA01CD010E94752220E030E040E752E41D
:103480000E94D1210E944322162F69817A818B816B
:103490009C812CE330E040E050E00E943521AD817A
:1034A000BE811D936C930F900F900F900F900F9013
:1034B0000F90DF91CF911F91089510E060E0EFCF62
:1034C0007F928F929F92AF92BF92CF92DF92EF92B4
:1034D000FF920F931F93CF93DF93CDB7DEB766971D
:1034E0000FB6F894DEBF0FBECDBF0FE914E080E049
:1034F000A82E80E0B82E9CEDC92E94E0D92EE12CA8
:10350000F12C20E9822E21E0922E3AE1732ED8018F
:1035100055968D929D9242E050E0B501C8010A9601
:103520000E94CC23F80182859385D6011A968D934B
:103530009D93148615867E9CF0017F9CF00D1124CE
:10354000DF01A355BB4F8C9182608C93D8011396F9
:103550001C921397EF55FB4F80818160808380918F
:10356000D404813049F1C80104960E942916F8015B
:103570001186EA94EF2861F0065E1F4F82E0A80EE4
:10358000B11CAAE1CA0ED11CEE24E394F12CBFCFEA
:1035900066960FB6F894DEBF0FBECDBFDF91CF9118
:1035A0001F910F91FF90EF90DF90CF90BF90AF9061
:1035B0009F908F907F9008951A968C9142E0BE0163
:1035C0006B5E7F4F982F990F990B0E9459148E892B
:1035D0009D8999838A83F801838542E0BE016B5EF1
:1035E0007F4F982F990F990B0E94EB148E899D891C
:1035F0009B838C83CE0102960E947B15CE0103969D
:103600000E947B15CE0103960E94D71344E0D80197
:103610006C91CE0101960E940E14A5CF9F92AF929D
:10362000BF92CF92DF92EF92FF920F931F93CF93AF
:10363000DF93CDB7DEB76C970FB6F894DEBF0FBE41
:10364000CDBF0FE914E086EEC82E84E0D82E90E0BE
:10365000A92E90E0B92EE12CF12C2AE1922EC8017E
:1036600043960E948F0FD80116968C910E94960B5C
:10367000811561F09E9CF0019F9CF00D1124E35593
:10368000FB4F808182FD02C080FF86C1D801179662
:103690008C910E94960B811561F09E9CF0019F9C7D
:1036A000F00D1124E355FB4F808182FD02C080FFA5
:1036B0004AC1D80119968C911997813008F46DC0D0
:1036C00009F414C19E9CC0019F9C900D1124FC0123
:1036D000E055FB4F208120FD2CC09E9CF0019F9C5B
:1036E000F00D1124EF54FB4F808181FDC8C0C7014C
:1036F0000196065E1F4FFAE1CF0ED11C22E0A20E0A
:10370000B11CEE24E394F12C029709F0A8CF6C963B
:103710000FB6F894DEBF0FBECDBFDF91CF911F91E2
:103720000F91FF90EF90DF90CF90BF90AF909F9060
:103730000895FC01EA54FB4F808181FF07C08D7F13
:1037400080839091D404913009F44FC18091DA04C0
:1037500080FFC3CFD8011F968D919D910196883B24
:10376000BBE09B070CF4EBC0D8011F961D921D9285
:103770008AE18E9D90018F9D300D1124F901EF5447
:10378000FB4F80818260808323553B4FD9019C9100
:1037900090FD2BC08E7F8083A0CF14968C910E94C9
:1037A000960B811509F48ECFF80184810E94AA0B33
:1037B00088EE93E00E94A4090E94A9098AE18E9DE7
:1037C00090018F9D300D11242F8B388FF901EF540C
:1037D000FB4F808180FD19C181608083F901E35531
:1037E000FB4F8081816080836DCFF60140812CE3A7
:1037F0004203A00111243181430F511D37FD5A9519
:10380000D5016D916203B00111243C91630F711DCC
:1038100037FD7A95F80132853203C00111242385E2
:10382000820F911D27FD9A95681B790B461B570B3C
:1038300009F00AF48CC1CA01A52FAA0FAA0BBA2F4E
:103840004F8B988FA98FAA8FBA01CD010E94752244
:1038500020E030E040E752E40E94D1210E94432260
:10386000D8011A966C936F89788D898D9A8D2CE387
:1038700030E040E050E00E943521F80163878AE1A2
:103880008E9DD0018F9DB00D1124AF8BB88FFD019F
:10389000EF54FB4F80818D7F808342E050E0B50183
:1038A000C6010E94DC23F60180819181D8011A961D
:1038B0008D939D93EF89F88DE055FB4F80818E7F2E
:1038C00080831D921D92EF89F88DE355FB4F808117
:1038D000826080831B971C92EF89F88DEF55FB4F18
:1038E00080818160808316961C9201CFD801149646
:1038F0008C910E94960B811509F4E4CEF801848125
:103900000E94AA0B88EE93E00E94A4090E94A909D4
:10391000EE27FF27EE19FF09EA71F0E0E156FB4FB1
:1039200082898360828B8AE18E9DF0018F9DF00DEC
:103930001124E355FB4F808181608083C3CEF80161
:103940008787908BCACEF80187810E94AA0BD80185
:1039500017968C910E94430C811509F4B7C08AE137
:103960008E9DF0018F9DF00D1124DF01AF55BB4FEF
:103970008C918E7F8C93E055FB4F8081816080839A
:1039800081E0F801818783831786108A0E94940F53
:10399000C6010E94CB018DCEF80186810E94AA0B40
:1039A000D80116968C910E94430C811509F495C09C
:1039B0008AE18E9DF0018F9DF00D1124DF01AF553E
:1039C000BB4F8C918E7F8C93E055FB4F8081816043
:1039D000808381E0F801818783831786108A0E94A3
:1039E000940FC6010E94AE0151CE80FD3CC044E060
:1039F00060E0CE0101960E94FF1344E0D8016C9173
:103A0000CE0101960E940E14A1CE8E7F80838F89F5
:103A1000988D83559B4F8B8F9C8FDC018C918E7F73
:103A20008C9342E050E0B501C8010A960E94CC2375
:103A3000F80114861586AB8DBC8D8C9182608C93B9
:103A40001382EF89F88DEF55FB4F80818160808371
:103A50008C918B7F8C938091D404813009F444C085
:103A60000E94D0092FCEF601808142E0BE016B5E3C
:103A70007F4F982F990F990B0E9459148E899D8919
:103A800099838A83D60111968C9142E0BE016B5EC8
:103A90007F4F982F990F990B0E94EB148E899D8967
:103AA0009B838C83CE0102960E947B15CE010396E8
:103AB0000E947B15CE0103960E94D71344E0F801C3
:103AC0006081CE0101960E940E1440CE8BE490E0FE
:103AD0000E94A4090E94A90942CF8BE490E00E94B1
:103AE000A4090E94A90964CFF801828542E0BE01C1
:103AF0006B5E7F4F982F990F990B0E9459148E89F6
:103B00009D8999838A83D8011B968C9142E0BE01DE
:103B10006B5E7F4F982F990F990B0E94EB148E8943
:103B20009D899B838C83CE0102960E947B15CE01DA
:103B300003960E947B15CE0103960E94D71344E0A2
:103B4000F8016081CE0101960E940E1489CF128681
:103B5000138695CEBF92CF92DF92EF92FF920F9392
:103B60001F93CF93DF930FE914E0C0E0D0E08AE128
:103B7000B82EC80143960E948F0FBC9E7001BD9E57
:103B8000F00C1124C70183559B4F6C01FC0180810F
:103B900080FD12C0CE010196065E1F4FC1E0D0E04D
:103BA000029739F7DF91CF911F910F91FF90EF901E
:103BB000DF90CF90BF9008958091DA0480FF0DC010
:103BC000F801848595859C012F5F3F4F873E934088
:103BD00009F453C0F801248735878AE18C9FF001EE
:103BE0008D9FF00D1124E355FB4F808181FFD2CFD3
:103BF000F8018385811135C0F8018285811131C0BA
:103C0000EAE1EC9FD001ED9FB00D1124A355BB4F0D
:103C10008C918E7F8C938C2F8F5F8170E89FF00149
:103C20001124DF01A355BB4F8C9182FF3CC0EE54A1
:103C3000FB4F87E0D801539601900D928A95E1F7EA
:103C40008AE18C9FF0018D9FF00D1124DF01AF55AB
:103C5000BB4F8C918E7F8C93E355FB4F80818460AA
:103C600080838AE18C9FF0018D9FF00D1124E35534
:103C7000FB4F80818D7F80838DCFF8011486158660
:103C8000C8010A960E94AE01F6018081826080839D
:103C9000F80183818111ACCFF701EF55FB4F808193
:103CA00081608083A5CF81E00E94940FC9CFEF92FD
:103CB000FF920F931F93CF93DF93CDB7DEB7689733
:103CC0000FB6F894DEBF0FBECDBF8FE9E82E84E0BB
:103CD000F82E00E010E0C70143960E948F0FF70115
:103CE0008381811104C08091D4048130B1F0C80176
:103CF0000196FAE1EF0EF11C01E010E0029759F78E
:103D000068960FB6F894DEBF0FBECDBFDF91CF919E
:103D10001F910F91FF90EF9008952AE1209FC0011D
:103D2000219F900D11249C012F553B4F2F8B388FD5
:103D3000F901808180FD22C02AE1209FC001219FDE
:103D4000900D1124FC01E355FB4F208122FFCFCFC2
:103D50008A549B4FFC01808180FD47C044E060E0B5
:103D6000CE0101960E94FF1344E0F7016081CE016D
:103D700001960E940E140E94C109B9CFF7018285F5
:103D800042E0BE016B5E7F4F982F990F990B0E9406
:103D900059148E899D8999838A83F701838542E02E
:103DA000BE016B5E7F4F982F990F990B0E94EB1409
:103DB0008E899D899B838C83CE0102960E947B1500
:103DC000CE0103960E947B15CE0103960E94D71365
:103DD00044E0F7016081CE0101960E940E14EF8944
:103DE000F88D80818E7F8083A7CF44E050E068EB20
:103DF00072E0CE0101960E94B42344E0F701608195
:103E0000CE0101960E940E140E94D00970CF8091BD
:103E1000D604811519F18091D404813051F10E94AA
:103E2000AA1D8091D404813009F008950E94571E84
:103E30008091D4048130C9F782EB94E00E948F0F07
:103E40008091DA0480FD18C08CEC94E00E948F0F02
:103E50008091DA0480FFE9CF0C94A10F0E94601AD0
:103E60008091D6048F5F8093D6048091D4048130F2
:103E7000B1F60E940E1BD3CF0E94A10FE5CF0F9386
:103E80001F93CF93DF93CDB7DEB72A970FB6F89481
:103E9000DEBF0FBECDBF80E195E00E948F0F809105
:103EA000D504813008F04AC086E0EEE8F0E0DE019B
:103EB000119601900D928A95E1F78981816089833D
:103EC0000FE914E029813A814B815C816D817E810B
:103ED000F80180850E94850A065E1F4F83ED94E0FD
:103EE0008017910779F78091D5048F5F8093D5046F
:103EF00080E991E080931205909313058091170556
:103F000090911805892B21F08091140581FD36C010
:103F100083E00E94960B10E081114BC08091DA047F
:103F200080FD5FC0812F2A960FB6F894DEBF0FBECA
:103F3000CDBFDF91CF911F910F91089509F45DC01E
:103F4000823009F46CC0833009F479C08430B1F652
:103F50000FE914E0F80186810E94960B81119FC041
:103F6000F80187810E94960B811175C0065E1F4F74
:103F700083ED94E08017910769F7C0CF8D7F809320
:103F8000140580FF31C08E010F5F1F4FB801809173
:103F9000190590911A050E94C21244E064E0C8011C
:103FA0000E940E1483E00E94960B10E0811509F424
:103FB000B5CF83E00E94AA0B8091D5048F5F8093D8
:103FC000D504833031F1853009F48CC010E080E5F0
:103FD00090E00E94A4090E94A9098091DA0480FF60
:103FE000A1CF0E94A10F9ECF44E060E08E010F5F41
:103FF0001F4FC8010E94FF13D0CF44E060E084EB64
:1040000092E00E940E148091D5048F5F8093D504B6
:1040100075CF81E08093170510921805D7CFBE01A8
:104020006F5F7F4F80915504909156040E94C21299
:1040300044E064E0CE0101960E940E145FCF44E09C
:1040400060E080EB92E00E940E148091D5048F5FB7
:104050008093D50453CFF80187810E94AA0BF80101
:1040600087810E94430C811509F451C081E00E94B0
:10407000940F8091190590911A0501968093190566
:1040800090931A0520911D0530911E058217930704
:104090000CF46CCF2093190530931A0567CFF80103
:1040A00086810E94AA0BF80186810E94430C81152B
:1040B00039F181E00E94940F8091190590911A05C1
:1040C00001978093190590931A0520911B05309153
:1040D0001C05281739070CF443CF2093190530939A
:1040E0001A053ECF46E050E064E070E089E195E0DB
:1040F0000E94DC23109217051092180511E067CF7B
:104100008BE490E00E94A4090E94A909D2CF8BE41D
:1041100090E00E94A4090E94A909A8CF0F931F93C1
:10412000CF93DF93CDB7DEB72A970FB6F894DEBFF3
:104130000FBECDBF8091D7048130A8F586E0EEE8B0
:10414000F0E0DE01119601900D928A95E1F78981E8
:10415000816089830FE914E029813A814B815C8178
:104160006D817E81F80180850E94850A065E1F4F61
:10417000F4E0033D1F0781F78091D7048F5F8093A0
:10418000D70410E083E00E94960B811117C0812FA5
:104190002A960FB6F894DEBF0FBECDBFDF91CF9148
:1041A0001F910F910895C9F08230F1F011E0833032
:1041B00041F783E00E94960B811549F383E00E944A
:1041C000AA0B8091D7048F5F8093D7048BE490E093
:1041D0000E94A4090E94A909DACF44E060E084EBC0
:1041E00092E00E940E14C8CFBE016F5F7F4F809196
:1041F0005504909156040E94C21244E064E0CE013E
:1042000001960E940E14BDCFA29FB001B39FC001C2
:10421000A39F700D811D1124911DB29F700D811DF2
:104220001124911D0895A1E21A2EAA1BBB1BFD01AA
:104230000DC0AA1FBB1FEE1FFF1FA217B307E40785
:10424000F50720F0A21BB30BE40BF50B661F771FDD
:10425000881F991F1A9469F76095709580959095BD
:104260009B01AC01BD01CF010895052E97FB1EF403
:1042700000940E944C2157FD07D00E94132107FC97
:1042800003D04EF40C944C215095409530952195D7
:104290003F4F4F4F5F4F0895909580957095619572
:1042A0007F4F8F4F9F4F08950E940421A59F900D2F
:1042B000B49F900DA49F800D911D11240895505816
:1042C000BB27AA270E9477210C94E6220E94D822BD
:1042D00038F00E94DF2220F039F49F3F19F426F4D1
:1042E0000C94D5220EF4E095E7FB0C94CF22E92F35
:1042F0000E94F72258F3BA176207730784079507DD
:1043000020F079F4A6F50C9419230EF4E0950B2E09
:10431000BA2FA02D0B01B90190010C01CA01A00117
:104320001124FF27591B99F0593F50F4503E68F172
:104330001A16F040A22F232F342F4427585FF3CFB3
:10434000469537952795A795F0405395C9F77EF484
:104350001F16BA0B620B730B840BBAF09150A1F0CD
:10436000FF0FBB1F661F771F881FC2F70EC0BA0F53
:10437000621F731F841F48F4879577956795B795DB
:10438000F7959E3F08F0B0CF9395880F08F09927D6
:10439000EE0F9795879508950E94AB2208F481E06F
:1043A00008950E94E5210C94E6220E94DF2258F035
:1043B0000E94D82240F029F45F3F29F00C94CF22CC
:1043C00051110C941A230C94D5220E94F72268F301
:1043D0009923B1F3552391F3951B550BBB27AA27BE
:1043E00062177307840738F09F5F5F4F220F331FF8
:1043F000441FAA1FA9F335D00E2E3AF0E0E832D0C0
:1044000091505040E695001CCAF72BD0FE2F29D0C2
:10441000660F771F881FBB1F261737074807AB0794
:10442000B0E809F0BB0B802DBF01FF2793585F4F09
:104430003AF09E3F510578F00C94CF220C941A2349
:104440005F3FE4F3983ED4F3869577956795B795EB
:10445000F7959F5FC9F7880F911D9695879597F9F6
:104460000895E1E0660F771F881FBB1F621773076F
:104470008407BA0720F0621B730B840BBA0BEE1F84
:1044800088F7E09508950E944A226894B1110C942F
:104490001A2308950E94FF2288F09F5798F0B92FA1
:1044A0009927B751B0F0E1F0660F771F881F991F69
:1044B0001AF0BA95C9F714C0B13091F00E941923CF
:1044C000B1E008950C941923672F782F8827B85FDF
:1044D00039F0B93FCCF3869577956795B395D9F7C1
:1044E00086F70C944C21E89404C097FB16F40E94C4
:1044F0004C219923A9F0F92F96E9BB279395F695BE
:10450000879577956795B795F111F8CFFAF4BB0FBA
:1045100011F460FF1BC06F5F7F4F8F4F9F4F16C01E
:10452000882311F096E911C0772321F09EE8872FA8
:10453000762F05C0662371F096E8862F70E060E064
:104540002AF09A95660F771F881FDAF7880F9695DD
:10455000879597F90895990F0008550FAA0BE0E881
:10456000FEEF16161706E807F907C0F01216130635
:10457000E407F50798F0621B730B840B950B39F475
:104580000A2661F0232B242B252B21F408950A26DB
:1045900009F4A140A6958FEF811D811D089597F91B
:1045A0009F6780E870E060E008959FEF80EC0895D9
:1045B00000240A9416161706180609060895002402
:1045C0000A9412161306140605060895092E03947C
:1045D000000C11F4882352F0BB0F40F4BF2B11F4F0
:1045E00060FF04C06F5F7F4F8F4F9F4F089557FD4F
:1045F0009058440F551F59F05F3F71F04795880F51
:1046000097FB991F61F09F3F79F0879508951216E7
:1046100013061406551FF2CF4695F1DF08C0161693
:1046200017061806991FF1CF869571056105089444
:104630000895E894BB2766277727CB0197F908955B
:104640000E94AB2208F48FEF08950E9438230C9447
:10465000E6220E94D82238F00E94DF2220F0952323
:1046600011F00C94CF220C94D52211240C941A230F
:104670000E94F72270F3959FC1F3950F50E0551FEC
:10468000629FF001729FBB27F00DB11D639FAA27A7
:10469000F00DB11DAA1F649F6627B00DA11D661FF6
:1046A000829F2227B00DA11D621F739FB00DA11D17
:1046B000621F839FA00D611D221F749F3327A00DD1
:1046C000611D231F849F600D211D822F762F6A2F6D
:1046D00011249F5750409AF0F1F088234AF0EE0FD2
:1046E000FF1FBB1F661F771F881F91505040A9F7FF
:1046F0009E3F510580F00C94CF220C941A235F3F0B
:10470000E4F3983ED4F3869577956795B795F7953A
:10471000E7959F5FC1F7FE2B880F911D96958795B2
:1047200097F908956817790768F4FB01DC01E40F35
:10473000F51FA40FB51F02C002900E9241505040C9
:10474000D8F708950C94C323DC0101C06D93415048
:104750005040E0F70895FC0101900020E9F78095B2
:1047600090958E0F9F1F0895FB01DC014150504032
:1047700048F001900D920020C9F701C01D924150F0
:104780005040E0F70895FB01DC0102C001900D925A
:1047900041505040D8F70895DC01CB01FC01E1996C
:1047A000FECF06C0FFBBEEBBE09A31960DB20D9274
:1047B00041505040B8F70895DC01A40FB51F415097
:1047C000504048F0CB01840F951F2E910E94ED239D
:1047D00041505040D0F70895262FE199FECF9FBB5E
:1047E0008EBBE09A01970DB2021631F02DBB0FB6C9
:0E47F000F894E29AE19A0FBE0895F894FFCF74
:1047FE008515871589158B158D158F1591159315A3
:10480E009515971599159B159D159F15A115A31512
:10481E00000000000000000000000000000000008A
:10482E00000000000000E100C201A3028403650441
:10483E00470528060907EB07CC08AE098F0A710B4E
:10484E00530C340D160EF80EDA0FBC109E1180129A
:10485E006313451427150916EC16CE17B1189419C3
:10486E00761A591B3C1C1F1D021EE41EC81FAB20CE
:10487E008E217122542338241B25FE25E226C527BE
:10488E00A9288D29712A542B382C1C2D002EE42E8C
:10489E00C82FAD309131753259333E34223507363B
:1048AE00EB36D037B5389A397F3A633B483C2D3DCD
:1048BE00133EF83EDD3FC240A8418D42724358443C
:1048CE003E4523460947EF47D548BA49A04A864B8D
:1048DE006D4C534D394E1F4F0650EC50D251B952BC
:1048EE00A05386546D5554563B5721580859EF59CD
:1048FE00D75ABE5BA55C8C5D745E5B5F42602A61BD
:10490E001262F962E163C964B1659966816769688B
:10491E005169396A216B096CF26CDA6DC36EAB6F3B
:10492E0094707D7165724E73377420750976F276C8
:10493E00DB77C578AE79977A817B6A7C547D3D7E34
:10494E00277F1180FB80E481CE82B883A2848D857F
:10495E00778661874B883689208A0B8BF58BE08CA6
:10496E00CB8DB68EA18F8B90769161924D933894AC
:10497E0023950E96FA96E597D198BC99A89A949B92
:10498E007F9C6B9D579E439F2FA01BA108A2F4A254
:10499E00E0A3CDA4B9A5A6A692A77FA86CA959AAF3
:1049AE0045AB32AC1FAD0DAEFAAEE7AFD4B0C2B16F
:1049BE00AFB29CB38AB478B565B653B741B82FB9C8
:1049CE001DBA0BBBF9BBE7BCD6BDC4BEB2BFA1C0FE
:1049DE008FC17EC26DC35BC44AC539C628C717C80E
:1049EE0006C9F5C9E4CAD4CBC3CCB3CDA2CE92CFFF
:1049FE0081D071D161D251D341D431D521D611D7C5
:104A0E0001D8F1D8E2D9D2DAC3DBB3DCA4DD95DE6E
:104A1E0086DF77E067E158E249E33BE42CE51DE6EB
:104A2E000FE700E81582079BF3698279B72900002A
:104A3E003DF182293937071979110500F1116D0001
:104A4E007A792D00EB8229009B1B0779EB716500AB
:104A5E00EB82D9DAB27A3BC2FBF200000000000012
:104A6E000000000000000000000000000000000038
:104A7E000000000000000000000000000000000028
:104A8E000000000000000000000000000000000018
:0A4A9E00000000000000000000000E
:00000001FF
