:100000000C942A000C9447000C9447000C94470071
:100010000C9447000C9447000C9447000C94470044
:100020000C9447000C9447000C942D190C94470035
:100030000C9447000C9447000C9447000C94470024
:100040000C9439190C9447000C9447000C94470009
:100050000C94470011241FBECFE5D8E0DEBFCDBF12
:1000600015E0A0E6B0E0EEE6F7E402C005900D92E0
:10007000AE30B107D9F726E0AEE0B5E001C01D9281
:10008000AE3CB207E1F70E9469160C94B5230C94BC
:1000900000008F929F92AF92BF92CF92DF92EF9229
:1000A000FF920F931F93CF93DF93AC014B0180E03E
:1000B00090E057FD77C0FB01DB0180E090E01DEC94
:1000C000A12E6DEC7CEC05E0B02E352F330F330BF9
:1000D000232F2370F22E8A01129502950F700127AB
:1000E0001F7001270F70242F2F70200F152F1F70E6
:1000F000210F152F12951F70210F2F0D2A9D112DE5
:100100001124012F069506951C7F100F211B3C7FA3
:10011000230F022E000C330B7A01E21AF30AE69E3B
:100120008001E79E100DF69E100D11247801C1E0AC
:10013000EC22C0E8FC2217FF0AC0D1E0ED1AF1085A
:10014000CEEFEC2AFF24FA94DFEFED1AFD0ABE9CF5
:100150006001BF9CD00C11242C0D3D1D17FF02C067
:100160000F5F1F4F01962D939A01A8015595479552
:100170002A3031050CF0A9CF9C0135952795211522
:10018000310581F0DC01A80DB91D820E931E21916D
:100190003E91AF0141505109EA0138832C93E81593
:1001A000F905A9F7DF91CF911F910F91FF90EF9083
:1001B000DF90CF90BF90AF909F908F9008958F92D7
:1001C0009F92AF92BF92DF92EF92FF920F931F9395
:1001D000CF93DF938C01EB01D42EFC010190002022
:1001E000E9F73197E81BF90B6E177F07A8F11C168A
:1001F0001D0694F5FC0180E090E004C00196C8174C
:10020000D90751F121912111F9CF009729F1C81790
:10021000D90711F1F801EC0FFD1F10825E01A81A39
:10022000B90AE12CF12CC80101974C011A141B04E6
:100230008CF4AE01B401C8010E9453239FEFE91A68
:10024000F90AEA14FB04A9F76D2D70E0A701C801B3
:100250000E94652381E001C080E0DF91CF911F9172
:100260000F91FF90EF90DF90BF90AF909F908F9095
:10027000089540E30C94DF0040E20C94DF00089501
:10028000FC018181811109C08081882381F09BE379
:1002900091838150808380E0089581508183811112
:1002A00008C081E09081992319F080E0089581E0F1
:1002B000089587FFFACF8081EACFFC018181908188
:1002C0008B3379F09C337CF49B3379F021E0280F59
:1002D00021838B53843418F411829F5F908380E0D4
:1002E00008959B33CCF381E008958C33E4F791E0DB
:1002F000980F918381E09B3391F7F6CF6F927F92B5
:100300008F929F92AF92BF92CF92DF92EF92FF9225
:100310000F931F93CF93DF93CDB7DEB765970FB6DB
:10032000F894DEBF0FBECDBF89879A87FB018A0193
:100330007901A985BA858C91811181C012961C9290
:100340001E92119781E08C93EE24E394F12C812C82
:10035000912C5401808191819C0140E050E02983DF
:100360003A834B835C83CA01B9010E942F22A50105
:10037000940169837A838B839C8369817A818B81E1
:100380009C810E9416215B016C01AB01BC01A98517
:10039000BA8513964D935D936D937C931697E016F3
:1003A000F10608F4DEC0FD01128211829801110FDE
:1003B000440B550B29833A834B835C83CA01B901F3
:1003C0000E9431229B01AC01A982BA82CB82DC82DD
:1003D00069817A818B819C810E9487216D877E87CC
:1003E0008F87988BA985BA8513966D937D938D938E
:1003F0009C93169718961C921E9217971A961C9209
:100400001E921997FD01138614861586168682E0C2
:10041000808380E065960FB6F894DEBF0FBECDBF37
:10042000DF91CF911F910F91FF90EF90DF90CF90D0
:10043000BF90AF909F908F907F906F900895813084
:1004400009F41DC1823029F71196AD90BC90450189
:10045000880C991C860E971EF401808191819C0165
:1004600040E050E029833A834B835C83CA01B901A1
:100470000E942F223B016C01A985BA8513968D91AC
:100480009D910D90BC91A02D8D839E83AF83B887E5
:100490009C01AD0169827A82CB82DC8269817A819A
:1004A0008B819C810E94E1221816DCF5E985FA8592
:1004B00087819085019690878783D4018D919C9147
:1004C0009C0140E050E029833A834B835C83CA015E
:1004D000B9010E942F223B016C012D813E814F8189
:1004E000588569837A828B83DC8269817A818B81EA
:1004F0009C810E9415219B01AC01A985BA851B96A0
:100500006D917D918D919C911E970E941621698B12
:100510007A8B8B8B9C8BE985FA85638774878587BB
:1005200096879301A6016D817E818F8198850E94B7
:10053000E12218165CF4A985BA8519968D919C91D3
:100540001A9701961A969C938E931997BFEFAB1A40
:10055000BB0AA016B10650F4E985FA85B282A182E1
:1005600058CF1296FC92EE92119753CFA985BA8577
:1005700012961C921E9211971C921B962D913D91E2
:100580004D915C911E9729833A834B835C8320E0D5
:1005900030E0A90169817A818B819C810E9482214E
:1005A00087FD5BC0E985FA85878190852185328545
:1005B000821B930B9C01990F440B550B29873A879B
:1005C0004B875C87CA01B9010E94312229813A8197
:1005D0004B815C8169837A838B839C8369817A8177
:1005E0008B819C810E94E6226B018D8B9987009FF5
:1005F000C001019F900D900D11249C01990F440B97
:10060000550B29833A834B835C83CA01B9010E944D
:1006100031229B01AC01C982DA828D898B83998555
:100620009C8369817A818B819C810E9487212D81A5
:100630003E814F81588569837A838B839C8369814E
:100640007A818B819C810E941621D7016D937D93C5
:100650008D939C93139781E0DDCE29813A814B8164
:100660005C81505829833A834B835C83A985BA8582
:100670001B962D933D934D935C931E9793CFA98525
:10068000BA8513968D909D90AD90BC90169711965B
:10069000ED90FC90C701880F991FE80FF91FBFEF7D
:1006A000EB1AFB0A57CE86B3829581700895C49ADF
:1006B000BC98E0E1F5E083E593E0938382838FE9E2
:1006C0009FE00197F1F700C000000280F381E02D68
:1006D0000995982F9170E1E1F5E0808190FB81F917
:1006E00090FB82F98860808308950F931F93CF93C6
:1006F000DF938091110580FD21C0E0911205F091FA
:10070000130509959091110592FB222720F9C22F1C
:1007100020E0D22F282F082E000C330BC217D3074E
:1007200041F0880F880F847081609A7F892B8093B5
:100730001105DF91CF911F910F91089580911005C0
:1007400091E0980F843039F090931005DF91CF91AC
:100750001F910F91089510921005E0911205F091EC
:10076000130509959091110592FB002700F910E0FF
:10077000282F082E000C330B0217130771F080FB93
:1007800092F990931105809111058E7F8093110548
:10079000DF91CF911F910F910895880F827088602B
:1007A000957F892B80931105EECFFC01A5A5B6A5F9
:1007B00027A581E090E001C0880F2A95EAF79C9177
:1007C000613021F0809589238C930895892B8C9337
:1007D0000895FC0120A131A133A322A3A5A5B6A5AC
:1007E00047A581E090E001C0880F4A95EAF79C9107
:1007F000121613061CF4892B8C9308958095892377
:100800008C930895AF92BF92CF92DF92EF92FF92B6
:100810000F931F93CF93DF9300D000D000D0CDB7BC
:10082000DEB78D839E83CB01AD81BE8112962D9163
:100830003C911397260F371F13963C932E931297D4
:1008400018960D911C911997021713070CF0BAC056
:1008500013961C930E93129714962D913C91159715
:100860007C01E21AF30A1796FC92EE9216971596FF
:100870009C938E9314979C01990F440B550B2983DD
:100880003A834B835C83CA01B9010E943122AD8156
:10089000BE8152962D913D914D915C915597698302
:1008A0007A838B839C8369817A818B819C810E946E
:1008B000E6225B016C019801110F440B550B298353
:1008C0003A834B835C83CA01B9010E943122AD8116
:1008D000BE8156962D913D914D915C9159976983BA
:1008E0007A838B839C8369817A818B819C810E942E
:1008F000E6229B01AC01A982BA82CB82DC826981AB
:100900007A818B819C810E9416216B018C01970159
:10091000FF0C440B550B29833A834B835C83CA013C
:10092000B9010E943122AD81BE815A962D913D912F
:100930004D915C915D9769837A838B839C836981F8
:100940007A818B819C810E94E6229B01AC01C98245
:10095000DA820B831C8369817A818B819C810E945E
:10096000162169837A838B839C8369817A818B8149
:100970009C810E94F921462F572FED81FE8120890D
:100980003189249FC001259F900D349F900D112423
:1009900091A380A32485358528173907E4F431A372
:1009A00020A30F900F900F900F900F900F90DF915A
:1009B000CF911F910F91FF90EF90DF90CF90BF905C
:1009C000AF900895FD0102851385201731075CF46F
:1009D0001383028341CF26853785821793070CF74F
:1009E00031A320A3DECF890137CFAF92BF92CF9240
:1009F000DF92EF92FF920F931F93CF93DF9300D07C
:100A000000D000D0CDB7DEB78D839E83CB01AD8102
:100A1000BE8112962D913C911397260F371F139686
:100A20003C932E93129718960D911C9119970217CB
:100A300013070CF0A5C013961C930E9312971496EF
:100A40002D913C9115977C01E21AF30A1796FC92BE
:100A5000EE92169715969C938E9314979C01990F7E
:100A6000440B550B29833A834B835C83CA01B9013C
:100A70000E943122AD81BE8152962D913D914D91C2
:100A80005C91559769837A838B839C8369817A8192
:100A90008B819C810E94E6225B016C019801110F01
:100AA000440B550B29833A834B835C83CA01B901FC
:100AB0000E943122AD81BE8156962D913D914D917E
:100AC0005C91599769837A838B839C8369817A814E
:100AD0008B819C810E94E6229B01AC01A982BA8293
:100AE000CB82DC8269817A818B819C810E94162174
:100AF0006B018C019701FF0C440B550B29833A8342
:100B00004B835C83CA01B9010E943122AD81BE8151
:100B10005A962D913D914D915C915D9769837A83B1
:100B20008B839C8369817A818B819C810E94E622E0
:100B30009B01AC01C982DA820B831C8369817A81B3
:100B40008B819C810E94162169837A838B839C838D
:100B500069817A818B819C810E94F921CB010F9060
:100B60000F900F900F900F900F90DF91CF911F91EA
:100B70000F91FF90EF90DF90CF90BF90AF900895CE
:100B8000FD0102851385201731071CF413830283AE
:100B900056CF890154CFFC01268D378D2F5F3F4FF3
:100BA000378F268F84A14485558587FD18C062A1A3
:100BB00073A1161617069CF481110CC081A592A58D
:100BC0002817390770F0178E168E21E024A320E035
:100BD00030E007C0813019F42617370738F581A5B2
:100BE00092A5840F951F43A554A5840F951F281720
:100BF000390708F40895178E168E14A220A131A18A
:100C000033A322A3A5A5B6A547A581E090E001C026
:100C1000880F4A95EAF79C91121613061CF4892B4B
:100C20008C930895809589238C9308956417750794
:100C3000B4F6A5A5B6A52C9137A581E090E001C03A
:100C4000880F3A95EAF7809582238C93268D378D0D
:100C500081A592A544855585C4CFAF92BF92CF920E
:100C6000DF92EF92FF920F931F93CF93DF9300D009
:100C700000D000D0CDB7DEB78D839E83CB01AD8190
:100C8000BE8112962D913C911397260F371F139614
:100C90003C932E93129718960D911C911997021759
:100CA00013070CF0D2C013961C930E931297149650
:100CB0002D913C9115977C01E21AF30A1796FC924C
:100CC000EE92169715969C938E9314979C01990F0C
:100CD000440B550B29833A834B835C83CA01B901CA
:100CE0000E943122AD81BE8152962D913D914D9150
:100CF0005C91559769837A838B839C8369817A8120
:100D00008B819C810E94E6225B016C019801110F8E
:100D1000440B550B29833A834B835C83CA01B90189
:100D20000E943122AD81BE8156962D913D914D910B
:100D30005C91599769837A838B839C8369817A81DB
:100D40008B819C810E94E6229B01AC01A982BA8220
:100D5000CB82DC8269817A818B819C810E94162101
:100D60006B018C019701FF0C440B550B29833A83CF
:100D70004B835C83CA01B9010E943122AD81BE81DF
:100D80005A962D913D914D915C915D9769837A833F
:100D90008B839C8369817A818B819C810E94E6226E
:100DA0009B01AC01C982DA820B831C8369817A8141
:100DB0008B819C810E94162169837A838B839C831B
:100DC00069817A818B819C810E94F921462F572F5E
:100DD000ED81FE8120893189249FC001259F900DDE
:100DE000349F900D112491A380A324853585281765
:100DF00039071CF531A320A38091860680FF0CC023
:100E0000ED81FE8185A196A1019696A385A327A1D8
:100E100030A58217930720F50F900F900F900F9039
:100E20000F900F90DF91CF911F910F91FF90EF9056
:100E3000DF90CF90BF90AF900895268537858217B9
:100E40009307D4F631A320A3D7CFFD0102851385E4
:100E5000201731071CF41383028329CF890127CF80
:100E600016A215A2CF010F900F900F900F900F9028
:100E70000F90DF91CF911F910F91FF90EF90DF9036
:100E8000CF90BF90AF900C94CB05E4E1F5E0908754
:100E900087836187089590931805809317050895B7
:100EA00081E0809314050895E4E1F5E03185A781A0
:100EB000B0852C9181E090E002C0880F991F3A958F
:100EC000E2F78095909582238C931082089583E0B9
:100ED000809314050895E4E1F5E091850780F0859D
:100EE000E02D808121E030E001C0220F9A95EAF7E1
:100EF000822B80830895E4E1F5E031850780F08559
:100F0000E02D208181E090E002C0880F991F3A9582
:100F1000E2F780959095822380830895809114054F
:100F2000813009F472C080911405823021F18091E2
:100F30001405833009F450C080911405843009F001
:100F400008958091860680FFFBCF809115059091D2
:100F500016050196909316058093150520911705A7
:100F6000309118058217930758F38091140581502A
:100F70008093140508958091860680FFD8CF8091D4
:100F80001505909116050196909316058093150509
:100F9000209115053091160580911705909118053F
:100FA0002817390720F21092160510921505309176
:100FB0001D05E0911B05F0911C05208181E090E06A
:100FC00002C0880F991F3A95E2F780959095822389
:100FD000808310921405ABCF90911D05E0911B0505
:100FE000F0911C05808121E030E001C0220F9A952C
:100FF000EAF78227808310921605109215058091DA
:1010000014058F5F80931405089590911D05E0915C
:101010001B05F0911C05808121E030E001C0220F0A
:101020009A95EAF7822B8083109216051092150587
:10103000809114058F5F8093140579CF80B38695D6
:101040008170089580B38170089586B383FB8827EB
:1010500080F9089580B386FB882780F9089589B3C5
:1010600086958170089586B38170089589B383FB56
:10107000882780F90895CF93DF9300D000D000D067
:10108000CDB7DEB729833A834B835C836D837E8340
:1010900090E1899FD0011124A25DBA4F86E0FE0144
:1010A000319601900D928A95E1F70F900F900F9075
:1010B0000F900F900F90DF91CF910895CF93DF9312
:1010C000CDB7DEB72C970FB6F894DEBF0FBECDBFFD
:1010D00089988898BB988E98D198B898D398E5E26B
:1010E000F5E08EE198E09183808382E298E0918B35
:1010F000808B85E298E091A380A38AE298E091AB8F
:1011000080AB8FE298E0909366058093650583E35A
:1011100098E0909376058093750586E398E0909328
:10112000860580938505CE01079626E0FC01119285
:101130002A95E9F72F8121602F8326E0FC01DE014B
:10114000119601900D922A95E1F726E0FE01319665
:10115000AEE2B5E001900D922A95E1F726E0FC01A0
:10116000DE01119601900D922A95E1F726E0FE012D
:101170003196AEE3B5E001900D922A95E1F726E0B5
:10118000FC01DE01119601900D922A95E1F726E00F
:10119000FE013196AEE4B5E001900D922A95E1F79B
:1011A00026E0FC01DE01119601900D922A95E1F7EF
:1011B00026E0FE013196AEE5B5E001900D922A954C
:1011C000E1F726E0FC01DE01119601900D922A95CF
:1011D000E1F726E0FE013196AEE6B5E001900D9212
:1011E0002A95E1F726E0FC01DE01119601900D92AF
:1011F0002A95E1F726E0FE013196AEE7B5E00190D1
:101200000D922A95E1F726E0FC01DE01119601908E
:101210000D922A95E1F786E0FE013196AEE8B5E041
:1012200001900D928A95E1F72C960FB6F894DEBFE7
:101230000FBECDBFDF91CF910895E4E3F5E080814B
:101240008D7F8083E4E4F5E080818D7F8083E4E519
:10125000F5E080818D7F8083E4E6F5E080818D7FFD
:101260008083E4E7F5E080818D7F8083E4E8F5E02A
:1012700080818D7F8083E4E9F5E080818D7F8083AC
:10128000089590E1899FF0011124EC5CFA4F808170
:1012900082FB882780F9089590E1899FF00111244D
:1012A000EC5CFA4F808186958170089590E1899F6A
:1012B000F0011124EC5CFA4F8081826080830895F4
:1012C00090E1899FF0011124EC5CFA4F80818D7FC1
:1012D0008083089590E1899FF0011124EB5DFA4F1E
:1012E0000280F381E02D099490E18902F00111243C
:1012F000EC5CFA4F80818170089590E18902F001E1
:101300001124EC5CFA4F808185FB882780F90895D1
:1013100090E18902F0011124EC5CFA4F80818F7D0D
:1013200080830895EF92FF920F931F93CF93DF93E3
:1013300006E010E00CC0E881F9810995811103C035
:101340008C818F5F8C830150110908F440C08AE1C1
:101350008A95F1F700C07801E294F29480EFF822C8
:10136000FE24E822FE24E701CB5DDA4F8C8188233E
:1013700011F38C818130C9F08C81823079F18C81BC
:10138000833009F78D818F5F8D838130E1F61D8277
:10139000E881F9810995813041F5F701EC5CFA4F5C
:1013A00080818E7F80831C82CECF8D818F5F8D83E5
:1013B000813049F61D82E881F9810995811115C0B6
:1013C000F701EC5CFA4F808181608083B9CFDF91B7
:1013D000CF911F910F91FF90EF900895E881F981CF
:1013E0000995813009F0AFCFABCF8C8181508C83D0
:1013F000AACF90E18902F0011124EB5DFA4F9681AA
:1014000081E0983009F0089580E00895FF920F93ED
:101410001F93CF93DF9320E030E079E0FAE0FF2ED6
:1014200063E042E05BE052C0FC01EB5DFA4FB68145
:10143000B93009F49AC0FC01EB5DFA4FB681BA30BD
:1014400009F4A4C0FC01EB5DFA4FB681B63009F493
:10145000B2C0FC01EB5DFA4FB681B73039F4EC0154
:10146000CC5CDA4FB881B260B8834683FC01EB5D97
:10147000FA4FB681B43009F418C1FC01EB5DFA4FA4
:10148000B681B53009F4E1C0FC01EB5DFA4FB681DD
:10149000B13009F4D2C0FC01EB5DFA4FB681B23035
:1014A00009F4C0C0FC01EB5DFA4FB681B33009F41A
:1014B000B1C0FC01EB5DFA4FB681BB3009F486C0C8
:1014C0002F5F3F4F2730310509F49EC0C901829537
:1014D0009295907F9827807F9827FC01EB5DFA4FCB
:1014E000B681B11113C0B685BB2341F0E685F0E0AB
:1014F000E25EFA4FE081E13009F41FC1EC01CC5CFF
:10150000DA4FE881E170E13009F405C1FC01EB5DDF
:10151000FA4FB681B83068F0B681BB3050F4EC01B8
:10152000CC5CDA4FB881B0FD04C010861782B3E0FE
:10153000B683FC01EB5DFA4FB681B83009F074CF89
:10154000C781D0852196D087C78302851385C017B0
:10155000D10708F469CF108617827683FC01EB5D12
:10156000FA4FB681B93009F066CFEC01CC5CDA4FA6
:10157000B881B1FD60CFB881B260B883F682FC015A
:10158000EB5DFA4FB681BA3009F05CCFC781D085E8
:101590002196D087C78304851585C017D10708F425
:1015A00051CF108617827683FC01EB5DFA4FB6812E
:1015B000B63009F04ECFEC01CC5CDA4FB881B0FD0B
:1015C00048CFB881B260B883668343CFB685BB236A
:1015D00059F0E685F0E0E25EFA4F1082FC01EC5C27
:1015E000FA4FB081B77FB083FC01EB5DFA4F1682F2
:1015F000FC01EC5CFA4F80818F7E80832F5F3F4F30
:101600002730310509F062CFDF91CF911F910F9103
:10161000FF900895EC01CC5CDA4FB881B1FD49CF61
:10162000568347CFEC01CC5CDA4FB881B0FD3ACF9E
:10163000B881BD7FB883568335CFEC01CC5CDA4FDF
:10164000B881B0FD28CF668326CFC781D08521968B
:10165000D087C783EC01CC5CDA4FB881B0FD0FC0F6
:10166000078110850333110550F410861782B88165
:10167000B260B883B881BB7FB883B3E0B683FC01A6
:10168000EB5DFA4FC781D085CB34D10508F4FCCE91
:1016900010861782EC01CC5CDA4FB881B260B88357
:1016A000B881B460B8834683EFCEC781D0852196D8
:1016B000D087C783EC01CC5CDA4FB881B0FD0FC096
:1016C000078110850333110550F410861782B88105
:1016D000B260B883B881BB7FB883B3E0B683FC0146
:1016E000EB5DFA4FC781D085E39708F4C6CE10862C
:1016F0001782EC01CC5CDA4FB881B260B883B88154
:10170000B460B883EC01C25DDA4FB881B1FD1CC092
:10171000B1E0B683B2CEDC01A25DBA4FFC91F0FF1E
:1017200016C0F881F260F883FC91F1FF3BC0B8E08D
:10173000FC01EB5DFA4FB68312C0FC01EC5CFA4F82
:10174000E081E3FDDBCEE2CEBAE0B68396CEEC914B
:10175000E2FF1CC0B6E0FC01EB5DFA4FB683FC0172
:10176000EC5CFA4FB081B061B083EC01CB5DDA4F35
:10177000BE85BB2309F4CACECE85D0E0C25EDA4F67
:10178000B1E0B883B081B860B083C0CEEC91E3FD26
:101790000EC0EC91E4FF11C0B4E0FC01EB5DFA4F28
:1017A000B683DDCFEC01CB5DDA4FEE83D8CFB7E067
:1017B000FC01EB5DFA4FB683D2CFEC91E5FFCFCFC2
:1017C000B5E0FC01EB5DFA4FB683E881E062E883A7
:1017D000C6CF0E9492090C94060A8091340580FDC0
:1017E00019C08091440580FD15C08091540580FD8D
:1017F00011C08091640580FD0DC08091740580FD4D
:1018000009C08091840580FD05C080919405809574
:101810008170089580E00895E4E3F5E080818D7F94
:101820008083E4E4F5E080818D7F8083E4E5F5E06A
:1018300080818D7F8083E4E6F5E080818D7F8083E9
:10184000E4E7F5E080818D7F8083E4E8F5E0808146
:101850008D7F8083E4E9F5E080818D7F808308952A
:101860008091340584FD1BC08091440584FD17C020
:101870008091540584FD13C08091640584FD0FC0E0
:101880008091740584FD0BC08091840584FD07C0A0
:10189000909194059295917081E0891B089580E064
:1018A00008959093A5058093A4050895CF93DF93A1
:1018B000CDB7DEB72A970FB6F894DEBF0FBECDBF07
:1018C0008091C0059091BE0590FD33C018160CF4B0
:1018D00098C08091C20518160CF493C08091C4057D
:1018E00018160CF48EC02091BB05822F022E000C1E
:1018F000990BA22FAA0FBB0BA154BA4F3C913111E7
:101900006AC0880F991FFC01E554FA4F85811816AB
:10191000A4F12F5F2093BB05233014F01092BB0578
:101920002A960FB6F894DEBF0FBECDBFDF91CF91E0
:10193000089591E081111BC08091C2058111D3CF20
:101940008091C4058111CFCF913069F60E94540770
:101950008091BE058E7F8093BE0588E0E9EAF5E0C0
:10196000ADE0B6E001900D928A95E1F7BCCF90E032
:101970008091C2058111B7CFE3CF0E94B41344E038
:1019800050E06BEA74E0CE0101960E946C2344E0C3
:1019900060E0CE0101960E9470138091BB05882300
:1019A00039F1813009F459C0823009F45FC044E054
:1019B00064E0CE0101960E947013E091BB05EE0F2A
:1019C000FF0BE154FA4F80818F5F80831092BD0539
:1019D0001092BC05A5CF313009F0A2CF880F991F16
:1019E000FC01E554FA4F8581811125C01C9298CFE6
:1019F00044E050E067EA74E0CE0101960E946C2357
:101A0000D6CF8091BE0581608093BE0586E990E0C7
:101A10000E944B070E94670760E087E196E00E9402
:101A2000D50388E0EDE0F6E0A9EAB5E001900D927B
:101A30008A95E1F758CF8091860680FF71CF80911B
:101A4000BC059091BD050196883E33E09307B8F43C
:101A50009093BD058093BC0563CF44E050E063EAFA
:101A600074E0CE0101960E946C23A1CF44E050E0C7
:101A70006FE974E0CE0101960E946C2398CF10921A
:101A8000BD051092BC051C9244CF9093C60580936F
:101A9000C5050895E091C505F091C6051182108233
:101AA0008170826094819C7F892B84830895E0916A
:101AB000C505F091C605808191810196918380834F
:101AC000228133818217930750F011821082948112
:101AD000892F8095817082609C7F892B84830895F3
:101AE00097B1907E8F71982B97B9089527B12F7376
:101AF00030E4839FC0011124822B87B9089596B1E9
:101B0000987F892B86B90895379A08953798089554
:101B1000811102C03D9808953D9A089585B10895B8
:101B200084B1089597B19F7320E4629FB00111249E
:101B3000692B67B996B1987F492B46B98F3F59F009
:101B4000359A20B72F7030E28302C0011124822B16
:101B500080BF379A08953598379A089597B1907E47
:101B60008F71982B97B9369A089597B1907E8F719F
:101B7000982B97B9369A349BFECF349A08953599AD
:101B800019C097B1907E8F71892B87B9369A349B93
:101B9000FECF349A24B13D9B14C085B190E0880FEC
:101BA000991F880F991F2295269526952370820FDD
:101BB000911D0895349A349BFECF349A24B13D99F7
:101BC000ECCF85B190E0982F8827820F911D089562
:101BD000AF92BF92CF92DF92EF92FF920F931F933B
:101BE000CF93DF9300D000D000D0CDB7DEB75B013C
:101BF0008C0120E030E048EC52E46983BA828B83A8
:101C00001C8369817A818B819C810E9415212FEA36
:101C100030ED4FEA5EE369837A838B839C8369812D
:101C20007A818B819C810E94872169837A838B834F
:101C30009C8369817A818B819C810E94F9216D83CB
:101C40007E838D819E818F3F91050CF497C0AEEF0E
:101C5000B0E0BE83AD83ED81FE81EE0FFF1FEE0F7E
:101C6000FF1FE956FF4FC080D180E280F3808D8155
:101C70009E81092E000CAA0BBB0B89839A83AB8330
:101C8000BC83BC01CD010E9431222FEA30ED4FEA26
:101C90005EE369837A838B839C8369817A818B81FC
:101CA0009C810E94E62220E030E048EC52E4698307
:101CB0007A838B839C8369817A818B819C810E944A
:101CC00016219B01AC01A982BA820B831C83698116
:101CD0007A818B819C810E9415215B018C01AD81F1
:101CE000BE81AA0FBB1FAA0FBB1FA556BF4FA701DE
:101CF00096016D917D918D919C910E9415219B0182
:101D0000AC01A982BA820B831C8369817A818B81A1
:101D10009C810E94E6222FEA30ED4FEA5EE3698360
:101D20007A838B839C8369817A818B819C810E94D9
:101D30008721A701960169837A838B839C836981BC
:101D40007A818B819C810E94162169837A838B839F
:101D50009C8369817A818B819C810F900F900F9079
:101D60000F900F900F90DF91CF911F910F91FF90E7
:101D7000EF90DF90CF90BF90AF90089597FF6BCF1B
:101D80001E821D8268CF0F931F93CF93DF938C0128
:101D9000EB0144E060E0CE010E9461130F3F1007A9
:101DA00009F1083E83E0180774F08BE188838BE02B
:101DB000898389E38A83CE010296DF91CF911F91B7
:101DC0000F910C94261343E0BE01C8010E94BC137E
:101DD00080EF8B83CE010296DF91CF911F910F91FF
:101DE0000C94261387E1888389E18983CE010296CA
:101DF000DF91CF911F910F910C9426138091C8050C
:101E00009091C905892B61F18091870681FD02C0FF
:101E100080E00895809187068D7F809387061092D9
:101E2000C9051092C80544B185B12091480630918A
:101E30004906F901EE0FFF1FE552FA4F90E0982F87
:101E40008827840F911D918380832F5F3F4F24311A
:101E50003105B8F4309349062093480680E0089590
:101E600081E00E94760D82E00E94AE0D8091C8054F
:101E70009091C90501969093C9058093C80580E0AB
:101E80000895109249061092480681E008954F92F5
:101E90005F926F927F92AF92BF92CF92DF92EF925A
:101EA000FF920F931F93CF93DF93CDB7DEB72897A1
:101EB0000FB6F894DEBF0FBECDBF8C019E012F5F21
:101EC0003F4F44E150E06BED75E08AEC95E00E94F5
:101ED0007E01811115C028960FB6F894DEBF0FBEA3
:101EE000CDBFDF91CF911F910F91FF90EF90DF90C9
:101EF000CF90BF90AF907F906F905F904F9008957C
:101F000089819A81AB81BC818D839E83AF83B887A1
:101F100020E030E0A901BC01CD010E94E1221816A9
:101F20000CF0E4C023E332E348EC5DE36D817E8195
:101F30008F8198850E94E62220E030E048EC52E450
:101F40006D837E838F8398876D817E818F81988555
:101F50000E94162123E738E641E85FE36D837E8324
:101F60008F8398876D817E818F8198850E94E6227C
:101F70005B016C0120E030E048EC52E46D83BE82EE
:101F80008F83D8866D817E818F8198850E941521EF
:101F90002FEA30ED4FEA5EE36D837E838F8398876F
:101FA0006D817E818F8198850E9487216D837E83DC
:101FB0008F8398876D817E818F8198850E94F9211A
:101FC0007B019FEFE916F1040CF089C0F7FC8BC090
:101FD000F701EE0FFF1FEE0FFF1FE956FF4F408086
:101FE000518062807380C7010F2C000CAA0BBB0BC1
:101FF0008D839E83AF83B887BC01CD010E943122BF
:102000002FEA30ED4FEA5EE36D837E838F839887FE
:102010006D817E818F8198850E94E62220E030E0EC
:1020200048EC52E46D837E838F8398876D817E8137
:102030008F8198850E9416219B01AC01AD82BE82E2
:10204000CF82D8866D817E818F8198850E941521EF
:102050005B016C01F701EE0FFF1FEE0FFF1FE5564E
:10206000FF4FA301920160817181828193810E945F
:1020700015219B01AC01AD82BE82CF82D8866D81D5
:102080007E818F8198850E94E6222FEA30ED4FEA0B
:102090005EE36D837E838F8398876D817E818F81E0
:1020A00098850E948721A30192016D837E838F838F
:1020B00098876D817E818F8198850E9416216D831E
:1020C0007E838F8398876D817E818F8198850E9422
:1020D000F921CB01D8018D939C9381E0FCCE2EEFAA
:1020E000E22EF12C75CFE12CF12C72CF80E090E044
:1020F000F1CF8F929F92AF92BF92CF92DF92EF92E9
:10210000FF920F931F93CF93DF93CDB7DEB728973E
:102110000FB6F894DEBF0FBECDBF8091860681FD5D
:1021200014C080E028960FB6F894DEBF0FBECDBF76
:10213000DF91CF911F910F91FF90EF90DF90CF90A3
:10214000BF90AF909F908F9008958091C7058111A7
:1021500033C08091C8059091C905892B09F46DC1E0
:1021600080918706869581708130D9F69091870697
:102170009D7F909387061092C9051092C80594B16F
:1021800025B14091480650914906FA01EE0FFF1F14
:10219000E552FA4F30E0322F2227290F311D3183CB
:1021A00020834F5F5F4F4431510508F056C1509373
:1021B000490640934806B5CF9E012F5F3F4F44E14B
:1021C00050E06BED75E08AEC95E00E947E0188237B
:1021D00009F4A7CF29813A814B815C812D833E830D
:1021E0004F83588720E030E0A9016D817E818F8187
:1021F00098850E94E12218160CF03CC123E332E3DB
:1022000048EC5DE36D817E818F8198850E94E62296
:1022100020E030E048EC52E46D837E838F83988722
:102220006D817E818F8198850E94162123E738E693
:1022300041E85FE36D837E838F8398876D817E8124
:102240008F8198850E94E6226B017C0120E030E0BE
:1022500048EC52E46D83DE828F83F8866D817E8147
:102260008F8198850E9415212FEA30ED4FEA5EE3B9
:102270006D837E838F8398876D817E818F81988522
:102280000E9487216D837E838F8398876D817E81F5
:102290008F8198850E94F9218B016F3F71050CF0A9
:1022A000E3C077FDE4C0F801EE0FFF1FEE0FFF1F44
:1022B000E956FF4F80809180A280B380C801012E33
:1022C000000CAA0BBB0B8D839E83AF83B887BC0128
:1022D000CD010E9431222FEA30ED4FEA5EE36D839B
:1022E0007E838F8398876D817E818F8198850E9400
:1022F000E62220E030E048EC52E46D837E838F8359
:1023000098876D817E818F8198850E9416219B011F
:10231000AC01CD82DE82EF82F8866D817E818F8175
:1023200098850E9415216B017C01F801EE0FFF1FBB
:10233000EE0FFF1FE556FF4FA501940160817181EB
:10234000828193810E9415219B01AC01CD82DE82A6
:10235000EF82F8866D817E818F8198850E94E622CA
:102360002FEA30ED4FEA5EE36D837E838F8398879B
:102370006D817E818F8198850E948721A5019401BE
:102380006D837E838F8398876D817E818F81988511
:102390000E9416216D837E838F8398876D817E8155
:1023A0008F8198850E94F921CB0190930406809338
:1023B00003062091CB0620FD36C09C01990F440BEB
:1023C000550B2D833E834F835887CA01B9010E9464
:1023D000312226E636E646EE5FE36D837E838F8309
:1023E00098876D817E818F8198850E94E62220E00A
:1023F00030E040E052E46D837E838F8398876D8167
:102400007E818F8198850E9416216D837E838F83C4
:1024100098876D817E818F8198850E94F9217093C4
:102420000406609303061092C70580918606897F93
:1024300084608093860681E075CE81E00E94760DEF
:1024400082E00E94AE0D8091C8059091C905019669
:102450009093C9058093C80564CE109249061092E6
:1024600048068093C7055DCE0EEF10E01CCF00E05C
:1024700010E019CF80E090E098CF87B3806B87BBE6
:1024800087E18DB908958FB9779BFECF8FB10895FD
:10249000CF93DF9300D000D0CDB7DEB7979825E07B
:1024A0002A95F1F7000080E00E944312898380E0C2
:1024B0000E9443123AE13A95F1F700C0979A82FDE3
:1024C0003EC04981942F96958795969587959695C8
:1024D00087959C0140E050E029833A834B835C83DD
:1024E000CA01B9010E942F2220E030EF4FE754E4E7
:1024F00069837A838B839C8369817A818B819C81B8
:102500000E94E62220E030EF4FE755E469837A83AA
:102510008B839C8369817A818B819C810E94872136
:1025200069837A838B839C8369817A818B819C8187
:102530000F900F900F900F90DF91CF91089560E072
:1025400070E080E89FEBECCFCF93DF93979885E026
:102550008A95F1F70000C6B3C5FBCC27C0F9C19539
:102560006E9A8C2F0E944312D82F8C2F0E944312F8
:102570009AE19A95F1F700C06E98979A282F30E06B
:1025800082FD0BC0C9019D2B9695879596958795E1
:1025900096958795DF91CF9108958FEF9FEFFACFB2
:1025A00080930C0670930B0660930A0650930906FD
:1025B00040930806309307062093060608958091FD
:1025C0000506815087FF03C080910C06815024E0EE
:1025D0008202C0011124E0910606F0910706E80F7F
:1025E000F91F0190F081E02D099580910506082ED4
:1025F000000C990BA0910A06B0910B06E091080619
:10260000F0910906E80FF91F20812C93880F991F7C
:10261000880F991FE0910606F0910706E80FF91F51
:102620000280F381E02D0995809105068F5F8093EC
:102630000506082E000C990B20910C0630E082173D
:10264000930709F00895109205060895FC01408152
:10265000242F30E0C90195958795959587958470CD
:10266000220F331F220F331F2071822B4B7E842BAE
:1026700080830895EDE0F6E04281242F30E0C90127
:1026800095958795959587958470220F331F220F16
:10269000331F2071822B4B7E842B82834681242F13
:1026A00030E0C90195958795959587958470220F9F
:1026B000331F220F331F2071822B4B7E842B868386
:1026C00008959C0114165CF4460F862F6F5FF90184
:1026D000E80FF11D87FDFA9510826413F6CF089577
:1026E00014166CF4DC01460FE62F6F5F8D910E2EF1
:1026F000000CFF0BE35FF94F80836413F5CF08955F
:10270000FC01862F062E000C990B161664F52091FD
:102710000D0620838130910531F120910E06218331
:102720008230910501F120910F06228383309105BB
:10273000D1F020911006238384309105A1F02091DF
:10274000110624838530910571F0209112062583AE
:102750008630910541F0209113062683079719F0E2
:102760008091140687830895EDE0F6E088E0DF01AC
:102770001D928A95E9F70895CF92DF92EF92FF922A
:102780000F931F93CF93DF93CDB7DEB72A970FB682
:10279000F894DEBF0FBECDBF7C018B01C42E042E8A
:1027A000000CDD08141634F4A60160E070E0C801E6
:1027B0000E946523BE016F5F7F4FC7010E944900E1
:1027C0009C01C81AD90A181619060CF091C0C60146
:1027D0000196E981F0E0ED53FB4F6081F801EC0DCB
:1027E000FD1D60832130310509F482C0B6016E5FA2
:1027F0007F4F800F911FEA81F0E0ED53FB4FE081A6
:10280000DC01EC932230310509F472C0C601039655
:10281000600F711FEB81F0E0ED53FB4FE081DB01B6
:10282000EC932330310509F463C0B6016C5F7F4F30
:10283000800F911FEC81F0E0ED53FB4FE081DC0154
:10284000EC932430310509F453C0C6010596600F9E
:10285000711FED81F0E0ED53FB4FE081DB01EC9364
:102860002530310509F444C0B6016A5F7F4F800FFF
:10287000911FEE81F0E0ED53FB4FE081DC01EC9322
:1028800026303105A9F1C6010796600F711FEF814F
:10289000F0E0ED53FB4FE081DB01EC932730310595
:1028A00039F1B601685F7F4F800F911FE885F0E036
:1028B000ED53FB4FE081DC01EC9328303105C1F092
:1028C000A601475F5F4F600F711FE985F0E0ED5390
:1028D000FB4F8081FB0180832930310549F0F801ED
:1028E000E40FF51FAA85B0E0AD53BB4F8C918083F8
:1028F0002A960FB6F894DEBF0FBECDBFDF91CF9101
:102900001F910F91FF90EF90DF90CF900895DF928D
:10291000EF92FF920F931F93CF93DF93CDB7DEB764
:102920002A970FB6F894DEBF0FBECDBFD82E092F61
:102930007B01142F141634F450E06BEE70E0C701E5
:102940000E946523BE016F5F7F4F8D2D902F0E94E7
:1029500049009C01412F110F550B481B590B1816AC
:1029600019060CF090C0CA010196E981F0E0ED5320
:10297000FB4F6081F701E40FF51F608321303105C3
:1029800009F481C0BA016E5F7F4F8E0D9F1DEA81F1
:10299000F0E0ED53FB4FE081DC01EC932230310598
:1029A00009F471C0CA0103966E0D7F1DEB81F0E042
:1029B000ED53FB4FE081DB01EC932330310509F44B
:1029C00062C0BA016C5F7F4F8E0D9F1DEC81F0E0FD
:1029D000ED53FB4FE081DC01EC932430310509F429
:1029E00052C0CA0105966E0D7F1DED81F0E0ED53DA
:1029F000FB4FE081DB01EC932530310509F443C046
:102A0000BA016A5F7F4F8E0D9F1DEE81F0E0ED539E
:102A1000FB4FE081DC01EC9326303105A1F1CA01C6
:102A200007966E0D7F1DEF81F0E0ED53FB4FE081C7
:102A3000DB01EC932730310531F1BA01685F7F4F3C
:102A40008E0D9F1DE885F0E0ED53FB4FE081DC012A
:102A5000EC9328303105B9F0475F5F4F6E0D7F1D55
:102A6000E985F0E0ED53FB4F8081FB018083293045
:102A7000310549F0F701E40FF51FAA85B0E0AD5329
:102A8000BB4F8C9180832A960FB6F894DEBF0FBEA1
:102A9000CDBFDF91CF911F910F91FF90EF90DF900D
:102AA0000895FC018081846080830895FC01808109
:102AB0008B7F8083089595980895959A08959298AC
:102AC0000895929A089593980895939A08959498E2
:102AD0000895949A0895DF980895DF9A0895DE98EE
:102AE0000895DE9A0895DD980895DD9A0895DC989A
:102AF0000895DC9A0895CF93DF9320E630E04DE00F
:102B000056E065E370E088E00E94D012C0E6D0E0B5
:102B1000E881F9810995249680E0C038D807C1F78B
:102B20008D9A8A9A8B9A8C9AD79AD69AD59AD49A51
:102B300084B38FEF84BBDF91CF910895E7E1F6E096
:102B400024E630E030A727A38AE090E0918B808BC9
:102B5000358724871786168625E030E032A721A71F
:102B600022E330E034A723A74DEC5CEC6CEC7EE371
:102B7000428B538B648B758B4DEC5CEC6CEC7DE382
:102B8000468B578B608F718F128E138E148E158E1D
:102B9000138612869187808788E390E096A785A7A1
:102BA00082E087A708958091C5069091C60620917E
:102BB000030630910406821B930B21E030E086303F
:102BC000910514F02AE030E03093200620931F0690
:102BD00008950F931F93CF93DF9300D000D000D0C0
:102BE000CDB7DEB78C0186E0E0E8F0E0DE011196BB
:102BF00001900D928A95E1F72981216029833A811C
:102C00004B815C816D817E81F80181810E943B084E
:102C100029813A814B815C816D817E81F8018081BF
:102C20000E943B0829812E7D206229833A814B81B5
:102C30005C816D817E81F80184810E943B0829813D
:102C40002C7D236029838AE0382F8A831B8282E0CF
:102C5000582F8C831D821E8240E060E070E0F801F6
:102C600082810E943B0829813A814B815C816D8180
:102C70007E81F80183810F900F900F900F900F903D
:102C80000F90DF91CF911F910F910C943B088FE42F
:102C900096E00E94E91589E696E00C94E91589E32F
:102CA000E1EDF4E0ABE4B6E001900D928A95E1F736
:102CB000EBE4F6E081E0868382E0878393E090870F
:102CC00086E0868F84E080A325E021A392A3828FF3
:102CD0000895CDB7DEB762970FB6F894DEBF0FBE8A
:102CE000CDBF0E947B1546E050E064E070E085ECCB
:102CF00096E00E9484230E944F16919A909AC39A5C
:102D0000969AD99AC09ADB9A8FE99FE00197F1F7DA
:102D100000C000000E945E080E945703C298BA9A41
:102D200047E061E08FEF0E94920D82E00E94700DFB
:102D3000369A349BFECF349A339A80918606897FE7
:102D4000826080938606C19AB998BD9A65E088E34F
:102D500090E00E9445078BE490E00E944B0712BE72
:102D60008BE083BF89EF8CBF89B7826089BF78947D
:102D70000E949E150E94B41344E050E06BE974E099
:102D8000CE0101960E946C2344E060E0CE010196E2
:102D90000E94701344E050E067E974E0CE010196B0
:102DA0000E946C2344E064E0CE0101960E947013FF
:102DB00000E010E0C12CD12CE12CF12CA0900B05EF
:102DC000B0900C0590900A0545C08091850686FF5D
:102DD0003AC00E947910882339F01092C005809182
:102DE00085068A60809385068091860682FF0EC0E4
:102DF0002091150630911606232B09F49EC0909160
:102E0000870696959170913009F4A9C031E020E0D1
:102E1000B19B02C030E021E09091850630FB95F92E
:102E2000909385062093C40580FF08C08FEFE81AB1
:102E3000F80A94E1E916F10409F4B5C08091850619
:102E40008570853079F10E948E07809186068E7F8D
:102E5000809386068091870680FF0AC0809187064E
:102E60008E7F809387068091860681608093860698
:102E70008091860680FFA9CF0E94DF12809185068F
:102E800086FDA7CF9091860690FFDDCF0F5F1F4F85
:102E9000083B9BE01907BCF280648093850600E044
:102EA00010E0D1CF0E94560C809185068A738A3338
:102EB00051F690918406992309F4B8C08091800658
:102EC000913009F4D8C0923009F41FC1823008F45F
:102ED000C7C0823009F4EFC0833009F4D0C08091BC
:102EE0007F0682FDA0C06091C5067091C6068091E4
:102EF000030690910406681B790B81E090E0663030
:102F0000710514F08AE090E09093200680931F06EC
:102F100087E196E00E942D068091860680FF93CF80
:102F20008FEFC81AD80A94E1C916D10409F08BCFE3
:102F30000E94E90BC12CD12C86CF83E00E94760D34
:102F400080E00E94AE0D80911506909116060196C4
:102F500090931606809315068091860657CF809130
:102F600087068D7F809387061092160610921506AD
:102F700084B125B130E0322F2227280F311D2B33A9
:102F80003105D0F490E021E08091850690FB84F932
:102F9000809385062093C20580918606897F826092
:102FA0008093860633CF0E9475038091110583FDBF
:102FB00005C0E12CF12C42CF20E0E6CF877F809343
:102FC0001105809185068460809385068BE490E0EE
:102FD0000E944B070E9450070E94B4138091110574
:102FE00081FD71C06091C5067091C606809103068F
:102FF00090910406681B790B81E090E066307105C2
:10300000BCF59093200680931F0687E196E00E940E
:10301000020487E196E00E94E903809185068160C1
:1030200080938506C6CF0E94CD1E5DCF8FE496E0CB
:103030000E94E91589E696E00E94E91544E060E007
:103040008FEA94E00E94701380917F0681608093E4
:103050007F0610928006809184068F5F809384069D
:1030600083E00E944C0981117FC08091800631CF9E
:103070008AE090E0C6CF92E09093840627CF0E942A
:103080005920813009F02BCF90917F0690FF9FC08F
:10309000109280068FE496E00E94E91589E696E09A
:1030A0000E94E9150E94B41344E060E08FEA94E0C6
:1030B0000E94701314CF0E94051F813009F46EC066
:1030C0008091800609CF809185068E7F809385064A
:1030D00044E064E08FEB94E00E94701360E087E1CD
:1030E00096E00E94D5030E944F16B0928506A092EA
:1030F00084068AE0E1EBF5E0ABEBB5E001900D92E0
:103100008A95E1F70E94540754CF8111DFCE809158
:1031100003069091040697FDA3CF88EE93E00E94EA
:103120004B070E94500780917F068E7F80937F0619
:1031300081E0809380068FE496E00E94E91510926A
:10314000540689E696E00E94E91510926E06809179
:103150007F06846080937F06809184068F5F8093D2
:10316000840680918006B2CE83E00E94600983E0ED
:103170000E944109813009F454C083E080938006A5
:103180009092830688EE93E00E944B070E945007BE
:1031900068E0CE010B960E94801367CF90917F0666
:1031A00090FF2AC0109280068FE496E00E94E915F5
:1031B00089E696E00E94E9150E94B41344E060E0BD
:1031C0008FEA94E00E9470138091800685CE8093F0
:1031D00080068FE496E00E94E9151092540689E675
:1031E00096E00E94E91510926E0648E060E0CE017C
:1031F0000B960E94701373CE809380068FE496E046
:103200000E94E9151092540689E696E00E94E9159D
:1032100010926E0648E060E0CE010B960E9470139B
:103220004FCF82E0809380069092810688EE93E0F3
:103230000E944B070E94500742E050E060E070E0BF
:1032400082E996E00E94942342E050E062E070E060
:103250008CEA96E00E9494239BCF8F938FB78F9335
:10326000809187068160809387068F918FBF8F91B1
:1032700018958F938FB78F93809187068260809384
:1032800087068F918FBF8F911895EF92FF920F93C2
:103290001F93CF93DF9300D0CDB7DEB77C018B01B6
:1032A000FC01808142E0BE016F5F7F4F082E000C61
:1032B000990B0E94BC138A819981F80190838183C4
:1032C000F701818142E0BE016F5F7F4F082E000C45
:1032D000990B0E9487147801F2E0EF0EF11C8A81AD
:1032E0009981F80192838383C80101960E94511548
:1032F000C7010E945115C7010E9426130F900F901D
:10330000DF91CF911F910F91FF90EF9008951F9340
:10331000CF93DF93CDB7DEB72A970FB6F894DEBF11
:103320000FBECDBFDC01FB0149875A874C913CE3BE
:103330004303A001112411962C91420F511D27FD2A
:103340005A9520812303C00111242181820F911DF0
:1033500027FD9A95A985BA852C9123039001112404
:1033600011966C91260F311D67FD3A95821B930BC8
:10337000481B590B10E060E0141615067CF5CA01D5
:10338000550FAA0BBB0B8D839E83AF83B887BC01FF
:10339000CD010E94312220E030E040E752E4698311
:1033A0007A838B839C8369817A818B819C810E9443
:1033B000872169837A838B839C8369817A818B815E
:1033C0009C810E94F921162F6D817E818F819885C5
:1033D0002CE330E040E050E00E94D420A985BA857B
:1033E0001C9311966C932A960FB6F894DEBF0FBE0D
:1033F000CDBFDF91CF911F9108957F928F929F92C1
:10340000AF92BF92CF92DF92EF92FF920F931F93F2
:10341000CF93DF93CDB7DEB766970FB6F894DEBFD4
:103420000FBECDBF0BE416E080E0A82E80E0B82EE2
:1034300098E8C92E96E0D92EE12CF12C20E9822EB5
:10344000992493943AE1732ED80156969C928E92C9
:10345000559742E050E0B501C8010A960E948423C6
:10346000F80182859385D6011B969C938E931A97BB
:10347000158614867E9CF0017F9CF00D1124DF01DF
:10348000A75AB94F8C9182608C93D80113961C92E5
:103490001397E35BF94F8081816080838091800680
:1034A000813049F1C80104960E94E915F80111869E
:1034B000EA94EF2861F0065E1F4F82E0A80EB11C6F
:1034C000AAE1CA0ED11CEE24E394F12CBDCF66967E
:1034D0000FB6F894DEBF0FBECDBFDF91CF911F9125
:1034E0000F91FF90EF90DF90CF90BF90AF909F90A3
:1034F0008F907F9008951A968C9142E0BE016B5E8A
:103500007F4F082E000C990B0E94BC138E899D8959
:1035100099838A83F801838542E0BE016B5E7F4F09
:10352000082E000C990B0E9487148E899D899B831D
:103530008C83CE0102960E945115CE0103960E9403
:103540005115CE0103960E94261344E0D8016C91D8
:10355000CE0101960E947013A5CF5F926F927F9269
:103560008F929F92AF92BF92CF92DF92EF92FF9293
:103570000F931F93CF93DF93CDB7DEB76E970FB640
:10358000F894DEBF0FBECDBF0BE416E082E9C82E73
:1035900086E0D82E90E0A92E90E0B92EE12CF12CF7
:1035A0002AE1522EC80143960E94450DD801169675
:1035B0008C910E944C09882361F05E9CF0015F9C15
:1035C000F00D1124E75AF94F808182FD02C080FF7F
:1035D00098C1F80187810E944C09882361F05E9CA4
:1035E000F0015F9CF00D1124E75AF94F808182FDB4
:1035F00002C080FF61C1D80116968C910E946009BB
:10360000F80187810E946009D80119968C91199759
:10361000882309F471C0813009F424C15E9CC00183
:103620005F9C900D1124FC01E45AF94F208120FD8C
:103630002EC05E9CF0015F9CF00D1124E35AF94FFF
:10364000808181FDDAC0065E1F4FFAE1CF0ED11CEA
:1036500022E0A20EB11CEF2821F4EE24E394F12C19
:10366000A1CF6E960FB6F894DEBF0FBECDBFDF912F
:10367000CF911F910F91FF90EF90DF90CF90BF906F
:10368000AF909F908F907F906F905F900895FC0116
:10369000EE59F94F808181FF07C08D7F8083909123
:1036A0008006913009F457C18091860680FFC1CF12
:1036B000D8011F968D919C910196883BBBE09B079A
:1036C0000CF4F6C0D80150961C921E921F978AE106
:1036D0008E9D90018F9D300D1124F901E35AF94F11
:1036E000808182608083275A394FD9019C9190FD57
:1036F00029C08E7F80839DCF14968C910E944C09A7
:10370000882309F48BCFF80184810E94600988EE38
:1037100093E00E944B070E9450078AE18E9D400172
:103720008F9D900C1124F401E35AF94F808180FDA4
:1037300022C181608083F401E75AF94F8081816062
:1037400080836CCFF60140812CE34203A001112459
:103750003181430F511D37FD5A95D5016C9162039C
:10376000B001112411963C91630F711D37FD7A95BC
:10377000F80132853203C00111242385820F911D87
:1037800027FD9A95681B790B461B570B14161506D7
:103790000CF08FC1CA01550FAA0BBB0B8B8F9C8FEE
:1037A000AD8FBE8FBC01CD010E94312220E030E000
:1037B00040E752E46F8B788F898F9A8F6F89788D6D
:1037C000898D9A8D0E9487216F8B788F898F9A8F30
:1037D0006F89788D898D9A8D0E94F921D8011A966A
:1037E0006C936B8D7C8D8D8D9E8D2CE330E040E055
:1037F00050E00E94D420F80163878AE18E9D400149
:103800008F9D900C1124F401E35AF94F80818D7F34
:10381000808342E050E0B501C6010E949423D601A6
:103820008D919C91F80193878287F401E45AF94FB6
:1038300080818E7F8083D8011D961C921E921C97DA
:10384000F401E75AF94F80818260808313961C92BD
:103850001397F401E35BF94F8081816080831996AF
:103860001C92F1CE14968C910E944C09882309F485
:10387000D5CEF80184810E94600988EE93E00E9411
:103880004B070E9450078AE18E9DF0018F9DF00D3D
:103890001124DF01A55BB94F52968C91529783603A
:1038A00052968C93E75AF94F808181608083B6CE1F
:1038B000F801908B8787BDCED80117968C910E9416
:1038C000F909882309F4B4C08AE18E9DF0018F9D27
:1038D000F00D1124DF01A35BB94F8C918E7F8C9387
:1038E000E45AF94F80818160808381E0F80181870B
:1038F0008383108A17860E944A0DC6010E945D01CB
:103900007ACEF80186810E94F909882309F497C0CC
:103910008AE18E9DF0018F9DF00D1124DF01A35BE4
:10392000B94F8C918E7F8C93E45AF94F80818160DE
:10393000808381E0D80119968C93199713968C9304
:10394000139750961C921E921F970E944A0DC60113
:103950000E9440013ECE80FD38C044E060E0CE01D0
:1039600001960E94611344E0D8016C91CE0101964A
:103970000E94701399CE8E7F8083C401875A994F1D
:103980003C01DC018C918E7F8C9342E050E0B501CC
:10399000C8010A960E948423F80115861486D30173
:1039A0008C9182608C931382F401E35BF94F8081E8
:1039B000816080838C918B7F8C9380918006813095
:1039C00009F444C00E947B0729CEF601808142E0C1
:1039D000BE016B5E7F4F082E000C990B0E94BC133A
:1039E0008E899D8999838A83D60111968C9142E0B4
:1039F000BE016B5E7F4F082E000C990B0E9487144E
:103A00008E899D899B838C83CE0102960E945115DD
:103A1000CE0103960E945115CE0103960E942613F3
:103A200044E0F8016081CE0101960E9470133CCE03
:103A30008BE490E00E944B070E94500745CF8BE437
:103A400090E00E944B070E94500762CFF8018285E8
:103A500042E0BE016B5E7F4F082E000C990B0E9466
:103A6000BC138E899D8999838A83D8011B968C917A
:103A700042E0BE016B5E7F4F082E000C990B0E9446
:103A800087148E899D899B838C83CE0102960E9428
:103A90005115CE0103960E945115CE0103960E9446
:103AA000261344E0F8016081CE0101960E94701354
:103AB00089CF12861386A1CE9F92AF92BF92CF92EA
:103AC000DF92EF92FF920F931F93CF93DF930BE45C
:103AD00016E0C0E0D0E08AE1982EC80143960E942B
:103AE000450D9C9E70019D9EF00C1124F701E75A34
:103AF000F94F6F01808180FD15C0065E1F4FCD2BF1
:103B000029F441E0C42F80E0D82FE7CFDF91CF9197
:103B10001F910F91FF90EF90DF90CF90BF90AF90EB
:103B20009F9008958091860680FF0DC0F8018485DE
:103B300095859C012F5F3F4F873E934009F458C005
:103B4000F801358724878AE18C9FF0018D9FF00D65
:103B50001124E75AF94F808181FFCFCFF801838587
:103B600081113AC0F8018285811136C08AE18C9FAB
:103B7000F0018D9FF00D1124E75AF94F90819E7F3F
:103B800090839C2F9F5F90FBAA24A0F8B12C8A9D64
:103B9000F0018B9DF00D1124DF01A75AB94F8C91D4
:103BA00082FF3CC0E25AF94F87E0D801539601905A
:103BB0000D928A95E1F78AE18C9FF0018D9FF00DBF
:103BC0001124DF01A35BB94F8C918E7F8C93E75A50
:103BD000F94F8081846080838AE18C9FF0018D9F02
:103BE000F00D1124E75AF94F80818D7F808385CFB6
:103BF000F80115861486C8010A960E944001F60154
:103C0000808182608083F80183818111A7CFF701D1
:103C1000E35BF94F808181608083A0CF81E00E94C7
:103C20004A0DC9CFCF92DF92EF92FF920F931F936D
:103C3000CF93DF93CDB7DEB766970FB6F894DEBFAC
:103C40000FBECDBF0BE416E0E12CF12CC80143966A
:103C50000E94450DF8018381811104C08091800686
:103C60008130A1F0065E1F4FEF2809F03FC0EE241F
:103C7000E394F12CC80143960E94450DF80183811D
:103C80008111F0CF80918006813061F72AE12E9D6D
:103C9000C0012F9D900D11249C01235B394F6901B8
:103CA000F901808180FD31C02AE12E9DC0012F9D48
:103CB000900D1124FC01E75AF94F208122FFD2CF49
:103CC0008E59994FFC01808180FD55C044E060E031
:103CD000CE0101960E94611344E0F8016081CE019B
:103CE00001960E9470130E946B07BCCF66960FB6B8
:103CF000F894DEBF0FBECDBFDF91CF911F910F9122
:103D0000FF90EF90DF90CF900895F801828542E018
:103D1000BE016B5E7F4F082E000C990B0E94BC13F6
:103D20008E899D8999838A83F801838542E0BE014B
:103D30006B5E7F4F082E000C990B0E9487148E89B2
:103D40009D899B838C83CE0102960E945115CE01E2
:103D500003960E945115CE0103960E94261344E05B
:103D6000F8016081CE0101960E947013F6018081F6
:103D70008E7F808399CF44E050E06BEB74E0CE01FE
:103D800001960E946C2344E0F8016081CE01019607
:103D90000E9470130E947B0765CF80918206882362
:103DA00019F180918006813051F10E945C1D809153
:103DB0008006813009F008950E94121E80918006CD
:103DC0008130C9F78EE596E00E94450D8091860608
:103DD00080FD18C088E796E00E94450D8091860618
:103DE00080FFE9CF0C94570D0E94FD198091820647
:103DF0008F5F80938206809180068130B1F60E94A9
:103E0000AD1AD3CF0E94570DE5CFEF92FF920F93DB
:103E10001F93CF93DF93CDB7DEB72A970FB6F894F1
:103E2000DEBF0FBECDBF8CEB96E00E94450D8091AA
:103E30008106811181C086E0E0E8F0E0DE011196A4
:103E400001900D928A95E1F72981216029833A81B9
:103E50004B815C816D817E81809153060E943B087D
:103E600029813A814B815C816D817E8180916D06D3
:103E70000E943B08809181068F5F8093810680E9D4
:103E800091E09093BF068093BE068091C306909107
:103E9000C406892B21F08091C00681FD18C083E003
:103EA0000E944C0910E081112CC08091860680FD93
:103EB00040C0812F2A960FB6F894DEBF0FBECDBF4B
:103EC000DF91CF911F910F91FF90EF9008958D7F1B
:103ED0008093C00680FF52C08E010F5F1F4FB80154
:103EE0008091C5069091C6060E94C30E44E064E02E
:103EF000C8010E94701383E00E944C0910E08823DF
:103F0000A1F283E00E946009809181068F5F809317
:103F100081068330E1F1853009F4AFC010E080E51F
:103F200090E00E944B070E9450078091860680FF18
:103F3000C0CF0E94570DBDCF813081F18230D1F1C9
:103F4000833009F447C0843009F09FCF0BE416E0BA
:103F50008FE7E82E86E0F82EF80186810E944C0952
:103F6000811168C0F80187810E944C0981113EC00F
:103F7000065E1F4FE016F10679F787CF44E060E058
:103F80008E010F5F1F4FC8010E946113AFCF81E008
:103F900090E09093C4068093C306C0CF44E060E0F5
:103FA00087EB94E00E947013809181068F5F80936D
:103FB00081066BCFBE016F5F7F4F809103069091AA
:103FC00004060E94C30E44E064E0CE0101960E9404
:103FD00070135BCF44E060E083EB94E00E947013C9
:103FE000809181068F5F809381064FCFF801878192
:103FF0000E946009F80187810E94F909882309F469
:1040000051C081E00E944A0D8091C5069091C6067C
:1040100001969093C6068093C5062091C9063091FB
:10402000CA06821793070CF4A3CF3093C6062093D9
:10403000C5069ECFF80186810E946009F80186813D
:104040000E94F909882339F181E00E944A0D80918C
:10405000C5069091C60601979093C6068093C50643
:104060002091C7063091C806281739070CF47ACF7B
:104070003093C6062093C50675CF46E050E064E055
:1040800070E085EC96E00E9494231092C406109292
:10409000C30611E044CF8BE490E00E944B070E94DE
:1040A0005007D2CF8BE490E00E944B070E9450074C
:1040B000A8CF1F93CF93DF93CDB7DEB72A970FB664
:1040C000F894DEBF0FBECDBF80918306811135C04D
:1040D00086E0E0E8F0E0DE01119601900D928A950D
:1040E000E1F72981216029833A814B815C816D81CF
:1040F0007E81809153060E943B0829813A814B8141
:104100005C816D817E8180916D060E943B0880916B
:1041100083068F5F8093830610E083E00E944C0942
:10412000811117C0812F2A960FB6F894DEBF0FBEFB
:10413000CDBFDF91CF911F9108958130C9F08230BA
:1041400019F111E0833041F783E00E944C09882384
:1041500049F383E00E946009809183068F5F80931A
:1041600083068BE490E00E944B070E945007DACF51
:1041700044E060E087EB94E00E9470138091830636
:104180008F5F80938306C8CFBE016F5F7F4F8091A2
:104190000306909104060E94C30E44E064E0CE0141
:1041A00001960E947013B8CF052E97FB1EF4009461
:1041B0000E94EB2057FD07D00E94F32007FC03D09C
:1041C0004EF40C94EB2050954095309521953F4F3F
:1041D0004F4F5F4F089590958095709561957F4FF3
:1041E0008F4F9F4F0895A1E21A2EAA1BBB1BFD0102
:1041F0000DC0AA1FBB1FEE1FFF1FA217B307E407C6
:10420000F50720F0A21BB30BE40BF50B661F771F1D
:10421000881F991F1A9469F76095709580959095FD
:104220009B01AC01BD01CF0108955058BB27AA27BF
:104230000E942D210C94A7220E94992238F00E94FE
:10424000A02220F039F49F3F19F426F40C94962212
:104250000EF4E095E7FB0C949022E92F0E94B8221F
:1042600058F3BA17620773078407950720F079F4AB
:10427000A6F50C94DA220EF4E0950B2EBA2FA02DA1
:104280000B01B90190010C01CA01A0011124FF2703
:10429000591B99F0593F50F4503E68F11A16F040FE
:1042A000A22F232F342F4427585FF3CF46953795FD
:1042B0002795A795F0405395C9F77EF41F16BA0BC2
:1042C000620B730B840BBAF09150A1F0FF0FBB1F70
:1042D000661F771F881FC2F70EC0BA0F621F731FB9
:1042E000841F48F4879577956795B795F7959E3F16
:1042F00008F0B0CF9395880F08F09927EE0F9795A7
:10430000879508950E946C2208F481E008950E9428
:104310009B210C94A7220E94A02258F00E9499226F
:1043200040F029F45F3F29F00C94902251110C9435
:10433000DB220C9496220E94B82268F39923B1F3F1
:10434000552391F3951B550BBB27AA2762177307BB
:10435000840738F09F5F5F4F220F331F441FAA1F4F
:10436000A9F335D00E2E3AF0E0E832D0915050400B
:10437000E695001CCAF72BD0FE2F29D0660F771FB9
:10438000881FBB1F261737074807AB07B0E809F09F
:10439000BB0B802DBF01FF2793585F4F3AF09E3F24
:1043A000510578F00C9490220C94DB225F3FE4F3EB
:1043B000983ED4F3869577956795B795F7959F5F67
:1043C000C9F7880F911D9695879597F90895E1E0B3
:1043D000660F771F881FBB1F621773078407BA0712
:1043E00020F0621B730B840BBA0BEE1F88F7E0956D
:1043F00008950E9400226894B1110C94DB22089564
:104400000E94C02288F09F5798F0B92F9927B75182
:10441000B0F0E1F0660F771F881F991F1AF0BA9568
:10442000C9F714C0B13091F00E94DA22B1E00895CA
:104430000C94DA22672F782F8827B85F39F0B93FBC
:10444000CCF3869577956795B395D9F73EF490951B
:104450008095709561957F4F8F4F9F4F0895E89499
:1044600009C097FB3EF490958095709561957F4FBC
:104470008F4F9F4F9923A9F0F92F96E9BB2793956A
:10448000F695879577956795B795F111F8CFFAF47A
:10449000BB0F11F460FF1BC06F5F7F4F8F4F9F4FAB
:1044A00016C0882311F096E911C0772321F09EE809
:1044B000872F762F05C0662371F096E8862F70E06F
:1044C00060E02AF09A95660F771F881FDAF7880F49
:1044D0009695879597F90895990F0008550FAA0B9F
:1044E000E0E8FEEF16161706E807F907C0F0121607
:1044F0001306E407F50798F0621B730B840B950B0A
:1045000039F40A2661F0232B242B252B21F408955E
:104510000A2609F4A140A6958FEF811D811D0895FB
:1045200097F99F6780E870E060E008959FEF80EC66
:10453000089500240A941616170618060906089509
:1045400000240A9412161306140605060895092E6F
:104550000394000C11F4882352F0BB0F40F4BF2BDE
:1045600011F460FF04C06F5F7F4F8F4F9F4F08951E
:1045700057FD9058440F551F59F05F3F71F0479514
:10458000880F97FB991F61F09F3F79F087950895F9
:10459000121613061406551FF2CF4695F1DF08C018
:1045A000161617061806991FF1CF86957105610535
:1045B00008940895E894BB2766277727CB0197F9DD
:1045C00008950E946C2208F48FEF08950E94F9224A
:1045D0000C94A7220E94992238F00E94A02220F079
:1045E000952311F00C9490220C94962211240C9493
:1045F000DB220E94B82270F3959FC1F3950F50E023
:10460000551F629FF001729FBB27F00DB11D639F84
:10461000AA27F00DB11DAA1F649F6627B00DA11D2A
:10462000661F829F2227B00DA11D621F739FB00DD0
:10463000A11D621F839FA00D611D221F749F332740
:10464000A00D611D231F849F600D211D822F762FD9
:104650006A2F11249F5750409AF0F1F088234AF0B6
:10466000EE0FFF1FBB1F661F771F881F9150504022
:10467000A9F79E3F510580F00C9490220C94DB2208
:104680005F3FE4F3983ED4F3869577956795B795A9
:10469000F795E7959F5FC1F7FE2B880F911D9695C3
:1046A000879597F908956817790768F4FB01DC018D
:1046B000E40FF51FA40FB51F02C002900E924150E7
:1046C0005040D8F708950C947B23DC0101C06D9312
:1046D00041505040E0F70895FB01DC01415050404B
:1046E00048F001900D920020C9F701C01D92415081
:1046F0005040E0F70895FB01DC0102C001900D92EB
:1047000041505040D8F70895DC01CB01FC01E199FC
:10471000FECF06C0FFBBEEBBE09A31960DB20D9204
:1047200041505040B8F70895DC01A40FB51F415027
:10473000504048F0CB01840F951F2E910E94A52375
:1047400041505040D0F70895262FE199FECF9FBBEE
:104750008EBBE09A01970DB2021631F02DBB0FB659
:0E476000F894E29AE19A0FBE0895F894FFCF04
:10476E005B155D155F156115631565156715691583
:10477E006B156D156F1571157315751577157915F3
:10478E00000000000000000000000000000000001B
:10479E000000000000000073986EB777F3603F557D
:1047AE00FBE03F50C22840910A614060AB8C40460E
:1047BE00D3A8400DFDC440B728E1404356FD40D973
:1047CE00C20C4181DB1A41F1F42841910F374102AD
:1047DE002B4541AE475341C36461417B836F419C7E
:1047EE00A27D417CE1854113F28C41120394417B01
:1047FE00149B418126A2412439A941FB4BB0417043
:10480E005FB7414D73BE41C887C541AC9CCC41F9E1
:10481E00B1D341E3C7DA4135DEE141F1F4E84115A8
:10482E000CF041D723F741363CFE4165AA0242FD0A
:10483E00360642CAC30942E5500D4235DE1042D457
:10484E006B14428CF9174294871B42EA151F42746F
:10485E00A422423333264227C2294268512D42F9FF
:10486E00E03042A47034429D003842E5903B4262F3
:10487E00213F4213B24242F84246422CD44942AF43
:10488E00654D424CF7504252895442711B5842E0DA
:10489E00AD5B4283405F4275D362429B66664210B7
:1048AE00FA69429F8D6D4296217142A8B5744223DA
:1048BE004A7842B8DE7B429C737F42678481420E07
:1048CE004F8342E8198542D0E48642DFAF88421614
:1048DE007B8A4266468C42D1118E4264DD8F421035
:1048EE00A99142D7749342D2409542DA0C9742096D
:1048FE00D9984253A59A42C4719C424F3E9E4202A1
:10490E000BA042CFD7A142C3A4A342D171A54207A7
:10491E003FA742570CA942C1D9AA4252A7AC420B9B
:10492E0075AE42D142B042CB10B242E0DEB3420E7F
:10493E00ADB542647BB742D549B9426C18BB421E35
:10494E00E7BC42EAB5BE42EA84C042F853C2422DE9
:10495E0023C44289F2C542FFC1C7426891C9424889
:10496E0061CB422731CD420601CF4268D1D04248B9
:10497E00A1D242AA71D4428F42D642F212D842D765
:10498E00E3D942BCB4DB42A285DD428756DF42F05A
:10499E0027E14258F9E242C1CAE442AC9CE6429891
:1049AE006EE8428340EA426F12EC425AE4ED42C98D
:1049BE00B6EF423789F142A65BF342982EF5428953
:1049CE0001F7427BD4F8426DA7FA42E17AFC42D35A
:1049DE004DFE42A4100043A0FA00435AE401435690
:1049EE00CE024352B803434EA204438B8C0543C9F7
:1049FE0076064306610743444B0843C335094342D9
:104A0E00200A43C10A0B433FF50B4300E00C43C1A0
:104A1E00CA0D4381B50E4383A00F43448B1043460A
:104A2E00761143486112438B4C1343CF3714431214
:104A3E00231543560E16439AF916431FE51743A442
:104A4E00D0184329BC1943F0A71A43B6931B437DD4
:104A5E007F1C43446B1D434C571E4354431F435C02
:104A6E002F2043641B2143AE072243F8F322434217
:104A7E00E02343CDCC244317B92543A2A526436F8B
:104A8E00922743FA7E2843C76B294393582A4360E3
:104A9E00452B436F322C437D1F2D438B0C2E439A97
:104AAE00F92E43E9E62F4339D4304389C13143D936
:104ABE00AE32436A9C3343FC8934438D7735436071
:104ACE006536433353374306413843D92E3943EEC7
:104ADE001C3A43020B3B4317F93B432BE73C438104
:104AEE00D53D43D7C33E432DB23F43C5A040435CA3
:104AFE008F4143F47D42438B6C4343645B4443FCE0
:104B0E0049454317394643F02747430A174843257B
:104B1E000649433FF549435AE44A43B6D34B431241
:104B2E00C34C43B0B24D430CA24E43AA914F4348DF
:104B3E008150432771514306615243E5505343C59B
:104B4E00405443A4305543C5205643E510574348BF
:104B5E0001584368F15843CBE159436FD25A43D1C0
:104B6E00C25B4375B35C4319A45D43BC945E43A220
:104B7E00855F43877660436D676143525862437920
:104B8E00496343A03A6443C72B65432F1D66439880
:104B9E000E6743000068431582079BF3698279B75D
:104BAE002900003DF182293937071979110500F1E5
:104BBE00116D007A792D00EB8229009B1B0779EB92
:104BCE00716500EB82D9DAB27A3BC2FBF2000000CB
:104BDE0000000000000000000000000000000000C7
:104BEE0000000000000000000000000000000000B7
:104BFE0000000000000000000000000000000000A7
:0E4C0E00000000000000000000000000000098
:00000001FF
