:100000000C942A000C9447000C9447000C94470071
:100010000C9447000C9447000C9447000C94470044
:100020000C9447000C9447000C94261C0C94470039
:100030000C9447000C9447000C9447000C94470024
:100040000C94321C0C9447000C9447000C9447000D
:100050000C94470011241FBECFE5D8E0DEBFCDBF12
:1000600015E0A0E6B0E0E0E6FDE402C005900D92E8
:10007000A831B107D9F727E0A8E1B5E001C01D928A
:10008000AD31B207E1F70E94AF190C94AE260C9483
:1000900000008F929F92AF92BF92CF92DF92EF9229
:1000A000FF920F931F93CF93DF93AC014B0180E03E
:1000B00090E057FD77C0FB01DB0180E090E01DEC94
:1000C000A12E6DEC7CEC05E0B02E352F330F330BF9
:1000D000232F2370F22E8A01129502950F700127AB
:1000E0001F7001270F70242F2F70200F152F1F70E6
:1000F000210F152F12951F70210F2F0D2A9D112DE5
:100100001124012F069506951C7F100F211B3C7FA3
:10011000230F022E000C330B7A01E21AF30AE69E3B
:100120008001E79E100DF69E100D11247801C1E0AC
:10013000EC22C0E8FC2217FF0AC0D1E0ED1AF1085A
:10014000CEEFEC2AFF24FA94DFEFED1AFD0ABE9CF5
:100150006001BF9CD00C11242C0D3D1D17FF02C067
:100160000F5F1F4F01962D939A01A8015595479552
:100170002A3031050CF0A9CF9C0135952795211522
:10018000310581F0DC01A80DB91D820E931E21916D
:100190003E91AF0141505109EA0138832C93E81593
:1001A000F905A9F7DF91CF911F910F91FF90EF9083
:1001B000DF90CF90BF90AF909F908F9008958F92D7
:1001C0009F92AF92BF92DF92EF92FF920F931F9395
:1001D000CF93DF938C01EB01D42EFC010190002022
:1001E000E9F73197E81BF90B6E177F07A8F11C168A
:1001F0001D0694F5FC0180E090E004C00196C8174C
:10020000D90751F121912111F9CF009729F1C81790
:10021000D90711F1F801EC0FFD1F10825E01A81A39
:10022000B90AE12CF12CC80101974C011A141B04E6
:100230008CF4AE01B401C8010E944C269FEFE91A6C
:10024000F90AEA14FB04A9F76D2D70E0A701C801B3
:100250000E945E2681E001C080E0DF91CF911F9176
:100260000F91FF90EF90DF90BF90AF909F908F9095
:10027000089540E30C94DF0040E20C94DF0090BD51
:1002800089B988E08AB988E18AB986E880BD08958D
:100290005D9BFECF8CB908955F9BFECF8CB1089516
:1002A0001F920F920FB60F9211242F933F934F93EB
:1002B0005F936F937F938F939F93AF93BF93EF93CE
:1002C000FF930E947A05FF91EF91BF91AF919F91AB
:1002D0008F917F916F915F914F913F912F910F90EF
:1002E0000FBE0F901F901895FC018081882339F074
:1002F00031965D9BFECF8CB981918111FACF089523
:10030000FC018081882339F031965D9BFECF8CB94A
:1003100081918111FACF5D9BFECF8AE08CB908955F
:10032000FC018491882339F05D9BFECF8CB9319616
:1003300084918111F9CF0895FC018491882339F0CB
:100340005D9BFECF8CB9319684918111F9CF5D9B75
:10035000FECF8AE08CB908950895FC018181811156
:1003600009C08081882381F09BE391838150808341
:1003700080E0089581508183811108C081E09081DF
:10038000992319F080E0089581E0089587FFFACF5E
:100390008081EACFFC01818190818B3379F09C339D
:1003A0007CF49B3379F021E0280F21838B53843434
:1003B00018F411829F5F908380E008959B33CCF303
:1003C00081E008958C33E4F791E0980F918381E008
:1003D0009B3391F7F6CF6F927F928F929F92AF925D
:1003E000BF92CF92DF92EF92FF920F931F93CF9322
:1003F000DF93CDB7DEB765970FB6F894DEBF0FBEBB
:10040000CDBF89879A87FB018A017901A985BA85C1
:100410008C91811181C012961C921E92119781E0DD
:100420008C93EE24E394F12C812C912C5401808147
:1004300091819C0140E050E029833A834B835C83A7
:10044000CA01B9010E942825A501940169837A8314
:100450008B839C8369817A818B819C810E940F248C
:100460005B016C01AB01BC01A985BA8513964D9364
:100470005D936D937C931697E016F10608F4DEC049
:10048000FD01128211829801110F440B550B298333
:100490003A834B835C83CA01B9010E942A259B01E0
:1004A000AC01A982BA82CB82DC8269817A818B819C
:1004B0009C810E9480246D877E878F87988BA98579
:1004C000BA8513966D937D938D939C93169718968A
:1004D0001C921E9217971A961C921E921997FD0154
:1004E000138614861586168682E0808380E06596E2
:1004F0000FB6F894DEBF0FBECDBFDF91CF911F9135
:100500000F91FF90EF90DF90CF90BF90AF909F90B2
:100510008F907F906F900895813009F41DC18230D3
:1005200029F71196AD90BC904501880C991C860E58
:10053000971EF401808191819C0140E050E0298365
:100540003A834B835C83CA01B9010E9428253B0191
:100550006C01A985BA8513968D919D910D90BC91E2
:10056000A02D8D839E83AF83B8879C01AD016982E6
:100570007A82CB82DC8269817A818B819C810E9424
:10058000DA251816DCF5E985FA85878190850196CC
:1005900090878783D4018D919C919C0140E050E02D
:1005A00029833A834B835C83CA01B9010E942825C1
:1005B0003B016C012D813E814F81588569837A8290
:1005C0008B83DC8269817A818B819C810E940E24DD
:1005D0009B01AC01A985BA851B966D917D918D918A
:1005E0009C911E970E940F24698B7A8B8B8B9C8B1E
:1005F000E985FA8563877487858796879301A601C5
:100600006D817E818F8198850E94DA2518165CF4B1
:10061000A985BA8519968D919C911A9701961A967B
:100620009C938E931997BFEFAB1ABB0AA016B10625
:1006300050F4E985FA85B282A18258CF1296FC92D5
:10064000EE92119753CFA985BA8512961C921E92ED
:1006500011971C921B962D913D914D915C911E9787
:1006600029833A834B835C8320E030E0A9016981D0
:100670007A818B819C810E947B2487FD5BC0E98508
:10068000FA858781908521853285821B930B9C0199
:10069000990F440B550B29873A874B875C87CA0112
:1006A000B9010E942A2529813A814B815C816983A5
:1006B0007A838B839C8369817A818B819C810E9460
:1006C000DF256B018D8B9987009FC001019F900DE5
:1006D000900D11249C01990F440B550B29833A83EB
:1006E0004B835C83CA01B9010E942A259B01AC019E
:1006F000C982DA828D898B8399859C8369817A810D
:100700008B819C810E9480242D813E814F81588560
:1007100069837A838B839C8369817A818B819C81B5
:100720000E940F24D7016D937D938D939C93139713
:1007300081E0DDCE29813A814B815C81505829834B
:100740003A834B835C83A985BA851B962D933D9391
:100750004D935C931E9793CFA985BA8513968D9080
:100760009D90AD90BC9016971196ED90FC90C701AE
:10077000880F991FE80FF91FBFEFEB1AFB0A57CE3E
:100780008091410580FD06C08091400590913F0514
:10079000891B08958091410581FF07C09091400514
:1007A00080914005805E891B089590913F0580915E
:1007B0004005805E891B0895E0914005F0E0E15E10
:1007C000FA4F80838091410580FD10C080914005E3
:1007D0008F5F80934005803209F0089510924005A4
:1007E0008091410581608093410508959091400575
:1007F00080913F059813EACF8091410582608093F4
:100800004105E4CFE0913F05F0E0E15EFA4F8081E1
:1008100090913F059F5F90933F0590913F059F7199
:1008200090933F0520913F0590914005291308952D
:10083000909141059E7F90934105909141059D7F48
:10084000909341050895CF93DF93DC01862F6623B3
:1008500011F19091410590FD21C0AD01460F511D50
:10086000E0913F05F0E0E15EFA4F308190913F0565
:100870009F5F90933F0590913F059F7190933F0537
:1008800020913F0590914005291709F46CC03D93D4
:100890004A175B0729F7DF91CF91089590914105A1
:1008A0009460909341059091410591FD8AC07091AB
:1008B0003F0530E2371B381708F065C0332321F1BC
:1008C000ED01AD01430F511DE0913F05F0E0E15E08
:1008D000FA4F608190913F059F5F90933F05909103
:1008E0003F059F7190933F0520913F0590914005F2
:1008F000291709F47BC06993C417D50729F77052EB
:10090000870F882309F494C090E0232F290FED016D
:10091000C20FD11DE0913F05F0E0E15EFA4F50813A
:1009200020913F052F5F20933F0520913F052F71B8
:1009300020933F0540913F0520914005421709F45F
:1009400045C058839F5F981700F3882309F46EC051
:1009500081503F5F830F909141059B7F90934105AC
:10096000DF91CF910895909141059E7F909341052D
:10097000909141059D7F909341053D93A417B50744
:1009800009F06ECF88CFAD01480F511DE0913F05B2
:10099000F0E0E15EFA4F308190913F059F5F9093C8
:1009A0003F0590913F059F7190933F0520913F0532
:1009B00090914005291751F13D93A417B50731F7E0
:1009C000CACF9091400590933F0571CF209141058A
:1009D0002E7F20934105209141052D7F20934105D5
:1009E00058839F5F981708F490CFAFCF909141053F
:1009F0009E7F90934105909141059D7F9093410585
:100A000069934C175D0709F05FCF79CF909141054D
:100A10009E7F90934105909141059D7F9093410564
:100A20003D93A417B50709F0B1CF95CF80E091CFE2
:100A3000832F91CF8091410580FD17C0E0913F0544
:100A4000F0E0E15EFA4F808190913F059F5F9093C7
:100A50003F0590913F059F7190933F0520913F0581
:100A6000909140052917B1F1089580914105846066
:100A7000809341058091410581FD37C0E0913F059C
:100A8000F0E0E15EFA4F808190913F059F5F909387
:100A90003F0590913F059F7190933F0520913F0541
:100AA00090914005291731F0909141059B7F9093DB
:100AB00041050895909141059E7F90934105909145
:100AC00041059D7F90934105909141059B7F9093B7
:100AD0004105EFCF909141059E7F90934105909104
:100AE00041059D7F90934105089580914005809335
:100AF0003F05C4CF2CB180914105E0911E0582FDD8
:100B000099C01E160CF070C08E2FEE0F990B30910D
:100B10001A05E0914005F0E0E15EFA4F3083309134
:100B2000410530FDA7C0309140053F5F309340053F
:100B3000303239F4109240053091410531603093E4
:100B400041058130910509F44DC030911B05E091BC
:100B50004005F0E0E15EFA4F30833091410530FD11
:100B600095C0309140053F5F30934005303239F4F5
:100B7000109240053091410531603093410582303B
:100B8000910581F130911C05E0914005F0E0E15EB6
:100B9000FA4F30833091410530FD60C030914005FF
:100BA0003F5F30934005303209F450C00397D1F0D5
:100BB00080911D05E0914005F0E0E15EFA4F8083F1
:100BC0008091410580FD6EC0809140058F5F8093CC
:100BD0004005803239F410924005809141058160D2
:100BE0008093410510921E05E0914005F0E0E15E22
:100BF000FA4F20838091410580FD10C0809140050F
:100C00008F5F80934005803209F00895109240056F
:100C10008091410581608093410508959091400540
:100C200080913F059813EACF8091410582608093BF
:100C30004105E4CF81E08E0F80931E05E3700E2EF8
:100C4000000CFF0BE65EFA4F2083089510924005DA
:100C500030914105316030934105A8CF4091400566
:100C600030913F0543139ACF309141053260309364
:100C7000410594CF4091400530913F05431353CF38
:100C8000309141053260309341054DCF4091400590
:100C900030913F05431365CF309141053260309369
:100CA00041055FCF9091400580913F0598138CCF0F
:100CB0008091410582608093410586CF86B38295FD
:100CC00081700895C49ABC98E2E4F5E08EE596E060
:100CD000938382838FE99FE00197F1F700C00000C2
:100CE0000280F381E02D0995982F9170E3E4F5E0FF
:100CF000808190FB81F990FB82F988608083089560
:100D00000F931F93CF93DF938091430580FD21C004
:100D1000E0914405F091450509959091430592FBBA
:100D2000222720F9C22F20E0D22F282F082E000CD6
:100D3000330BC217D30741F0880F880F847081608E
:100D40009A7F892B80934305DF91CF911F910F915B
:100D500008958091420591E0980F843039F0909386
:100D60004205DF91CF911F910F9108951092420596
:100D7000E0914405F091450509959091430592FB5A
:100D8000002700F910E0282F082E000C330B021763
:100D9000130771F080FB92F990934305809143050E
:100DA0008E7F80934305DF91CF911F910F9108951E
:100DB000880F82708860957F892B80934305EECFE2
:100DC000FC01A5A5B6A527A581E090E001C0880F8C
:100DD0002A95EAF79C91613021F0809589238C93C4
:100DE0000895892B8C930895FC0120A131A133A390
:100DF00022A3A5A5B6A547A581E090E001C0880F74
:100E00004A95EAF79C91121613061CF4892B8C93D1
:100E10000895809589238C930895AF92BF92CF92C5
:100E2000DF92EF92FF920F931F93CF93DF9300D047
:100E300000D000D0CDB7DEB78D839E83CB01AD81CE
:100E4000BE8112962D913C911397260F371F139652
:100E50003C932E93129718960D911C911997021797
:100E600013070CF0BAC013961C930E9312971496A6
:100E70002D913C9115977C01E21AF30A1796FC928A
:100E8000EE92169715969C938E9314979C01990F4A
:100E9000440B550B29833A834B835C83CA01B90108
:100EA0000E942A25AD81BE8152962D913D914D9192
:100EB0005C91559769837A838B839C8369817A815E
:100EC0008B819C810E94DF255B016C019801110FD1
:100ED000440B550B29833A834B835C83CA01B901C8
:100EE0000E942A25AD81BE8156962D913D914D914E
:100EF0005C91599769837A838B839C8369817A811A
:100F00008B819C810E94DF259B01AC01A982BA8262
:100F1000CB82DC8269817A818B819C810E940F2443
:100F20006B018C019701FF0C440B550B29833A830D
:100F30004B835C83CA01B9010E942A25AD81BE8121
:100F40005A962D913D914D915C915D9769837A837D
:100F50008B839C8369817A818B819C810E94DF25B0
:100F60009B01AC01C982DA820B831C8369817A817F
:100F70008B819C810E940F2469837A838B839C835D
:100F800069817A818B819C810E94F224462F572FA0
:100F9000ED81FE8120893189249FC001259F900D1C
:100FA000349F900D112491A380A3248535852817A3
:100FB0003907E4F431A320A30F900F900F900F9006
:100FC0000F900F90DF91CF911F910F91FF90EF90B5
:100FD000DF90CF90BF90AF900895FD0102851385FB
:100FE000201731075CF41383028341CF26853785B0
:100FF000821793070CF731A320A3DECF890137CFE7
:10100000AF92BF92CF92DF92EF92FF920F931F9316
:10101000CF93DF9300D000D000D0CDB7DEB78D8363
:101020009E83CB01AD81BE8112962D913C91139789
:10103000260F371F13963C932E93129718960D91F7
:101040001C911997021713070CF0A5C013961C9357
:101050000E93129714962D913C9115977C01E21AEC
:10106000F30A1796FC92EE92169715969C938E9320
:1010700014979C01990F440B550B29833A834B839A
:101080005C83CA01B9010E942A25AD81BE815296B6
:101090002D913D914D915C91559769837A838B8316
:1010A0009C8369817A818B819C810E94DF255B0111
:1010B0006C019801110F440B550B29833A834B8324
:1010C0005C83CA01B9010E942A25AD81BE81569672
:1010D0002D913D914D915C91599769837A838B83D2
:1010E0009C8369817A818B819C810E94DF259B0191
:1010F000AC01A982BA82CB82DC8269817A818B8140
:101100009C810E940F246B018C019701FF0C440B02
:10111000550B29833A834B835C83CA01B9010E9432
:101120002A25AD81BE815A962D913D914D915C91BC
:101130005D9769837A838B839C8369817A818B81B4
:101140009C810E94DF259B01AC01C982DA820B835E
:101150001C8369817A818B819C810E940F24698321
:101160007A838B839C8369817A818B819C810E94A5
:10117000F224CB010F900F900F900F900F900F90D3
:10118000DF91CF911F910F91FF90EF90DF90CF9063
:10119000BF90AF900895FD01028513852017310798
:1011A0001CF41383028356CF890154CFFC01268D92
:1011B000378D2F5F3F4F378F268F84A1448555850C
:1011C00087FD18C062A173A1161617069CF4811141
:1011D0000CC081A592A52817390770F0178E168EBE
:1011E00021E024A320E030E007C0813019F4261765
:1011F000370738F581A592A5840F951F43A554A5FF
:10120000840F951F2817390708F40895178E168E36
:1012100014A220A131A133A322A3A5A5B6A547A559
:1012200081E090E001C0880F4A95EAF79C91121680
:1012300013061CF4892B8C930895809589238C9335
:10124000089564177507B4F6A5A5B6A52C9137A522
:1012500081E090E001C0880F3A95EAF780958223FB
:101260008C93268D378D81A592A544855585C4CF55
:10127000AF92BF92CF92DF92EF92FF920F931F93A4
:10128000CF93DF9300D000D000D0CDB7DEB78D83F1
:101290009E83CB01AD81BE8112962D913C91139717
:1012A000260F371F13963C932E93129718960D9185
:1012B0001C911997021713070CF0D2C013961C93B8
:1012C0000E93129714962D913C9115977C01E21A7A
:1012D000F30A1796FC92EE92169715969C938E93AE
:1012E00014979C01990F440B550B29833A834B8328
:1012F0005C83CA01B9010E942A25AD81BE81529644
:101300002D913D914D915C91559769837A838B83A3
:101310009C8369817A818B819C810E94DF255B019E
:101320006C019801110F440B550B29833A834B83B1
:101330005C83CA01B9010E942A25AD81BE815696FF
:101340002D913D914D915C91599769837A838B835F
:101350009C8369817A818B819C810E94DF259B011E
:10136000AC01A982BA82CB82DC8269817A818B81CD
:101370009C810E940F246B018C019701FF0C440B90
:10138000550B29833A834B835C83CA01B9010E94C0
:101390002A25AD81BE815A962D913D914D915C914A
:1013A0005D9769837A838B839C8369817A818B8142
:1013B0009C810E94DF259B01AC01C982DA820B83EC
:1013C0001C8369817A818B819C810E940F246983AF
:1013D0007A838B839C8369817A818B819C810E9433
:1013E000F224462F572FED81FE8120893189249FD9
:1013F000C001259F900D349F900D112491A380A3CF
:1014000024853585281739071CF531A320A3809141
:10141000D40680FF0CC0ED81FE8185A196A10196C6
:1014200096A385A327A130A58217930720F50F90D7
:101430000F900F900F900F900F90DF91CF911F9111
:101440000F91FF90EF90DF90CF90BF90AF900895F5
:101450002685378582179307D4F631A320A3D7CFEB
:10146000FD0102851385201731071CF413830283C5
:1014700029CF890127CF16A215A2CF010F900F9077
:101480000F900F900F900F90DF91CF911F910F91C0
:10149000FF90EF90DF90CF90BF90AF900C94D60864
:1014A000E6E4F5E0908787836187089590934A0585
:1014B00080934905089581E0809346050895E6E408
:1014C000F5E03185A781B0852C9181E090E002C0E4
:1014D000880F991F3A95E2F78095909582238C9317
:1014E0001082089583E0809346050895E6E4F5E0D0
:1014F00091850780F085E02D808121E030E001C0FA
:10150000220F9A95EAF7822B80830895E6E4F5E0AE
:1015100031850780F085E02D208181E090E002C0D8
:10152000880F991F3A95E2F78095909582238083E2
:10153000089580914605813009F472C08091460576
:10154000823021F180914605833009F450C08091AA
:101550004605843009F008958091D40680FFFBCFC2
:101560008091470590914805019690934805809396
:1015700047052091490530914A058217930758F392
:101580008091460581508093460508958091D40648
:1015900080FFD8CF809147059091480501969093A0
:1015A0004805809347052091470530914805809173
:1015B000490590914A052817390720F210924805ED
:1015C0001092470530914F05E0914D05F0914E0581
:1015D000208181E090E002C0880F991F3A95E2F7E0
:1015E000809590958223808310924605ABCF909191
:1015F0004F05E0914D05F0914E05808121E030E0EE
:1016000001C0220F9A95EAF782278083109248053D
:1016100010924705809146058F5F80934605089597
:1016200090914F05E0914D05F0914E05808121E0AC
:1016300030E001C0220F9A95EAF7822B8083109246
:10164000480510924705809146058F5F80934605B7
:1016500079CF80B386958170089580B381700895A5
:1016600086B383FB882780F9089580B386FB88279B
:1016700080F9089589B386958170089586B3817045
:10168000089589B383FB882780F90895CF93DF936A
:1016900000D000D000D0CDB7DEB729833A834B838A
:1016A0005C836D837E8390E1899FD0011124A05AD1
:1016B000BA4F86E0FE01319601900D928A95E1F7CE
:1016C0000F900F900F900F900F900F90DF91CF9190
:1016D0000895CF93DF93CDB7DEB72C970FB6F8946C
:1016E000DEBF0FBECDBF89988898BB988E98D198E1
:1016F000B898D398E7E5F5E089E29BE09183808391
:101700008DE29BE0918B808B80E39BE091A380A393
:1017100085E39BE091AB80AB8AE39BE090939805D7
:10172000809397058EE39BE09093A8058093A7058F
:1017300081E49BE09093B8058093B705CE010796AE
:1017400026E0FC0111922A95E9F72F8121602F8371
:1017500026E0FC01DE01119601900D922A95E1F739
:1017600026E0FE013196A0E6B5E001900D922A95A3
:10177000E1F726E0FC01DE01119601900D922A9519
:10178000E1F726E0FE013196A0E7B5E001900D9269
:101790002A95E1F726E0FC01DE01119601900D92F9
:1017A0002A95E1F726E0FE013196A0E8B5E0019028
:1017B0000D922A95E1F726E0FC01DE0111960190D9
:1017C0000D922A95E1F726E0FE013196A0E9B5E0F9
:1017D00001900D922A95E1F726E0FC01DE011196B9
:1017E00001900D922A95E1F726E0FE013196A0EADC
:1017F000B5E001900D922A95E1F726E0FC01DE01AB
:10180000119601900D922A95E1F726E0FE0131969E
:10181000A0EBB5E001900D922A95E1F726E0FC01DE
:10182000DE01119601900D922A95E1F786E0FE0106
:101830003196A0ECB5E001900D928A95E1F72C96D7
:101840000FB6F894DEBF0FBECDBFDF91CF910895E4
:10185000E6E6F5E080818D7F8083E6E7F5E0808134
:101860008D7F8083E6E8F5E080818D7F8083E6E9E7
:10187000F5E080818D7F8083E6EAF5E080818D7FD1
:101880008083E6EBF5E080818D7F8083E6ECF5E0F8
:1018900080818D7F8083089590E1899FF0011124DC
:1018A000EA59FA4F808182FB882780F9089590E1F8
:1018B000899FF0011124EA59FA4F80818695817041
:1018C000089590E1899FF0011124EA59FA4F80812F
:1018D00082608083089590E1899FF0011124EA5984
:1018E000FA4F80818D7F8083089590E1899FF00178
:1018F0001124E95AFA4F0280F381E02D099490E116
:101900008902F0011124EA59FA4F8081817008950B
:1019100090E18902F0011124EA59FA4F808185FB98
:10192000882780F9089590E18902F0011124EA598D
:10193000FA4F80818F7D80830895EF92FF920F93FD
:101940001F93CF93DF9306E010E00CC0E881F9818C
:101950000995811103C08C818F5F8C83015011091F
:1019600008F440C08AE18A95F1F700C07801E2945A
:10197000F29480EFF822FE24E822FE24E701C95AFF
:10198000DA4F8C81882311F38C818130C9F08C81EE
:10199000823079F18C81833009F78D818F5F8D835F
:1019A0008130E1F61D82E881F9810995813041F5A8
:1019B000F701EA59FA4F80818E7F80831C82CECF57
:1019C0008D818F5F8D83813049F61D82E881F98199
:1019D0000995811115C0F701EA59FA4F808181609C
:1019E0008083B9CFDF91CF911F910F91FF90EF903E
:1019F0000895E881F9810995813009F0AFCFABCF27
:101A00008C8181508C83AACF90E18902F00111244E
:101A1000E95AFA4F968181E0983009F0089580E004
:101A20000895FF920F931F93CF93DF9320E030E050
:101A300079E0FAE0FF2E63E042E05BE052C0FC0197
:101A4000E95AFA4FB681B93009F49AC0FC01E95A53
:101A5000FA4FB681BA3009F4A4C0FC01E95AFA4F32
:101A6000B681B63009F4B2C0FC01E95AFA4FB6812A
:101A7000B73039F4EC01CA59DA4FB881B260B88393
:101A80004683FC01E95AFA4FB681B43009F418C113
:101A9000FC01E95AFA4FB681B53009F4E1C0FC0106
:101AA000E95AFA4FB681B13009F4D2C0FC01E95AC3
:101AB000FA4FB681B23009F4C0C0FC01E95AFA4FBE
:101AC000B681B33009F4B1C0FC01E95AFA4FB681CE
:101AD000BB3009F486C02F5F3F4F2730310509F432
:101AE0009EC0C90182959295907F9827807F982704
:101AF000FC01E95AFA4FB681B11113C0B685BB2378
:101B000041F0E685F0E0E05BFA4FE081E13009F476
:101B10001FC1EC01CA59DA4FE881E170E13009F4E4
:101B200005C1FC01E95AFA4FB681B83068F0B681B8
:101B3000BB3050F4EC01CA59DA4FB881B0FD04C093
:101B400010861782B3E0B683FC01E95AFA4FB681DA
:101B5000B83009F074CFC781D0852196D087C7836C
:101B600002851385C017D10708F469CF1086178244
:101B70007683FC01E95AFA4FB681B93009F066CF95
:101B8000EC01CA59DA4FB881B1FD60CFB881B260BB
:101B9000B883F682FC01E95AFA4FB681BA3009F0EF
:101BA0005CCFC781D0852196D087C78304851585F2
:101BB000C017D10708F451CF108617827683FC0135
:101BC000E95AFA4FB681B63009F04ECFEC01CA5946
:101BD000DA4FB881B0FD48CFB881B260B883668370
:101BE00043CFB685BB2359F0E685F0E0E05BFA4FC2
:101BF0001082FC01EA59FA4FB081B77FB083FC0133
:101C0000E95AFA4F1682FC01EA59FA4F80818F7E19
:101C100080832F5F3F4F2730310509F062CFDF917E
:101C2000CF911F910F91FF900895EC01CA59DA4F9F
:101C3000B881B1FD49CF568347CFEC01CA59DA4F7D
:101C4000B881B0FD3ACFB881BD7FB883568335CF18
:101C5000EC01CA59DA4FB881B0FD28CF668326CF90
:101C6000C781D0852196D087C783EC01CA59DA4F46
:101C7000B881B0FD0FC0078110850333110550F402
:101C800010861782B881B260B883B881BB7FB883F1
:101C9000B3E0B683FC01E95AFA4FC781D085CB3453
:101CA000D10508F4FCCE10861782EC01CA59DA4F30
:101CB000B881B260B883B881B460B8834683EFCE90
:101CC000C781D0852196D087C783EC01CA59DA4FE6
:101CD000B881B0FD0FC0078110850333110550F4A2
:101CE00010861782B881B260B883B881BB7FB88391
:101CF000B3E0B683FC01E95AFA4FC781D085E39778
:101D000008F4C6CE10861782EC01CA59DA4FB881A2
:101D1000B260B883B881B460B883EC01C05ADA4FBE
:101D2000B881B1FD1CC0B1E0B683B2CEDC01A05ACF
:101D3000BA4FFC91F0FF16C0F881F260F883FC9175
:101D4000F1FF3BC0B8E0FC01E95AFA4FB68312C07C
:101D5000FC01EA59FA4FE081E3FDDBCEE2CEBAE0C6
:101D6000B68396CEEC91E2FF1CC0B6E0FC01E95AC6
:101D7000FA4FB683FC01EA59FA4FB081B061B083E3
:101D8000EC01C95ADA4FBE85BB2309F4CACECE8511
:101D9000D0E0C05BDA4FB1E0B883B081B860B08307
:101DA000C0CEEC91E3FD0EC0EC91E4FF11C0B4E0B5
:101DB000FC01E95AFA4FB683DDCFEC01C95ADA4F7C
:101DC000EE83D8CFB7E0FC01E95AFA4FB683D2CF01
:101DD000EC91E5FFCFCFB5E0FC01E95AFA4FB683AD
:101DE000E881E062E883C6CF0E949D0C0C94110D3F
:101DF0008091660580FD19C08091760580FD15C033
:101E00008091860580FD11C08091960580FD0DC0F2
:101E10008091A60580FD09C08091B60580FD05C0B2
:101E20008091C60580958170089580E00895E6E66A
:101E3000F5E080818D7F8083E6E7F5E080818D7F0E
:101E40008083E6E8F5E080818D7F8083E6E9F5E038
:101E500080818D7F8083E6EAF5E080818D7F8083BD
:101E6000E6EBF5E080818D7F8083E6ECF5E0808114
:101E70008D7F808308958091660584FD1BC08091CD
:101E8000760584FD17C08091860584FD13C080917E
:101E9000960584FD0FC08091A60584FD0BC080913E
:101EA000B60584FD07C09091C6059295917081E0BA
:101EB000891B089580E008959093D7058093D605F7
:101EC0000895CF93DF93CDB7DEB72A970FB6F89476
:101ED000DEBF0FBECDBF9091F2058091F00580FD71
:101EE0002CC019160CF461C08091F40518160CF47E
:101EF0005CC08091F60518160CF457C02091ED05D2
:101F0000822F022E000C990BA22FAA0FBB0BAF50F1
:101F1000BA4F3C91311134C0880F991FFC01E35135
:101F2000FA4F858118160CF45AC02F5F2093ED05E7
:101F300023304CF11092ED0526C021E091112FC005
:101F40008091F4058111DACF8091F6058111D6CF09
:101F50002130A1F60E945F0A8091F0058E7F809368
:101F6000F00588E0EBEDF5E0A3E5B6E001900D9219
:101F70008A95E1F7F89488E181BD88E081BDFFCFC3
:101F8000313009F459C08091F00581702A960FB65E
:101F9000F894DEBF0FBECDBFDF91CF91089520E052
:101FA0008091F4058111AACFCFCF8091F005816097
:101FB0008093F00586E990E00E94560A0E94720A1A
:101FC00060E085E696E00E94E00688E0E3E5F6E062
:101FD000ABEDB5E001900D928A95E1F78FCF0E94AD
:101FE000701644E050E06BEA74E0CE0101960E9466
:101FF000652644E060E0CE0101960E942C16809197
:10200000ED058823A9F18130E1F1823009F442C065
:1020100044E064E0CE0101960E942C16E091ED05AB
:10202000EE0FFF0BEF50FA4F80818F5F808310928D
:10203000EF051092EE05A7CF880F991FFC01E35121
:10204000FA4F8581811102C01C929DCF8091D406E8
:1020500080FF99CF8091EE059091EF050196883E23
:1020600033E0930700F59093EF058093EE058BCF57
:1020700044E050E067EA74E0CE0101960E946526D4
:10208000C7CF44E050E063EA74E0CE0101960E94BD
:102090006526BECF44E050E06FE974E0CE010196C2
:1020A0000E946526B5CF1092EF051092EE051C92A6
:1020B0003CCF9093F8058093F7050895E091F705DC
:1020C000F091F805118210828170826094819C7F6A
:1020D000892B84830895E091F705F091F8058081BC
:1020E00091810196918380832281338182179307A6
:1020F00050F0118210829481892F809581708260C6
:102100009C7F892B8483089597B1907E8F71982B43
:1021100097B9089527B12F7330E4839FC00111242C
:10212000822B87B9089596B1987F892B86B9089537
:10213000379A089537980895811102C03D980895FF
:102140003D9A089585B1089584B1089597B19F731C
:1021500020E4629FB0011124692B67B996B1987F82
:10216000492B46B98F3F59F0359A20B72F7030E28E
:102170008302C0011124822B80BF379A08953598BD
:10218000379A089597B1907E8F71982B97B9369AA8
:10219000089597B1907E8F71982B97B9369A349B9A
:1021A000FECF349A0895359919C097B1907E8F71FA
:1021B000892B87B9369A349BFECF349A24B13D9B44
:1021C00014C085B190E0880F991F880F991F229540
:1021D000269526952370820F911D0895349A349B7D
:1021E000FECF349A24B13D99ECCF85B190E0982F81
:1021F0008827820F911D0895AF92BF92CF92DF92F0
:10220000EF92FF920F931F93CF93DF9300D000D0F4
:1022100000D0CDB7DEB75B018C0120E030E048ECA8
:1022200052E46983BA828B831C8369817A818B81B2
:102230009C810E940E242FEA30ED4FEA5EE3698311
:102240007A838B839C8369817A818B819C810E94B4
:10225000802469837A838B839C8369817A818B81D3
:102260009C810E94F2246D837E838D819E818F3FAD
:1022700091050CF497C0AEEFB0E0BE83AD83ED8165
:10228000FE81EE0FFF1FEE0FFF1FE956FF4FC080CC
:10229000D180E280F3808D819E81092E000CAA0BF3
:1022A000BB0B89839A83AB83BC83BC01CD010E94A5
:1022B0002A252FEA30ED4FEA5EE369837A838B8328
:1022C0009C8369817A818B819C810E94DF2520E03B
:1022D00030E048EC52E469837A838B839C83698184
:1022E0007A818B819C810E940F249B01AC01A98281
:1022F000BA820B831C8369817A818B819C810E94C5
:102300000E245B018C01AD81BE81AA0FBB1FAA0FF9
:10231000BB1FA556BF4FA70196016D917D918D9171
:102320009C910E940E249B01AC01A982BA820B836E
:102330001C8369817A818B819C810E94DF252FEA31
:1023400030ED4FEA5EE369837A838B839C836981F6
:102350007A818B819C810E948024A70196016983E8
:102360007A838B839C8369817A818B819C810E9493
:102370000F2469837A838B839C8369817A818B8123
:102380009C810F900F900F900F900F900F90DF9106
:10239000CF911F910F91FF90EF90DF90CF90BF9062
:1023A000AF90089597FF6BCF1E821D8268CF0F9369
:1023B0001F93CF93DF938C01EB0144E060E0CE01EB
:1023C0000E941D160F3F100709F1083E83E0180711
:1023D00074F08BE188838BE0898389E38A83CE0163
:1023E0000296DF91CF911F910F910C94E21543E07B
:1023F000BE01C8010E94781680EF8B83CE01029641
:10240000DF91CF911F910F910C94E21587E18883A2
:1024100089E18983CE010296DF91CF911F910F91BF
:102420000C94E2158091FA059091FB05892B79F4C3
:102430008091D40683FD2FC088608093D40681E00C
:1024400090E09093FB058093FA0580E008958091D9
:10245000D406877F8093D4061092FB051092FA056C
:1024600044B185B12091960630919706F901EE0F9F
:10247000FF1FE35FF94F90E0982F8827840F911D8D
:10248000918380832F5F3F4F2E31310530F430939D
:1024900097062093960680E0089510929706109272
:1024A000960681E008954F925F926F927F92AF926D
:1024B000BF92CF92DF92EF92FF920F931F93CF9331
:1024C000DF93CDB7DEB728970FB6F894DEBF0FBE07
:1024D000CDBF8C019E012F5F3F4F4EE150E06DE07C
:1024E00076E08CEF95E00E94EB01811115C02896F3
:1024F0000FB6F894DEBF0FBECDBFDF91CF911F9115
:102500000F91FF90EF90DF90CF90BF90AF907F90B2
:102510006F905F904F90089589819A81AB81BC81C3
:102520008D839E83AF83B88720E030E0A901BC0192
:10253000CD010E94DA2518160CF0E4C026EF38E928
:1025400048EC5DE36D817E818F8198850E94DF2557
:1025500020E030E048EC52E46D837E838F839887DF
:102560006D817E818F8198850E940F2427ED33EA4B
:1025700040E85FE36D837E838F8398876D817E81E2
:102580008F8198850E94DF255B016C0120E030E09F
:1025900048EC52E46D83BE828F83D8866D817E8144
:1025A0008F8198850E940E242FEA30ED4FEA5EE37A
:1025B0006D837E838F8398876D817E818F819885DF
:1025C0000E9480246D837E838F8398876D817E81B6
:1025D0008F8198850E94F2247B019FEFE916F10418
:1025E0000CF089C0F7FC8BC0F701EE0FFF1FEE0F58
:1025F000FF1FE956FF4F4080518062807380C70102
:102600000F2C000CAA0BBB0B8D839E83AF83B88766
:10261000BC01CD010E942A252FEA30ED4FEA5EE38E
:102620006D837E838F8398876D817E818F8198856E
:102630000E94DF2520E030E048EC52E46D837E8389
:102640008F8398876D817E818F8198850E940F246A
:102650009B01AC01AD82BE82CF82D8866D817E8126
:102660008F8198850E940E245B016C01F701EE0FAB
:10267000FF1FEE0FFF1FE556FF4FA3019201608180
:102680007181828193810E940E249B01AC01AD82F5
:10269000BE82CF82D8866D817E818F8198850E948F
:1026A000DF252FEA30ED4FEA5EE36D837E838F8373
:1026B00098876D817E818F8198850E948024A301F7
:1026C00092016D837E838F8398876D817E818F8158
:1026D00098850E940F246D837E838F8398876D81F8
:1026E0007E818F8198850E94F224CB01D8018D9341
:1026F0009C9381E0FCCE2EEFE22EF12C75CFE12CE5
:10270000F12C72CF80E090E0F1CF8F929F92AF9248
:10271000BF92CF92DF92EF92FF920F931F93CF93CE
:10272000DF93CDB7DEB728970FB6F894DEBF0FBEA4
:10273000CDBF8091F90581111FC08091FA0590915C
:10274000FB05892B09F016C18091D40683FF3FC198
:1027500080E028960FB6F894DEBF0FBECDBFDF91A4
:10276000CF911F910F91FF90EF90DF90CF90BF908E
:10277000AF909F908F9008959E012F5F3F4F4EE145
:1027800050E06DE076E08CEF95E00E94EB0188234D
:10279000F9F289819A81AB81BC818D839E83AF835D
:1027A000B88720E030E0A901BC01CD010E94DA2504
:1027B00018160CF01BC126EF38E948EC5DE36D817B
:1027C0007E818F8198850E94DF2520E030E048ECF3
:1027D00052E46D837E838F8398876D817E818F81A4
:1027E00098850E940F2427ED33EA40E85FE36D836C
:1027F0007E838F8398876D817E818F8198850E94EB
:10280000DF256B017C0120E030E048EC52E46D8371
:10281000DE828F83F8866D817E818F8198850E940C
:102820000E242FEA30ED4FEA5EE36D837E838F83C3
:1028300098876D817E818F8198850E9480246D8329
:102840007E838F8398876D817E818F8198850E949A
:10285000F2248B016F3F71050CF4C3C00EEF10E042
:10286000F801EE0FFF1FEE0FFF1FE956FF4F8080AC
:102870009180A280B380C801012E000CAA0BBB0B73
:102880008D839E83AF83B887BC01CD010E942A252A
:102890002FEA30ED4FEA5EE36D837E838F83988766
:1028A0006D817E818F8198850E94DF2520E030E058
:1028B00048EC52E46D837E838F8398876D817E819F
:1028C0008F8198850E940F249B01AC01CD82DE820E
:1028D000EF82F8866D817E818F8198850E940E241B
:1028E0006B017C01F801EE0FFF1FEE0FFF1FE55695
:1028F000FF4FA501940160817181828193810E94C3
:102900000E249B01AC01CD82DE82EF82F8866D81C0
:102910007E818F8198850E94DF252FEA30ED4FEA76
:102920005EE36D837E838F8398876D817E818F8147
:1029300098850E948024A50194016D837E838F83F6
:1029400098876D817E818F8198850E940F246D8389
:102950007E838F8398876D817E818F8198850E9489
:10296000F224CB0190934A06809349061092F90510
:1029700081E0EFCE8091D406877F8093D4061092B9
:10298000FB051092FA0544B185B12091960630916D
:102990009706F901EE0FFF1FE35FF94F90E0982FC4
:1029A0008827840F911D918380832F5F3F4F2E31A5
:1029B000310528F43093970620939606C9CE1092DD
:1029C00097061092960681E08093F905C1CE886043
:1029D0008093D40681E090E09093FB058093FA0504
:1029E000B7CE77FF3DCF00E010E03ACF80E090E037
:1029F000B9CF87B3806B87BB87E18DB908958FB955
:102A0000779BFECF8FB10895CF93DF9300D000D096
:102A1000CDB7DEB7979825E02A95F1F7000080E062
:102A20000E94FF14898380E00E94FF143AE13A95E6
:102A3000F1F700C0979A82FD3EC04981942F969588
:102A4000879596958795969587959C0140E050E0EF
:102A500029833A834B835C83CA01B9010E942825EC
:102A600020E030EF4FE754E469837A838B839C83C3
:102A700069817A818B819C810E94DF2520E030EF83
:102A80004FE755E469837A838B839C8369817A81DC
:102A90008B819C810E94802469837A838B839C83B1
:102AA00069817A818B819C810F900F900F900F909C
:102AB000DF91CF91089560E070E080E89FEBECCF6C
:102AC000CF93DF93979885E08A95F1F70000C6B31E
:102AD000C5FBCC27C0F9C1956E9A8C2F0E94FF14BC
:102AE000D82F8C2F0E94FF149AE19A95F1F700C01D
:102AF0006E98979A282F30E082FD0BC0C9019D2B5C
:102B0000969587959695879596958795DF91CF9120
:102B100008958FEF9FEFFACF80935206709351067E
:102B20006093500650934F0640934E0630934D06E7
:102B300020934C06089580914B06815087FF03C077
:102B400080915206815024E08202C0011124E0915C
:102B50004C06F0914D06E80FF91F0190F081E02D31
:102B6000099580914B06082E000C990BA0915006F8
:102B7000B0915106E0914E06F0914F06E80FF91F13
:102B800020812C93880F991F880F991FE0914C0684
:102B9000F0914D06E80FF91F0280F381E02D0995B1
:102BA00080914B068F5F80934B06082E000C990B8B
:102BB0002091520630E08217930709F00895109291
:102BC0004B060895FC014081242F30E0C901959502
:102BD0008795959587958470220F331F220F331F99
:102BE0002071822B4B7E842B80830895E3E5F6E0F1
:102BF0004281242F30E0C901959587959595879559
:102C00008470220F331F220F331F2071822B4B7EC3
:102C1000842B82834681242F30E0C90195958795C6
:102C2000959587958470220F331F220F331F2071D3
:102C3000822B4B7E842B868308959C0114165CF4B2
:102C4000460F862F6F5FF901E80FF11D87FDFA959A
:102C500010826413F6CF089514166CF4DC01460F4D
:102C6000E62F6F5F8D910E2E000CFF0BED5AF94F82
:102C700080836413F5CF0895FC01862F062E000C87
:102C8000990B161664F52091530620838130910527
:102C900031F12091540621838230910501F1209178
:102CA0005506228383309105D1F020915606238367
:102CB00084309105A1F02091570624838530910539
:102CC00071F02091580625838630910541F02091BE
:102CD00059062683079719F080915A06878308952D
:102CE000E3E5F6E088E0DF011D928A95E9F70895B3
:102CF000CF92DF92EF92FF920F931F93CF93DF93C8
:102D0000CDB7DEB72A970FB6F894DEBF0FBECDBFA2
:102D10007C018B01C42E042E000CDD08141634F443
:102D2000A60160E070E0C8010E945E26BE016F5FF0
:102D30007F4FC7010E9449009C01C81AD90A181682
:102D400019060CF091C0C6010196E981F0E0ED533F
:102D5000FB4F6081F801EC0DFD1D608321303105D2
:102D600009F482C0B6016E5F7F4F800F911FEA8128
:102D7000F0E0ED53FB4FE081DC01EC9322303105B4
:102D800009F472C0C6010396600F711FEB81F0E079
:102D9000ED53FB4FE081DB01EC932330310509F467
:102DA00063C0B6016C5F7F4F800F911FEC81F0E034
:102DB000ED53FB4FE081DC01EC932430310509F445
:102DC00053C0C6010596600F711FED81F0E0ED5311
:102DD000FB4FE081DB01EC932530310509F444C061
:102DE000B6016A5F7F4F800F911FEE81F0E0ED53D7
:102DF000FB4FE081DC01EC9326303105A9F1C601DF
:102E00000796600F711FEF81F0E0ED53FB4FE081FB
:102E1000DB01EC932730310539F1B601685F7F4F54
:102E2000800F911FE885F0E0ED53FB4FE081DC015E
:102E3000EC9328303105C1F0A601475F5F4F600F6A
:102E4000711FE985F0E0ED53FB4F8081FB0180832A
:102E50002930310549F0F801E40FF51FAA85B0E0EB
:102E6000AD53BB4F8C9180832A960FB6F894DEBF8A
:102E70000FBECDBFDF91CF911F910F91FF90EF90CB
:102E8000DF90CF900895DF92EF92FF920F931F9300
:102E9000CF93DF93CDB7DEB72A970FB6F894DEBF96
:102EA0000FBECDBFD82E092F7B01142F141634F47A
:102EB00050E06BEE70E0C7010E945E26BE016F5FBE
:102EC0007F4F8D2D902F0E9449009C01412F110FA3
:102ED000550B481B590B181619060CF090C0CA0167
:102EE0000196E981F0E0ED53FB4F6081F701E40FBB
:102EF000F51F60832130310509F481C0BA016E5F8E
:102F00007F4F8E0D9F1DEA81F0E0ED53FB4FE08176
:102F1000DC01EC932230310509F471C0CA0103963B
:102F20006E0D7F1DEB81F0E0ED53FB4FE081DB0187
:102F3000EC932330310509F462C0BA016C5F7F4F16
:102F40008E0D9F1DEC81F0E0ED53FB4FE081DC0125
:102F5000EC932430310509F452C0CA0105966E0D78
:102F60007F1DED81F0E0ED53FB4FE081DB01EC9341
:102F70002530310509F443C0BA016A5F7F4F8E0DD9
:102F80009F1DEE81F0E0ED53FB4FE081DC01EC93FF
:102F900026303105A1F1CA0107966E0D7F1DEF8124
:102FA000F0E0ED53FB4FE081DB01EC93273031057E
:102FB00031F1BA01685F7F4F8E0D9F1DE885F0E00B
:102FC000ED53FB4FE081DC01EC9328303105B9F083
:102FD000475F5F4F6E0D7F1DE985F0E0ED53FB4FBE
:102FE0008081FB0180832930310549F0F701E40F2E
:102FF000F51FAA85B0E0AD53BB4F8C9180832A9614
:103000000FB6F894DEBF0FBECDBFDF91CF911F91F9
:103010000F91FF90EF90DF900895FC018081846014
:1030200080830895FC0180818B7F8083089595982B
:103030000895959A089592980895929A089593986C
:103040000895939A089594980895949A0895DF980E
:103050000895DF9A0895DE980895DE9A0895DD9820
:103060000895DD9A0895DC980895DC9A0895CF9329
:10307000DF9320E630E043E556E065E370E088E06A
:103080000E948C15C0E6D0E0E881F981099524966C
:1030900080E0C038D807C1F78D9A8A9A8B9A8C9AAB
:1030A000D79AD69AD59AD49A84B38FEF84BBDF91FE
:1030B000CF910895E5E6F6E024E630E030A727A3B7
:1030C0008AE090E0918B808B35872487178616865F
:1030D00025E030E032A721A722E330E034A723A780
:1030E00045E555E565E57FE3428B538B648B758B36
:1030F0004DEC5CEC6CEC7DE3468B578B608F718FF5
:10310000128E138E148E158E1386128691878087E9
:1031100088E390E096A785A782E087A7089580912D
:103120001407909115072091490630914A06821B99
:10313000930B21E030E08630910514F02AE030E076
:1031400030936E0620936D0608950F931F93CF93CF
:10315000DF9300D000D000D0CDB7DEB78C0186E081
:10316000E0E8F0E0DE01119601900D928A95E1F71A
:103170002981216029833A814B815C816D817E8127
:10318000F80181810E94460B29813A814B815C8143
:103190006D817E81F80180810E94460B29812E7D00
:1031A000206229833A814B815C816D817E81F801A7
:1031B00084810E94460B29812C7D236029838AE02B
:1031C000382F8A831B8282E0582F8C831D821E82B7
:1031D00040E060E070E0F80182810E94460B2981A6
:1031E0003A814B815C816D817E81F80183810F90F2
:1031F0000F900F900F900F900F90DF91CF911F9134
:103200000F910C94460B8DE996E00E94A51887EB70
:1032100096E00C94A51889E3EBEDF4E0A9E9B6E09B
:1032200001900D928A95E1F7E9E9F6E081E0868365
:1032300082E0878393E0908786E0868F84E080A396
:1032400025E021A392A3828F089580915B0690913F
:103250005C06892BC1F48091D40680FF1EC080914A
:103260005F06909160060196823391050CF45AC076
:103270001092600610925F0681E090E090935C06E9
:1032800080935B06089580915D0690915E06892B80
:1032900029F48091D40683FF4AC008958091D60610
:1032A00081FFFBCF8091D6068D7F8093D6068091DB
:1032B000D406877F8093D40610925C0610925B063A
:1032C00010925E0610925D0624B185B190E0982FB1
:1032D0008827820F911DCB9748F4809163069091C7
:1032E000640601969093640680936306809161065C
:1032F0009091620601968A30910564F110926206FF
:103300001092610681E020916306309164062A30B4
:1033100031050CF480E08093F4051092640610925D
:10332000630608959093600680935F060895886011
:103330008093D40683E00E948A1080E00E94C2102D
:1033400080915D0690915E06019690935E06809353
:103350005D06089590936206809361060895CDB747
:10336000DEB762970FB6F894DEBF0FBECDBF0E94E6
:10337000371846E050E064E070E084E197E00E9496
:103380007D260E940B19919A909AC39A969AD99A7F
:10339000C09ADB9A8FE99FE00197F1F700C0000027
:1033A0000E94690B0E946206C298BA9A47E061E0E7
:1033B00080E00E94A61082E00E948410369A8091DC
:1033C000D406877F8093D406C19AB998BD9A65E0E8
:1033D00088E390E00E94500A8BE490E00E94560A35
:1033E00012BE8BE083BF89EF8CBF89B7826089BF33
:1033F00078940E945A180E94701644E050E06BE9DD
:1034000074E0CE0101960E94652644E060E0CE01A2
:1034100001960E942C1644E050E067E974E0CE016A
:1034200001960E94652644E064E0CE0101960E9468
:103430002C1600E010E0C12CD12CE12CF12CA09036
:103440001505B0901605909014052CC08091D306F8
:1034500086FF21C00E948513882339F08091D3060E
:1034600082608093D3061092F20586B386958170B0
:103470008093F6058091D40680FF08C08FEFE81A8C
:10348000F80A94E1E916F10409F47CC08091D306AE
:103490008570853079F10E94990A8091D4068E7FDB
:1034A0008093D4068091D60680FF0AC08091D6060C
:1034B0008E7F8093D6068091D40681608093D40657
:1034C0008091D40680FFC2CF0E949B158091D306C5
:1034D00086FDC0CF9091D40690FFDDCF0F5F1F4FC8
:1034E000083B9BE01907BCF280648093D30600E0A0
:1034F00010E0D1CF0E94610F8111CDCF9091D20603
:10350000992309F481C08091CE06913009F4A8C0B6
:10351000923009F4E2C0823008F490C0823009F49D
:1035200097C0833009F4A0C08091CD0682FD69C0A8
:1035300060911407709115078091490690914A0691
:10354000681B790B91E080E06630710514F09AE019
:1035500080E090936D0680936E0685E696E00E946B
:1035600038098091D40680FF96CF8FEFC81AD80A09
:1035700094E1C916D10409F08ECF0E94F40EC12C3B
:10358000D12C89CF0E9480068091430583FD03C022
:10359000E12CF12C7BCF877F809343058091D3066C
:1035A00084608093D3068BE490E00E94560A0E94C8
:1035B0005B0A0E9470168091430581FDBDC0609139
:1035C0001407709115078091490690914A06681B6F
:1035D000790B81E090E0663071050CF061C090934A
:1035E0006E0680936D0685E696E00E940D0785E6DF
:1035F00096E00E94F4068091D30681608093D30602
:10360000C7CF0E94C62194CF8DE996E00E94A518ED
:1036100087EB96E00E94A51844E060E08FEA94E012
:103620000E942C168091CD0681608093CD06109269
:10363000CE068091D2068F5F8093D20683E00E94EF
:10364000570C811130C08091CE06823009F069CFCD
:103650000E94FE21813009F49AC08091CE0661CF8C
:1036600092E09093D20657CF0E945223813009F006
:103670005BCF9091CD0690FFB8C01092CE068DE939
:1036800096E00E94A51887EB96E00E94A5180E947C
:10369000701644E060E08FEA94E00E942C1644CF5C
:1036A0008AE090E09CCF83E00E946B0C83E00E9454
:1036B0004C0C813009F4AEC083E08093CE0690922A
:1036C000D10688EE93E00E94560A0E945B0A68E0E9
:1036D000CE010B960E943C16B6CF81111CCF809173
:1036E000490690914A0697FDA9CF88EE93E00E9483
:1036F000560A0E945B0A8091CD068E7F8093CD068C
:1037000081E08093CE068DE996E00E94A518109284
:10371000A20687EB96E00E94A5181092BC06809145
:10372000CD0684608093CD068091D2068F5F809312
:10373000D2068091CE06EFCE8091D3068E7F809305
:10374000D30644E064E08FEB94E00E942C1660E026
:1037500085E696E00E94E0060E940B19B092D3061F
:10376000A092D2068AE0E3EEF5E0ADEEB5E001907E
:103770000D928A95E1F70E945F0A8AE0EDECF4E091
:10378000ABE5B6E001900D928A95E1F701CF9091FB
:10379000CD0690FF15C01092CE068DE996E00E94EE
:1037A000A51887EB96E00E94A5180E94701644E0C9
:1037B00060E08FEA94E00E942C168091CE06B1CE94
:1037C0008093CE068DE996E00E94A5181092A2067D
:1037D00087EB96E00E94A5181092BC0648E060E0D6
:1037E000CE010B960E942C1638CF8093CE068DE921
:1037F00096E00E94A5181092A20687EB96E00E9420
:10380000A5181092BC0648E060E0CE010B960E941D
:103810002C168ACE82E08093CE069092CF0688EE58
:1038200093E00E94560A0E945B0A42E050E060E08A
:1038300070E081EE96E00E948D2642E050E062E06A
:1038400070E08BEF96E00E948D2641CF8F938FB76B
:103850008F938091D60681608093D6068F918FBF1B
:103860008F9118958F938FB78F938091D606826032
:103870008093D6068F918FBF8F911895EF92FF920C
:103880000F931F93CF93DF9300D0CDB7DEB77C01AA
:103890008B01FC01808142E0BE016F5F7F4F082EEB
:1038A000000C990B0E9478168A819981F801908307
:1038B0008183F701818142E0BE016F5F7F4F082E57
:1038C000000C990B0E9443177801F2E0EF0EF11CF7
:1038D0008A819981F80192838383C80101960E94AD
:1038E0000D18C7010E940D18C7010E94E2150F9024
:1038F0000F90DF91CF911F910F91FF90EF9008955E
:103900001F93CF93DF93CDB7DEB72A970FB6F89406
:10391000DEBF0FBECDBFDC01FB0149875A874C914A
:103920003CE34303A001112411962C91420F511D39
:1039300027FD5A9520812303C00111242181820F84
:10394000911D27FD9A95A985BA852C912303900195
:10395000112411966C91260F311D67FD3A95821B3B
:10396000930B481B590B10E060E0141615067CF50C
:10397000CA01550FAA0BBB0B8D839E83AF83B887FB
:10398000BC01CD010E942A2520E030E040E752E44E
:1039900069837A838B839C8369817A818B819C8103
:1039A0000E94802469837A838B839C8369817A81D6
:1039B0008B819C810E94F224162F6D817E818F81E4
:1039C00098852CE330E040E050E00E94CD23A985AB
:1039D000BA851C9311966C932A960FB6F894DEBFA5
:1039E0000FBECDBFDF91CF911F9108957F928F922F
:1039F0009F92AF92BF92CF92DF92EF92FF920F937E
:103A00001F93CF93DF93CDB7DEB766970FB6F894C9
:103A1000DEBF0FBECDBF09E916E080E0A82E80E032
:103A2000B82E97EDC92E96E0D92EE12CF12C20E985
:103A3000822E992493943AE1732ED80156969C9243
:103A40008E92559742E050E0B501C8010A960E9457
:103A50007D26F80182859385D6011B969C938E93D3
:103A60001A97158614867E9CF0017F9CF00D112418
:103A7000DF01A955B94F8C9182608C93D8011396C0
:103A80001C921397E556F94F808181608083809165
:103A9000CE06813049F1C80104960E94A518F801AC
:103AA0001186EA94EF2861F0065E1F4F82E0A80EAF
:103AB000B11CAAE1CA0ED11CEE24E394F12CBDCFB7
:103AC00066960FB6F894DEBF0FBECDBFDF91CF91E3
:103AD0001F910F91FF90EF90DF90CF90BF90AF902C
:103AE0009F908F907F9008951A968C9142E0BE012E
:103AF0006B5E7F4F082E000C990B0E9478168E8902
:103B00009D8999838A83F801838542E0BE016B5EBB
:103B10007F4F082E000C990B0E9443178E899D89B8
:103B20009B838C83CE0102960E940D18CE010396D2
:103B30000E940D18CE0103960E94E21544E0D801C0
:103B40006C91CE0101960E942C16A5CF5F926F92C8
:103B50007F928F929F92AF92BF92CF92DF92EF921D
:103B6000FF920F931F93CF93DF93CDB7DEB76E977E
:103B70000FB6F894DEBF0FBECDBF09E916E081EEA7
:103B8000C82E86E0D82E90E0A92E90E0B92EE12C28
:103B9000F12C2AE1522EC80143960E945910D801F7
:103BA00016968C910E94570C882361F05E9CF00160
:103BB0005F9CF00D1124E955F94F808182FD02C010
:103BC00080FF98C1F80187810E94570C882361F01B
:103BD0005E9CF0015F9CF00D1124E955F94F808146
:103BE00082FD02C080FF61C1D80116968C910E94AF
:103BF0006B0CF80187810E946B0CD80119968C918F
:103C00001997882309F471C0813009F424C15E9C9E
:103C1000C0015F9C900D1124FC01E655F94F2081F5
:103C200020FD2EC05E9CF0015F9CF00D1124E55537
:103C3000F94F808181FDDAC0065E1F4FFAE1CF0E99
:103C4000D11C22E0A20EB11CEF2821F4EE24E39453
:103C5000F12CA1CF6E960FB6F894DEBF0FBECDBF8C
:103C6000DF91CF911F910F91FF90EF90DF90CF9058
:103C7000BF90AF909F908F907F906F905F900895CE
:103C8000FC01E055F94F808181FF07C08D7F808363
:103C90009091CE06913009F457C18091D40680FFEF
:103CA000C1CFD8011F968D919C910196883BBBE0B6
:103CB0009B070CF4F6C0D80150961C921E921F97D9
:103CC0008AE18E9D90018F9D300D1124F901E555FB
:103CD000F94F8081826080832955394FD9019C91A9
:103CE00090FD29C08E7F80839DCF14968C910E9479
:103CF000570C882309F48BCFF80184810E946B0C48
:103D000088EE93E00E94560A0E945B0A8AE18E9D2B
:103D100040018F9D900C1124F401E555F94F8081ED
:103D200080FD22C181608083F401E955F94F8081D3
:103D3000816080836CCFF60140812CE34203A001B7
:103D400011243181430F511D37FD5A95D5016C91D6
:103D50006203B001112411963C91630F711D37FD70
:103D60007A95F80132853203C00111242385820F30
:103D7000911D27FD9A95681B790B461B570B14164E
:103D800015060CF08FC1CA01550FAA0BBB0B8B8F08
:103D90009C8FAD8FBE8FBC01CD010E942A2520E0F3
:103DA00030E040E752E46F8B788F898F9A8F6F896C
:103DB000788D898D9A8D0E9480246F8B788F898F62
:103DC0009A8F6F89788D898D9A8D0E94F224D801FF
:103DD0001A966C936B8D7C8D8D8D9E8D2CE330E0CF
:103DE00040E050E00E94CD23F80163878AE18E9D78
:103DF00040018F9D900C1124F401E555F94F80810D
:103E00008D7F808342E050E0B501C6010E948D267F
:103E1000D6018D919C91F80193878287F401E65534
:103E2000F94F80818E7F8083D8011D961C921E924F
:103E30001C97F401E955F94F8081826080831396C5
:103E40001C921397F401E556F94F808181608083BD
:103E500019961C92F1CE14968C910E94570C8823CF
:103E600009F4D5CEF80184810E946B0C88EE93E0B2
:103E70000E94560A0E945B0A8AE18E9DF0018F9D86
:103E8000F00D1124DF01A756B94F52968C9152972D
:103E9000836052968C93E955F94F808181608083CD
:103EA000B6CEF801908B8787BDCED80117968C913E
:103EB0000E94040D882309F4B4C08AE18E9DF001AC
:103EC0008F9DF00D1124DF01A556B94F8C918E7F87
:103ED0008C93E655F94F80818160808381E0F80101
:103EE00081878383108A17860E945E10C6010E9414
:103EF000CA017ACEF80186810E94040D882309F454
:103F000097C08AE18E9DF0018F9DF00D1124DF0195
:103F1000A556B94F8C918E7F8C93E655F94F8081D1
:103F20008160808381E0D80119968C93199713964C
:103F30008C93139750961C921E921F970E945E10AE
:103F4000C6010E94AD013ECE80FD38C044E060E075
:103F5000CE0101960E941D1644E0D8016C91CE015D
:103F600001960E942C1699CE8E7F8083C4018955BC
:103F7000994F3C01DC018C918E7F8C9342E050E0A4
:103F8000B501C8010A960E947D26F801158614869F
:103F9000D3018C9182608C931382F401E556F94F22
:103FA0008081816080838C918B7F8C938091CE0601
:103FB000813009F444C00E94860A29CEF60180812E
:103FC00042E0BE016B5E7F4F082E000C990B0E94F1
:103FD00078168E899D8999838A83D60111968C9152
:103FE00042E0BE016B5E7F4F082E000C990B0E94D1
:103FF00043178E899D899B838C83CE0102960E94F4
:104000000D18CE0103960E940D18CE0103960E9452
:10401000E21544E0F8016081CE0101960E942C1661
:104020003CCE8BE490E00E94560A0E945B0A45CF8A
:104030008BE490E00E94560A0E945B0A62CFF8016E
:10404000828542E0BE016B5E7F4F082E000C990B0B
:104050000E9478168E899D8999838A83D8011B9640
:104060008C9142E0BE016B5E7F4F082E000C990BD5
:104070000E9443178E899D899B838C83CE01029673
:104080000E940D18CE0103960E940D18CE010396D2
:104090000E94E21544E0F8016081CE0101960E9481
:1040A0002C1689CF12861386A1CE9F92AF92BF9213
:1040B000CF92DF92EF92FF920F931F93CF93DF93F4
:1040C00009E916E0C0E0D0E08AE1982EC8014396E5
:1040D0000E9459109C9E70019D9EF00C1124F701C6
:1040E000E955F94F6F01808180FD15C0065E1F4FB5
:1040F000CD2B29F441E0C42F80E0D82FE7CFDF910A
:10410000CF911F910F91FF90EF90DF90CF90BF90D4
:10411000AF909F9008958091D40680FF0DC0F80164
:10412000848595859C012F5F3F4F873E934009F41E
:1041300058C0F801358724878AE18C9FF0018D9F54
:10414000F00D1124E955F94F808181FFCFCFF8019F
:10415000838581113AC0F8018285811136C08AE1D8
:104160008C9FF0018D9FF00D1124E955F94F90813E
:104170009E7F90839C2F9F5F90FBAA24A0F8B12C78
:104180008A9DF0018B9DF00D1124DF01A955B94FD7
:104190008C9182FF3CC0E455F94F87E0D8015396DB
:1041A00001900D928A95E1F78AE18C9FF0018D9F35
:1041B000F00D1124DF01A556B94F8C918E7F8C93A1
:1041C000E955F94F8081846080838AE18C9FF001FA
:1041D0008D9FF00D1124E955F94F80818D7F8083EB
:1041E00085CFF80115861486C8010A960E94AD0194
:1041F000F601808182608083F80183818111A7CFDD
:10420000F701E556F94F808181608083A0CF81E07E
:104210000E945E10C9CFCF92DF92EF92FF920F9370
:104220001F93CF93DF93CDB7DEB766970FB6F894A1
:10423000DEBF0FBECDBF09E916E0E12CF12CC801AD
:1042400043960E945910F8018381811104C0809126
:10425000CE068130A1F0065E1F4FEF2809F03FC067
:10426000EE24E394F12CC80143960E945910F80102
:1042700083818111F0CF8091CE06813061F72AE1F0
:104280002E9DC0012F9D900D11249C012556394F64
:104290006901F901808180FD31C02AE12E9DC001B4
:1042A0002F9D900D1124FC01E955F94F208122FF2B
:1042B000D2CF8055994FFC01808180FD55C044E0EC
:1042C00060E0CE0101960E941D1644E0F801608175
:1042D000CE0101960E942C160E94760ABCCF6696EB
:1042E0000FB6F894DEBF0FBECDBFDF91CF911F9107
:1042F0000F91FF90EF90DF90CF900895F8018285A5
:1043000042E0BE016B5E7F4F082E000C990B0E94AD
:1043100078168E899D8999838A83F801838542E086
:10432000BE016B5E7F4F082E000C990B0E94431755
:104330008E899D899B838C83CE0102960E940D18E5
:10434000CE0103960E940D18CE0103960E94E2153D
:1043500044E0F8016081CE0101960E942C16F6011E
:1043600080818E7F808399CF44E050E06BEB74E0D6
:10437000CE0101960E94652644E0F8016081CE01DD
:1043800001960E942C160E94860A65CF8091D00665
:10439000882319F18091CE06813051F10E94552079
:1043A0008091CE06813009F008950E940B21809102
:1043B000CE068130C9F78CEA96E00E9459108091B0
:1043C000D40680FD18C086EC96E00E9459108091BA
:1043D000D40680FFE9CF0C946B100E94F61C8091EC
:1043E000D0068F5F8093D0068091CE068130B1F6E3
:1043F0000E94A61DD3CF0E946B10E5CFEF92FF92D3
:104400000F931F93CF93DF93CDB7DEB72A970FB6E5
:10441000F894DEBF0FBECDBF8BE097E00E9459102D
:104420008091CF06811181C086E0E0E8F0E0DE01F6
:10443000119601900D928A95E1F7298121602983D7
:104440003A814B815C816D817E818091A1060E94C1
:10445000460B29813A814B815C816D817E818091FF
:10446000BB060E94460B8091CF068F5F8093CF06DC
:1044700080E991E090930E0780930D0780911207D9
:1044800090911307892B21F080910F0781FD18C0AF
:1044900083E00E94570C10E081112CC08091D4065B
:1044A00080FD40C0812F2A960FB6F894DEBF0FBE64
:1044B000CDBFDF91CF911F910F91FF90EF900895A5
:1044C0008D7F80930F0780FF52C08E010F5F1F4FBB
:1044D000B80180911407909115070E94D71144E00C
:1044E00064E0C8010E942C1683E00E94570C10E083
:1044F0008823A1F283E00E946B0C8091CF068F5F2E
:104500008093CF068330E1F1853009F4AFC010E02D
:1045100080E590E00E94560A0E945B0A8091D406D2
:1045200080FFC0CF0E946B10BDCF813081F18230FF
:10453000D1F1833009F447C0843009F09FCF09E9F5
:1045400016E08DECE82E86E0F82EF80186810E94B8
:10455000570C811168C0F80187810E94570C8111A6
:104560003EC0065E1F4FE016F10679F787CF44E0A4
:1045700060E08E010F5F1F4FC8010E941D16AFCF74
:1045800081E090E09093130780931207C0CF44E03E
:1045900060E087EB94E00E942C168091CF068F5F3D
:1045A0008093CF066BCFBE016F5F7F4F809149062E
:1045B00090914A060E94D71144E064E0CE01019632
:1045C0000E942C165BCF44E060E083EB94E00E94F5
:1045D0002C168091CF068F5F8093CF064FCFF801C6
:1045E00087810E946B0CF80187810E94040D88234B
:1045F00009F451C081E00E945E10809114079091EF
:1046000015070196909315078093140720911807BA
:1046100030911907821793070CF4A3CF3093150735
:10462000209314079ECFF80186810E946B0CF8013D
:1046300086810E94040D882339F181E00E945E107A
:104640008091140790911507019790931507809317
:1046500014072091160730911707281739070CF413
:104660007ACF309315072093140775CF46E050E0BA
:1046700064E070E084E197E00E948D2610921307B9
:104680001092120711E044CF8BE490E00E94560A8A
:104690000E945B0AD2CF8BE490E00E94560A0E94EF
:1046A0005B0AA8CF1F93CF93DF93CDB7DEB72A97CE
:1046B0000FB6F894DEBF0FBECDBF8091D106811139
:1046C00035C086E0E0E8F0E0DE01119601900D9241
:1046D0008A95E1F72981216029833A814B815C81A8
:1046E0006D817E818091A1060E94460B29813A81CD
:1046F0004B815C816D817E818091BB060E94460B5F
:104700008091D1068F5F8093D10610E083E00E94F4
:10471000570C811117C0812F2A960FB6F894DEBF6F
:104720000FBECDBFDF91CF911F9108958130C9F0A9
:10473000823019F111E0833041F783E00E94570C79
:10474000882349F383E00E946B0C8091D1068F5F30
:104750008093D1068BE490E00E94560A0E945B0A87
:10476000DACF44E060E087EB94E00E942C16809161
:10477000D1068F5F8093D106C8CFBE016F5F7F4F98
:104780008091490690914A060E94D71144E064E066
:10479000CE0101960E942C16B8CF052E97FB1EF471
:1047A00000940E94E42357FD07D00E94EC2307FCED
:1047B00003D04EF40C94E423509540953095219508
:1047C0003F4F4F4F5F4F089590958095709561953D
:1047D0007F4F8F4F9F4F0895A1E21A2EAA1BBB1B3C
:1047E000FD010DC0AA1FBB1FEE1FFF1FA217B307BD
:1047F000E407F50720F0A21BB30BE40BF50B661FD3
:10480000771F881F991F1A9469F760957095809596
:1048100090959B01AC01BD01CF0108955058BB2775
:10482000AA270E9426240C94A0250E94922538F0E5
:104830000E94992520F039F49F3F19F426F40C9436
:104840008F250EF4E095E7FB0C948925E92F0E9453
:10485000B12558F3BA17620773078407950720F04C
:1048600079F4A6F50C94D3250EF4E0950B2EBA2F0F
:10487000A02D0B01B90190010C01CA01A001112466
:10488000FF27591B99F0593F50F4503E68F11A1612
:10489000F040A22F232F342F4427585FF3CF4695A3
:1048A00037952795A795F0405395C9F77EF41F16C5
:1048B000BA0B620B730B840BBAF09150A1F0FF0F8F
:1048C000BB1F661F771F881FC2F70EC0BA0F621F7B
:1048D000731F841F48F4879577956795B795F7956B
:1048E0009E3F08F0B0CF9395880F08F09927EE0F00
:1048F0009795879508950E94652508F481E00895AD
:104900000E9494240C94A0250E94992558F00E949E
:10491000922540F029F45F3F29F00C94892551112C
:104920000C94D4250C948F250E94B12568F399230B
:10493000B1F3552391F3951B550BBB27AA2762179B
:104940007307840738F09F5F5F4F220F331F441FA8
:10495000AA1FA9F335D00E2E3AF0E0E832D09150DC
:104960005040E695001CCAF72BD0FE2F29D0660FC9
:10497000771F881FBB1F261737074807AB07B0E80C
:1049800009F0BB0B802DBF01FF2793585F4F3AF012
:104990009E3F510578F00C9489250C94D4255F3FF7
:1049A000E4F3983ED4F3869577956795B795F79598
:1049B0009F5FC9F7880F911D9695879597F9089580
:1049C000E1E0660F771F881FBB1F6217730784071C
:1049D000BA0720F0621B730B840BBA0BEE1F88F72B
:1049E000E09508950E94F9246894B1110C94D4259F
:1049F00008950E94B92588F09F5798F0B92F9927FC
:104A0000B751B0F0E1F0660F771F881F991F1AF0B9
:104A1000BA95C9F714C0B13091F00E94D325B1E026
:104A200008950C94D325672F782F8827B85F39F025
:104A3000B93FCCF3869577956795B395D9F73EF452
:104A400090958095709561957F4F8F4F9F4F0895FA
:104A5000E89409C097FB3EF4909580957095619518
:104A60007F4F8F4F9F4F9923A9F0F92F96E9BB27CE
:104A70009395F695879577956795B795F111F8CF4A
:104A8000FAF4BB0F11F460FF1BC06F5F7F4F8F4FB5
:104A90009F4F16C0882311F096E911C0772321F0AB
:104AA0009EE8872F762F05C0662371F096E8862F43
:104AB00070E060E02AF09A95660F771F881FDAF79A
:104AC000880F9695879597F90895990F0008550FC7
:104AD000AA0BE0E8FEEF16161706E807F907C0F084
:104AE00012161306E407F50798F0621B730B840B8C
:104AF000950B39F40A2661F0232B242B252B21F466
:104B000008950A2609F4A140A6958FEF811D811D05
:104B1000089597F99F6780E870E060E008959FEF3F
:104B200080EC089500240A94161617061806090644
:104B3000089500240A941216130614060506089513
:104B4000092E0394000C11F4882352F0BB0F40F49B
:104B5000BF2B11F460FF04C06F5F7F4F8F4F9F4FDB
:104B6000089557FD9058440F551F59F05F3F71F05D
:104B70004795880F97FB991F61F09F3F79F08795C4
:104B80000895121613061406551FF2CF4695F1DF4D
:104B900008C0161617061806991FF1CF86957105DD
:104BA000610508940895E894BB2766277727CB0111
:104BB00097F908950E94652508F48FEF08950E94E3
:104BC000F2250C94A0250E94922538F00E94992588
:104BD00020F0952311F00C9489250C948F25112435
:104BE0000C94D4250E94B12570F3959FC1F3950FC5
:104BF00050E0551F629FF001729FBB27F00DB11D61
:104C0000639FAA27F00DB11DAA1F649F6627B00DF0
:104C1000A11D661F829F2227B00DA11D621F739FD9
:104C2000B00DA11D621F839FA00D611D221F749FE7
:104C30003327A00D611D231F849F600D211D822F2E
:104C4000762F6A2F11249F5750409AF0F1F0882355
:104C50004AF0EE0FFF1FBB1F661F771F881F915082
:104C60005040A9F79E3F510580F00C9489250C9483
:104C7000D4255F3FE4F3983ED4F386957795679506
:104C8000B795F795E7959F5FC1F7FE2B880F911DAC
:104C90009695879597F908956817790768F4FB0149
:104CA000DC01E40FF51FA40FB51F02C002900E92A5
:104CB00041505040D8F708950C947426DC0101C08F
:104CC0006D9341505040E0F70895FB01DC014150E5
:104CD000504048F001900D920020C9F701C01D928C
:104CE00041505040E0F70895FB01DC0102C0019003
:104CF0000D9241505040D8F70895DC01CB01FC01E2
:104D0000E199FECF06C0FFBBEEBBE09A31960DB233
:104D10000D9241505040B8F70895DC01A40FB51F23
:104D20004150504048F0CB01840F951F2E910E94B6
:104D30009E2641505040D0F70895262FE199FECF8E
:104D40009FBB8EBBE09A01970DB2021631F02DBBCE
:104D50000FB6F894E29AE19A0FBE0895F894FFCF47
:104D6000171819181B181D181F1821182318251893
:104D7000271829182B182D182F1831183318351803
:104D80000000000000000000000000000000000023
:104D90000000000000000073986EB777F3603F5585
:104DA000FBE03F50C22840910A614060AB8C404616
:104DB000D3A8400DFDC440B728E1404356FD40D97B
:104DC000C20C4181DB1A41F1F42841910F374102B5
:104DD0002B4541AE475341C36461417B836F419C86
:104DE000A27D417CE1854113F28C41120394417B09
:104DF000149B418126A2412439A941FB4BB041704B
:104E00005FB7414D73BE41C887C541AC9CCC41F9E9
:104E1000B1D341E3C7DA4135DEE141F1F4E84115B0
:104E20000CF041D723F741363CFE4165AA0242FD12
:104E3000360642CAC30942E5500D4235DE1042D45F
:104E40006B14428CF9174294871B42EA151F427477
:104E5000A422423333264227C2294268512D42F907
:104E6000E03042A47034429D003842E5903B4262FB
:104E7000213F4213B24242F84246422CD44942AF4B
:104E8000654D424CF7504252895442711B5842E0E2
:104E9000AD5B4283405F4275D362429B66664210BF
:104EA000FA69429F8D6D4296217142A8B5744223E2
:104EB0004A7842B8DE7B429C737F42678481420E0F
:104EC0004F8342E8198542D0E48642DFAF8842161C
:104ED0007B8A4266468C42D1118E4264DD8F42103D
:104EE000A99142D7749342D2409542DA0C97420975
:104EF000D9984253A59A42C4719C424F3E9E4202A9
:104F00000BA042CFD7A142C3A4A342D171A54207AF
:104F10003FA742570CA942C1D9AA4252A7AC420BA3
:104F200075AE42D142B042CB10B242E0DEB3420E87
:104F3000ADB542647BB742D549B9426C18BB421E3D
:104F4000E7BC42EAB5BE42EA84C042F853C2422DF1
:104F500023C44289F2C542FFC1C7426891C9424891
:104F600061CB422731CD420601CF4268D1D04248C1
:104F7000A1D242AA71D4428F42D642F212D842D76D
:104F8000E3D942BCB4DB42A285DD428756DF42F062
:104F900027E14258F9E242C1CAE442AC9CE6429899
:104FA0006EE8428340EA426F12EC425AE4ED42C995
:104FB000B6EF423789F142A65BF342982EF542895B
:104FC00001F7427BD4F8426DA7FA42E17AFC42D362
:104FD0004DFE42A4100043A0FA00435AE401435698
:104FE000CE024352B803434EA204438B8C0543C9FF
:104FF00076064306610743444B0843C335094342E1
:10500000200A43C10A0B433FF50B4300E00C43C1A8
:10501000CA0D4381B50E4383A00F43448B10434612
:10502000761143486112438B4C1343CF371443121C
:10503000231543560E16439AF916431FE51743A44A
:10504000D0184329BC1943F0A71A43B6931B437DDC
:105050007F1C43446B1D434C571E4354431F435C0A
:105060002F2043641B2143AE072243F8F32243421F
:10507000E02343CDCC244317B92543A2A526436F93
:10508000922743FA7E2843C76B294393582A4360EB
:10509000452B436F322C437D1F2D438B0C2E439A9F
:1050A000F92E43E9E62F4339D4304389C13143D93E
:1050B000AE32436A9C3343FC8934438D7735436079
:1050C0006536433353374306413843D92E3943EECF
:1050D0001C3A43020B3B4317F93B432BE73C43810C
:1050E000D53D43D7C33E432DB23F43C5A040435CAB
:1050F0008F4143F47D42438B6C4343645B4443FCE8
:1051000049454317394643F02747430A1748432583
:105110000649433FF549435AE44A43B6D34B431249
:10512000C34C43B0B24D430CA24E43AA914F4348E7
:105130008150432771514306615243E5505343C5A3
:10514000405443A4305543C5205643E510574348C7
:1051500001584368F15843CBE159436FD25A43D1C8
:10516000C25B4375B35C4319A45D43BC945E43A228
:10517000855F43877660436D676143525862437928
:10518000496343A03A6443C72B65432F1D66439888
:105190000E6743000068431582079BF3698279B765
:1051A0002900003DF182293937071979110500F1ED
:1051B000116D007A792D00EB8229009B1B0779EB9A
:1051C000716500EB82D9DAB27A3BC2FBF2000000D3
:1051D00000000000000000000000000000000000CF
:1051E00000000000000000000000000000000000BF
:1051F00000000000000000000000000000000000AF
:10520000000000000000000000000000000000009E
:08521000000000000000000096
:00000001FF
