:100000000C942A000C9447000C9447000C94470071
:100010000C9447000C9447000C9447000C94470044
:100020000C9447000C9447000C94B21C0C944700AD
:100030000C9447000C9447000C9447000C94470024
:100040000C9447000C9447000C9447000C94470014
:100050000C94470011241FBECFE5D8E0DEBFCDBF12
:1000600015E0A0E6B0E0E0E6FEE402C005900D92E7
:10007000A831B107D9F727E0A8E1B5E001C01D928A
:10008000A53EB207E1F70E94CD190C942E270C94DF
:1000900000008F929F92AF92BF92CF92DF92EF9229
:1000A000FF920F931F93CF93DF93AC014B0180E03E
:1000B00090E057FD77C0FB01DB0180E090E01DEC94
:1000C000A12E6DEC7CEC05E0B02E352F330F330BF9
:1000D000232F2370F22E8A01129502950F700127AB
:1000E0001F7001270F70242F2F70200F152F1F70E6
:1000F000210F152F12951F70210F2F0D2A9D112DE5
:100100001124012F069506951C7F100F211B3C7FA3
:10011000230F022E000C330B7A01E21AF30AE69E3B
:100120008001E79E100DF69E100D11247801C1E0AC
:10013000EC22C0E8FC2217FF0AC0D1E0ED1AF1085A
:10014000CEEFEC2AFF24FA94DFEFED1AFD0ABE9CF5
:100150006001BF9CD00C11242C0D3D1D17FF02C067
:100160000F5F1F4F01962D939A01A8015595479552
:100170002A3031050CF0A9CF9C0135952795211522
:10018000310581F0DC01A80DB91D820E931E21916D
:100190003E91AF0141505109EA0138832C93E81593
:1001A000F905A9F7DF91CF911F910F91FF90EF9083
:1001B000DF90CF90BF90AF909F908F9008958F92D7
:1001C0009F92AF92BF92DF92EF92FF920F931F9395
:1001D000CF93DF938C01EB01D42EFC010190002022
:1001E000E9F73197E81BF90B6E177F07A8F11C168A
:1001F0001D0694F5FC0180E090E004C00196C8174C
:10020000D90751F121912111F9CF009729F1C81790
:10021000D90711F1F801EC0FFD1F10825E01A81A39
:10022000B90AE12CF12CC80101974C011A141B04E6
:100230008CF4AE01B401C8010E94CC269FEFE91AEC
:10024000F90AEA14FB04A9F76D2D70E0A701C801B3
:100250000E94DE2681E001C080E0DF91CF911F91F6
:100260000F91FF90EF90DF90BF90AF909F908F9095
:10027000089540E30C94DF0040E20C94DF0090BD51
:1002800089B988E08AB988E18AB986E880BD08958D
:100290005D9BFECF8CB908955F9BFECF8CB1089516
:1002A0001F920F920FB60F9211242F933F934F93EB
:1002B0005F936F937F938F939F93AF93BF93EF93CE
:1002C000FF930E940806FF91EF91BF91AF919F911C
:1002D0008F917F916F915F914F913F912F910F90EF
:1002E0000FBE0F901F901895FC018081882339F074
:1002F00031965D9BFECF8CB981918111FACF089523
:10030000FC018081882339F031965D9BFECF8CB94A
:1003100081918111FACF5D9BFECF8AE08CB908955F
:10032000FC018491882339F05D9BFECF8CB9319616
:1003300084918111F9CF0895FC018491882339F0CB
:100340005D9BFECF8CB9319684918111F9CF5D9B75
:10035000FECF8AE08CB908950895FC018181811156
:1003600009C08081882381F09BE391838150808341
:1003700080E0089581508183811108C081E09081DF
:10038000992319F080E0089581E0089587FFFACF5E
:100390008081EACFFC01818190818B3379F09C339D
:1003A0007CF49B3379F021E0280F21838B53843434
:1003B00018F411829F5F908380E008959B33CCF303
:1003C00081E008958C33E4F791E0980F918381E008
:1003D0009B3391F7F6CFCF93DF93CDB7DEB7289756
:1003E0000FB6F894DEBF0FBECDBF19821A821B82F2
:1003F0001C8280911A0590911B05892B81F544B1CF
:1004000085B120915B0730915C07F901EE0FFF1F6A
:10041000EB5CFA4F90E0982F8827840F911D918311
:1004200080832F5F3F4F2C33310570F430935C078E
:1004300020935B0780E028960FB6F894DEBF0FBECE
:10044000CDBFDF91CF91089510925C0710925B07AA
:1004500081E090E090931B0580931A05EBCF9E01FD
:100460002F5F3F4F4CE350E065E375E084E295E099
:100470000E9479028823F1F269817A818B819C81C3
:100480000E9479256D837E838F8398878D819E81DD
:10049000CB9748F480912205909123050196909383
:1004A00023058093220580911E0590911F050196DA
:1004B00082309105CCF010921F0510921E0581E04C
:1004C0002091220530912305223031050CF480E083
:1004D00080938706109223051092220510921B0527
:1004E00010921A0581E0A7CF90931F0580931E05F7
:1004F000F5CF6F927F928F929F92AF92BF92CF92E1
:10050000DF92EF92FF920F931F93CF93DF93CDB7BC
:10051000DEB765970FB6F894DEBF0FBECDBF8987F3
:100520009A87FB018A017901A985BA858C9181118D
:1005300081C012961C921E92119781E08C93EE243A
:10054000E394F12C812C912C5401808191819C01A8
:1005500040E050E029833A834B835C83CA01B901B0
:100560000E94A825A501940169837A838B839C83CB
:1005700069817A818B819C810E948F245B016C014F
:10058000AB01BC01A985BA8513964D935D936D931C
:100590007C931697E016F10608F4DEC0FD01128286
:1005A00011829801110F440B550B29833A834B8319
:1005B0005C83CA01B9010E94AA259B01AC01A982F2
:1005C000BA82CB82DC8269817A818B819C810E9494
:1005D00000256D877E878F87988BA985BA851396AE
:1005E0006D937D938D939C93169718961C921E92F3
:1005F00017971A961C921E921997FD01138614865E
:100600001586168682E0808380E065960FB6F894A2
:10061000DEBF0FBECDBFDF91CF911F910F91FF9035
:10062000EF90DF90CF90BF90AF909F908F907F9092
:100630006F900895813009F41DC1823029F7119619
:10064000AD90BC904501880C991C860E971EF40154
:10065000808191819C0140E050E029833A834B8363
:100660005C83CA01B9010E94A8253B016C01A985E0
:10067000BA8513968D919D910D90BC91A02D8D837F
:100680009E83AF83B8879C01AD0169827A82CB8259
:10069000DC8269817A818B819C810E945A2618169E
:1006A000DCF5E985FA8587819085019690878783B7
:1006B000D4018D919C919C0140E050E029833A83C4
:1006C0004B835C83CA01B9010E94A8253B016C01E0
:1006D0002D813E814F81588569837A828B83DC82AC
:1006E00069817A818B819C810E948E249B01AC015F
:1006F000A985BA851B966D917D918D919C911E97D0
:100700000E948F24698B7A8B8B8B9C8BE985FA8571
:1007100063877487858796879301A6016D817E81A3
:100720008F8198850E945A2618165CF4A985BA858F
:1007300019968D919C911A9701961A969C938E9377
:100740001997BFEFAB1ABB0AA016B10650F4E985A2
:10075000FA85B282A18258CF1296FC92EE9211973E
:1007600053CFA985BA8512961C921E9211971C929E
:100770001B962D913D914D915C911E9729833A8353
:100780004B835C8320E030E0A90169817A818B8111
:100790009C810E94FB2487FD5BC0E985FA858781E7
:1007A000908521853285821B930B9C01990F440B08
:1007B000550B29873A874B875C87CA01B9010E948C
:1007C000AA2529813A814B815C8169837A838B8355
:1007D0009C8369817A818B819C810E945F266B0159
:1007E0008D8B9987009FC001019F900D900D112462
:1007F0009C01990F440B550B29833A834B835C83EF
:10080000CA01B9010E94AA259B01AC01C982DA8202
:100810008D898B8399859C8369817A818B819C8169
:100820000E9400252D813E814F81588569837A83FE
:100830008B839C8369817A818B819C810E948F2428
:10084000D7016D937D938D939C93139781E0DDCEBB
:1008500029813A814B815C81505829833A834B83AB
:100860005C83A985BA851B962D933D934D935C932C
:100870001E9793CFA985BA8513968D909D90AD90C4
:10088000BC9016971196ED90FC90C701880F991FA8
:10089000E80FF91FBFEFEB1AFB0A57CE8091D40582
:1008A00080FD06C08091D3059091D205891B0895E3
:1008B0008091D40581FF07C09091D3058091D30525
:1008C000805E891B08959091D2058091D305805E4A
:1008D000891B0895E091D305F0E0EE54FA4F808330
:1008E0008091D40580FD10C08091D3058F5F8093E7
:1008F000D305803209F008951092D3058091D40574
:1009000081608093D40508959091D3058091D2059C
:100910009813EACF8091D40582608093D405E4CF08
:10092000E091D205F0E0EE54FA4F80819091D2052B
:100930009F5F9093D2059091D2059F719093D205BD
:100940002091D2059091D305291308959091D40553
:100950009E7F9093D4059091D4059D7F9093D4056C
:100960000895CF93DF93DC01862F662311F19091D8
:10097000D40590FD21C0AD01460F511DE091D20577
:10098000F0E0EE54FA4F30819091D2059F5F909342
:10099000D2059091D2059F719093D2052091D205F6
:1009A0009091D305291709F46CC03D934A175B0752
:1009B00029F7DF91CF9108959091D4059460909399
:1009C000D4059091D40591FD8AC07091D20530E292
:1009D000371B381708F065C0332321F1ED01AD0155
:1009E000430F511DE091D205F0E0EE54FA4F6081C3
:1009F0009091D2059F5F9093D2059091D2059F71FF
:100A00009093D2052091D2059091D305291709F42E
:100A10007BC06993C417D50729F77052870F8823C5
:100A200009F494C090E0232F290FED01C20FD11DCE
:100A3000E091D205F0E0EE54FA4F50812091D205BA
:100A40002F5F2093D2052091D2052F712093D205DC
:100A50004091D2052091D305421709F445C058832F
:100A60009F5F981700F3882309F46EC081503F5FA1
:100A7000830F9091D4059B7F9093D405DF91CF9104
:100A800008959091D4059E7F9093D4059091D405BC
:100A90009D7F9093D4053D93A417B50709F06ECFC1
:100AA00088CFAD01480F511DE091D205F0E0EE5422
:100AB000FA4F30819091D2059F5F9093D20590912B
:100AC000D2059F719093D2052091D2059091D305C4
:100AD000291751F13D93A417B50731F7CACF90916B
:100AE000D3059093D20571CF2091D4052E7F20930A
:100AF000D4052091D4052D7F2093D40558839F5F82
:100B0000981708F490CFAFCF9091D4059E7F909323
:100B1000D4059091D4059D7F9093D40569934C178B
:100B20005D0709F05FCF79CF9091D4059E7F9093B8
:100B3000D4059091D4059D7F9093D4053D93A4173F
:100B4000B50709F0B1CF95CF80E091CF832F91CF3A
:100B50008091D40580FD17C0E091D205F0E0EE54FD
:100B6000FA4F80819091D2059F5F9093D20590912A
:100B7000D2059F719093D2052091D2059091D30513
:100B80002917B1F108958091D40584608093D4052C
:100B90008091D40581FD37C0E091D205F0E0EE549C
:100BA000FA4F80819091D2059F5F9093D2059091EA
:100BB000D2059F719093D2052091D2059091D305D3
:100BC000291731F09091D4059B7F9093D405089517
:100BD0009091D4059E7F9093D4059091D4059D7FEC
:100BE0009093D4059091D4059B7F9093D405EFCF3B
:100BF0009091D4059E7F9093D4059091D4059D7FCC
:100C00009093D40508958091D3058093D205C4CFE5
:100C10002CB18091D405E091B10582FD99C01E16DA
:100C20000CF070C08E2FEE0F990B3091AD05E09156
:100C3000D305F0E0EE54FA4F30833091D40530FD07
:100C4000A7C03091D3053F5F3093D305303239F4DC
:100C50001092D3053091D40531603093D4058130A2
:100C6000910509F44DC03091AE05E091D305F0E057
:100C7000EE54FA4F30833091D40530FD95C0309159
:100C8000D3053F5F3093D305303239F41092D3054A
:100C90003091D40531603093D4058230910581F1D3
:100CA0003091AF05E091D305F0E0EE54FA4F308378
:100CB0003091D40530FD60C03091D3053F5F309353
:100CC000D305303209F450C00397D1F08091B005BC
:100CD000E091D305F0E0EE54FA4F80838091D40583
:100CE00080FD6EC08091D3058F5F8093D3058032E5
:100CF00039F41092D3058091D40581608093D40596
:100D00001092B105E091D305F0E0EE54FA4F208344
:100D10008091D40580FD10C08091D3058F5F8093B2
:100D2000D305803209F008951092D3058091D4053F
:100D300081608093D40508959091D3058091D20568
:100D40009813EACF8091D40582608093D405E4CFD4
:100D500081E08E0F8093B105E3700E2E000CFF0B27
:100D6000E355FA4F208308951092D3053091D405AE
:100D700031603093D405A8CF4091D3053091D2058E
:100D800043139ACF3091D40532603093D40594CF79
:100D90004091D3053091D205431353CF3091D40500
:100DA00032603093D4054DCF4091D3053091D205B8
:100DB000431365CF3091D40532603093D4055FCFB3
:100DC0009091D3058091D20598138CCF8091D40552
:100DD00082608093D40586CF86B382958170089512
:100DE000C49ABC98E5EDF5E08CEE96E0938382839F
:100DF0008FE99FE00197F1F700C000000280F381C6
:100E0000E02D0995982F9170E6EDF5E0808190FB3B
:100E100081F990FB82F98860808308950F931F9376
:100E2000CF93DF938091D60580FD21C0E091D70557
:100E3000F091D80509959091D60592FB222720F9CB
:100E4000C22F20E0D22F282F082E000C330BC21700
:100E5000D30741F0880F880F847081609A7F892BB7
:100E60008093D605DF91CF911F910F9108958091C6
:100E7000D50591E0980F843039F09093D505DF9136
:100E8000CF911F910F9108951092D505E091D7054C
:100E9000F091D80509959091D60592FB002700F9AD
:100EA00010E0282F082E000C330B0217130771F0E7
:100EB00080FB92F99093D6058091D6058E7F809322
:100EC000D605DF91CF911F910F910895880F827001
:100ED0008860957F892B8093D605EECFFC01A5A570
:100EE000B6A527A581E090E001C0880F2A95EAF712
:100EF0009C91613021F0809589238C930895892BF2
:100F00008C930895FC0120A131A133A322A3A5A5B0
:100F1000B6A547A581E090E001C0880F4A95EAF7A1
:100F20009C91121613061CF4892B8C9308958095BE
:100F300089238C930895AF92BF92CF92DF92EF9264
:100F4000FF920F931F93CF93DF9300D000D000D078
:100F5000CDB7DEB78D839E83CB01AD81BE81129666
:100F60002D913C911397260F371F13963C932E9388
:100F7000129718960D911C911997021713070CF0F0
:100F8000BAC013961C930E93129714962D913C9110
:100F900015977C01E21AF30A1796FC92EE921697C7
:100FA00015969C938E9314979C01990F440B550BA7
:100FB00029833A834B835C83CA01B9010E94AA2525
:100FC000AD81BE8152962D913D914D915C91559789
:100FD00069837A838B839C8369817A818B819C81ED
:100FE0000E945F265B016C019801110F440B550BA9
:100FF00029833A834B835C83CA01B9010E94AA25E5
:10100000AD81BE8156962D913D914D915C91599740
:1010100069837A838B839C8369817A818B819C81AC
:101020000E945F269B01AC01A982BA82CB82DC823E
:1010300069817A818B819C810E948F246B018C0154
:101040009701FF0C440B550B29833A834B835C8338
:10105000CA01B9010E94AA25AD81BE815A962D917F
:101060003D914D915C915D9769837A838B839C83DD
:1010700069817A818B819C810E945F269B01AC01F2
:10108000C982DA820B831C8369817A818B819C817E
:101090000E948F2469837A838B839C8369817A8100
:1010A0008B819C810E947225462F572FED81FE81F6
:1010B00020893189249FC001259F900D349F900D78
:1010C000112491A380A32485358528173907E4F4DA
:1010D00031A320A30F900F900F900F900F900F90BF
:1010E000DF91CF911F910F91FF90EF90DF90CF9004
:1010F000BF90AF900895FD01028513852017310739
:101100005CF41383028341CF2685378582179307CA
:101110000CF731A320A3DECF890137CFAF92BF9266
:10112000CF92DF92EF92FF920F931F93CF93DF93B3
:1011300000D000D000D0CDB7DEB78D839E83CB0129
:10114000AD81BE8112962D913C911397260F371FCA
:1011500013963C932E93129718960D911C91199704
:10116000021713070CF0A5C013961C930E93129749
:1011700014962D913C9115977C01E21AF30A17966B
:10118000FC92EE92169715969C938E9314979C0161
:10119000990F440B550B29833A834B835C83CA0117
:1011A000B9010E94AA25AD81BE8152962D913D9133
:1011B0004D915C91559769837A838B839C83698178
:1011C0007A818B819C810E945F265B016C01980172
:1011D000110F440B550B29833A834B835C83CA015F
:1011E000B9010E94AA25AD81BE8156962D913D91EF
:1011F0004D915C91599769837A838B839C83698134
:101200007A818B819C810E945F269B01AC01A9821F
:10121000BA82CB82DC8269817A818B819C810E9437
:101220008F246B018C019701FF0C440B550B298314
:101230003A834B835C83CA01B9010E94AA25AD8120
:10124000BE815A962D913D914D915C915D97698338
:101250007A838B839C8369817A818B819C810E94B4
:101260005F269B01AC01C982DA820B831C836981F2
:101270007A818B819C810E948F2469837A838B83FE
:101280009C8369817A818B819C810E947225CB012C
:101290000F900F900F900F900F900F90DF91CF91C4
:1012A0001F910F91FF90EF90DF90CF90BF90AF9084
:1012B0000895FD0102851385201731071CF413835F
:1012C000028356CF890154CFFC01268D378D2F5FC5
:1012D0003F4F378F268F84A14485558587FD18C0E1
:1012E00062A173A1161617069CF481110CC081A58A
:1012F00092A52817390770F0178E168E21E024A3C7
:1013000020E030E007C0813019F42617370738F5A0
:1013100081A592A5840F951F43A554A5840F951F01
:101320002817390708F40895178E168E14A220A1E5
:1013300031A133A322A3A5A5B6A547A581E090E0DE
:1013400001C0880F4A95EAF79C91121613061CF407
:10135000892B8C930895809589238C930895641725
:101360007507B4F6A5A5B6A52C9137A581E090E048
:1013700001C0880F3A95EAF7809582238C93268DD9
:10138000378D81A592A544855585C4CFAF92BF9274
:10139000CF92DF92EF92FF920F931F93CF93DF9341
:1013A00000D000D000D0CDB7DEB78D839E83CB01B7
:1013B000AD81BE8112962D913C911397260F371F58
:1013C00013963C932E93129718960D911C91199792
:1013D000021713070CF0D2C013961C930E931297AA
:1013E00014962D913C9115977C01E21AF30A1796F9
:1013F000FC92EE92169715969C938E9314979C01EF
:10140000990F440B550B29833A834B835C83CA01A4
:10141000B9010E94AA25AD81BE8152962D913D91C0
:101420004D915C91559769837A838B839C83698105
:101430007A818B819C810E945F265B016C019801FF
:10144000110F440B550B29833A834B835C83CA01EC
:10145000B9010E94AA25AD81BE8156962D913D917C
:101460004D915C91599769837A838B839C836981C1
:101470007A818B819C810E945F269B01AC01A982AD
:10148000BA82CB82DC8269817A818B819C810E94C5
:101490008F246B018C019701FF0C440B550B2983A2
:1014A0003A834B835C83CA01B9010E94AA25AD81AE
:1014B000BE815A962D913D914D915C915D976983C6
:1014C0007A838B839C8369817A818B819C810E9442
:1014D0005F269B01AC01C982DA820B831C83698180
:1014E0007A818B819C810E948F2469837A838B838C
:1014F0009C8369817A818B819C810E947225462F11
:10150000572FED81FE8120893189249FC001259FBD
:10151000900D349F900D112491A380A324853585CF
:10152000281739071CF531A320A380919D0780FF60
:101530000CC0ED81FE8185A196A1019696A385A39D
:1015400027A130A58217930720F50F900F900F90D9
:101550000F900F900F90DF91CF911F910F91FF90FF
:10156000EF90DF90CF90BF90AF900895268537859C
:1015700082179307D4F631A320A3D7CFFD010285AC
:101580001385201731071CF41383028329CF8901A7
:1015900027CF16A215A2CF010F900F900F900F909A
:1015A0000F900F90DF91CF911F910F91FF90EF90CF
:1015B000DF90CF90BF90AF900C946409E9EDF5E017
:1015C00090878783618708959093DD058093DC057C
:1015D000089581E08093D9050895E9EDF5E031851E
:1015E000A781B0852C9181E090E002C0880F991FFF
:1015F0003A95E2F78095909582238C931082089516
:1016000083E08093D9050895E9EDF5E091850780A1
:10161000F085E02D808121E030E001C0220F9A9515
:10162000EAF7822B80830895E9EDF5E031850780A4
:10163000F085E02D208181E090E002C0880F991FA5
:101640003A95E2F780959095822380830895809162
:10165000D905813009F472C08091D905823021F119
:101660008091D905833009F450C08091D905843028
:1016700009F0089580919D0780FFFBCF8091DA05E6
:101680009091DB0501969093DB058093DA0520911C
:10169000DC053091DD058217930758F38091D90559
:1016A00081508093D905089580919D0780FFD8CF00
:1016B0008091DA059091DB0501969093DB0580938C
:1016C000DA052091DA053091DB058091DC059091F7
:1016D000DD052817390720F21092DB051092DA0594
:1016E0003091E205E091E005F091E105208181E093
:1016F00090E002C0880F991F3A95E2F78095909587
:10170000822380831092D905ABCF9091E205E091BE
:10171000E005F091E105808121E030E001C0220F79
:101720009A95EAF7822780831092DB051092DA05FA
:101730008091D9058F5F8093D90508959091E20536
:10174000E091E005F091E105808121E030E001C009
:10175000220F9A95EAF7822B80831092DB05109274
:10176000DA058091D9058F5F8093D90579CF80B351
:1017700086958170089580B38170089586B383FB48
:10178000882780F9089580B386FB882780F908951B
:1017900089B386958170089586B38170089589B361
:1017A00083FB882780F90895CF93DF9300D000D082
:1017B00000D0CDB7DEB729833A834B835C836D833A
:1017C0007E8390E1899FD0011124AD50BA4F86E00D
:1017D000FE01319601900D928A95E1F70F900F90DE
:1017E0000F900F900F900F90DF91CF910895CF93AE
:1017F000DF93CDB7DEB72C970FB6F894DEBF0FBEE0
:10180000CDBF89988898BB988E98D198B898D3986E
:10181000EAEEF5E087EB9BE0918380838BEB9BE026
:10182000918B808B8EEB9BE091A380A383EC9BE05C
:1018300091AB80AB88EC9BE090932B0680932A06BB
:101840008CEC9BE090933B0680933A068FEC9BE0F8
:1018500090934B0680934A06CE01079626E0FC0142
:1018600011922A95E9F72F8121602F8326E0FC0150
:10187000DE01119601900D922A95E1F726E0FE0116
:101880003196A3EFB5E001900D922A95E1F726E09D
:10189000FC01DE01119601900D922A95E1F726E0F8
:1018A000FE013196A3E0B6E001900D922A95E1F792
:1018B00026E0FC01DE01119601900D922A95E1F7D8
:1018C00026E0FE013196A3E1B6E001900D922A9543
:1018D000E1F726E0FC01DE01119601900D922A95B8
:1018E000E1F726E0FE013196A3E2B6E001900D9209
:1018F0002A95E1F726E0FC01DE01119601900D9298
:101900002A95E1F726E0FE013196A3E3B6E00190C7
:101910000D922A95E1F726E0FC01DE011196019077
:101920000D922A95E1F726E0FE013196A3E4B6E098
:1019300001900D922A95E1F726E0FC01DE01119657
:1019400001900D922A95E1F786E0FE013196A3E51C
:10195000B6E001900D928A95E1F72C960FB6F894B7
:10196000DEBF0FBECDBFDF91CF910895E9EFF5E067
:1019700080818D7F8083E9E0F6E080818D7F8083A8
:10198000E9E1F6E080818D7F8083E9E2F6E0808105
:101990008D7F8083E9E3F6E080818D7F8083E9E4B9
:1019A000F6E080818D7F8083E9E5F6E080818D7FA0
:1019B0008083089590E1899FF0011124E750FA4F48
:1019C000808182FB882780F9089590E1899FF0014A
:1019D0001124E750FA4F808186958170089590E137
:1019E000899FF0011124E750FA4F80818260808343
:1019F000089590E1899FF0011124E750FA4F80810A
:101A00008D7F8083089590E1899FF0011124E65134
:101A1000FA4F0280F381E02D099490E18902F001F0
:101A20001124E750FA4F80818170089590E1890276
:101A3000F0011124E750FA4F808185FB882780F957
:101A4000089590E18902F0011124E750FA4F808156
:101A50008F7D80830895EF92FF920F931F93CF9312
:101A6000DF9306E010E00CC0E881F981099581114F
:101A700003C08C818F5F8C830150110908F440C032
:101A80008AE18A95F1F700C07801E294F29480EF40
:101A9000F822FE24E822FE24E701C651DA4F8C81A9
:101AA000882311F38C818130C9F08C81823079F1E7
:101AB0008C81833009F78D818F5F8D838130E1F6D2
:101AC0001D82E881F9810995813041F5F701E750E0
:101AD000FA4F80818E7F80831C82CECF8D818F5F75
:101AE0008D83813049F61D82E881F9810995811144
:101AF00015C0F701E750FA4F808181608083B9CF2C
:101B0000DF91CF911F910F91FF90EF900895E881A1
:101B1000F9810995813009F0AFCFABCF8C8181502D
:101B20008C83AACF90E18902F0011124E651FA4F8B
:101B3000968181E0983009F0089580E00895FF9241
:101B40000F931F93CF93DF9320E030E079E0FAE02A
:101B5000FF2E63E042E05BE052C0FC01E651FA4F29
:101B6000B681B93009F49AC0FC01E651FA4FB6814A
:101B7000BA3009F4A4C0FC01E651FA4FB681B63080
:101B800009F4B2C0FC01E651FA4FB681B73039F41E
:101B9000EC01C750DA4FB881B260B8834683FC01CC
:101BA000E651FA4FB681B43009F418C1FC01E65190
:101BB000FA4FB681B53009F4E1C0FC01E651FA4FA5
:101BC000B681B13009F4D2C0FC01E651FA4FB681BA
:101BD000B23009F4C0C0FC01E651FA4FB681B3300F
:101BE00009F4B1C0FC01E651FA4FB681BB3009F4EB
:101BF00086C02F5F3F4F2730310509F49EC0C901D1
:101C000082959295907F9827807F9827FC01E651D6
:101C1000FA4FB681B11113C0B685BB2341F0E685FA
:101C2000F0E0ED51FA4FE081E13009F41FC1EC0121
:101C3000C750DA4FE881E170E13009F405C1FC01D9
:101C4000E651FA4FB681B83068F0B681BB3050F437
:101C5000EC01C750DA4FB881B0FD04C0108617827E
:101C6000B3E0B683FC01E651FA4FB681B83009F013
:101C700074CFC781D0852196D087C783028513850D
:101C8000C017D10708F469CF108617827683FC014C
:101C9000E651FA4FB681B93009F066CFEC01C75072
:101CA000DA4FB881B1FD60CFB881B260B883F682F7
:101CB000FC01E651FA4FB681BA3009F05CCFC7811A
:101CC000D0852196D087C78304851585C017D10795
:101CD00008F451CF108617827683FC01E651FA4F43
:101CE000B681B63009F04ECFEC01C750DA4FB8815B
:101CF000B0FD48CFB881B260B883668343CFB68564
:101D0000BB2359F0E685F0E0ED51FA4F1082FC015B
:101D1000E750FA4FB081B77FB083FC01E651FA4F2C
:101D20001682FC01E750FA4F80818F7E80832F5FFF
:101D30003F4F2730310509F062CFDF91CF911F91DE
:101D40000F91FF900895EC01C750DA4FB881B1FDB3
:101D500049CF568347CFEC01C750DA4FB881B0FD69
:101D60003ACFB881BD7FB883568335CFEC01C750D9
:101D7000DA4FB881B0FD28CF668326CFC781D085E2
:101D80002196D087C783EC01C750DA4FB881B0FDE8
:101D90000FC0078110850333110550F41086178298
:101DA000B881B260B883B881BB7FB883B3E0B68333
:101DB000FC01E651FA4FC781D085CB34D10508F438
:101DC000FCCE10861782EC01C750DA4FB881B260A2
:101DD000B883B881B460B8834683EFCEC781D0851D
:101DE0002196D087C783EC01C750DA4FB881B0FD88
:101DF0000FC0078110850333110550F41086178238
:101E0000B881B260B883B881BB7FB883B3E0B683D2
:101E1000FC01E651FA4FC781D085E39708F4C6CE9E
:101E200010861782EC01C750DA4FB881B260B883D0
:101E3000B881B460B883EC01CD50DA4FB881B1FD00
:101E40001CC0B1E0B683B2CEDC01AD50BA4FFC91FC
:101E5000F0FF16C0F881F260F883FC91F1FF3BC0FF
:101E6000B8E0FC01E651FA4FB68312C0FC01E7501E
:101E7000FA4FE081E3FDDBCEE2CEBAE0B68396CE48
:101E8000EC91E2FF1CC0B6E0FC01E651FA4FB683CC
:101E9000FC01E750FA4FB081B061B083EC01C6514C
:101EA000DA4FBE85BB2309F4CACECE85D0E0CD5132
:101EB000DA4FB1E0B883B081B860B083C0CEEC91A6
:101EC000E3FD0EC0EC91E4FF11C0B4E0FC01E6516B
:101ED000FA4FB683DDCFEC01C651DA4FEE83D8CF8F
:101EE000B7E0FC01E651FA4FB683D2CFEC91E5FFA3
:101EF000CFCFB5E0FC01E651FA4FB683E881E0624E
:101F0000E883C6CF0E942B0D0C949F0D8091F9059C
:101F100080FD19C08091090680FD15C080911906C9
:101F200080FD11C08091290680FD0DC08091390689
:101F300080FD09C08091490680FD05C08091590649
:101F400080958170089580E00895E9EFF5E0808143
:101F50008D7F8083E9E0F6E080818D7F8083E9E1F9
:101F6000F6E080818D7F8083E9E2F6E080818D7FDD
:101F70008083E9E3F6E080818D7F8083E9E4F6E009
:101F800080818D7F8083E9E5F6E080818D7F80838D
:101F900008958091F90584FD1BC08091090684FD98
:101FA00017C08091190684FD13C08091290684FD15
:101FB0000FC08091390684FD0BC08091490684FDD5
:101FC00007C0909159069295917081E0891B089500
:101FD00080E0089590936A06809369060895CF93F0
:101FE000DF93CDB7DEB72A970FB6F894DEBF0FBEEA
:101FF000CDBF909185068091830680FD2CC0191677
:102000000CF461C08091870618160CF45CC08091B6
:10201000890618160CF457C020918006822F022ED4
:10202000000C990BA22FAA0FBB0BAC57B94F3C91D8
:10203000311134C0880F991FFC01E058F94F858198
:1020400018160CF45AC02F5F2093800623304CF1F1
:102050001092800626C021E091112FC08091870642
:102060008111DACF809189068111D6CF2130A1F676
:102070000E94ED0A809183068E7F8093830688E01C
:10208000EEE6F6E0A2E2B7E001900D928A95E1F764
:10209000F89488E181BD88E081BDFFCF313009F43B
:1020A00059C08091830681702A960FB6F894DEBFDE
:1020B0000FBECDBFDF91CF91089520E080918706BC
:1020C0008111AACFCFCF8091830681608093830650
:1020D00086E990E00E94E40A0E94000B60E08AE238
:1020E00097E00E946E0788E0E2E2F7E0AEE6B6E035
:1020F00001900D928A95E1F78FCF0E94EC1644E093
:1021000050E065EB74E0CE0101960E94E52644E0C4
:1021100060E0CE0101960E94A81680918006882377
:10212000A9F18130E1F1823009F442C044E064E079
:10213000CE0101960E94A816E0918006EE0FFF0BDB
:10214000EC57F94F80818F5F808310928206109246
:102150008106A7CF880F991FFC01E058F94F8581B0
:10216000811102C01C929DCF80919D0780FF99CF65
:1021700080918106909182060196883E33E0930714
:1021800000F590938206809381068BCF44E050E067
:1021900061EB74E0CE0101960E94E526C7CF44E0D2
:1021A00050E06DEA74E0CE0101960E94E526BECFB4
:1021B00044E050E069EA74E0CE0101960E94E52611
:1021C000B5CF10928206109281061C923CCF90935C
:1021D0008B0680938A060895E0918A06F0918B061B
:1021E000118210828170826094819C7F892B84830C
:1021F0000895E0918A06F0918B0680819181019685
:1022000091838083228133818217930750F011825A
:1022100010829481892F8095817082609C7F892BA8
:102220008483089597B1907E8F71982B97B9089504
:1022300027B12F7330E4839FC0011124822B87B90B
:10224000089596B1987F892B86B90895379A089595
:1022500037980895369A089536980895811102C0E6
:102260003D9808953D9A089585B1089584B10895E3
:10227000359A08953598089520B72F7030E2839FDE
:10228000C0011124822B80BF089597B19F7320E471
:10229000629FB0011124692B67B996B1987F492BD1
:1022A00046B98F3F59F0359A20B72F7030E2839F9F
:1022B000C0011124822B80BF379A08953598379A30
:1022C000089597B1907E8F71982B97B9369A08959B
:1022D00097B1907E8F71982B97B9369A349BFECF29
:1022E000349A0895359919C097B1907E8F71892BD2
:1022F00087B9369A349BFECF349A24B13D9B14C0E3
:1023000085B190E0880F991F880F991F2295269517
:1023100026952370820F911D0895349A349BFECF29
:10232000349A24B13D99ECCF85B190E0982F88275D
:10233000820F911D0895AF92BF92CF92DF92EF92DC
:10234000FF920F931F93CF93DF9300D000D000D064
:10235000CDB7DEB75B018C0120E030E048EC52E401
:102360006983BA828B831C8369817A818B819C818A
:102370000E948E242FEA30ED4FEA5EE369837A8370
:102380008B839C8369817A818B819C810E9400254B
:1023900069837A838B839C8369817A818B819C8119
:1023A0000E9472256D837E838D819E818F3F910572
:1023B0000CF497C0AEEFB0E0BE83AD83ED81FE813B
:1023C000EE0FFF1FEE0FFF1FEF55FF4FC080D180B4
:1023D000E280F3808D819E81092E000CAA0BBB0B3D
:1023E00089839A83AB83BC83BC01CD010E94AA255B
:1023F0002FEA30ED4FEA5EE369837A838B839C8317
:1024000069817A818B819C810E945F2620E030E087
:1024100048EC52E469837A838B839C8369817A8157
:102420008B819C810E948F249B01AC01A982BA827E
:102430000B831C8369817A818B819C810E948E240D
:102440005B018C01AD81BE81AA0FBB1FAA0FBB1F10
:10245000AB55BF4FA70196016D917D918D919C91D8
:102460000E948E249B01AC01A982BA820B831C833B
:1024700069817A818B819C810E945F262FEA30EDF1
:102480004FEA5EE369837A838B839C8369817A81D7
:102490008B819C810E940025A701960169837A8324
:1024A0008B839C8369817A818B819C810E948F249C
:1024B00069837A838B839C8369817A818B819C81F8
:1024C0000F900F900F900F900F900F90DF91CF9182
:1024D0001F910F91FF90EF90DF90CF90BF90AF9042
:1024E000089597FF6BCF1E821D8268CF0F931F93B5
:1024F000CF93DF938C01EB0144E060E0CE010E94BA
:1025000099160F3F100709F1083E83E0180774F091
:102510008BE188838BE0898389E38A83CE010296ED
:10252000DF91CF911F910F910C945E1643E0BE0195
:10253000C8010E94F41680EF8B83CE010296DF91D2
:10254000CF911F910F910C945E1687E1888389E1EA
:102550008983CE010296DF91CF911F910F910C9448
:102560005E164F925F926F927F92AF92BF92CF9220
:10257000DF92EF92FF920F931F93CF93DF93CDB72C
:10258000DEB728970FB6F894DEBF0FBECDBF8C0123
:102590009E012F5F3F4F4CE350E060EA76E08FE80A
:1025A00096E00E947902811115C028960FB6F89422
:1025B000DEBF0FBECDBFDF91CF911F910F91FF9076
:1025C000EF90DF90CF90BF90AF907F906F905F9033
:1025D0004F90089589819A81AB81BC818D839E83C0
:1025E000AF83B88720E030E0A901BC01CD010E9493
:1025F0005A2618160CF0E4C021EA36E648EC5DE3F2
:102600006D817E818F8198850E945F2620E030E079
:1026100048EC52E46D837E838F8398876D817E8141
:102620008F8198850E948F2421E230EB42E85FE39E
:102630006D837E838F8398876D817E818F8198855E
:102640000E945F265B016C0120E030E048EC52E420
:102650006D83BE828F83D8866D817E818F819885C0
:102660000E948E242FEA30ED4FEA5EE36D837E8375
:102670008F8398876D817E818F8198850E94002548
:102680006D837E838F8398876D817E818F8198850E
:102690000E9472257B019FEFE916F1040CF089C0BE
:1026A000F7FC8BC0F701EE0FFF1FEE0FFF1FEF557A
:1026B000FF4F4080518062807380C7010F2C000C57
:1026C000AA0BBB0B8D839E83AF83B887BC01CD0162
:1026D0000E94AA252FEA30ED4FEA5EE36D837E83E8
:1026E0008F8398876D817E818F8198850E945F2678
:1026F00020E030E048EC52E46D837E838F8398873E
:102700006D817E818F8198850E948F249B01AC0111
:10271000AD82BE82CF82D8866D817E818F81988581
:102720000E948E245B016C01F701EE0FFF1FEE0F7C
:10273000FF1FEB55FF4FA3019201608171818281E0
:1027400093810E948E249B01AC01AD82BE82CF8218
:10275000D8866D817E818F8198850E945F262FEAC1
:1027600030ED4FEA5EE36D837E838F8398876D81C2
:102770007E818F8198850E940025A30192016D833F
:102780007E838F8398876D817E818F8198850E945B
:102790008F246D837E838F8398876D817E818F8167
:1027A00098850E947225CB01D8018D939C9381E07E
:1027B000FCCE2EEFE22EF12C75CFE12CF12C72CF56
:1027C00080E090E0F1CF8F929F92AF92BF92CF9234
:1027D000DF92EF92FF920F931F93CF93DF93CDB7CA
:1027E000DEB728970FB6F894DEBF0FBECDBF80913D
:1027F0008C06811137C044B185B120915F073091BB
:102800006007F901EE0FFF1FE056F94F90E0982F97
:102810008827840F911D918380832F5F3F4F2C3336
:102820003105C0F43093600720935F0780E028965D
:102830000FB6F894DEBF0FBECDBFDF91CF911F91D1
:102840000F91FF90EF90DF90CF90BF90AF909F904F
:102850008F9008951092600710925F0781E0809337
:102860008C06E4CF9E012F5F3F4F4CE350E060EABF
:1028700076E08FE896E00E9479028823B9F22981F8
:102880003A814B815C812D833E834F83588720E0C2
:1028900030E0A9016D817E818F8198850E945A2642
:1028A00018160CF01FC121EA36E648EC5DE36D8195
:1028B0007E818F8198850E945F2620E030E048EC81
:1028C00052E46D837E838F8398876D817E818F81B3
:1028D00098850E948F2421E230EB42E85FE36D830C
:1028E0007E838F8398876D817E818F8198850E94FA
:1028F0005F266B017C0120E030E048EC52E46D8300
:10290000DE828F83F8866D817E818F8198850E941B
:102910008E242FEA30ED4FEA5EE36D837E838F8352
:1029200098876D817E818F8198850E9400256D83B7
:102930007E838F8398876D817E818F8198850E94A9
:1029400072258B016F3F71050CF0C6C077FDC7C0C3
:10295000F801EE0FFF1FEE0FFF1FEF55FF4F8080B6
:102960009180A280B380C801012E000CAA0BBB0B82
:102970008D839E83AF83B887BC01CD010E94AA25B9
:102980002FEA30ED4FEA5EE36D837E838F83988775
:102990006D817E818F8198850E945F2620E030E0E6
:1029A00048EC52E46D837E838F8398876D817E81AE
:1029B0008F8198850E948F249B01AC01CD82DE829D
:1029C000EF82F8866D817E818F8198850E948E24AA
:1029D0006B017C01F801EE0FFF1FEE0FFF1FEB559F
:1029E000FF4FA501940160817181828193810E94D2
:1029F0008E249B01AC01CD82DE82EF82F8866D8150
:102A00007E818F8198850E945F262FEA30ED4FEA04
:102A10005EE36D837E838F8398876D817E818F8156
:102A200098850E940025A50194016D837E838F8384
:102A300098876D817E818F8198850E948F246D8318
:102A40007E838F8398876D817E818F8198850E9498
:102A50007225CB0190938E0680938D062091E2071C
:102A600020FD36C09C01990F440B550B2D833E83EE
:102A70004F835887CA01B9010E94AA2526E636E687
:102A800046EE5FE36D837E838F8398876D817E81C1
:102A90008F8198850E945F2620E030E040E052E47C
:102AA0006D837E838F8398876D817E818F819885EA
:102AB0000E948F246D837E838F8398876D817E81B2
:102AC0008F8198850E94722570938E0660938D0683
:102AD00010928C0681E0ABCE0EEF10E039CF00E013
:102AE00010E036CF80E090E0B5CF87B3806B87BB36
:102AF00087E18DB908958FB9779BFECF8FB1089587
:102B0000CF93DF9300D000D0CDB7DEB7979825E004
:102B10002A95F1F7000080E00E947B15898380E010
:102B20000E947B153AE13A95F1F700C0979A82FD31
:102B30003EC04981942F9695879596958795969551
:102B400087959C0140E050E029833A834B835C8366
:102B5000CA01B9010E94A82520E030EF4FE754E4F4
:102B600069837A838B839C8369817A818B819C8141
:102B70000E945F2620E030EF4FE755E469837A83B7
:102B80008B839C8369817A818B819C810E94002543
:102B900069837A838B839C8369817A818B819C8111
:102BA0000F900F900F900F90DF91CF91089560E0FC
:102BB00070E080E89FEBECCFCF93DF93979885E0B0
:102BC0008A95F1F70000C6B3C5FBCC27C0F9C195C3
:102BD0006E9A8C2F0E947B15D82F8C2F0E947B150C
:102BE0009AE19A95F1F700C06E98979A282F30E0F5
:102BF00082FD0BC0C9019D2B96958795969587956B
:102C000096958795DF91CF9108958FEF9FEFFACF3B
:102C1000809321077093200760931F0750931E072E
:102C200040931D0730931C0720931B070895809144
:102C30001A07815087FF03C080912107815024E04B
:102C40008202C0011124E0911B07F0911C07E80FDC
:102C5000F91F0190F081E02D099580911A07082E47
:102C6000000C990BA0911F07B0912007E0911D0760
:102C7000F0911E07E80FF91F20812C93880F991FF0
:102C8000880F991FE0911B07F0911C07E80FF91FAF
:102C90000280F381E02D099580911A078F5F809360
:102CA0001A07082E000C990B2091210730E082179B
:102CB000930709F0089510921A070895FC014081C6
:102CC000242F30E0C9019595879595958795847057
:102CD000220F331F220F331F2071822B4B7E842B38
:102CE00080830895E2E2F7E04281242F30E0C901B9
:102CF00095958795959587958470220F331F220FA0
:102D0000331F2071822B4B7E842B82834681242F9C
:102D100030E0C90195958795959587958470220F28
:102D2000331F220F331F2071822B4B7E842B86830F
:102D300008959C0114165CF4460F862F6F5FF9010D
:102D4000E80FF11D87FDFA9510826413F6CF089500
:102D500014166CF4DC01460FE62F6F5F8D910E2E7A
:102D6000000CFF0BEE5DF84F80836413F5CF0895E0
:102D7000FC01862F062E000C990B161664F5209187
:102D8000220720838130910531F12091230721838F
:102D90008230910501F1209124072283833091052F
:102DA000D1F020912507238384309105A1F0209153
:102DB000260724838530910571F02091270725830C
:102DC0008630910541F0209128072683079719F056
:102DD0008091290787830895E2E2F7E088E0DF0128
:102DE0001D928A95E9F70895CF92DF92EF92FF92B4
:102DF0000F931F93CF93DF93CDB7DEB72A970FB60C
:102E0000F894DEBF0FBECDBF7C018B01C42E042E13
:102E1000000CDD08141634F4A60160E070E0C8016F
:102E20000E94DE26BE016F5F7F4FC7010E944900EE
:102E30009C01C81AD90A181619060CF091C0C601CF
:102E40000196E981F0E0E353FB4F6081F801EC0D5E
:102E5000FD1D60832130310509F482C0B6016E5F2B
:102E60007F4F800F911FEA81F0E0E353FB4FE08139
:102E7000DC01EC932230310509F472C0C6010396DF
:102E8000600F711FEB81F0E0E353FB4FE081DB014A
:102E9000EC932330310509F463C0B6016C5F7F4FBA
:102EA000800F911FEC81F0E0E353FB4FE081DC01E8
:102EB000EC932430310509F453C0C6010596600F28
:102EC000711FED81F0E0E353FB4FE081DB01EC93F8
:102ED0002530310509F444C0B6016A5F7F4F800F89
:102EE000911FEE81F0E0E353FB4FE081DC01EC93B6
:102EF00026303105A9F1C6010796600F711FEF81D9
:102F0000F0E0E353FB4FE081DB01EC932730310528
:102F100039F1B601685F7F4F800F911FE885F0E0BF
:102F2000E353FB4FE081DC01EC9328303105C1F025
:102F3000A601475F5F4F600F711FE985F0E0E35323
:102F4000FB4F8081FB0180832930310549F0F80176
:102F5000E40FF51FAA85B0E0A353BB4F8C9180838B
:102F60002A960FB6F894DEBF0FBECDBFDF91CF918A
:102F70001F910F91FF90EF90DF90CF900895DF9217
:102F8000EF92FF920F931F93CF93DF93CDB7DEB7EE
:102F90002A970FB6F894DEBF0FBECDBFD82E092FEB
:102FA0007B01142F141634F450E06BEE70E0C7016F
:102FB0000E94DE26BE016F5F7F4F8D2D902F0E94F5
:102FC00049009C01412F110F550B481B590B181636
:102FD00019060CF090C0CA010196E981F0E0E353B4
:102FE000FB4F6081F701E40FF51F6083213031054D
:102FF00009F481C0BA016E5F7F4F8E0D9F1DEA817B
:10300000F0E0E353FB4FE081DC01EC93223031052B
:1030100009F471C0CA0103966E0D7F1DEB81F0E0CB
:10302000E353FB4FE081DB01EC932330310509F4DE
:1030300062C0BA016C5F7F4F8E0D9F1DEC81F0E086
:10304000E353FB4FE081DC01EC932430310509F4BC
:1030500052C0CA0105966E0D7F1DED81F0E0E3536D
:10306000FB4FE081DB01EC932530310509F443C0CF
:10307000BA016A5F7F4F8E0D9F1DEE81F0E0E35332
:10308000FB4FE081DC01EC9326303105A1F1CA0150
:1030900007966E0D7F1DEF81F0E0E353FB4FE0815B
:1030A000DB01EC932730310531F1BA01685F7F4FC6
:1030B0008E0D9F1DE885F0E0E353FB4FE081DC01BE
:1030C000EC9328303105B9F0475F5F4F6E0D7F1DDF
:1030D000E985F0E0E353FB4F8081FB0180832930D9
:1030E000310549F0F701E40FF51FAA85B0E0A353BD
:1030F000BB4F8C9180832A960FB6F894DEBF0FBE2B
:10310000CDBFDF91CF911F910F91FF90EF90DF9096
:103110000895FC018081846080830895FC01808192
:103120008B7F8083089595980895959A0895929835
:103130000895929A089593980895939A089594986B
:103140000895949A0895DF980895DF9A0895DE9877
:103150000895DE9A0895DD980895DD9A0895DC9823
:103160000895DC9A0895CF93DF9320E630E042E2A1
:1031700057E065E370E088E00E940816C0E6D0E002
:10318000E881F9810995249680E0C038D807C1F715
:103190008D9A8A9A8B9A8C9AD79AD69AD59AD49ADB
:1031A00084B38FEF84BBDF91CF910895EAE2F7E01B
:1031B00024E630E030A727A38AE090E0918B808B53
:1031C000358724871786168625E030E032A721A7A9
:1031D00022E330E034A723A745E555E565E57FE325
:1031E000428B538B648B758B4DEC5CEC6CEC7DE30C
:1031F000468B578B608F718F128E138E148E158EA7
:10320000138612869187808788E390E096A785A72A
:1032100082E087A708958091DC079091DD072091D7
:10322000180730911907821B930B21E030E086309C
:10323000910514F02AE030E03093330720933207F1
:1032400008950F931F93CF93DF9300D000D000D049
:10325000CDB7DEB78C0186E0EAE8F0E0DE0111963A
:1032600001900D928A95E1F72981216029833A81A5
:103270004B815C816D817E81F80181810E94D40B3C
:1032800029813A814B815C816D817E81F801808149
:103290000E94D40B29812E7D206229833A814B81A3
:1032A0005C816D817E81F80184810E94D40B29812B
:1032B0002C7D236029838AE0382F8A831B8282E059
:1032C000582F8C831D821E8240E060E070E0F80180
:1032D00082810E94D40B29813A814B815C816D816E
:1032E0007E81F80183810F900F900F900F900F90C7
:1032F0000F90DF91CF911F910F910C94D40B86E624
:1033000097E00E94211980E897E00C94211989E345
:10331000EBEDF4E0A2E6B7E001900D928A95E1F7BB
:10332000E2E6F7E081E0868382E0878393E090879E
:1033300086E0868F84E080A325E021A392A3828F7C
:1033400008950E943A110E94281182E00E941211F1
:103350000E94261187E00E94211181E00E9418112D
:103360000E94381180E00E943C110C942A110E94A6
:103370003A110E94281180E00E9412110E94261129
:1033800087E00E94211183E00E9418110E943811E9
:1033900080E00E943C110C942A11CDB7DEB76297F1
:1033A0000FB6F894DEBF0FBECDBF0E94B31846E043
:1033B00050E064E070E08CED97E00E94FD260E94F2
:1033C0008719919A909AC39A969AD99AC09ADB9A39
:1033D0008FE99FE00197F1F700C000000E94F70B12
:1033E0000E94F006C298BA9AC19AB998BD9A65E04F
:1033F00088E390E00E94DE0A8BE490E00E94E40AF9
:1034000012BE8BE083BF89EF8CBF89B7826089BF12
:1034100078940E94D6180E94EC1644E050E065EAC9
:1034200074E0CE0101960E94E52644E060E0CE0102
:1034300001960E94A81644E050E061EA74E0CE01D3
:1034400001960E94E52644E064E0CE0101960E94C8
:10345000A816712CC12CD12C00E010E0A12CB12CAD
:10346000E12CF12C809015059090160540901405E4
:1034700082E0582E662463942DC020919C0726FF7D
:1034800022C0772061F091FFD9C00E94E31381111F
:10349000EEC090919D0777247394892F817096B325
:1034A0009695917090938906882341F08FEFE81AE2
:1034B000F80A94E1E916F10409F4B7C080919C0779
:1034C0008570853091F10E94270B80919D078E7F3A
:1034D00080939D0780919E0780FF0AC080919E0780
:1034E0008E7F80939E0780919D07816080939D07CA
:1034F00090919D07892F8170882309F4BECF0E9487
:10350000171680919C0790919D0786FD56C090FFED
:10351000DACF0F5F1F4F083B9BE01907A4F28064CE
:1035200080939C0700E010E0CECF0E94EF0F811146
:10353000CACF90919B07992309F4F0C08091970717
:10354000913009F435C1923009F439C1823008F460
:10355000FFC0823009F406C1833009F40DC18091A7
:10356000960782FDD8C06091DC077091DD078091DD
:10357000180790911907681B790B91E080E066307D
:10358000710514F09AE080E090933207809333073E
:103590008AE297E00E94C60980919D0780FF93CF41
:1035A0002FEFA21AB20A84E1A816B10409F08BCF5A
:1035B0000E94820FA12CB12C86CF711064CF892F6D
:1035C0008170882309F46BCF2FEFC21AD20A26E943
:1035D000C216D10408F463CF91FB882780F98625B1
:1035E00080FB91F990939D0791FF33C00E943A119F
:1035F0000E94281182E00E9412110E94261187E089
:103600000E94211181E00E9418110E94381180E06F
:103610000E943C110E942A1190919D077724739477
:10362000C12CD12C892F81703ACF0E940E07809136
:10363000D60583FD39C0E12CF12C40CF0E94EB016F
:10364000772473948111712C90919D07892F81703B
:1036500026CF0E943A110E94281180E00E94121188
:103660000E94261187E00E94211183E0CCCF809137
:103670009C07826080939C071092850620918D069E
:1036800030918E0690919D0740911807509119072F
:103690004217530709F48FC0309319072093180776
:1036A000712C892F8170FBCE877F8093D605809106
:1036B0009C07846080939C078BE490E00E94E40A5E
:1036C0000E94E90A0E94EC168091D60581FDA6C0F1
:1036D0006091DC077091DD078091180790911907C0
:1036E000681B790B81E090E06630710514F08AE088
:1036F00090E090933307809332078AE297E00E942C
:103700009B078AE297E00E94820780919C07816074
:1037100080939C0790CF0E94462225CF86E697E0B3
:103720000E94211980E897E00E94211944E060E09E
:1037300089EB94E00E94A81680919607816080939F
:1037400096071092970780919B078F5F80939B0746
:1037500083E00E94E50C81118CC080919707823034
:1037600009F0FACE0E947E22813009F49CC080913B
:103770009707833009F0F3CE0E94D223813009F0FD
:10378000EECE9091960790FFBCC01092970786E608
:1037900097E00E94211980E897E00E9421190E9479
:1037A000EC1644E060E089EB94E00E94A816D7CEC6
:1037B00050929B07CBCE712C892F817070CE8111D6
:1037C000C5CE809118079091190797FDC1CF88EE5B
:1037D00093E00E94E40A0E94E90A809196078E7F96
:1037E0008093960781E08093970786E697E00E9492
:1037F000211910926B0780E897E00E94211910921E
:1038000085078091960784608093960780919B0737
:103810008F5F80939B078091970798CE80919C073C
:103820008E7F80939C0744E064E089EC94E00E94E2
:10383000A81660E08AE297E00E946E070E9487194E
:1038400090929C0780929B078AE0E6E7F6E0A0E86A
:10385000B6E001900D928A95E1F70E94ED0A8AE0A8
:10386000E0E8F0E0AAE1B5E001900D928A95E1F779
:10387000E2CE83E00E94F90C83E00E94DA0C8130F2
:1038800009F454C083E08093970740929A0788EE2A
:1038900093E00E94E40A0E94E90A68E0CE010B96D8
:1038A0000E94B8165ACF9091960790FF15C01092BB
:1038B000970786E697E00E94211980E897E00E942A
:1038C00021190E94EC1644E060E089EB94E00E942C
:1038D000A8168091970740CE8093970786E697E0D9
:1038E0000E94211910926B0780E897E00E9421192D
:1038F0001092850748E060E0CE010B960E94A81662
:1039000036CF8093970786E697E00E9421191092A0
:103910006B0780E897E00E9421191092850748E024
:1039200060E0CE010B960E94A81619CE82E080932B
:1039300097074092980788EE93E00E94E40A0E945D
:10394000E90A42E050E060E070E089EA97E00E9416
:103950000D2742E050E062E070E083EC97E00E94C7
:103960000D279BCF8F938FB78F9380919E07816098
:1039700080939E078F918FBF8F911895EF92FF9242
:103980000F931F93CF93DF9300D0CDB7DEB77C01A9
:103990008B01FC01808142E0BE016F5F7F4F082EEA
:1039A000000C990B0E94F4168A819981F80190838A
:1039B0008183F701818142E0BE016F5F7F4F082E56
:1039C000000C990B0E94BF177801F2E0EF0EF11C7A
:1039D0008A819981F80192838383C80101960E94AC
:1039E0008918C7010E948918C7010E945E160F90AE
:1039F0000F90DF91CF911F910F91FF90EF9008955D
:103A00001F93CF93DF93CDB7DEB72A970FB6F89405
:103A1000DEBF0FBECDBFDC01FB0149875A874C9149
:103A20003CE34303A001112411962C91420F511D38
:103A300027FD5A9520812303C00111242181820F83
:103A4000911D27FD9A95A985BA852C912303900194
:103A5000112411966C91260F311D67FD3A95821B3A
:103A6000930B481B590B10E060E0141615067CF50B
:103A7000CA01550FAA0BBB0B8D839E83AF83B887FA
:103A8000BC01CD010E94AA2520E030E040E752E4CD
:103A900069837A838B839C8369817A818B819C8102
:103AA0000E94002569837A838B839C8369817A8154
:103AB0008B819C810E947225162F6D817E818F8162
:103AC00098852CE330E040E050E00E944D24A98529
:103AD000BA851C9311966C932A960FB6F894DEBFA4
:103AE0000FBECDBFDF91CF911F9108957F928F922E
:103AF0009F92AF92BF92CF92DF92EF92FF920F937D
:103B00001F93CF93DF93CDB7DEB766970FB6F894C8
:103B1000DEBF0FBECDBF02E617E080E0A82E80E03A
:103B2000B82E9FE9C92E97E0D92EE12CF12C20E97F
:103B3000822E992493943AE1732ED80156969C9242
:103B40008E92559742E050E0B501C8010A960E9456
:103B5000FD26F80182859385D6011B969C938E9352
:103B60001A97158614867E9CF0017F9CF00D112417
:103B7000DF01A059B84F8C9182608C93D8011396C5
:103B80001C921397EC59F84F80818160808380915B
:103B90009707813049F1C80104960E942119F80164
:103BA0001186EA94EF2861F0065E1F4F82E0A80EAE
:103BB000B11CAAE1CA0ED11CEE24E394F12CBDCFB6
:103BC00066960FB6F894DEBF0FBECDBFDF91CF91E2
:103BD0001F910F91FF90EF90DF90CF90BF90AF902B
:103BE0009F908F907F9008951A968C9142E0BE012D
:103BF0006B5E7F4F082E000C990B0E94F4168E8985
:103C00009D8999838A83F801838542E0BE016B5EBA
:103C10007F4F082E000C990B0E94BF178E899D893B
:103C20009B838C83CE0102960E948918CE01039655
:103C30000E948918CE0103960E945E1644E0D801C6
:103C40006C91CE0101960E94A816A5CF5F926F924B
:103C50007F928F929F92AF92BF92CF92DF92EF921C
:103C6000FF920F931F93CF93DF93CDB7DEB76E977D
:103C70000FB6F894DEBF0FBECDBF02E617E089EAAB
:103C8000C82E87E0D82E90E0A92E90E0B92EE12C26
:103C9000F12C2AE1522EC80143960E94E710D80168
:103CA00016968C910E94E50C882361F05E9CF001D1
:103CB0005F9CF00D1124E059F84F808182FD02C015
:103CC00080FF98C1F80187810E94E50C882361F08C
:103CD0005E9CF0015F9CF00D1124E059F84F80814B
:103CE00082FD02C080FF61C1D80116968C910E94AE
:103CF000F90CF80187810E94F90CD80119968C9172
:103D00001997882309F471C0813009F424C15E9C9D
:103D1000C0015F9C900D1124FC01ED58F84F2081EB
:103D200020FD2EC05E9CF0015F9CF00D1124EC582C
:103D3000F84F808181FDDAC0065E1F4FFAE1CF0E99
:103D4000D11C22E0A20EB11CEF2821F4EE24E39452
:103D5000F12CA1CF6E960FB6F894DEBF0FBECDBF8B
:103D6000DF91CF911F910F91FF90EF90DF90CF9057
:103D7000BF90AF909F908F907F906F905F900895CD
:103D8000FC01E758F84F808181FF07C08D7F808359
:103D900090919707913009F457C180919D0780FF5A
:103DA000C1CFD8011F968D919C910196883BBBE0B5
:103DB0009B070CF4F6C0D80150961C921E921F97D8
:103DC0008AE18E9D90018F9D300D1124F901EC58F0
:103DD000F84F8081826080832059384FD9019C91AF
:103DE00090FD29C08E7F80839DCF14968C910E9478
:103DF000E50C882309F48BCFF80184810E94F90C2B
:103E000088EE93E00E94E40A0E94E90A8AE18E9D0E
:103E100040018F9D900C1124F401EC58F84F8081E3
:103E200080FD22C181608083F401E059F84F8081D8
:103E3000816080836CCFF60140812CE34203A001B6
:103E400011243181430F511D37FD5A95D5016C91D5
:103E50006203B001112411963C91630F711D37FD6F
:103E60007A95F80132853203C00111242385820F2F
:103E7000911D27FD9A95681B790B461B570B14164D
:103E800015060CF08FC1CA01550FAA0BBB0B8B8F07
:103E90009C8FAD8FBE8FBC01CD010E94AA2520E072
:103EA00030E040E752E46F8B788F898F9A8F6F896B
:103EB000788D898D9A8D0E9400256F8B788F898FE0
:103EC0009A8F6F89788D898D9A8D0E947225D8017D
:103ED0001A966C936B8D7C8D8D8D9E8D2CE330E0CE
:103EE00040E050E00E944D24F80163878AE18E9DF6
:103EF00040018F9D900C1124F401EC58F84F808103
:103F00008D7F808342E050E0B501C6010E940D27FD
:103F1000D6018D919C91F80193878287F401ED5829
:103F2000F84F80818E7F8083D8011D961C921E924F
:103F30001C97F401E059F84F8081826080831396CA
:103F40001C921397F401EC59F84F808181608083B3
:103F500019961C92F1CE14968C910E94E50C882340
:103F600009F4D5CEF80184810E94F90C88EE93E023
:103F70000E94E40A0E94E90A8AE18E9DF0018F9D69
:103F8000F00D1124DF01AE59B84F52968C91529723
:103F9000836052968C93E059F84F808181608083D2
:103FA000B6CEF801908B8787BDCED80117968C913D
:103FB0000E94920D882309F4B4C08AE18E9DF0011D
:103FC0008F9DF00D1124DF01AC59B84F8C918E7F7D
:103FD0008C93ED58F84F80818160808381E0F801F7
:103FE00081878383108A17860E94EC10C6010E9485
:103FF000CA017ACEF80186810E94920D882309F4C5
:1040000097C08AE18E9DF0018F9DF00D1124DF0194
:10401000AC59B84F8C918E7F8C93ED58F84F8081BE
:104020008160808381E0D80119968C93199713964B
:104030008C93139750961C921E921F970E94EC101F
:10404000C6010E94AD013ECE80FD38C044E060E074
:10405000CE0101960E94991644E0D8016C91CE01E0
:1040600001960E94A81699CE8E7F8083C401805944
:10407000984F3C01DC018C918E7F8C9342E050E0A4
:10408000B501C8010A960E94FD26F801158614861E
:10409000D3018C9182608C931382F401EC59F84F18
:1040A0008081816080838C918B7F8C938091970736
:1040B000813009F444C00E94140B29CEF60180819E
:1040C00042E0BE016B5E7F4F082E000C990B0E94F0
:1040D000F4168E899D8999838A83D60111968C91D5
:1040E00042E0BE016B5E7F4F082E000C990B0E94D0
:1040F000BF178E899D899B838C83CE0102960E9477
:104100008918CE0103960E948918CE0103960E9459
:104110005E1644E0F8016081CE0101960E94A81667
:104120003CCE8BE490E00E94E40A0E94E90A45CF6D
:104130008BE490E00E94E40A0E94E90A62CFF80151
:10414000828542E0BE016B5E7F4F082E000C990B0A
:104150000E94F4168E899D8999838A83D8011B96C3
:104160008C9142E0BE016B5E7F4F082E000C990BD4
:104170000E94BF178E899D899B838C83CE010296F6
:104180000E948918CE0103960E948918CE010396D9
:104190000E945E1644E0F8016081CE0101960E9403
:1041A000A81689CF12861386A1CE9F92AF92BF9296
:1041B000CF92DF92EF92FF920F931F93CF93DF93F3
:1041C00002E617E0C0E0D0E08AE1982EC8014396ED
:1041D0000E94E7109C9E70019D9EF00C1124F70137
:1041E000E059F84F6F01808180FD15C0065E1F4FBA
:1041F000CD2B29F441E0C42F80E0D82FE7CFDF9109
:10420000CF911F910F91FF90EF90DF90CF90BF90D3
:10421000AF909F90089580919D0780FF0DC0F80199
:10422000848595859C012F5F3F4F873E934009F41D
:1042300058C0F801358724878AE18C9FF0018D9F53
:10424000F00D1124E059F84F808181FFCFCFF801A4
:10425000838581113AC0F8018285811136C08AE1D7
:104260008C9FF0018D9FF00D1124E059F84F908143
:104270009E7F90839C2F9F5F90FBAA24A0F8B12C77
:104280008A9DF0018B9DF00D1124DF01A059B84FDC
:104290008C9182FF3CC0EB58F84F87E0D8015396D1
:1042A00001900D928A95E1F78AE18C9FF0018D9F34
:1042B000F00D1124DF01AC59B84F8C918E7F8C9397
:1042C000E059F84F8081846080838AE18C9FF001FF
:1042D0008D9FF00D1124E059F84F80818D7F8083F0
:1042E00085CFF80115861486C8010A960E94AD0193
:1042F000F601808182608083F80183818111A7CFDC
:10430000F701EC59F84F808181608083A0CF81E074
:104310000E94EC10C9CFCF92DF92EF92FF920F93E1
:104320001F93CF93DF93CDB7DEB766970FB6F894A0
:10433000DEBF0FBECDBF02E617E0E12CF12CC801B5
:1043400043960E94E710F8018381811104C0809197
:1043500097078130A1F0065E1F4FEF2809F03FC09C
:10436000EE24E394F12CC80143960E94E710F80173
:1043700083818111F0CF80919707813061F72AE125
:104380002E9DC0012F9D900D11249C012C59384F5A
:104390006901F901808180FD31C02AE12E9DC001B3
:1043A0002F9D900D1124FC01E059F84F208122FF30
:1043B000D2CF8758984FFC01808180FD55C044E0E2
:1043C00060E0CE0101960E94991644E0F8016081F8
:1043D000CE0101960E94A8160E94040BBCCF6696DF
:1043E0000FB6F894DEBF0FBECDBFDF91CF911F9106
:1043F0000F91FF90EF90DF90CF900895F8018285A4
:1044000042E0BE016B5E7F4F082E000C990B0E94AC
:10441000F4168E899D8999838A83F801838542E009
:10442000BE016B5E7F4F082E000C990B0E94BF17D8
:104430008E899D899B838C83CE0102960E94891868
:10444000CE0103960E948918CE0103960E945E1643
:1044500044E0F8016081CE0101960E94A816F601A1
:1044600080818E7F808399CF44E050E065EC74E0DA
:10447000CE0101960E94E52644E0F8016081CE015C
:1044800001960E94A8160E94140B65CF809199078F
:10449000882319F180919707813051F10E94D5202E
:1044A00080919707813009F008950E948B218091B7
:1044B00097078130C9F785E797E00E94E710809160
:1044C0009D0780FD18C08FE897E00E94E71080915B
:1044D0009D0780FFE9CF0C94F9100E94761D809112
:1044E00099078F5F80939907809197078130B1F684
:1044F0000E94261ED3CF0E94F910E5CFEF92FF92C3
:104500000F931F93CF93DF93CDB7DEB72A970FB6E4
:10451000F894DEBF0FBECDBF83ED97E00E94E71099
:1045200080919807811181C086E0EAE8F0E0DE0121
:10453000119601900D928A95E1F7298121602983D6
:104540003A814B815C816D817E8180916A070E94F6
:10455000D40B29813A814B815C816D817E81809170
:1045600084070E94D40B809198078F5F80939807EF
:1045700080E991E09093D6078093D5078091DA0780
:104580009091DB07892B21F08091D70781FD18C01E
:1045900083E00E94E50C10E081112CC080919D0702
:1045A00080FD40C0812F2A960FB6F894DEBF0FBE63
:1045B000CDBFDF91CF911F910F91FF90EF900895A4
:1045C0008D7F8093D70780FF52C08E010F5F1F4FF2
:1045D000B8018091DC079091DD070E94761244E0DB
:1045E00064E0C8010E94A81683E00E94E50C10E078
:1045F0008823A1F283E00E94F90C809198078F5FD5
:10460000809398078330E1F1853009F4AFC010E062
:1046100080E590E00E94E40A0E94E90A80919D07EB
:1046200080FFC0CF0E94F910BDCF813081F1823070
:10463000D1F1833009F447C0843009F09FCF02E6FE
:1046400017E086E9E82E87E0F82EF80186810E94BF
:10465000E50C811168C0F80187810E94E50C811189
:104660003EC0065E1F4FE016F10679F787CF44E0A3
:1046700060E08E010F5F1F4FC8010E949916AFCFF7
:1046800081E090E09093DB078093DA07C0CF44E0AD
:1046900060E081EC94E00E94A816809198078F5FFB
:1046A000809398076BCFBE016F5F7F4F8091180793
:1046B000909119070E94761244E064E0CE010196C1
:1046C0000E94A8165BCF44E060E08DEB94E00E946E
:1046D000A816809198078F5F809398074FCFF801B5
:1046E00087810E94F90CF80187810E94920D88232E
:1046F00009F451C081E00E94EC108091DC07909198
:10470000DD0701969093DD078093DC072091E00799
:104710003091E107821793070CF4A3CF3093DD07A4
:104720002093DC079ECFF80186810E94F90CF801E6
:1047300086810E94920D882339F181E00E94EC105D
:104740008091DC079091DD0701979093DD078093BE
:10475000DC072091DE073091DF07281739070CF4BA
:104760007ACF3093DD072093DC0775CF46E050E029
:1047700064E070E08CED97E00E940D271092DB075B
:104780001092DA0711E044CF8BE490E00E94E40A33
:104790000E94E90AD2CF8BE490E00E94E40A0E94D2
:1047A000E90AA8CF1F93CF93DF93CDB7DEB72A973F
:1047B0000FB6F894DEBF0FBECDBF80919A0781116E
:1047C00035C086E0EAE8F0E0DE01119601900D9236
:1047D0008A95E1F72981216029833A814B815C81A7
:1047E0006D817E8180916A070E94D40B29813A8174
:1047F0004B815C816D817E81809184070E94D40B06
:1048000080919A078F5F80939A0710E083E00E945F
:10481000E50C811117C0812F2A960FB6F894DEBFE0
:104820000FBECDBFDF91CF911F9108958130C9F0A8
:10483000823019F111E0833041F783E00E94E50CEA
:10484000882349F383E00E94F90C80919A078F5FD7
:1048500080939A078BE490E00E94E40A0E94E90AA0
:10486000DACF44E060E081EC94E00E94A8168091E9
:104870009A078F5F80939A07C8CFBE016F5F7F4F03
:1048800080911807909119070E94761244E064E025
:10489000CE0101960E94A816B8CF052E97FB1EF4F4
:1048A00000940E94642457FD07D00E946C2407FCEA
:1048B00003D04EF40C946424509540953095219586
:1048C0003F4F4F4F5F4F089590958095709561953C
:1048D0007F4F8F4F9F4F0895A1E21A2EAA1BBB1B3B
:1048E000FD010DC0AA1FBB1FEE1FFF1FA217B307BC
:1048F000E407F50720F0A21BB30BE40BF50B661FD2
:10490000771F881F991F1A9469F760957095809595
:1049100090959B01AC01BD01CF0108955058BB2774
:10492000AA270E94A6240C9420260E94122638F062
:104930000E94192620F039F49F3F19F426F40C94B4
:104940000F260EF4E095E7FB0C940926E92F0E9450
:10495000312658F3BA17620773078407950720F0CA
:1049600079F4A6F50C9453260EF4E0950B2EBA2F8D
:10497000A02D0B01B90190010C01CA01A001112465
:10498000FF27591B99F0593F50F4503E68F11A1611
:10499000F040A22F232F342F4427585FF3CF4695A2
:1049A00037952795A795F0405395C9F77EF41F16C4
:1049B000BA0B620B730B840BBAF09150A1F0FF0F8E
:1049C000BB1F661F771F881FC2F70EC0BA0F621F7A
:1049D000731F841F48F4879577956795B795F7956A
:1049E0009E3F08F0B0CF9395880F08F09927EE0FFF
:1049F0009795879508950E94E52508F481E008952C
:104A00000E9414250C9420260E94192658F00E941A
:104A1000122640F029F45F3F29F00C940926511129
:104A20000C9454260C940F260E94312668F3992387
:104A3000B1F3552391F3951B550BBB27AA2762179A
:104A40007307840738F09F5F5F4F220F331F441FA7
:104A5000AA1FA9F335D00E2E3AF0E0E832D09150DB
:104A60005040E695001CCAF72BD0FE2F29D0660FC8
:104A7000771F881FBB1F261737074807AB07B0E80B
:104A800009F0BB0B802DBF01FF2793585F4F3AF011
:104A90009E3F510578F00C9409260C9454265F3FF4
:104AA000E4F3983ED4F3869577956795B795F79597
:104AB0009F5FC9F7880F911D9695879597F908957F
:104AC000E1E0660F771F881FBB1F6217730784071B
:104AD000BA0720F0621B730B840BBA0BEE1F88F72A
:104AE000E09508950E9479256894B1110C9454269C
:104AF00008950E94392688F09F5798F0B92F99277A
:104B0000B751B0F0E1F0660F771F881F991F1AF0B8
:104B1000BA95C9F714C0B13091F00E945326B1E0A4
:104B200008950C945326672F782F8827B85F39F0A3
:104B3000B93FCCF3869577956795B395D9F73EF451
:104B400090958095709561957F4F8F4F9F4F0895F9
:104B5000E89409C097FB3EF4909580957095619517
:104B60007F4F8F4F9F4F9923A9F0F92F96E9BB27CD
:104B70009395F695879577956795B795F111F8CF49
:104B8000FAF4BB0F11F460FF1BC06F5F7F4F8F4FB4
:104B90009F4F16C0882311F096E911C0772321F0AA
:104BA0009EE8872F762F05C0662371F096E8862F42
:104BB00070E060E02AF09A95660F771F881FDAF799
:104BC000880F9695879597F90895990F0008550FC6
:104BD000AA0BE0E8FEEF16161706E807F907C0F083
:104BE00012161306E407F50798F0621B730B840B8B
:104BF000950B39F40A2661F0232B242B252B21F465
:104C000008950A2609F4A140A6958FEF811D811D04
:104C1000089597F99F6780E870E060E008959FEF3E
:104C200080EC089500240A94161617061806090643
:104C3000089500240A941216130614060506089512
:104C4000092E0394000C11F4882352F0BB0F40F49A
:104C5000BF2B11F460FF04C06F5F7F4F8F4F9F4FDA
:104C6000089557FD9058440F551F59F05F3F71F05C
:104C70004795880F97FB991F61F09F3F79F08795C3
:104C80000895121613061406551FF2CF4695F1DF4C
:104C900008C0161617061806991FF1CF86957105DC
:104CA000610508940895E894BB2766277727CB0110
:104CB00097F908950E94E52508F48FEF08950E9462
:104CC00072260C9420260E94122638F00E94192683
:104CD00020F0952311F00C9409260C940F26112432
:104CE0000C9454260E94312670F3959FC1F3950FC2
:104CF00050E0551F629FF001729FBB27F00DB11D60
:104D0000639FAA27F00DB11DAA1F649F6627B00DEF
:104D1000A11D661F829F2227B00DA11D621F739FD8
:104D2000B00DA11D621F839FA00D611D221F749FE6
:104D30003327A00D611D231F849F600D211D822F2D
:104D4000762F6A2F11249F5750409AF0F1F0882354
:104D50004AF0EE0FFF1FBB1F661F771F881F915081
:104D60005040A9F79E3F510580F00C9409260C9401
:104D700054265F3FE4F3983ED4F386957795679584
:104D8000B795F795E7959F5FC1F7FE2B880F911DAB
:104D90009695879597F908956817790768F4FB0148
:104DA000DC01E40FF51FA40FB51F02C002900E92A4
:104DB00041505040D8F708950C94F426DC0101C00E
:104DC0006D9341505040E0F70895FB01DC014150E4
:104DD000504048F001900D920020C9F701C01D928B
:104DE00041505040E0F70895FB01DC0102C0019002
:104DF0000D9241505040D8F70895DC01CB01FC01E1
:104E0000E199FECF06C0FFBBEEBBE09A31960DB232
:104E10000D9241505040B8F70895DC01A40FB51F22
:104E20004150504048F0CB01840F951F2E910E94B5
:104E30001E2741505040D0F70895262FE199FECF0C
:104E40009FBB8EBBE09A01970DB2021631F02DBBCD
:104E50000FB6F894E29AE19A0FBE0895F894FFCF46
:104E600093189518971899189B189D189F18A118B2
:104E7000A318A518A718A918AB18AD18AF18B11822
:104E80000000000000000000000000000000000022
:104E90000000000000000000000000000000000012
:104EA0000073986EB777F3603F55FBE03F50C22820
:104EB00040910A614060AB8C4046D3A8400DFDC4D0
:104EC00040B728E1404356FD40D9C20C4181DB1A6E
:104ED00041F1F42841910F3741022B4541AE475330
:104EE00041C36461417B836F419CA27D417CE1852C
:104EF0004113F28C41120394417B149B418126A201
:104F0000412439A941FB4BB041705FB7414D73BE9D
:104F100041C887C541AC9CCC41F9B1D341E3C7DA64
:104F20004135DEE141F1F4E841150CF041D723F7BA
:104F300041363CFE4165AA0242FD360642CAC3091B
:104F400042E5500D4235DE1042D46B14428CF91705
:104F50004294871B42EA151F4274A422423333262F
:104F60004227C2294268512D42F9E03042A47034F0
:104F7000429D003842E5903B4262213F4213B242DB
:104F800042F84246422CD44942AF654D424CF7505C
:104F90004252895442711B5842E0AD5B4283405FEC
:104FA0004275D362429B66664210FA69429F8D6DDC
:104FB0004296217142A8B57442234A7842B8DE7BFA
:104FC000429C737F42678481420E4F8342E8198579
:104FD00042D0E48642DFAF8842167B8A4266468C26
:104FE00042D1118E4264DD8F4210A99142D7749351
:104FF00042D2409542DA0C974209D9984253A59A79
:1050000042C4719C424F3E9E42020BA042CFD7A1A8
:1050100042C3A4A342D171A542073FA742570CA99E
:1050200042C1D9AA4252A7AC420B75AE42D142B09E
:1050300042CB10B242E0DEB3420EADB542647BB764
:1050400042D549B9426C18BB421EE7BC42EAB5BE24
:1050500042EA84C042F853C2422D23C44289F2C5B9
:1050600042FFC1C7426891C9424861CB422731CD56
:10507000420601CF4268D1D04248A1D242AA71D49F
:10508000428F42D642F212D842D7E3D942BCB4DBB7
:1050900042A285DD428756DF42F027E14258F9E21D
:1050A00042C1CAE442AC9CE642986EE8428340EAC0
:1050B000426F12EC425AE4ED42C9B6EF423789F131
:1050C00042A65BF342982EF5428901F7427BD4F861
:1050D000426DA7FA42E17AFC42D34DFE42A4100091
:1050E00043A0FA00435AE4014356CE024352B803A8
:1050F000434EA204438B8C0543C9760643066107E1
:1051000043444B0843C335094342200A43C10A0BB9
:10511000433FF50B4300E00C43C1CA0D4381B50E7C
:105120004383A00F43448B104346761143486112DA
:10513000438B4C1343CF37144312231543560E169B
:10514000439AF916431FE51743A4D0184329BC1905
:1051500043F0A71A43B6931B437D7F1C43446B1D4A
:10516000434C571E4354431F435C2F2043641B2171
:1051700043AE072243F8F3224342E02343CDCC243D
:105180004317B92543A2A526436F922743FA7E28E9
:1051900043C76B294393582A4360452B436F322CF6
:1051A000437D1F2D438B0C2E439AF92E43E9E62FA6
:1051B0004339D4304389C13143D9AE32436A9C3339
:1051C00043FC8934438D7735436065364333533729
:1051D0004306413843D92E3943EE1C3A43020B3B78
:1051E0004317F93B432BE73C4381D53D43D7C33EAF
:1051F000432DB23F43C5A040435C8F4143F47D4201
:10520000438B6C4343645B4443FC49454317394635
:1052100043F02747430A174843250649433FF549CA
:10522000435AE44A43B6D34B4312C34C43B0B24D46
:10523000430CA24E43AA914F4348815043277151DA
:105240004306615243E5505343C5405443A430558F
:1052500043C5205643E51057434801584368F15869
:1052600043CBE159436FD25A43D1C25B4375B35C20
:105270004319A45D43BC945E43A2855F4387766077
:10528000436D6761435258624379496343A03A646E
:1052900043C72B65432F1D6643980E674300006884
:1052A000431582079BF3698279B72900003DF1829B
:1052B000293937071979110500F1116D007A792D17
:1052C00000EB8229009B1B0779EB716500EB82D90B
:1052D000DAB27A3BC2FBF2000000000000000000DE
:1052E00000000000000000000000000000000000BE
:1052F00000000000000000000000000000000000AE
:10530000000000000000000000000000000000009D
:08531000000000000000000095
:00000001FF
